:020000040800F2
:1000000000000220B518010831FB000833FB00088E
:1000100035FB000837FB000839FB00080000000032
:10002000000000000000000000000000F1CF000808
:100030003BFB00080000000091D000083DFB0008D9
:100040000519010805190108051901080519010814
:10005000051901080519010853FB000805190108D5
:10006000051901085DFB000867FB00080519010878
:1000700005190108051901080519010805190108E4
:1000800005190108051901080519010805190108D4
:1000900071FB0008051901080519010881FB00081A
:1000A00005190108051901080519010805190108B4
:1000B00005190108051901080519010805190108A4
:1000C0000519010805190108051901080519010894
:1000D0000519010805190108051901089D8B00087B
:1000E0000519010805190108051901080519010874
:1000F0000519010805190108051901080519010864
:100100000519010805190108051901080519010853
:100110000519010805190108051901080519010843
:10012000051901088DFB000865570008051901082D
:100130000519010805190108051901080519010823
:100140009DFB00080519010805190108051901089A
:1001500005190108ADFB0008BDFB000805190108E1
:1001600005190108051901080519010805190108F3
:10017000051901080519010805190108000000000A
:08018000051901080519010829
:1001C00010B5054C237833B9044B13B10448AFF391
:1001D00000800123237010BDBC040020000000003B
:1001E000642C010808B5034B1BB103490348AFF366
:1001F000008008BD00000000C0040020642C01083D
:10020000012100220223017042708370704700BFF9
:1002100070B138B5084D04464FF48362002128467A
:1002200011F0A0FB284600F063FF2560002038BDD8
:100230006FF0FD00704700BF308400202DE9F043CF
:1002400099B0209C002800F08E80002A00F08B805E
:10025000002B00F08880002C00F0858000251646D9
:100260008146142288460EA829461F46CDE9065528
:10027000CDE90855CDE90A55CDE90C5511F072FBD1
:100280002946142213A811F06DFB2946242220468A
:10029000364D11F067FB9FED364ADFED364A96ED9D
:1002A000005AD6ED015A96ED026AD7ED006A97ED35
:1002B000017AD7ED027A286825EE045A65EE845A51
:1002C00026EE046A66EEA46A27EE247A67EEA47A24
:1002D00000288DED065ACDED075A8DED086ACDED5B
:1002E0000A6A8DED0B7ACDED0C7A2BDC13AB029301
:1002F00004F1210204F120030EA9CDE90332CDE976
:1003000000810AAA06A9D9F80000C5F800800023D8
:10031000B7EE000A00F022FA1398DDF838C00F9FFC
:10032000109E119D1499159A169B2061C4F800C067
:100330006760A660E5606161A261E361002019B0B9
:10034000BDE8F08300F51C501030A8EB000011F060
:10035000DBFAB0F57A7FC9DD6FF00400C5F80080E4
:1003600019B0BDE8F0836FF0FD00E8E74888002091
:1003700098F7CB42FBAE6A4428B108B5006800F09C
:1003800005F8002008BD6FF0FD00704770B5044609
:10039000CA4BC4F8B43304F20C430121C84E84F8AC
:1003A000B8131E6004F58263C6481860C64AC74B7E
:1003B000C4F8B023C4F8C8334FF07E524FF07C53DA
:1003C000C4F8BC23C4F8CC33C14AE2654FF480635F
:1003D000A4F8D0334FF08E42BE4BBF4DBF482367C9
:1003E0006267BF4BC4F8C0530822BE4DC4F8C403B3
:1003F00084F87920BC48C4F890300622BB4B2566AF
:10040000E066BB4DBB48A4F89C20C4F8D830BA4A7B
:10041000BA4BA563C4F88C00B94DBA48C4F894200F
:10042000C4F89431B84AC4F898504FF42073B74DCB
:10043000C4F8B8006263B648B64AC4F88031A4F87C
:100440009C31B54BC4F88C51C4F89001B34EC4F83C
:100450009821B348B34DC4F8A8230A22C4F8441223
:10046000C4F8C422C4F8A40384B0AF49C4F84062FD
:10047000C4F8A05304F5477203F13C0001E053F8BF
:10048000041B42F8041B8342F9D1A849C4F808119F
:10049000A74BC4F80431282184F810111423092132
:1004A000C4F80C31C4F814111E2304F58061002235
:1004B000A4F812319F48C4F85C030023A371637150
:1004C00084F81434C4F8EC23C4F8F023C4F8F423FB
:1004D000C4F8F823C4F8FC230A6004F2044184F849
:1004E00008340A604FF07E51C4F8E4134FF4807171
:1004F0009148C4F8D433A4F8E8137E4E8F4DC4F865
:10050000D823C4F8DC23C4F8E0236262A262E2626A
:10051000A261E2612262E2602261626184F83230AB
:10052000A187A4F8F43084F8643084F878308449E2
:10053000C4F8AC000123C4F8B41084F83E30C4F809
:10054000A020C4F8A820C4F8BC20C4F8C020C4F877
:10055000C420C4F8C820C4F8CC20C4F8D020C4F803
:10056000D420C4F8DC20C4F8E020C4F8E420C4F8A7
:10057000E820C4F8EC20C4F8F0206264A264E264CD
:1005800022656265A265C4F82022C4F8A460C4F89C
:10059000B0501046C4F8242204F5D47304F5027157
:1005A000C4F8282243F8040B9942FBD1654A664DF2
:1005B000C4F808020023C4F80C02C4F81002C4F8FE
:1005C0003C024FF480760120C4F83022C4F8342273
:1005D000C4F83822C4F88831C4F8A431C4F84832C9
:1005E0000021C4F81452C4F81852C4F81C52A4F8DC
:1005F0002C62C4F8C80204F5137304F5317243F891
:10060000041B9A42FBD1514BDFED517A04F558722D
:1006100003F10F0103E013F9010B07EE900AF8EE66
:10062000E77A9942E2EC017AF5D14A4B4A48C4F89C
:10063000D8020022C4F8CC22C4F8D022C4F8D422B4
:10064000404903F13C0004F5377201E053F8041B04
:1006500042F8041B8342F9D1002501AA04F5BE70BB
:10066000A4F878514FF48051CDE90155ADF80C5004
:1006700001F034FE01AA04F580704FF48051CDE9F9
:100680000155ADF80C5000F08FFF01AA04F10800ED
:100690004FF40071CDE90155ADF80C5002F0B6FFF2
:1006A00001AA04F56B704FF40071CDE90155ADF866
:1006B0000C5002F0FDF904B070BD00BF6F12833A18
:1006C000CDCC4C3E6C09F93B0024F449CDCC4C3FD9
:1006D000304EDC440BD7A34200004842CDCCCC3D89
:1006E0006F12033BC1BF3B4A98DDD33E18B7513F61
:1006F000D75E7B3E17B751395305A33C00401C49D8
:10070000B6F33D3EC2B5983D3D6C83410020FD44AB
:1007100000C8AF4900001643DC2D01080E74DA3B17
:100720000000484400009644BD3786350092C04919
:1007300000240749000010427F211542F2CE6F408D
:1007400003CFCD3E17B7D13800007AC4592E010827
:10075000010000001C2E010800007A442DE9F04F32
:10076000DFF8B882CC68DFF8B0A22DED028BC8F8B4
:100770000C408BB09146D268CAF80C200493837960
:1007800003938B460446DDE91757B0EE408A002BF1
:1007900000F04E81002380F81434D1ED006A90ED12
:1007A000887AD0ED897A90ED8A6A039B994E76EE2D
:1007B000C76A013BC8ED006A91ED017A37EE677AAE
:1007C00009AA88ED017AD1ED027A059277EEC67A10
:1007D000DBB2C8ED027A94F80580A371B8F1000F7E
:1007E00000F00A8108F1FF385FFA88F884F8058084
:1007F000D9ED006A94ED097A169BD4ED0A7A94ED4E
:100800000B6A009376EEC76A0195CAED006A99ED0E
:10081000017A814A8149049BDFF8108237EE677ABA
:10082000B0EE480A8AED017AD9ED027A77EEC67AFF
:1008300004F56B70CAED027A01F0A6FDD5ED027ADF
:1008400095ED037A95ED016AD5ED006A714867EE82
:10085000065A67EEA66A27EE866A76EEE56A67EEC6
:10086000075A76EEA66A67EEA77AC6ED006AD5ED5E
:10087000006A27EE267A414637EE067A37EE077A87
:1008800086ED017AD5ED016A95ED007A66EEA66AED
:1008900027EE077A77EEE67A77EEC77A77EEA57AD3
:1008A000C6ED027A03F006FBD8ED007A9FED5C7A84
:1008B000F4EEC77AF1EE10FA72DC96ED010AD6ED8D
:1008C000020AB1EE400A002003F066F9F0EE408A19
:1008D000D8ED027A98ED010A30EE270A03F09AFA71
:1008E000DDF814804FF07E534046B0EE408A099305
:1008F00003F0F4FADDED097A96ED027AF1EE677A0B
:10090000B4EEE77AF1EE10FA68DD4FF07C53404622
:10091000099303F0E3FADDED097A96ED027AF1EE40
:10092000677AF4EEC77AF1EE10FA57DDD5ED010AD9
:1009300095ED000AF1EE600A002003F02DF9F8EEC3
:10094000007A20EE270A8DED090AB5EEC00AF1EE15
:1009500010FA05D5DFED337A30EE270A8DED090A5E
:1009600087ED000AC7ED018A96ED000A002028EE07
:10097000000AF7EE000A03F00FF9099B87ED020A5F
:10098000FB602B693B61199A94F82C32137094F830
:100990003C301A9A13700BB0BDEC028BBDE8F08F9F
:1009A00098ED020A37EE800A03F034FA96ED027AE7
:1009B000D6ED017AB5EEC07AF1EE10FA27EEC00A54
:1009C0004FF00000CCBFF7EE000AFFEE000A8DEDFD
:1009D000090A03F0E1F8F0EE408A79E70020D5ED4E
:1009E000030A95ED020A03F0D7F8F8EE007A20EE3C
:1009F000270A8DED090AA8E70B4B0DF11F02CDE97F
:100A000000324946434694F8142404F1080002F0E9
:100A100065F8EBE678880020688800205888002078
:100A2000AE5D7C3FDB0FC940848800204C880020ED
:100A300009ABAF4A0593009300F5BE700DF11E039C
:100A400000F008FEDBED006A94ED887AD4ED897A37
:100A5000D4F87031D4F8681194ED8A6AD4F8600142
:100A600076EEC76A0133C8ED006A9BED017A37EE76
:100A7000677A8B4288ED017ADBED027AD4BF0022DF
:100A800001228B42A8BF0B4677EEC67A84F8752107
:100A9000C4F87031C8ED027A03F09AF994F8753110
:100AA000421CC4F86021002B40F01181D8ED007A7F
:100AB000F5EEC07AF1EE10FAB6EE007ACCBF77EE22
:100AC000877A77EEC77AB6EE007AFDEEE77A00EB2A
:100AD0004000F8EEE77A04EB4000FDEEE77A17EE0F
:100AE000903AD8ED017AF5EEC07AF1EE10FACCBF6B
:100AF00077EE877A77EEC77A1BB2FDEEE77AA0F839
:100B00002031F8EEE77AB6EE007AFDEEE77A17EEDE
:100B1000903AD8ED027AF5EEC07AF1EE10FACCBF39
:100B200077EE877A77EEC77A1BB2FDEEE77AA0F808
:100B30002231F8EEE77AFDEEE77A17EE903A1BB233
:100B4000A0F82431D4F86811D4F81801D4F8703121
:100B50004E1E0A448642D4BF901B101A002BCCBFF5
:100B60000023012384F87431013803F031F9D4F8FB
:100B70006031013B00EB400003EB430304EB40001A
:100B800004EB4303B0F820C1B3F82021B0F822E110
:100B9000B0F824B1B3F82261B3F82481ACEB0200C1
:100BA00000B20028B8BFA2EB0C00D4F80C21B8BFEB
:100BB00000B2AEEB06031BB28242ACBF00200120A4
:100BC000002BBCBFA6EB0E031BB2ABEB08019A4295
:100BD00009B2ACBF002301230029BCBFA8EB0B0165
:100BE00009B28A42ACBF002201228DF8200008A879
:100BF0008DF821308DF8222002F0C6FF00285FD149
:100C000094F878210132D2B27E2A6BD884F8782108
:100C100091B2D4F86031B4F81C21D4ED415A354E6C
:100C2000013B03EB430304EB43038A42B3F9201176
:100C300006EE101AB3F92211B3F9243106EE901A18
:100C4000B8EEC66AF8EEE66A07EE103A26EEA65A45
:100C5000B8EEC77A66EE067A98BF002277EE857AFC
:100C600027EE075A88BF012277EE857A8DF81E207D
:100C7000F4EEE57AF1EE10FA86ED006ACDED097A30
:100C8000C6ED016A86ED027A1FDB94ED427AF4EE3E
:100C9000C77AF1EE10FA18D842F0020394F87921DD
:100CA0008DF81F309A4206D043F08002039284F8F8
:100CB00079318DF81F20039B84F8143407238AE5CB
:100CC000002284F878211146A3E71346E6E7D4E929
:100CD000590103F07DF8D4F860210130C4F86401B3
:100CE000501EE3E67F2284F87821114691E700BF89
:100CF0008488002078880020D0F8C023D0F8C4333E
:100D000030B490F8B843D0F8C8530C70D0F8CC4346
:100D10004A60D0F8B4238B6090F8D0330B76CD6066
:100D20000C614A6190F8D1334B7600F20C4200F529
:100D3000826315681C68D0F8B023D0F8BC33CD614D
:100D4000C56D0C62046E4A62C26E8B62036FCD6227
:100D50000C634A638B63436FCB6390F8793081F8FF
:100D60004030B0F89C20856BD0F88C40D0F89030A3
:100D7000A1F84220D0F894204D64D0F898508C64AB
:100D8000D0F8B840CB64D0F8D8300A65426B4D65D6
:100D9000D0F88C518C65D0F89841CB65D0F8903163
:100DA0000A66D0F880214A66B0F89C21A1F870202C
:100DB0008D66CC664B67D0F89431D0F84052D0F8AD
:100DC000A423D0F8A0438B67D0F84432CB67D0F887
:100DD000C432C1F88030D0F8A833C1F89030C1F8DF
:100DE0008450C1F88C20C1F8884000F5477301F1A8
:100DF000940200F5577553F8044B42F8044BAB428C
:100E0000F9D1D0F85C23D0F80C31C1F8D830C1F852
:100E1000D42090F8103181F8DC30D0F80451B0F8CB
:100E20001241D0F80821D0F81431C1F8E830C1F8E7
:100E3000E050A1F8DE40C1F8E42030BC704700BFAC
:100E400083790B7043794B7090F814348B70D0F821
:100E5000D823D0F8DC3330B4D0F8E053D0F8E443F2
:100E60004A60D0F8D4238B6090F8E9330B76CD60DC
:100E70000C614A6190F8083481F8343000F2044380
:100E80001A6890F8E83381F83C308A6390F8323081
:100E900081F8643090F83C3081F8653090F83D304E
:100EA00081F8663090F83E3081F86730D0F8A05075
:100EB000D0F8A440D0F8A820D0F8BC30C1F88030D9
:100EC0008D66CC660A6790F8F43081F8B43090F8FB
:100ED000F53081F8B53090F8643081F8D03090F872
:100EE000783081F8D130D0F8EC53D0F8F843426A2A
:100EF0008369CD61C5688C62D0F8AC400A64D0F8D3
:100F0000C020CB64D0F8CC30C1F890308D654C67F0
:100F1000C1F88420D0F8DC30D0F8E850446C026D81
:100F2000C1F89C30D0F82032C1F8A850D0F8F05366
:100F3000C1F8B840D0F8FC43C1F8C420826AC1F8B7
:100F4000D430C3690D620569CC62D0F8B0404A6400
:100F5000D0F8C4200B65D0F8D030CD65D0F8E05083
:100F60008C67D0F8EC40C1F88820826CC1F89430CE
:100F700000F58063C1F8A050C1F8BC20C1F8AC40B6
:100F8000446D1D68D0F82422D0F8F433C1F8C8406D
:100F9000C46AC1F8D820026A4B6243690D63D0F875
:100FA000B4508C64D0F8C8404A65D0F8D4200B66A1
:100FB000D0F8E430CD67D0F8F050C1F88C40C46C64
:100FC000C1F89820826DC1F8A430D0F82832C1F859
:100FD000DC30C1F8B050C1F8CC20C1F8C04000F5F9
:100FE000D47301F1E00200F5027553F8044B42F8A6
:100FF000044BAB42F9D1D0F88831C1F8403190F8B8
:101000002C3281F84431D0F80852D0F81442D0F88C
:101010000C22D0F81832C1F84851D0F81052C1F85B
:101020005441D0F81C42C1F84C21D0F83022C1F80C
:101030005831D0F83432C1F85051D0F83852C1F894
:101040005C41D0F8A441C1F8604190F82D4281F88C
:101050006441D0F83C42C1F86821D0F84822C1F878
:101060006C31D0F8C832C1F87051C1E95E23C1F8C3
:10107000744100F5137301F5C07200F5317553F832
:10108000044B42F8044BAB42F9D100F5587301F51B
:10109000FC7200F5687553F8044B42F8044BAB4200
:1010A000F9D1D0F8CC52D0F8D422D0F8D832D0F838
:1010B000D042C1F83C42C1F83852C1F84022C1F8D0
:1010C000443201F5127200F5377300F5477553F895
:1010D000044B42F8044BAB42F9D190F8783181F8D7
:1010E000883290F8793181F8893230BC704700BF7E
:1010F00010B5012300220371037280F8403080F89C
:101100007C3180F8AC3380F800310446026000F591
:10111000807000F035FA2046FFF738F9204610BD00
:10112000FFF734B9F0B44A688B680C78CD6880F862
:10113000B8430C69C0F8C0234A69C0F8C4330B7EB9
:1011400080F8D033C0F8C853C0F8CC43C0F8B423FB
:101150004B7E80F8D13300F20C44CF694A6A8B6A27
:10116000CD6A0E6A276000F5826426600C6BC0F8B9
:10117000B0234A6BC0F8BC338B6BC5650466C2668E
:101180000367CB6B436791F8403080F87930B1F852
:1011900042204D6C8C6CCB6CA0F89C200A6D856352
:1011A0004D6DC0F88C408C6DC0F89030CB6DC0F8A0
:1011B00094200A6EC0F898508D6EC0F8B840CC6E7E
:1011C000C0F8D8304B6F42634A6EC0F88021B1F846
:1011D0007020A0F89C21C0F88C51C0F89841C0F84C
:1011E00090318B6FD1F88450D1F88C20D1F88840A1
:1011F000C0F89431CB6FC0F84432D1F88030C0F8D9
:10120000C432D1F89030C0F8A833C0F84052C0F8CA
:10121000A423C0F8A04301F1940300F5477201F143
:10122000D40553F8044B42F8044BAB42F9D1D1F842
:10123000D420D1F8D830C0F80C31C0F85C2391F834
:10124000DC3080F81031D1F8E050B1F8DE40D1F850
:10125000E420D1F8E830C0F81431C0F80451A0F807
:101260001241C0F80821F0BC002070470B7830B460
:1012700083714B7843718B7880F814344A688B689B
:10128000CD680C69C0F8D8234A69C0F8DC330B7EFE
:1012900080F8E933C0F8E053C0F8E443C0F8D42341
:1012A00091F8343080F8083400F204428C6B91F8E5
:1012B0003C30146080F8E83391F8643080F83230C4
:1012C00091F8653080F83C3091F8663080F83D3018
:1012D00091F8673080F83E308D6ECC6E0A6FD1F891
:1012E0008030C0F8BC30C0F8A050C0F8A440C0F8AE
:1012F000A82091F8B43080F8F43091F8B53080F837
:10130000F53091F8D03080F8643091F8D13080F821
:101310007830CD698C6A0A6CCB6CC0F8EC538D6D5B
:10132000C0F8F8434C6F4262D1F884208361D1F851
:101330009030C0F8CC30C0F8AC40C0F8C020C560D8
:10134000D1F89C50D1F8A840D1F8B820D1F8C430D9
:10135000C0F8DC50D1F8D450C0F8E8400C6A4264C0
:10136000CA6A03654B6CC0F820520D6DC0F8F0439B
:10137000CC6DC0F8FC238A6F8362D1F88830C561D8
:10138000D1F894500461D1F8A040C0F8B020D1F851
:10139000AC20C0F8C430D1F8BC308364C0F8D05061
:1013A000C0F8EC20C0F8E040D1F8C840D1F8D8200F
:1013B0004B6A0D6B44658C6CC0F824224A6DC0F8F2
:1013C000F43300F580631D600B6ECD6FC462D1F8FD
:1013D0008C400262D1F898204361D1F8A430C0F863
:1013E000B450D1F8B050C0F8C840D1F8C040C0F8EF
:1013F000D420D1F8CC20C0F8E430D1F8DC30C0F8EB
:101400002832C0F8F0508265C46401F1E00300F5B1
:10141000D47201F5A07553F8044B42F8044BAB426B
:10142000F9D1D1F84031C0F8883191F8443180F8D1
:101430002C32D1F84851D1F85441D1F84C21D1F88F
:101440005831C0F80852D1F85051C0F81442D1F8C0
:101450005C41C0F80C22D1F86821C0F81832D1F8EC
:101460006C31C0F81052D1F87051C0F81C42D1F85C
:101470006041C0F8A44191F8644180F82D42D1F850
:101480007441C0F83022D1F87821C0F83432D1F854
:101490007C31C0F8C832C0F83852C0F84822C0F8D1
:1014A0003C4201F5C07300F5137201F5FC7553F869
:1014B000044B42F8044BAB42F9D100F5587201F5E8
:1014C0000E7553F8044B42F8044BAB42F9D1D1F8F6
:1014D0003852D1F84022D1F84432D1F83C42C0F819
:1014E000D042C0F8CC52C0F8D422C0F8D83200F5AF
:1014F000377201F5127301F5227553F8044B42F867
:10150000044BAB42F9D191F8883280F8783191F8E8
:10151000893280F8793130BC0020704730B585B011
:101520000024054601AA00F5BE704FF48051CDE9B4
:101530000144ADF80C4000F0D1FE01AA05F5807021
:101540004FF48051CDE90144ADF80C4000F02CF887
:1015500001AA05F108004FF40071CDE90144ADF88E
:101560000C4002F053F801AA05F56B704FF40071BE
:10157000CDE90144ADF80C4001F09AFA05B030BD58
:1015800010B5034600F1200403210A2280F85C1004
:101590002046C3E91A2200213C2210F0E3F920463C
:1015A000BDE8104002F088BA10B54369C26E9A4295
:1015B0002DED028B044608EE101A02DB826E9A4271
:1015C0003FD1B8EE488A9FED216A638ADFED206A39
:1015D000227C9FED1F0A86EE087A07EE903AF8EE1D
:1015E000677A67EE877A67EEA67AF6EE006AF5EE1E
:1015F000C07AF1EE10FACCBF77EEA67A77EEE67AF3
:10160000FDEEE77AF8EEE77AFCEEE77A17EE903A2D
:1016100007EE902A9BB2032BF8EE677A38BF0323BC
:1016200067EE877A0A2B28BF0A23A38327EE800A56
:1016300010F060FABDEC028BBDEEC00A84ED060A24
:1016400010BD8366203002F037FABAE70000484741
:101650006F12833A2DE9F04F2DED088B894699B032
:1016600090F8B110009304469246A1B190F8B030C2
:101670000022022B80F8B12000F5B07500F07E81C9
:10168000032B00F06A81012B00F05A81284604F1F7
:10169000B40102F06FFBD4E9021002F099FB00EBF9
:1016A000400304EB8303D9F80010DFF8A0B3013046
:1016B000E060D962D9F804101963D9F808105963A9
:1016C000A5686B1E07EE903A07EE105AF8EEE77A1F
:1016D000F8EEC76AB7EE007A87EE278A04F12C038A
:1016E0001A4602930BF160065F465B469046114630
:1016F000C7EE268A51F8042B43F8042B9E42F9D1F9
:10170000D7ED024AD7ED003ACDED074A012D97ED0E
:10171000014A40F34185C84B05EB450503EB8505C0
:10172000F0EE646AF0EE447AB0EE637A0C3393ED37
:10173000035AD3ED045A93ED056A0C339D4237EEFC
:10174000057A77EEA57A76EE866AF0D127EE287ACA
:1017500067EEA87A66EEA88A0BAB73EEC73A34EE52
:10176000674A74EEE84A08AF194638460193CDED52
:10177000083A8DED094ACDED0A4A8DED057ACDED99
:10178000067ACDED076A02F095FB0EAEDBED036A3B
:101790009BED047ADBED057ADDED055A9DED066AD9
:1017A00076EEE56A37EE467A77EEE87A31463846E5
:1017B000CDED086A8DED097ACDED0A7A02F07AFB5B
:1017C000DDED0B6A9DED0C7ADDED0D7A9DED0E5A87
:1017D000DDED0F5A9DED106A76EE856A37EE257ABB
:1017E00077EE867A0BF10C0B5D45CDED0B6A8DED36
:1017F0000C7ACDED0D7AC9D168EE277A68EE266AAB
:1018000028EE077AC4ED257AC4ED236A84ED247AA4
:1018100004F18C00CDED0D7ACDED0B6A8DED0C7AD7
:1018200002F066FB2A9B484683ED000A314602F02F
:1018300041FB304602F05CFBD4ED057AF4EEC07A51
:10184000F1EE10FAD4ED047A39DDD4ED235A94ED9B
:10185000246AD4ED256A94ED067AF4EEE75AF1EEA7
:1018600010FAF4EEC67A4CBF01210021F1EE10FA15
:10187000F4EEE67ACCBF01220022F1EE10FAB4EECB
:10188000C07ACCBF01230023F1EE10FA32D504A8B0
:101890008DF810108DF811208DF8123002F06CF9CF
:1018A000002800F01085D4E909230133934268DA57
:1018B000A362009B00221A70D4F8A43029E094EDB2
:1018C000236AD4ED246A94ED257AB4EEE76AF1EE4A
:1018D00010FAF4EEE67A4CBF01210021F1EE10FA85
:1018E000F4EEC77ACCBF01220022F1EE10FACCBF91
:1018F0000123002304A88DF810108DF811208DF815
:10190000123002F039F90099D4F8A4300022A26212
:101910000A70CAF80030D4F8A830CAF80430D4F8F5
:10192000AC30CAF8083094F8B03007EE903AF8EED0
:10193000677ACAED037A19B0BDEC088BBDE8F08F69
:10194000D0F8A430D0F8A820C0F85031D0F8AC308E
:10195000C0F85421C0F8583198E63848294602F0BA
:1019600013FAD4F8A410D4F8A820D4F8AC30C4F8F2
:101970005011C4F85421C4F8583187E6294630483C
:10198000EDE73049A26201F160000D460B4658F8C0
:10199000042B43F8042B9842F9D1D5ED006A95ED5C
:1019A000017AD5ED027A284B91ED035AD1ED045A14
:1019B00091ED056A0C318B4276EE856A37EE257A19
:1019C00077EE867AF0D194ED026AD4ED264A94ED52
:1019D000275AD4ED285AB8EEC66A14A9C6EE86BABC
:1019E00011A887EE06BAC7EE86AA7BEEE46A3BEE44
:1019F000457A7AEEE57ACDED116A8DED127ACDED6C
:101A0000137A02F0A3F8DDED156ADDED147A9DED91
:101A1000166A94ED077A77EEA67AF0EE086A77EE0A
:101A2000867A27EE267AB4EEE77AF1EE10FA11D430
:101A3000009A002313703FE798890020682E010860
:101A4000782E01084489002098890020A48900206C
:101A500000000034D4F8CC30C4ED26BA002B84ED5D
:101A600027BAC4ED28AA40F3E98094ED318A28EE24
:101A70002B0A10F08DF88DED110A28EE0B0A10F0EC
:101A800087F88DED120A28EE2A0A10F081F8D4F8B2
:101A9000CC908DED130AB9F1000F40F3CF800025F3
:101AA000CB461FED15AACDF80CA0B946019FA8465C
:101AB000F7EE009AA24694ED318A9AED340ADAF8EC
:101AC000D820DAF8D4108DED050A20EE080A079226
:101AD000069110F05DF8DDED067A8DED050A28EE31
:101AE000270A10F055F8DDED077A8DED060A28EE8D
:101AF000270A10F04DF8314605A88DED070A02F0CF
:101B000025F8394611A802F021F89DED0E9A9DEDB9
:101B10000B5ADDED0F8ADDED0C5A9DED108A9DED1F
:101B20000D6ADDED056ADDED113A9DED067A9DED5C
:101B3000124ADDED077ADDED134AB4EEC59AF1EEF7
:101B400010FAF4EEE58AD8BFB0EE459A76EEE36A75
:101B5000F1EE10FA37EE447AB4EEC68A77EEE47A04
:101B600048463946D8BFF0EE658AF1EE10FAD8BF84
:101B7000B0EE468ACDED086A8DED097ACDED0A7A90
:101B800001F0E4FFB4EEE99AF1EE10FAF4EEE98A1E
:101B90004CBF01200020F1EE10FAB4EEE98A4CBFF0
:101BA00001210021F1EE10FA4CBF012200228DF834
:101BB000100004A88DF811108DF8122001F0DCFF40
:101BC000002800F0BD80DDED0B6A9DED0C7ADDEDA7
:101BD0000D7AF4EECA6AF1EE10FAB4EECA7A4CBF8E
:101BE00001220022F1EE10FAF4EECA7A4CBF012174
:101BF0000021F1EE10FA8DF8102004A84CBF01224C
:101C000000228DF811108DF8122001F0B5FF08B1F7
:101C100008F10108D4F8C820424507DC009ADDF835
:101C20000CA000231370D4F8A43072E60135AB4544
:101C30000AF10C0A7FF43FAFDDF80CA0D4F84C0198
:101C40000A2102F0C5F8D4F8CC30421C092BC4F8A4
:101C50004C2102DC0133C4F8CC3000EB400004EB33
:101C60008003C3ED34BA83ED35BAC3ED36AA94EDE3
:101C7000274AD4ED556AD4ED284A94ED567AD4ED2E
:101C8000263AD4ED547A3B4F009994ED578A34EEBE
:101C9000664A74EEC74A73EEE73A00230B708DED87
:101CA0000C4ACDED0D4ACDED0B3A07F140053A4611
:101CB00004F5D07353ED107A93ED007A77EE877ABE
:101CC0000433E2EC017A9542F4D1B8EE005ADFF821
:101CD000AC90284BDFED281A23EE853A64EE052AF6
:101CE00024EE852A28EE055A89ED003AF0EE437A73
:101CF000C9ED012A89ED022A89ED035A09F104028E
:101D000093ED007AD3ED015A93ED026AD3ED036AA5
:101D100023EE077A62EEA55A22EE066A37EE257A9E
:101D200065EE266A37EE067A103337EE267A9D4244
:101D300067EE277A71EEA71A22D0F2EC017ADFE77C
:101D400029EE0A9ADDED0B6A9DED0C7ADDED0D7A38
:101D500068EE8A8AF4EEC96A28EE0A8AF1EE10FA71
:101D6000B4EEE87A4CBF01220022F1EE10FAF4EE54
:101D7000C87A3BE70489002000000000F4880020B6
:101D8000D4ED787ADFF80484F64971EEA71AC346D9
:101D90004246A1F11003F3EC015AD3ED037A93ED1F
:101DA000076AD3ED0B6A63EE255A62EEA77A22EE3C
:101DB000066A77EEA57A65EE266A77EE867A99420C
:101DC00077EEA67A87EEA17AA2EC017AE3D1E64B10
:101DD00031461846C3ED003A83ED014AC3ED024A8D
:101DE00083ED038A02F066F8304602F081F8DFEDF9
:101DF000DF7ADF4999ED003AD9ED013A99ED024ACF
:101E0000D9ED034A28EE088A77EEC07A0A4637EE03
:101E1000887A04F5F273204604F5FA76F8EC017A34
:101E2000F3EC015A27EE836A67EEA36A75EEC65A91
:101E300027EE845AE2EC015A93ED036A36EE666AA5
:101E400067EEA47A82ED036AD3ED076A76EEC56A7F
:101E50009E42C2ED076AD3ED0B6A76EEE77AC2EDD9
:101E60000B7ADBD1DBED037A94ED576AD4ED896A06
:101E70009BED003A9BED012ADBED022AD4ED544A9A
:101E800094ED555AD4ED565ADFEDB83A67EE277AFD
:101E900027EE033A77EE867A27EE022AF4EEE76A17
:101EA000F1EE10FA67EE222A94ED8A7ACBED037AEE
:101EB00048BFF0EE667AB4EEE77A33EE243A32EEBB
:101EC000052A72EEA52A48BFCBED036AF1EE10FA9F
:101ED000C8BFF0EE477A8BED003A8BED012ACBEDCF
:101EE000022AC8BF8BED037A84ED543A84ED552A5B
:101EF000C4ED562AC4ED577A04F11006B1EC014A3C
:101F0000D1ED034A91ED075AD1ED0B5A02463B46FB
:101F1000D3ED007A93ED016AD3ED026A93ED037A73
:101F200064EE277A24EE866A77EEA37A65EE266A57
:101F300077EE867A25EE877A77EEA67A103377EEFB
:101F4000877A9D42C2ED587A02F11002E0D1043046
:101F50008642D3D1B5EEC03AF1EE10FAF6EE007A31
:101F6000B5EEC02ACCBF73EE277A73EE677AF6EE31
:101F7000006AF1EE10FAF5EEC02ACCBF72EE266AC6
:101F800072EE666AB6EE007AF1EE10FACCBF32EE6F
:101F9000877A32EEC77AFDEEE77AFDEEE66ABDEEAD
:101FA000C77AF8EEE77AF8EEE66AB8EEC77A009AF2
:101FB00094ED260ACDED0B7A0123137030EE670AFB
:101FC000C4ED297AC4ED2A6A84ED2B7ACDED0C6A32
:101FD0008DED0D7A0FF0D4FDDFED667AB4EEE70AF1
:101FE000F1EE10FAF0EE409A00F30E819FED628A56
:101FF00020EE088AF0EE679A68EE088A94ED270AC8
:10200000D4ED2A7A30EE670A0FF0BAFDB4EEE90A91
:10201000F1EE10FAB0EE409A40F3ED8089EE807A4E
:10202000B7EE008A67EE287A67EE877A37EE888AFD
:1020300094ED280AD4ED2B7A30EE670A0FF0A0FD5C
:10204000B4EEC90AF1EE10FAF0EE408A40F3CA800D
:1020500089EE007AB7EE000A67EE087A67EE877AB3
:1020600037EE800A0FF0A6FE94F8B020012A04F59E
:10207000B0751BD9414BDFED427ADFED426A134464
:1020800060EE288A13F8013C78EEE77A13FB03F33D
:1020900067EEA87A07EE103A77EEA67AB8EEC77A1E
:1020A000F4EEC77AF1EE10FA00F3CE8014A92846B8
:1020B00001F060FED4ED2D7A9DED144A94ED2E6A68
:1020C000DDED154AD4ED2F6A9DED165A94ED307A68
:1020D000DDED175ADFED2C3AF4EEC47AF1EE10FA8A
:1020E000B4EEE46A58BFF0EE447AF1EE10FAF4EE82
:1020F000C56A58BFB0EE646AF1EE10FAB4EEE57A44
:1021000058BFF0EE456AF1EE10FAF4EE467A58BF89
:10211000B0EE657AF1EE10FAC4ED2D7A48BFF0EE1C
:10212000467AF4EE676AF1EE10FAC8BFF0EE667A0E
:10213000B4EE677AF1EE10FAC8BFF0EE477AF4EE2B
:10214000E37AF1EE10FA84ED2E6AC4ED2F6A84ED85
:10215000307A5CD5032384F8B030D4F8A430FFF78C
:10216000D8BB00BF14890020D488002000000000E4
:1021700094880020000080140000806A982E0108D6
:102180000000FA44002474499C53C936E4880020B6
:10219000A48C3837F6CFD33823EEA87A64EE287AA9
:1021A00064EEA88A73EEC73A34EE674A0BAB74EE5E
:1021B000E84A08AF194638468DED057ACDED067A26
:1021C0000193CDED083A8DED094ACDED0A4A0EAEE8
:1021D00001F070FEDDED0B6A9DED0C7ADDED0D7A00
:1021E000FFF70ABBC0EE097AF0EE498A67EEA77ADC
:1021F00037EE880A36E780EE298AB0EE699A28EE33
:10220000088A38EE288A13E7F7EE008AF6E61FED13
:10221000207AF4EEC77AF1EE10FA06D5022384F89C
:10222000B030D4F8A430FFF774BB1FED267AD4F891
:10223000A430F4EEC77AF1EE10FA4CBF012200226E
:1022400084F8B020FFF765BB0026002739466022DE
:102250000298C4F8A460C4F8A860C4F8AC6084F81C
:10226000B0700FF07FFB1A4BC4F89830012239464A
:10227000C4F89C30C4F8A030C4F84C21E760782240
:10228000C4F88C60C4F89060C4F89460A762C4F885
:10229000CC7004F1D0000FF065FB0E4BC4F85C313C
:1022A00029460D48C4F85061C4F85461C4F8586117
:1022B00001F06AFD284604F1B40101F05BFDD4F899
:1022C000A430FFF726BB009BA0621870FFF7F4BA9A
:1022D00000007AC400007A44882E010807EE901AA4
:1022E0009FED276A028CB8EE677ADFED267AC6EE9C
:1022F000076A90ED017AB8EEC77A27EE267A27EEC4
:10230000277AF6EE007AB5EEC07AF1EE10FACCBF7D
:1023100037EE277A37EE677ABDEEC77AB8EEC77A1E
:10232000FDEEC77A9FED177A17EE903A07EE902AE6
:10233000F8EE677A042B67EEA67AB8BF042367EE3F
:10234000877A082BF5EEC07AA8BF0823B6EE007A8C
:10235000F1EE10FACCBF77EE877A77EEC77A83601A
:10236000FDEEE77AF8EEE77AFDEEE77A17EE903ABF
:10237000042BB8BF0423192BA8BF1923436270474D
:10238000000048476F12833A2DE9F0432DED048B8E
:102390009BB00446269D806AD4ED043A9FEDC37A33
:1023A000D4ED015AD2ED016A9FEDC15AD1ED002A58
:1023B00092ED006A91ED013A91ED024AD2ED024AA6
:1023C000279ECDED035A281A07EE900AF8EEE77A19
:1023D00026EE872A67EEA37ADFEDB76AA562F4EEF0
:1023E000E57AF1EE10FA4CBFF4EEE67AF4EEE65A36
:1023F00062EE852A23EE053A26EE076AF1EE10FA20
:1024000024EE055A24EE877A9846CCBF0123002398
:10241000F0EE408ACDED042A8DED053A8DED065A99
:102420008DED076A8DED082A8DED097A002B00F0FD
:102430004781F4EEE57AF1EE10FA9FEDA00A58BF5D
:10244000F0EE657AC4ED167A8DED020AB8F1000F50
:1024500040F0428162EE026A26EE066A27EE077AB3
:1024600036EE266AD4ED087A94F82470D4ED0B1A6F
:1024700094ED0C4A94ED0D2AD4ED0E3A36EE077A1F
:10248000B4EEE77AF1EE10FA40F39581D4ED077AD5
:1024900094ED136ACDED027AD4ED144A94ED157AD9
:1024A00094F83D30002F40F04782824D26EE276A97
:1024B00067EEA44A67EE877A72EEC62A73EE644A24
:1024C00075EE677ACDED0A2ACDED0B4ACDED0C7A8B
:1024D000002B00F0B78173EEA35A74EE040A32EEBB
:1024E000023A31EEA11A65EEA35AB7EE009A20EE39
:1024F000A10A23EE236A61EE216A20EE847A23EE9C
:10250000022A75EEC95A21EE238A63EE211A60EE83
:10251000A33A76EEA56A37EE257A72EE255A30EEAA
:10252000462A30EE066A23EE045A26EE224A31EE9F
:10253000E36A66EEA26A26EE226A78EE052A22EEA9
:10254000242A35EE485A71EEA33A27EE247A62EE39
:10255000A44A65EEA75A37EE047A63EEA73A36EE40
:10256000246A76EE826A65EE277A76EEA36A002305
:1025700077EE277A13AF36EE257A84F83D30384669
:102580008DED020A85ED001AC5ED010ACDED031AA5
:1025900085ED023ACDED136A8DED157ACDED147A05
:1025A00001F0AAFADDED157A9FED448A79EE677A9B
:1025B000F6EE009A67EEA97A02A8CDED027A01F054
:1025C0008DFCDDED157A37EE899A03A829EE299A5C
:1025D0000DF158098DED039A01F080FC38468DED20
:1025E000158A01F089FA9DED025A9DED146ADDED20
:1025F000136ADDED035AD4ED0E7A94ED0B7A94ED67
:102600000C4AD4ED0D3A2B4925EE066A66EEC56AF2
:1026100026EE072A66EE274A27EE253A64EE251AAB
:1026200066EE042A26EEA75A26EEC77A67EEA57A4A
:1026300074EE834A63EEA55A26EEA33A77EEC27A89
:1026400066EE233A35EE215A37EE227A26EE844A98
:1026500037EE257A35EE635A77EEC47A74EE834A04
:10266000484685ED006A8DED175A8DED187ACDED4F
:10267000197AC5ED016ACDED164A01F03DF92868D9
:102680006968AA68EB68E062B0EE480AF0EE485A62
:10269000B0EE485A21636263A3639DED076A9DED26
:1026A000082A9DED097AD4ED167A1CE000007A3DE7
:1026B0006F12833A348A002055350244000000002E
:1026C0005FED037A1FED030AC4ED167A8DED020A61
:1026D000B8F1000F3FF4BEAEF0EE405AB0EE405AF3
:1026E00013AF0DF1580928EE855A68EEA56A20EE61
:1026F000280AC64DD4ED020A30EE077A35EE066A96
:1027000076EE826A3946B0EE670A2A4604F12C005A
:102710008DED157A8DED136ACDED146A01F030F967
:102720002968AA68EB686F6816914846294618928E
:102730001993179701F0E0F895ED007A6968AA6897
:10274000EB6884ED0B7A21636263A363B8F1000F39
:1027500055D086ED007AD4ED0C5A94F83C30C6ED95
:10276000015A94ED0D6A07EE903A237B86ED026ADA
:10277000D4ED0E6AF8EE677AC6ED036AC6ED047A08
:10278000A3B1F5EEC06AF1EE10FA0FD5B1EE477ABB
:10279000F1EE655AB1EE466AF1EE666A86ED007AB0
:1027A000C6ED015A86ED026AC6ED036A1BB0BDECA8
:1027B000048BBDE8F08362EEA25A23EE036A65EE55
:1027C000056A35EE866AB7EE007A76EE266AD4EDB3
:1027D000187A76EEC76AF4EEE76AF1EE10FA3FF780
:1027E00055AE002F40F0D280F0EE407A94ED136A9F
:1027F000D4ED144A94ED157A94F83D3055E6284608
:10280000834901F025F807A9814801F037F89DEDCB
:10281000046ADDED074ADDED056A9DED085ADDED40
:10282000067ADDED095A94ED0B7A36EE646A76EE9F
:10283000C56A77EEE57A84ED136AC4ED146AC4EDD7
:10284000157A86E77349744885ED014A85ED022AB9
:10285000C5ED033AC5ED001A00F0FAFF0DA96D4869
:1028600001F00CF80D990E980F9B109111900DAA84
:1028700010A90AA8129301F04BFAD4ED063ADDED47
:102880000D4A9DED0E5AD4ED167ADDED0F2AD4EDEA
:10289000116A94ED102A94ED126A9FED607A23EE8E
:1028A000A43A63EE855A23EEA24A23EE273A65EE58
:1028B000A75A33EE023A75EEA63A24EE274A63EEA3
:1028C000A36A34EE064A23EE030A84ED103A30EE92
:1028D000260A64EE046A8DED103A30EE260A8DED7C
:1028E0000A3AB4EEC70AF1EE10FAC4ED113ACDED92
:1028F000113ACDED0B3A84ED124A8DED124A8DED71
:102900000C4A8DED020A1CDCD4ED056A9DED076AC8
:102910009DED082A9DED097A66EE855A66EEA44A79
:1029200066EEA26A34EE835A75EEA35A36EE840A36
:1029300013AF0DF15809D6E6002284F85C20364D1D
:10294000B4E501F067FA94ED103AD4ED115A94ED24
:10295000127A9FED334ADDED0D4A9DED0E5ADDED05
:102960000F2AD4ED167A20EE033A60EE255A20EEB7
:10297000070A23EE043A65EE843A20EE044A84ED19
:10298000103AC4ED113A84ED124ABDE7224D2549B3
:102990008DED010A2846C5ED001A85ED014A85ED49
:1029A000022AC5ED033A00F053FF0DA91D4800F0BF
:1029B00065FF0D990E980F9B10910DAA119010A90B
:1029C00004A8129301F0A4F994F85C3094F825203F
:1029D0009A4229D95A1CDDED042A94ED136ADDEDE3
:1029E000027A9DED053AD4ED144A9DED065A94ED18
:1029F000157AD4ED0B1A94ED0C4A94ED0D2AD4ED12
:102A00000E3A94F83D3084F85C204FE5448A00206B
:102A1000048A0020248A0020348A00200AD7233C1C
:102A2000CDCCCC3D148A00209DED0D7A9DED0E6A33
:102A3000DDED0F6AD4ED195ADDED042ADDED027AE1
:102A40009DED053A9DED065AD4ED0B1A94ED0C4A16
:102A500094ED0D2AD4ED0E3A9DED010A27EE077A8A
:102A600026EE066A66EEA66A37EE067A37EE267A14
:102A7000B4EEE57AF1EE10FA08DC94ED136AD4EDC9
:102A8000144A94ED157A94F83D300FE50122B0EE2A
:102A9000407A84ED130A84ED140A84ED150A3B464E
:102AA000F0EE404AB0EE406A84F83D20FEE400BFFC
:102AB00007EE901A9FED076ADFED076AF8EE677A76
:102AC000012386EE277A80F83D30C6EE877AC0ED86
:102AD000017A7047000048470024F4492DE9F0418D
:102AE0002DED028B88B088461199109F00250D703E
:102AF0001106044604D5D24302F0010280F83620C4
:102B00001A0604D5DB4303F0010384F8353098ED51
:102B1000006AD8ED016AD8ED027AD4ED0F3A94ED4F
:102B2000104AD4ED114A94ED183A94ED120AD4EDFE
:102B3000130A94ED141A36EE636A76EEC46A77EEE1
:102B4000E47A23EE262A63EE272A63EE061A62EE63
:102B5000265A21EE865A62EEA77AB7EE007A35EE53
:102B6000005A37EE437A75EEA05A77EE817A73EE0B
:102B7000A13A27EE253A67EE051A34EE024A74EEC2
:102B8000A24A67EE277A4046C4ED0F3AC4ED121A06
:102B900084ED104A84ED133AC4ED114AC4ED147A61
:102BA00005A98DED055ACDED065ACDED072A8DED1F
:102BB000026ACDED036A00F0C9FFD4ED1B7A9DEDEA
:102BC000056ADDED066A9DED077AA16C0291B4EE0F
:102BD000E76AF1EE10FAF4EEE67ACCBF01210021AB
:102BE000F1EE10FAF4EEC77A4CBF01200020F1EEAE
:102BF00010FA236DE26C8DF804108DF805004CBFBF
:102C00000121002101A8049303928DF8061000F021
:102C1000BBFFD4ED167A94ED126AD4ED136A94EDED
:102C2000147AB4EEE76AF1EE10FAF4EEE67AACBF8D
:102C300001210021F1EE10FAF4EEC77A94BF0122CF
:102C40000022F1EE10FA94BF01230023064601A8EA
:102C50008DF806308DF805208DF8041000F094FFF3
:102C6000D4ED157A94ED126AD4ED136A94ED147ACA
:102C7000B4EEE76AF1EE10FAF4EEE67ACCBF012387
:102C80000023F1EE10FAF4EEC77A4CBF01220022C5
:102C9000F1EE10FA8DF8043005464CBF01230023F5
:102CA00001A88DF805208DF8063000F06DFF002892
:102CB00000F09F80002384F8703005A904F13C00E7
:102CC00000F044FFD4ED1A7A9DED056ADDED066A49
:102CD0009DED077AB4EEE76AF1EE10FAF4EEE67ACB
:102CE000CCBF01210021F1EE10FAF4EEC77A4CBFFF
:102CF00001220022F1EE10FA4CBF0123002301A8AB
:102D00008DF804108DF805208DF8063000F03CFF9A
:102D100028B994F8702094F871309A425BD245F04B
:102D20000400C0B2002E5CD194F85C30834204D021
:102D300060F07F0384F85C00D8B294F836501DB17F
:102D400094F83550002D50D105A904F11C0000F075
:102D5000FDFEDFEDC57A9DED056ADDED066A9DEDB0
:102D6000077AB4EEE76AF1EE10FAF4EEE76ACCBF48
:102D700001210021F1EE10FAB4EEE77ACCBF012276
:102D80000022F1EE10FACCBF0123002301A88DF838
:102D900004108DF805208DF8063000F0F5FE30B1F6
:102DA00000230022E3612362636284F8342065BB60
:102DB000E3693B60236A7B60636ABB6094F83430EC
:102DC00007EE903AF8EE677AC7ED037A08B0BDECEB
:102DD000028BBDE8F081002E00F0418145F0040037
:102DE000C0B240F00200C0B29EE7B0FA80F56D09B3
:102DF000AAE794F8703094F871200133DBB2934263
:102E000028BF134684F8703057E7D4ED297A9DED3A
:102E1000026ADDED036A9DED047A94ED1D8AB4EE3D
:102E2000E76AF1EE10FAF4EEE76A4CBF01230023E3
:102E3000F1EE10FAB4EEE77A4CBF01220022F1EE77
:102E400010FA8DF8043001A84CBF012300238DF83F
:102E500005208DF8063000F08FFE002840F00A8132
:102E6000D4ED275AD4ED3C4A94ED1E7A9FED7F6A4B
:102E7000D4ED1D6A78EE657A27EE065A67EEA47ADD
:102E800077EEA57AF4EEC87AF1EE10FAD8BFB0EE7C
:102E9000678AB4EEC85AF1EE10FAC4ED277A00F151
:102EA000C880B0EE667A94ED280AC0EE267AF7EE76
:102EB000000A80EEA66A77EEA07A30EE070AF4EEFA
:102EC000C67AF1EE10FA58BFF0EE467A80EEA78A85
:102ED000C4ED267AB4EEC78AF1EE10FAB4EE600AB9
:102EE000D8BFB0EE478AF1EE10FAC8BFB0EE600A64
:102EF00084ED280A00F0CAFE002840F0B28094ED6C
:102F0000287AF6EE007AB4EEE77AF1EE10FAACBF6A
:102F100002250125D8ED006A94ED017AD4ED027AFC
:102F200094ED036A94F82A30228D76EEC76A013355
:102F300066EE886ADBB276EE876A9A42C4ED016A71
:102F400098ED017A37EE677A27EE087A37EE277A1E
:102F500084ED027AD8ED027A84F82A3077EEC67AC8
:102F600067EE887A77EE867AC4ED037A3FF620AF73
:102F700094ED045AD4ED055A94ED066A002376EEDA
:102F8000C56A37EE657A77EEC67A84F82A3005A9E5
:102F900002A8CDED026A8DED037ACDED047A00F042
:102FA000D5FD94ED205AD4ED0C5A9DED056ADDED6A
:102FB000066A9DED077AC8EE057A01A867EEA57A44
:102FC000B4EEE76AF1EE10FAF4EEE76AACBF012363
:102FD0000023F1EE10FAB4EEE77AACBF0122002232
:102FE000F1EE10FA8DF80430ACBF012300238DF808
:102FF00005208DF8063000F0C7FD8046002840F01F
:10300000928094F8342094F8EC3094F8F410013362
:10301000DBB28B4228BF0B4684F8EC3094F8ED30DD
:10302000002800F0B981581E002B00F03282C3B294
:10303000B7E1D4ED1F7A67EE865AF4EEC85AF1EE86
:1030400010FA7FF530AF94ED207A27EE066AB4EEE1
:10305000C86AF1EE10FA58BFB0EE677A23E7284647
:1030600062E6032556E700BF00000047CDCC4C3F89
:10307000CDCCCC3ED4ED2A7A9DED026ADDED036A1B
:103080009DED047A94ED1E8AB4EEE76AF1EE10FA33
:10309000F4EEE76A4CBF01230023F1EE10FAB4EE20
:1030A000E77A4CBF01220022F1EE10FA8DF80430CD
:1030B00001A84CBF012300238DF805208DF80630B0
:1030C00000F05AFD00283FF4CBAED4ED2B7A9DEDF5
:1030D000026ADDED036A9DED047A94ED1F8AB4EE79
:1030E000E76AF1EE10FAF4EEE76A4CBF0123002321
:1030F000F1EE10FAB4EEE77A4CBF01220022F1EEB5
:1031000010FA8DF8043001A84CBF012300238DF87C
:1031100005208DF8063000F02FFD00283FF4A0AE0A
:1031200094ED208A9CE6D4ED2D7AF7EE006A77EED6
:10313000A67AB2EE047AF4EEC77AF1EE10FA40F114
:10314000A38186EEA78A1FED367AC4ED2D7AB4EE00
:10315000478AF1EE10FA48BFB0EE478AD4ED0B7AF9
:103160009DED056ADDED066A9DED077AB4EEE76A2E
:10317000F1EE10FAF4EEE67ACCBF01230023F1EE73
:1031800010FAF4EEC77A4CBF01220022F1EE10FAD9
:103190008DF8043001A84CBF012300238DF80520D1
:1031A0008DF8063000F0F0FC002800F08981DDED9C
:1031B000027A94ED0B6AF5EEC07AF1EE10FA00F1A6
:1031C0001882D4BF28EE277AB0EE487ADDED057A72
:1031D000D4ED045ADDED036AF4EE467AF1EE10FA0E
:1031E000C8BFF0EE467A67EE877AF5EEC06A37EE32
:1031F000A57AF1EE10FA84ED047A00F10082D4BFD2
:1032000068EE266AF0EE486ADDED067A94ED055A1E
:10321000DDED045AF4EE467AF1EE10FAC8BFF0EE96
:10322000467A67EEA67AF5EEC05A77EE857AF1EE29
:1032300010FAC4ED057A00F1DF81D8BF28EE258AA7
:103240009DED075AD4ED064AD4ED045AD4ED056A33
:10325000B4EEC65AF1EE10FAD8BFB0EE456A66EE8B
:10326000087A77EEA47AC4ED067AD4ED314A94ED6B
:10327000346AF4EEC74AF1EE10FA36EE065A40F11F
:10328000848177EE454A84ED317AC4ED2E4A434677
:1032900094ED327AF4EEC76AF1EE10FA40F36681EB
:1032A00036EEC57AC4ED326A84ED2F7A434694ED4A
:1032B000337AF4EEC77AF1EE10FA40F3468137EE36
:1032C000C55AD4ED3A4AC4ED337A84ED305A4346B8
:1032D00094ED387AF4EEC75AF1EE10FA00F3298132
:1032E00094ED357A0020F4EEC75AF1EE10FA0AD5C3
:1032F000B1EE007A26EE077AC4ED355A37EE257A1C
:10330000404684ED387A94ED397AC4ED075AF4EEEC
:10331000C76AF1EE10FA00F3008194ED367AF4EE0C
:10332000C76AF1EE10FA0AD5B1EE007A26EE077AF6
:10333000C4ED366A37EE267A404684ED397AF4EEEB
:10334000E47AF1EE10FAC4ED086A00F3DA8094ED45
:10335000377AF4EEC77AF1EE10FA0AD5B1EE007AB8
:1033600026EE076AC4ED377A36EE276A404684EDCA
:103370003A6A1199C4ED097A80220A7094F83420CF
:10338000002B3FF440AE032A94F8F41000F00C81B7
:10339000002384F8EC3041E60133DBB28B4228BFD6
:1033A0000B4684F8ED3094F8EC308B4225D2032A9A
:1033B00075D094F8ED308B4279D2012A03D994F874
:1033C000F500834273D2531E012BB8BF0123DBB239
:1033D00084F834309A4255D9032A5CD0022A02D1AB
:1033E0000023A4F8EC30119B119A1B7863F07F0343
:1033F0001370002384F82A30DAE4531CDBB2AB42AA
:1034000028BF2B46013DAA4284F83430E2D194ED26
:10341000347AD4ED045A94ED056AD4ED066A77EE59
:10342000077A37EE254A75EEA71A35EEE72A76EECB
:10343000272A36EE673A77EE064A76EEA73A75EE19
:10344000C75A36EE476A37EE265A76EEE77A36EEF8
:10345000C77AC4ED381A84ED352AC4ED392A84EDD3
:10346000363AC4ED3A3AC4ED377A84ED314AC4EDC8
:103470002E5AC4ED324A84ED2F6A84ED335A84ED1E
:10348000307AA7E7B5D0AEE784ED2D7A9FED5E8A5E
:1034900064E6002385E7002384F8EC30A3E794F882
:1034A000F5008342A9D294F8ED308B4289D3012DE7
:1034B00013BF022384F834502B4684F8343089E754
:1034C0009DED027A9DED036A9DED045AD4ED045AF8
:1034D000D4ED056AD4ED067A28EE077A28EE066A5E
:1034E00028EE058A37EE257A76EE866A77EE887AB8
:1034F000F0EE475A84ED047AC4ED056AC4ED067A0D
:10350000B3E6B1EE007A26EE077AC4ED3A7A37EEEA
:10351000C77A404684ED377A1BE7B1EE007A26EE93
:10352000077AC4ED396A36EEC77A404684ED367ABA
:10353000F5E6B1EE007A26EE077AC4ED385A35EE9C
:10354000C77A404684ED357ACDE694ED304AF4EE04
:10355000C47AF1EE10FA3AD537EE855AC4ED307AD6
:1035600084ED335AD4ED3A4A4346B1E6D4ED2F4ABE
:10357000F4EEE46AF1EE10FA32D536EE857AC4ED57
:103580002F6A84ED327A434691E694ED2E4AB4EEEA
:10359000C74AF1EE10FA10DD75EE074A84ED2E7A77
:1035A000C4ED314A434673E694F8ECC00CF1FF33A6
:1035B000BCF1000F26D0DBB22EE574EE854A34EE66
:1035C000454AC4ED384A84ED354A002360E677EE7B
:1035D000054A34EE455AC4ED3A4A84ED375A77E647
:1035E00037EE057A74EEC54A84ED397AC4ED364A71
:1035F0005DE6B1EE487AE9E5B1EE488A20E6F1EE03
:10360000486A01E6002307E5CDCCCC3E10B507EEB5
:10361000901A9FED8D7A90ED190AF8EE677A2DEDEC
:10362000048B87EE279A84B00446B7EE008AF3EE47
:10363000099A38EE400A0EF02FFBC9EE898A28EE6F
:10364000800A0EF0EDFAF4EEC88A38EE400AF1EE88
:1036500010FA03A8D8BFB0EE688A84ED180A8DED81
:10366000038A00F03BFCC9EE296AB4F8943007EEF7
:10367000103ADDED035A9FED750AF8EE477AB8EE81
:10368000C77A67EEA57AB7EE006A67EEA67AF6EE1D
:10369000006AF5EEC07AF1EE10FACCBF77EEA67AAA
:1036A00077EEE67AF3EE096AFDEEE77AF0EE680A65
:1036B000F8EEE77AB7EE008AFCEEE77A17EE903A7A
:1036C000C6EE877A9BB22385B6EE007AF5EEC07A15
:1036D000F1EE10FACCBF37EE877A37EEC77AF2EE0A
:1036E000007ABDEEC77AB8EEC77ABCEEC77A17EE9D
:1036F000102A92B207EE102AB8EE477AC7EE876A10
:1037000007EE903AF8EEE77A89EE275A76EE657A78
:10371000F6EE005A67EEA57A36EE676A66EE866ABE
:103720008DED036A66EE856AF5EEC06AF1EE10FA79
:10373000CCBF76EEA56A76EEE56AFDEEE66AF8EEB7
:10374000E66AFCEEE67AF1EE006ACDED017AC6EEAD
:10375000877A9DF8043084F8F430B6EE007A67EE8C
:10376000867A67EE857AF5EEC07AF1EE10FACCBF74
:1037700077EE877A77EEC77AFDEEE77AF8EEE77AAA
:10378000FCEEE77ACDED017A9DF8043084F8F5304F
:103790000EF0B2FAD4ED216A94ED227AD4ED247AB7
:1037A00094ED239ACDED038A38EE400AF0EE680AD4
:1037B00084ED3C0A38EE660A78EE479A78EE678A1E
:1037C0000EF09AFA38EE400ADDED030A84ED1D0A88
:1037D000B0EE690A0EF090FA38EE499A38EE400AD7
:1037E000DDED030A84ED1E0AB0EE490A0EF084FAFC
:1037F00038EE400ADDED030A84ED1F0AB0EE680AD8
:103800000EF07AFAD4ED2C7A94ED1E7AD4ED1F5A8C
:1038100038EE400AC7EE876A0123002284F82A2086
:1038200084F8363084F8353087EE806A87EEA57AE2
:1038300084ED200A84ED2B6AC4ED296A84ED2A7A8E
:1038400004B0BDEC048B10BD00004847E2E9753FB1
:10385000D0ED007AF1EE677AC1ED007AD0ED017A11
:10386000F1EE677AC1ED017AD0ED027AF1EE677A76
:10387000C1ED027AC368CB60704700BF90ED026A69
:10388000D0ED016AD0ED007A90ED037A67EE867A8A
:1038900027EE267A77EE877A77EEA77AC1ED007A5F
:1038A00090ED026AD0ED006AD0ED017A90ED037AD6
:1038B00067EE867A27EE267A77EEC77A77EEA77AD2
:1038C000C1ED017AD0ED037A90ED006AD0ED016A86
:1038D00090ED027A67EEA77A26EE066A66EEA66A91
:1038E00077EEC67A27EE077A77EEE67A77EE877A72
:1038F000C1ED027A704700BF30B585B00C4669460D
:10390000054600F0BDFA9DED000A9DED016ADDED72
:10391000026A9DED037ADFED197A30EE060A30EE89
:10392000260A30EE070AB4EEE70AF1EE10FA08DCD8
:1039300000234FF07E5223606360A360E26005B015
:1039400030BD00F067FAD5ED007A67EE807AC4EDFD
:10395000007AD5ED017A67EE807AC4ED017AD5ED73
:10396000027A67EE807AC4ED027AD5ED037A27EE0B
:10397000800A84ED030A05B030BD00BF77CC2B323E
:1039800070B52DED048BDFED4A8A60EE288A91ED4B
:10399000000A04460D46F0EE609A16460EF0F0F866
:1039A000B4EEE90AF1EE10FAA8BF95ED008A95EDA4
:1039B000010AB4BF9FED3F8A28EE888A0EF0E0F836
:1039C000B4EEE90AF1EE10FAA8BFD5ED016A95ED63
:1039D000020AB4BF9FED379A28EEA69A0EF0D0F8EF
:1039E000D4ED037A94ED006AD4ED026A94ED017A85
:1039F000B4EEE90AF1EE10FAACBF95ED020A9FEDC4
:103A00002D0A68EE277AA8BF28EE800A69EE266A9A
:103A100077EE867A20EE077A77EEE67A77EE877A87
:103A2000C6ED007AD4ED027A94ED016AD4ED036A12
:103A300094ED007A68EE277A69EE266A77EE867A48
:103A400020EE077A77EEA67A77EEC77AC6ED017A8E
:103A500094ED016AD4ED027AD4ED006A94ED037A14
:103A600028EE066A69EE266A77EEC67A20EE077AB5
:103A700077EEA67A77EE877AC6ED027A94ED006A41
:103A8000D4ED037AD4ED016A94ED027A28EE068A29
:103A900069EE266A77EEC87ABDEC048B20EE077AD1
:103AA00037EEE60A30EE470A86ED030A70BD00BF26
:103AB00032EC15320000000070B490F83C50012345
:103AC000A0F85430C0E910338DB1C66C00EB450549
:103AD00006EB460402460021002E05DD002322F8F5
:103AE00013100333A342FAD10232AA42F4D10023C5
:103AF000036570BC704700BF10B584B001A90446CF
:103B000000F0D8F901A800F0F3F9DFED0F7AB4EE78
:103B1000E70AF1EE10FA01DC04B010BD00F07AF90A
:103B2000D4ED006A94ED017AD4ED027A66EE806AF3
:103B300027EE007A67EE807AC4ED006A84ED017AA0
:103B4000C4ED027A04B010BD77CC2B3238B590EDBD
:103B5000000A0C4605460EF013F884ED000A95EDB8
:103B6000010A0EF00DF884ED010A95ED020A0EF03F
:103B700007F884ED020A38BD037813B1437803B126
:103B800083781846704700BF037813B9437803B9A8
:103B900083781846704700BF002860D0C0EE207AB6
:103BA00010B5F7EE005AF4EEE57AF1EE10FA2DEDCD
:103BB000028BB0EE406AB0EE607A67EEA76A1EDD57
:103BC000DFED2D5A9FED2D8A76EEA56AC7EEA65A37
:103BD00038EE658AB5EEC07AF1EE10FA23D5DFED46
:103BE000287AB5EEC06AF1EE10FACCBF38EE278A1B
:103BF00038EE678AB0EE480ABDEC028B10BDBFEE0E
:103C0000005AF4EEC57AF1EE10FA2AD49FED1A5A52
:103C100066EE856AB5EEC07A76EEA56AF1EE10FA28
:103C200087EEA68ADBD4B0EE470ADFED160A16EE61
:103C3000104A00F02BF80028DCD007EE904A9FEDE8
:103C40000F8AF5EEC07ADFED107AF1EE10FAD8BFE8
:103C5000B0EE678AB0EE480ABDEC028B10BD0DF0E5
:103C6000DDBFDFED055A9FED088A76EEA56AC7EE47
:103C7000A65A38EE658AADE7295C8F3EDB0FC93F57
:103C8000DB0F494000000000DB0FC9BF08B52DED78
:103C9000048BF0EE608AB0EE409A0DF071FFB0EE4A
:103CA000408AB0EE680A0DF06BFFB4EEC08AF1EE08
:103CB00010FACCBFB0EE490AB0EE680A0DF060FF12
:103CC000B0EE408A39EE680A0DF05AFFF7EE007A3E
:103CD000B4EEE78AF1EE10FADFED0C7A0BD428EEA1
:103CE000278AB4EEC08ABDEC048BF1EE10FACCBF8B
:103CF0000120002008BDBDEC048BB4EEE70AF1EE14
:103D000010FA4CBF0120002008BD00BF00000034A5
:103D100091ED026AD1ED016AD0ED017A90ED027A5F
:103D200067EE867A27EE267A77EEC77AC2ED007ABA
:103D300091ED006AD1ED026AD0ED027A90ED007A41
:103D400067EE867A27EE267A77EEC77AC2ED017A99
:103D5000D0ED007A91ED016A90ED017AD1ED006A23
:103D600067EE867A27EE267A77EEC77AC2ED027A78
:103D7000704700BF03680B6043694B60836A8B60C8
:103D8000C36BCB60704700BF38B505460C4608468C
:103D9000402200210DF0E6FD2B6823606B68636113
:103DA000AB68A362EB68E36338BD00BF90FBF1F33F
:103DB00003FB110040B2704790FBF1F303FB1100CD
:103DC000704700BF90FBF1F303FB110040B2704756
:103DD00090FBF1F303FB1100704700BF10EE102AB7
:103DE000024BA3EB620300EE103A7047865A375F2E
:103DF000F6EE007A60EEA70A0423B7EE087A60EECA
:103E0000007A013B67EEA07A77EE677A20EE270A08
:103E1000F5D170479FED177AB4EEC70AF1EE10FAAC
:103E200008B507D5B5EEC00AF1EE10FA1BDC9FED20
:103E3000120A08BD10EE102A104BB6EE007AA3EB62
:103E4000620320EE077AF7EE086A00EE103A0423C8
:103E500060EE007A013B67EE877A76EEE77A20EE35
:103E6000270AF5D108BD0DF0A5FFF7EE007A87EE21
:103E7000800A08BD997D80000000C07F865A375FA8
:103E8000D0ED007A67EEA77AC1ED007AD0ED017A25
:103E900067EEA77AC1ED017AD0ED027A67EEA77AD4
:103EA000C1ED027AD0ED037A67EEA77AC1ED037A0D
:103EB000704700BFD0ED007A67EEA77AC1ED007AB7
:103EC000D0ED017A67EEA77AC1ED017AD0ED027AE2
:103ED00067EEA77AC1ED027A704700BF10B590ED8A
:103EE000000A04460DF066FF84ED000A10BD00BF15
:103EF000D0ED007A90ED017A90ED020A77EE877AA4
:103F000037EE800A704700BF53B94AB9002908BF8D
:103F100000281CBF4FF0FF314FF0FF3000F074B9A4
:103F2000ADF1080C6DE904CE00F006F8DDF804E010
:103F3000DDE9022304B070472DE9F047089D0446EF
:103F40008E46002B4DD18A42944669D9B2FA82F24C
:103F500052B101FA02F3C2F1200120FA01F10CFA88
:103F600002FC41EA030E94404FEA1C48210CBEFBC0
:103F7000F8F61FFA8CF708FB16E341EA034306FB49
:103F800007F199420AD91CEB030306F1FF3080F0D8
:103F90001F81994240F21C81023E63445B1AA4B225
:103FA000B3FBF8F008FB103344EA034400FB07F7C7
:103FB000A7420AD91CEB040400F1FF3380F00A8108
:103FC000A74240F207816444023840EA0640E41BFD
:103FD00000261DB1D4400023C5E900433146BDE8A9
:103FE000F0878B4209D9002D00F0EF800026C5E94B
:103FF000000130463146BDE8F087B3FA83F6002E63
:104000004AD18B4202D3824200F2F980841A61EBDA
:10401000030301209E46002DE0D0C5E9004EDDE7F8
:1040200002B9FFDEB2FA82F2002A40F09280A1EBE0
:104030000C014FEA1C471FFA8CFE0126200CB1FB35
:10404000F7F307FB131140EA01410EFB03F088422E
:1040500008D91CEB010103F1FF3802D2884200F2BB
:10406000CB804346091AA4B2B1FBF7F007FB10114D
:1040700044EA01440EFB00FEA64508D91CEB0404EB
:1040800000F1FF3102D2A64500F2BB800846A4EB46
:104090000E0440EA03409CE7C6F12007B34022FA31
:1040A00007FC4CEA030C20FA07F401FA06F31C4360
:1040B000F9404FEA1C4900FA06F3B1FBF9F8200C6D
:1040C0001FFA8CFE09FB181140EA014108FB0EF0B3
:1040D000884202FA06F20BD91CEB010108F1FF3A03
:1040E00080F08880884240F28580A8F1020861440F
:1040F000091AA4B2B1FBF9F009FB101144EA01411D
:1041000000FB0EFE8E4508D91CEB010100F1FF34C7
:104110006CD28E456AD90238614440EA0840A0FB5F
:104120000294A1EB0E01A142C846A64656D353D035
:104130005DB1B3EB080261EB0E0101FA07F722FA59
:1041400006F3F1401F43C5E9007100263146BDE882
:10415000F087C2F12003D8400CFA02FC21FA03F3E5
:10416000914001434FEA1C471FFA8CFEB3FBF7F066
:1041700007FB10360B0C43EA064300FB0EF69E428B
:1041800004FA02F408D91CEB030300F1FF382FD224
:104190009E422DD9023863449B1B89B2B3FBF7F6CC
:1041A00007FB163341EA034106FB0EF38B4208D9A5
:1041B0001CEB010106F1FF3816D28B4214D9023EE6
:1041C0006144C91A46EA004638E72E46284605E704
:1041D0000646E3E61846F8E64B45A9D2B9EB0208D5
:1041E00064EB0C0E0138A3E74646EAE7204694E765
:1041F0004046D1E7D0467BE7023B614432E7304698
:1042000009E76444023842E7704700BF844641EA48
:10421000000313F003036DD1403A41D351F8043B3E
:1042200040F8043B51F8043B40F8043B51F8043B90
:1042300040F8043B51F8043B40F8043B51F8043B80
:1042400040F8043B51F8043B40F8043B51F8043B70
:1042500040F8043B51F8043B40F8043B51F8043B60
:1042600040F8043B51F8043B40F8043B51F8043B50
:1042700040F8043B51F8043B40F8043B51F8043B40
:1042800040F8043B51F8043B40F8043B51F8043B30
:1042900040F8043B51F8043B40F8043B403ABDD29F
:1042A000303211D351F8043B40F8043B51F8043B41
:1042B00040F8043B51F8043B40F8043B51F8043B00
:1042C00040F8043B103AEDD20C3205D351F8043BD0
:1042D00040F8043B043AF9D2043208D0D2071CBF9C
:1042E00011F8013B00F8013B01D30B8803806046C5
:1042F000704700BF082A13D38B078DD010F003033B
:104300008AD0C3F10403D21ADB071CBF11F8013BAA
:1043100000F8013B80D331F8023B20F8023B7BE7F9
:10432000043AD9D3013A11F8013B00F8013BF9D224
:104330000B7803704B7843708B78837060467047BE
:1043400090F800F06DE9024520F007016FF0000CD5
:1043500010F0070491F820F040F049804FF000047D
:104360006FF00700D1E9002391F840F000F1080058
:1043700082FA4CF2A4FA8CF283FA4CF3A2FA8CF390
:104380004BBBD1E9022382FA4CF200F10800A4FAF7
:104390008CF283FA4CF3A2FA8CF3E3B9D1E904234B
:1043A00082FA4CF200F10800A4FA8CF283FA4CF382
:1043B000A2FA8CF37BB9D1E9062301F1200182FA3C
:1043C0004CF200F10800A4FA8CF283FA4CF3A2FA42
:1043D0008CF3002BC6D0002A04BF04301A4612BA50
:1043E000B2FA82F2FDE8024500EBD2007047D1E953
:1043F000002304F00305C4F100004FEAC50514F0E2
:10440000040F91F840F00CFA05F562EA05021CBFB2
:1044100063EA050362464FF00004A9E7724B0022ED
:104420001A6093F8351062F3000183F8351093F8A1
:1044300035100A2060F3870183F8351093F838109F
:10444000642183F8381093F8391083F8392093F8F1
:10445000361083F8362093F8371083F8372093F816
:10446000311083F8312093F8321083F8322093F81A
:10447000331083F8332093F8341083F8342093F802
:10448000351041F0020183F8351093F8471062F3BC
:10449000000183F8471093F8471060F3870183F811
:1044A0004710996CC0F2C8019964996C62F30F01CE
:1044B000996493F8431083F8432093F8441083F8E9
:1044C000442093F8451083F8452093F8461083F86C
:1044D000462093F8471041F0020183F84710D98F26
:1044E00062F30001D987D98F092060F38701D9874A
:1044F000B3F84010C9B241F44841A3F8401093F812
:10450000421083F84220D98FC9B2D987B3F840103E
:1045100021F0FF01A3F84010598F5A87998F9A878D
:10452000D88F40F00201D987B3F8621062F300011E
:10453000A3F86210B3F86210082060F38701A3F8B3
:104540006210B3F86410C9B241F44841A3F8641092
:1045500093F8661083F86620B3F86210C9B2A3F826
:104560006210B3F8641021F0FF01A3F86410B3F8EF
:104570005E10A3F85E20B3F86010A3F86020B3F8D3
:10458000620040F00201A3F8621029E0501C00EB29
:10459000C00315490B44197A6FF3000119720232F6
:1045A000197A62F387011972DA7A00226FF0370103
:1045B000D972197B1A73597A5A72997A9A7293F846
:1045C00004C01A7193F805C05A7193F806C09A7125
:1045D00093F807C0DA711A7A42F002021A720246A0
:1045E000052AD3DD704700BFD804002000EBC002CD
:1045F000084B13441B7A13F0020F00D1704710B51B
:10460000044605F0A5F904EBC404024B1C446060A9
:1046100010BD00BFD804002038B5FFF7FFFE6420AE
:1046200008F03BFC40E004EBC402214B13441A7A2F
:104630006FF300021A7201340A2C2FDC05F088F99E
:1046400004EBC4021A4B13445A68801A80B2A3F8D0
:1046500009001B7A13F0020FE5D004EBC402144BDF
:104660001344B3F80920B3F80B309A42DBD904EBBA
:10467000C4020F4B13441A7A42F001021A721B7AD9
:10468000B5EB930FD7DA0A4A04EBC40313441D7A3F
:10469000AD080433136082F86740CCE7044B002276
:1046A0001A60322008F0F9FB00242546C4E700BF59
:1046B000D8040020B1F5805F0BDBA1F6FF738342C5
:1046C00002DC401A00B27047401A00F5005000B2F8
:1046D000704701F58053984204DD401AA0F5005060
:1046E00000B27047401A00B270470000214BB3F986
:1046F0000030002BB8BF5B429BB2092B2ED81D4B5C
:10470000B3F90230002BB8BF5B429BB2092B27D80C
:10471000184BB3F90430002BB8BF5B429BB2092B96
:1047200020D8144BB3F90630002BB8BF5B429BB2C4
:10473000092B19D80F4BB3F90A30002BB8BF5B42D5
:104740009BB2042B12D80B4BB3F90C30002BB8BF23
:104750005B429BB2042B0BD90120704701207047AC
:1047600001207047012070470120704701207047E9
:10477000002070477011002038B52DED088B40F6F1
:10478000B83008F08AFB9FED539A9FED53BADFEDE6
:1047900053AA9FED538A534D55220021DFED524A13
:1047A000B0EE494AF0EE4B3AB0EE6A3ADFED4F2AEE
:1047B000B0EE002AF1EE081AB0EE481ADFED4C0A0E
:1047C0009FED4C0A28460CF07AF94B4C4B4B23607A
:1047D00084ED018A84ED028A04231A46DFED480A3B
:1047E00021469FED480A05F5F2700CF0E2FA9FEDC4
:1047F00046AADFED469A47220021F0EE4A4A9FED95
:10480000444AF0EE003AB1EE043AF0EE0C2A9FED85
:10481000412AF3EE0E1AB0EE481ADFED3F0AB0EE71
:10482000690A05F1AA000CF04AF984ED008A4FF0FC
:104830007E53636084ED028ADFED388A03231A46D3
:10484000DFED370A2146B0EE680A05F51D700CF061
:10485000B0FA344B45F8AE3C334C05220021F0EE63
:10486000494AB0EE494AF0EE4B3AB0EE6A3AF0EE01
:104870004A2AB2EE042ADFED2D1AB0EE481AF0EE05
:10488000690A9FED2B0A20460CF019F90522002138
:10489000F0EE484AB0EE484AF0EE003AB1EE043A83
:1048A000DFED242A9FED242AF2EE0E1AB0EE481A0C
:1048B000F0EE680AB0EE680A04F1AA000CF0FFF806
:1048C000184B44F8AE3C1D4B01221A70BDEC088B0E
:1048D00038BD00BFBD37863500409C4500007A4496
:1048E00000000000140800200AD7A33D8FC2753CC9
:1048F0000000FA4400007A46400500200000C8414C
:104900000AD7A33B0060EA460AD7233C00803B4518
:10491000CDCCCC3D00003443000016440000A04341
:10492000ACC5273700F0D2469C0C0020000016438F
:104930000000FA456F12833A9A99993E500500207B
:1049400008B50C4B5B7B552B09D00BF097FE01F0A3
:1049500051FE01F03FFF0A2008F09FFAF5E7054BF2
:10496000B3F90A200260B3F908300B60024B012250
:104970001A7008BD088300204C05002008B52DEDF5
:10498000028B194802F0B2F8184BB3F90010184B1B
:10499000B3F91400FFF78EFE07EE900AF8EEE77AFF
:1049A0009FED148A87EE887A134B83ED007A134BC0
:1049B000B3F90010124BB3F91400FFF77BFE07EEBA
:1049C000900AF8EEE77A87EE887A0E4B83ED007A4C
:1049D000FFF78CFE0C4B98701A785A700CF0BCFBE9
:1049E000BDEC028B08BD00BF70050020C005002093
:1049F000C00B00200000B641C8050020A80500201B
:104A000038070020B00500205005002008B5084BED
:104A100000221A70074B1A68074B9A60C821074892
:104A20000CF0CEFDC82106480CF0CAFD08BD00BF41
:104A300064050020C805002050050020600000200B
:104A40007400002010B5364B5B7A012B07D0032B86
:104A500052D0344B01221A700BF010FE10BD314BB6
:104A60009B783BBB2F4B1B78022B0DD02E4B1B781A
:104A7000052B31D02B4B5B78012BEFD1294B00223A
:104A80001A70FFF7C3FFE9E7284BD3ED007AF0EE89
:104A9000E77A274B93ED007AF4EEC77AF1EE10FA3D
:104AA000E4D8204C032323700123E37004F050FF6B
:104AB0006060DBE71B4B1B78033BDBB2012BD5D8D7
:104AC000184B02221A700022DA701A4A0021116073
:104AD000194A9269DA60C9E7124B1B78032BC9D1D6
:104AE000104B02221A700022DA70124A0021116063
:104AF000114A9269DA60BDE70A4B9B781BB9094BF2
:104B000004221A70AAE7074B02221A700022DA70F8
:104B1000084A00211160084A9269DA609EE700BFE6
:104B2000701100205005002050100020C805002002
:104B300020000020BC0500207005002010B5314C7D
:104B40002268314B1A60314B1A68314B1A60314878
:104B50000CF03AFDF7EE007A77EEC07A94ED000A99
:104B600067EE807A2C4BC3ED007A2C4B1B78012B1F
:104B700017D0022B34D003B110BD294B9A68294BB2
:104B80001A60214BD3ED007AF0EEE77AB0EE007AAE
:104B9000F4EEC77AF1EE10FAEED8204B01221A702B
:104BA000EAE721480CF010FDF7EE007A77EEC07AC4
:104BB000164B93ED000A67EE807A1A4BC3ED007A2C
:104BC000134BD3ED007AF0EEE77AB0EE007AF4EE14
:104BD000C77AF1EE10FACFD8104B02221A70CBE749
:104BE0000F4C022323701148FBF7C6FB104B9A6948
:104BF000E260DB6923610023074A1360094A1360FE
:104C0000BAE700BFB0050020A0050020C8050020BD
:104C1000B805002060000020A405002064050020E5
:104C200050050020BC050020740000202C07002047
:104C30007005002010B52DED028B9FED1C4A9FEDF5
:104C40001C8A1C4C05220021F0EE444ADFED1A3A82
:104C50009FED1A3ADFED1A2AB2EE042ADFED191A97
:104C6000B0EE481ADFED180A9FED180A20460BF047
:104C700026FF9FED170A05220021F0EE484AB0EE0C
:104C8000484AF0EE003AB1EE043ADFED122A9FED09
:104C9000122AF2EE0E1AB0EE481AF0EE400A04F1B3
:104CA000AA000BF00CFFBDEC028B10BDBD378635A2
:104CB000000000009C0C002000409C4500007A444D
:104CC0000AD7233C0000164300803B450000FA450C
:104CD0000000A0436F12833A9A99993E10B52DEDCA
:104CE000028B9FED1C4A9FED1C2A9FED1C8A1C4CD9
:104CF00005220021F0EE444ADFED1A3A9FED1A3A00
:104D0000F0EE422AF1EE041AB0EE481ADFED170A6F
:104D10009FED170A20460BF0D2FE05220021F0EE8F
:104D2000484AB0EE484AF0EE003AB1EE043ADFED00
:104D3000112AB3EE042AF0EE431AB0EE481ADFED62
:104D40000E0A9FED0E0A04F1AA000BF0B8FEBDECAE
:104D5000028B10BDBD378635CDCC4C3E0000000027
:104D60009C0C002000409C4500007A4400803B459C
:104D70000000FA45CDCC4C3D0000484200007A4589
:104D8000114AB2F904305B4207EE903AF8EEE77A46
:104D90009FED0E7A67EE877AB6EE007A27EE877A75
:104DA000B2F90A3007EE903AF8EEE77ADFED086ADA
:104DB00067EEA67A77EE677A064B93ED007A77EE88
:104DC000277AC3ED007A7047701100206F12033B01
:104DD0000AD7A33CBC050020134BB3F9062007EE0D
:104DE000902AF8EEE77A9FED117A67EE877AB6EEB1
:104DF000007A67EE877AB3F90C3007EE103AB8EE16
:104E0000C77ADFED0B6A27EE267ADFED0A6A27EE16
:104E1000267A77EEC77A084B93ED007A77EE277AF9
:104E2000C3ED007A704700BF701100206F12033B82
:104E30000AD7A33CCDCC4C3FA405002008B52D4B90
:104E40001A682D4B1A602D4BD3ED067A2C4B93ED3F
:104E5000037A77EEC77A2B4BC3ED007A2A4B1B7887
:104E6000042B00D108BDFFF78BFFFFF7B5FF274BE1
:104E7000D3ED007A9FED267AF4EEC77AF1EE10FAC0
:104E800021D883ED007A1B4B93ED007ADFED217A78
:104E9000B4EEE77AF1EE10FAE4DB93ED007ADFEDA1
:104EA0001E7AB4EEE77AF1EE10FADBD81B4BD3EDA5
:104EB000007A9FED187AF4EEC77AF1EE10FA0DD869
:104EC00083ED007ACEE79FED167AF4EEC77AF1EE25
:104ED00010FAD8DB0D4B83ED007AD4E79FED0E7A04
:104EE000F4EEC77AF1EE10FABCDB0C4B83ED007ADE
:104EF000B8E700BFB0050020A00500207005002025
:104F000050050020B805002050100020BC050020EE
:104F10000000A0C20000FCC100000042A405002067
:104F20000000A04208B5174BDB78012B04D0154BCD
:104F3000DB78022B16D008BD04F00AFD114B5B682C
:104F4000C01A40F2DB53984209D90E4B0222DA70A4
:104F50000D4A002111600D4A9269DA60E7E7FFF718
:104F60006DFFE4E70A4B1A680A4B1A60074BD3ED52
:104F7000067A044B93ED037A77EEC77A064BC3EDBE
:104F8000007AD8E750050020BC05002070050020FD
:104F9000B0050020A0050020B805002008B5214B71
:104FA00093ED001A204BD3ED050A204B93ED000A38
:104FB0001F480CF0FBF9BDEEC00A1E4B10EE102A84
:104FC0001A801D4BD3ED007A9FED1C7AF4EEC77A60
:104FD000F1EE10FA1AD883ED007A174B93ED001A10
:104FE000114BD3ED030A164B93ED000A15480CF054
:104FF000DDF9BDEEC00A10EE103A19B2124B19805D
:105000000C4BB3F9000001F0BFFB08BD9FED0F7A18
:10501000F4EEC77AF1EE10FADFDB074B83ED007A8E
:10502000DBE700BFBC05002070050020B8050020AC
:10503000C00B0020C4050020A40500200000FCC116
:10504000A005002038070020AC0500200000004229
:1050500010B5304BD3ED017A9FED2F7A67EE877A4A
:105060002E4A92ED007ADFED2E6A27EE267A77EE51
:10507000877A2C4CC4ED007A9A682B4B1A60FFF7A4
:105080007FFED4ED007A9FED297AF4EEC77AF1EE37
:1050900010FA10DB9FED267AF4EEC77AF1EE10FAE3
:1050A00009D8214BD3ED007AF4EEC77AF1EE10FA6D
:1050B00024D883ED007A1C4BD3ED007A9FED1D7A46
:1050C000F4EEC77AF1EE10FA08DB9FED1B7AF4EEEE
:1050D000C77AF1EE10FA01D883ED007A0D4B5968CA
:1050E0000E4A11609A68154B1A60154B1A68154BD9
:1050F0001A60154B1A68154B1A6010BD9FED0B7A9C
:10510000F4EEC77AF1EE10FAD5DB074B83ED007AA7
:10511000D1E700BF5C1100203333333F94050020FA
:105120009A99993EA4050020BC0500200000004289
:105130000000FCC100002A4300002AC3980500209B
:10514000B0050020A0050020C8050020B8050020FB
:1051500000B583B0FFF710FB00234A4A13704A4A98
:1051600013704A494A48FFF7EBFB4A4B4BF6BB32F8
:105170001A8001221A7307F051FE019055E0454B49
:1051800000221A736CE0FFF7D9FC434B1B78012B0C
:1051900035D0424B93F8353013F0010F2FD13F4BF0
:1051A00093F83E3013F0010F29D13C4B93F8473070
:1051B00013F0010F23D1FFF7F1FE28E0FFF7B2FE55
:1051C000E3E7374B1B7813B1FFF738FEDDE7FFF756
:1051D00031FD334B01221A70324B00221A70F3E773
:1051E000304B1B7813B1FFF733FFCEE7FFF776FDA7
:1051F0002C4B01221A702A4B00221A70F3E7264B1F
:1052000001221A70284B00221A6201F0E3FA274BA0
:105210001A68204B5A60264A12689A601E4A127811
:105220001A76052101A807F03FFE04F091FB214CFE
:105230002368C01A204B186004F08AFB2060FFF737
:105240009DFBFFF7FFFB1D4B5B7C13F0040F07D0AA
:105250001A4B1B7C13F0100F91D00E4B01221A73C6
:105260000D4B1B78042B90D801A252F823F000BFFD
:10527000875100088B510008C3510008BD51000838
:10528000E15100084C050020B4050020C0050020B5
:10529000A80500200400002050050020D8040020AC
:1052A0009C05002000000020B4830020B0050020F1
:1052B000C8050020680500206C0500207011002042
:1052C0001C4B1B78CBB9DFED1C7AB4EEE70AF1EE8C
:1052D00010FA0CDD194A13780133DBB21370C82BB6
:1052E00005D9144B01221A70154B164A1A62164B37
:1052F0001B6841F287325A63704710B5104CDFEDDE
:105300000E0A20460CF018F9D4ED0B7AF5EEC07AAF
:10531000F1EE10FA0BD40A4BD3ED0B7AFCEEE77AE0
:1053200017EE903A9BB2084A1268536310BD0022F0
:10533000E262F0E7240600200000344281060020EB
:105340003406002000401C45887F002008B54A4BE9
:105350001B7813F0010F17D0484B9B6C1B681B6820
:1053600013F0010F10D1454BDB6C1B681B6813F069
:10537000010F09D1424B1B7813F0020F04D1414BAE
:105380001B7813F0020F3AD03D4B1B7813F0010F3E
:1053900017D03A4B9B6C1B681B6813F0010F10D1A0
:1053A000364BDB6C1B681B6813F0010F09D1324BC5
:1053B0001B7813F0020F04D1324B1B7813F0020F4D
:1053C00031D0304B1B7813F0010F17D02B4B9B6C57
:1053D0001B681B6813F0010F10D1284BDB6C1B6896
:1053E0001B6813F0010F09D1234B1B7813F0020F38
:1053F00004D1234B1B7813F0020F28D008BD1E4B9D
:105400001A7802F0FE021A701A7842F002021A703C
:10541000002201211C4805F04DFC08221B491C48B4
:1054200001F022FCEAE7164B1A7802F0FE021A702D
:105430001A7842F002021A7000221021154805F075
:1054400039FC09221449154801F00EFCD6E70D4B32
:105450001A7802F0FE021A701A7842F002021A70EC
:10546000002210210B4805F025FC04220C490D48B0
:1054700001F0FAFBC2E700BF30060020987E002052
:10548000FD050020FC050020000402402806002045
:105490003400002000000240EC0500202400002021
:1054A000F8050020300000204FF07E5303600023F9
:1054B00043608360C36070470748D0ED077AF1EE20
:1054C000677AC1ED007A81691160D0ED057AF1EE5D
:1054D000677AC3ED007A7047FC06002008B5072004
:1054E00007F0DBFC02E0642007F0D7FC03F0A5FF27
:1054F0000028F8D102E0642007F0CFFC04F008F99E
:105500000028F8D14C48041D00F110022146143047
:1055100004F040F89FED491ADFED490A9FED490A72
:1055200041F2301241F2941147480BF0FCFF474A18
:1055300021464748FFF7B8FF002008F0C5FD08F0F6
:1055400057FF444B186044481023C36106F00CFE1B
:1055500040B908224149424801F0FCFA414B01227E
:105560001A7042E00AF0B6F8F3E73F4A137803F006
:10557000F70313703D493E4803F0DAFF41E03D4A2E
:10558000137803F0FB0313702B4901F1200204315F
:10559000394803F085FF39E0384BDA682C4C22603B
:1055A0001A6862605A68A2609A68E260D3ED077A6E
:1055B000F1EE677A3249C1ED007A9A694A60D3ED1B
:1055C000057AF1EE677AC1ED027A0C22012003F030
:1055D000A7FB04222B49012003F0A2FB2A4901F179
:1055E00008030A1D2046FFF767FF4FF0FF31012037
:1055F00009F0DCF80128F8D11B4B1B7813F0080FD9
:10560000B3D11C4B1B7813F0040FB8D11F4B1B7880
:1056100013F0040FC0D01D4A137803F0FB0313707E
:10562000054C04F110011A4803F020FF94ED040A20
:10563000FFF746FEB0E700BF0006002000000000B4
:10564000CDCC4C3E0000C844340600207406002037
:10565000D8050020E8050020987E002028060020BC
:1056600034000020310600203006002014060020FF
:1056700029060020FD050020EE050020FC06002084
:10568000840600203C000020CC050020FC05002002
:10569000FA05002010B5102806D0202815D00828BB
:1056A0001FD0012835D010BD264A137843F00103DE
:1056B0001370254A137843F001031370234B1B78B2
:1056C000002BF0D0FFF742FEEDE7214A137843F0BC
:1056D000010313701D4B1B78002BE4D0FFF736FE3F
:1056E000E1E71C4A137843F001031370137803F0C9
:1056F00001031370002BD6D01346127802F0FE027D
:105700001A701A7842F002021A70134804F040F836
:10571000C9E708F0E1FF0128C5D0104C2146104B25
:10572000186809F07FF82368002BBCD04FF0E02305
:105730004FF08052C3F8042DBFF34F8FBFF36F8F2C
:10574000B1E700BFFD050020FC0500203106002068
:1057500030060020800600207406002090060020FD
:10576000E805002008B5AD4BDB6C1B68AC4A9342E2
:1057700040F29D80583A5268AA498B4231D001F5D7
:1057800080618B4278D0A1F568718B4276D001F5AB
:1057900080618B4274D0A1F589618B4272D001F592
:1057A00080618B4271D0A1F568718B4270D001F598
:1057B00080618B426FD0A1F589618B426ED001F57B
:1057C00080618B426DD0A1F568718B426CD001F580
:1057D00080618B4202D04FF0006103E04FF4001172
:1057E00000E020210A4214BF01220022002A00F01A
:1057F000A4818B4A934240F2BC81A2F58962934214
:1058000000F0718102F58062934200F09781A2F569
:105810006872934200F0948102F58062934200F036
:105820009181A2F58962934200F08E8102F5806237
:10583000934200F08C81A2F56872934200F08A8155
:1058400002F58062934200F08881A2F5896293425A
:1058500000F0868102F58062934200F08481A2F517
:105860006872934200F0828102F58062934200F0F8
:1058700037814FF0006237E12021B3E72021B1E703
:105880002021AFE74FF40061ACE74FF40061A9E7D6
:105890004FF40061A6E74FF40061A3E74FF4001155
:1058A000A0E74FF400119DE74FF400119AE75E4A1C
:1058B000934258D902F5527212685A498B4231D03C
:1058C00001F580618B4233D0A1F568718B4231D0F4
:1058D00001F580618B422FD0A1F589618B422DD0DB
:1058E00001F580618B422CD0A1F568718B422BD0E1
:1058F00001F580618B422AD0A1F589618B4229D0C4
:1059000001F580618B4228D0A1F568718B4227D0C8
:1059100001F580618B4202D04FF0006103E04FF44B
:10592000001100E020210A4214BF012200225DE79D
:105930002021F8E72021F6E72021F4E74FF4006169
:10594000F1E74FF40061EEE74FF40061EBE74FF44D
:105950000061E8E74FF40011E5E74FF40011E2E7DA
:105960004FF40011DFE7314A934261D9583A526847
:105970002C498B4231D001F580618B4233D0A1F5A7
:1059800068718B4231D001F580618B422FD0A1F537
:1059900089618B422DD001F580618B422CD0A1F51D
:1059A00068718B422BD001F580618B422AD0A1F522
:1059B00089618B4229D001F580618B4228D0A1F505
:1059C00068718B4227D001F580618B4202D04FF085
:1059D000006103E04FF4001100E020210A4214BFEF
:1059E0000122002202E72021F8E72021F6E720210A
:1059F000F4E74FF40061F1E74FF40061EEE74FF494
:105A00000061EBE74FF40061E8E74FF40011E5E7D0
:105A10004FF40011E2E74FF40011DFE7987E002019
:105A20005864024010600240B86002405860024072
:105A3000A74A1268A7498B4231D001F580618B4299
:105A400033D0A1F568718B4231D001F580618B4272
:105A50002FD0A1F589618B422DD001F580618B4259
:105A60002CD0A1F568718B422BD001F580618B425F
:105A70002AD0A1F589618B4229D001F580618B4242
:105A800028D0A1F568718B4227D001F580618B4247
:105A900002D04FF0006103E04FF4001100E020213C
:105AA0000A4214BF01220022A0E62021F8E72021AB
:105AB000F6E72021F4E74FF40061F1E74FF40061CD
:105AC000EEE74FF40061EBE74FF40061E8E74FF4D5
:105AD0000011E5E74FF40011E2E74FF40011DFE7B2
:105AE0004FF4001200E020227B4BDA607B4B1B78E6
:105AF00013F0020F40F05281794B1B7813F0020F24
:105B000040F05B81774B1B7813F0020F40F064810B
