:020000040800F2
:100000000000022061B50008959000089790000854
:10001000999000089B9000089D9000080000000047
:10002000000000000000000000000000416800081F
:100030009F90000800000000E1680008A1900008FF
:10004000B1B50008B1B50008B1B50008B1B50008F8
:10005000B1B50008B1B50008B7900008B1B5000807
:10006000B1B50008C1900008CB900008B1B50008F8
:10007000B1B50008B1B50008B1B50008B1B50008C8
:10008000B1B50008B1B50008B1B50008B1B50008B8
:10009000D5900008B1B50008B1B50008E59000089A
:1000A000B1B50008B1B50008B1B50008B1B5000898
:1000B000B1B50008B1B50008B1B50008B1B5000888
:1000C000B1B50008B1B50008B1B50008B1B5000878
:1000D000B1B50008B1B50008B1B50008152E00088B
:1000E000B1B50008B1B50008B1B50008B1B5000858
:1000F000B1B50008B1B50008B1B50008B1B5000848
:10010000B1B50008B1B50008B1B50008B1B5000837
:10011000B1B50008B1B50008B1B50008B1B5000827
:10012000B1B50008F1900008B1B50008B1B50008FC
:10013000B1B50008B1B50008B1B50008B1B5000807
:1001400001910008B1B50008B1B50008B1B50008CB
:10015000B1B500081191000821910008B1B500085F
:10016000B1B50008B1B50008B1B50008B1B50008D7
:10017000B1B50008B1B50008B1B500080000000035
:08018000B1B50008B1B500089B
:1001900010B5054C237833B9044B13B10448AFF3C1
:1001A00000800123237010BDB00400200000000077
:1001B00024C0000808B5034B1BB103490348AFF343
:1001C000008008BD00000000B404002024C0000826
:1001D00081F0004102E000BF83F0004330B54FEAF8
:1001E00041044FEA430594EA050F08BF90EA020F65
:1001F0001FBF54EA000C55EA020C7FEA645C7FEAF8
:10020000655C00F0E2804FEA5454D4EB5555B8BF1A
:100210006D420CDD2C4480EA020281EA030382EA8B
:10022000000083EA010180EA020281EA0303362D1D
:1002300088BF30BD11F0004F4FEA01314FF4801CF0
:100240004CEA113102D0404261EB410113F0004F02
:100250004FEA03334CEA133302D0524263EB4303B9
:1002600094EA050F00F0A780A4F10104D5F1200E57
:100270000DDB02FA0EFC22FA05F2801841F10001B2
:1002800003FA0EF2801843FA05F359410EE0A5F186
:1002900020050EF1200E012A03FA0EFC28BF4CF0B7
:1002A000020C43FA05F3C01851EBE37101F000456D
:1002B00007D54FF0000EDCF1000C7EEB00006EEB7A
:1002C0000101B1F5801F1BD3B1F5001F0CD3490804
:1002D0005FEA30004FEA3C0C04F101044FEA44525B
:1002E00012F5800F80F09A80BCF1004F08BF5FEAE2
:1002F000500C50F1000041EB045141EA050130BDC2
:100300005FEA4C0C404141EB0101013C28BFB1F5D3
:10031000801FE9D291F0000F04BF01460020B1FA1E
:1003200081F308BF2033A3F10B03B3F120020CDAF1
:100330000C3208DD02F1140CC2F10C0201FA0CF0CF
:1003400021FA02F10CE002F11402D8BFC2F1200C34
:1003500001FA02F120FA0CFCDCBF41EA0C019040EA
:10036000E41AA2BF01EB0451294330BD6FEA040433
:100370001F3C1CDA0C340EDC04F11404C4F120021E
:1003800020FA04F001FA02F340EA030021FA04F330
:1003900045EA030130BDC4F10C04C4F1200220FA87
:1003A00002F001FA04F340EA0300294630BD21FAC5
:1003B00004F0294630BD94F0000F83F4801306BF8B
:1003C00081F480110134013D4EE77FEA645C18BF7F
:1003D0007FEA655C29D094EA050F08BF90EA020F16
:1003E00005D054EA000C04BF1946104630BD91EA0E
:1003F000030F1EBF0021002030BD5FEA545C05D111
:100400004000494128BF41F0004130BD14F580044F
:100410003CBF01F5801130BD01F0004545F0FE41C3
:1004200041F470014FF0000030BD7FEA645C1ABFF8
:10043000194610467FEA655C1CBF0B46024650EA2F
:10044000013406BF52EA033591EA030F41F400215B
:1004500030BD00BF90F0000F04BF0021704730B5E1
:100460004FF4806404F132044FF000054FF00001B6
:1004700050E700BF90F0000F04BF0021704730B577
:100480004FF4806404F1320410F0004548BF40424C
:100490004FF000013EE700BF42004FEAE2014FEAA1
:1004A00031014FEA02701FBF12F07F4393F07F4F7C
:1004B00081F06051704732F07F4208BF704793F07F
:1004C0007F4F04BF41F40021704730B54FF4607492
:1004D00001F0004521F000411CE700BF50EA010295
:1004E00008BF704730B54FF000050AE050EA01023E
:1004F00008BF704730B511F0004502D5404261EBAE
:1005000041014FF4806404F132045FEA915C3FF4EE
:10051000D8AE4FF003025FEADC0C18BF03325FEA8B
:10052000DC0C18BF033202EBDC02C2F1200300FA3C
:1005300003FC20FA02F001FA03FE40EA0E0021FA61
:1005400002F11444BDE600BF70B54FF0FF0C4CF44F
:10055000E06C1CEA11541DBF1CEA135594EA0C0F01
:1005600095EA0C0F00F0DEF82C4481EA030621EA3C
:100570004C5123EA4C5350EA013518BF52EA033577
:1005800041F4801143F4801338D0A0FB02CE4FF029
:100590000005E1FB02E506F00042E0FB03E54FF059
:1005A0000006E1FB03569CF0000F18BF4EF0010E51
:1005B000A4F1FF04B6F5007F64F5407404D25FEA4D
:1005C0004E0E6D4146EB060642EAC62141EA555100
:1005D0004FEAC52040EA5E504FEACE2EB4F1FD0C42
:1005E00088BFBCF5E06F1ED8BEF1004F08BF5FEAC0
:1005F000500E50F1000041EB045170BD06F0004672
:1006000046EA010140EA020081EA0301B4EB5C041E
:10061000C2BFD4EB0C0541EA045170BD41F4801116
:100620004FF0000E013C00F3AB8014F1360FDEBF3B
:10063000002001F0004170BDC4F10004203C35DA17
:100640000C341BDC04F11404C4F1200500FA05F39A
:1006500020FA04F001FA05F240EA020001F000423B
:1006600021F0004110EBD37021FA04F642EB0601B1
:100670005EEA430E08BF20EAD37070BDC4F10C04DB
:10068000C4F1200500FA04F320FA05F001FA04F29F
:1006900040EA020001F0004110EBD37041F100018B
:1006A0005EEA430E08BF20EAD37070BDC4F1200596
:1006B00000FA05F24EEA020E20FA04F301FA05F2FE
:1006C00043EA020321FA04F001F0004121FA04F2A6
:1006D00020EA020000EBD3705EEA430E08BF20EA76
:1006E000D37070BD94F0000F0FD101F000464000B0
:1006F00041EB010111F4801F08BF013CF7D041EA32
:10070000060195F0000F18BF704703F00046520035
:1007100043EB030313F4801F08BF013DF7D043EA06
:100720000603704794EA0C0F0CEA135518BF95EABC
:100730000C0F0CD050EA410618BF52EA4306D1D143
:1007400081EA030101F000414FF0000070BD50EA62
:10075000410606BF1046194652EA430619D094EAEC
:100760000C0F02D150EA013613D195EA0C0F05D1D6
:1007700052EA03361CBF104619460AD181EA03012A
:1007800001F0004141F0FE4141F470014FF00000E2
:1007900070BD41F0FE4141F4780170BD70B54FF07D
:1007A000FF0C4CF4E06C1CEA11541DBF1CEA1355FD
:1007B00094EA0C0F95EA0C0F00F0A7F8A4EB0504DF
:1007C00081EA030E52EA03354FEA013100F08880D6
:1007D0004FEA03334FF0805545EA131343EA12639F
:1007E0004FEA022245EA111545EA10654FEA002654
:1007F0000EF000419D4208BF964244F1FD0404F50D
:10080000407402D25B084FEA3202B61A65EB030568
:100810005B084FEA32024FF480104FF4002CB6EB25
:10082000020E75EB030E22BFB61A754640EA0C00A5
:100830005B084FEA3202B6EB020E75EB030E22BFE5
:10084000B61A754640EA5C005B084FEA3202B6EB26
:10085000020E75EB030E22BFB61A754640EA9C00E5
:100860005B084FEA3202B6EB020E75EB030E22BFB5
:10087000B61A754640EADC0055EA060E18D04FEA73
:10088000051545EA16754FEA06164FEAC30343EA13
:1008900052734FEAC2025FEA1C1CC0D111F4801FE0
:1008A0000BD141EA00014FF000004FF0004CB6E7D9
:1008B00011F4801F04BF01430020B4F1FD0C88BF78
:1008C000BCF5E06F3FF6AFAEB5EB030C04BFB6EB83
:1008D000020C5FEA500C50F1000041EB045170BD76
:1008E0000EF0004E4EEA113114EB5C04C2BFD4EBA3
:1008F0000C0541EA045170BD41F480114FF0000E27
:10090000013C90E645EA060E8DE60CEA135594EAA2
:100910000C0F08BF95EA0C0F3FF43BAF94EA0C0FA5
:100920000AD150EA01347FF434AF95EA0C0F7FF41A
:1009300025AF104619462CE795EA0C0F06D152EA6E
:1009400003353FF4FDAE1046194622E750EA410652
:1009500018BF52EA43067FF4C5AE50EA41047FF463
:100960000DAF52EA43057FF4EBAE12E74FEA4102C6
:10097000B2F1E04324BFB3F5001CDCF1FE5C0DD9FD
:1009800001F0004C4FEAC0024CEA5070B2F1004F47
:1009900040EB830008BF20F00100704711F0804F4A
:1009A00021D113F13872BCBF01F00040704741F40F
:1009B00080114FEA5252C2F11802C2F1200C10FA13
:1009C0000CF320FA02F018BF40F001004FEAC123F7
:1009D0004FEAD32303FA0CFC40EA0C0023FA02F39B
:1009E0004FEA4303CCE77FEA625307D150EA013371
:1009F0001EBF4FF0FE4040F44000704701F0004041
:100A000040F0FE4040F40000704700BF53B94AB9BF
:100A1000002908BF00281CBF4FF0FF314FF0FF3006
:100A200000F074B9ADF1080C6DE904CE00F006F8E1
:100A3000DDF804E0DDE9022304B070472DE9F0475A
:100A4000089D04468E46002B4DD18A42944669D9B2
:100A5000B2FA82F252B101FA02F3C2F1200120FA95
:100A600001F10CFA02FC41EA030E94404FEA1C48E3
:100A7000210CBEFBF8F61FFA8CF708FB16E341EADF
:100A8000034306FB07F199420AD91CEB030306F165
:100A9000FF3080F01F81994240F21C81023E634486
:100AA0005B1AA4B2B3FBF8F008FB103344EA03442A
:100AB00000FB07F7A7420AD91CEB040400F1FF333F
:100AC00080F00A81A74240F207816444023840EA7C
:100AD0000640E41B00261DB1D4400023C5E90043B5
:100AE0003146BDE8F0878B4209D9002D00F0EF8038
:100AF0000026C5E9000130463146BDE8F087B3FA6B
:100B000083F6002E4AD18B4202D3824200F2F98052
:100B1000841A61EB030301209E46002DE0D0C5E955
:100B2000004EDDE702B9FFDEB2FA82F2002A40F0A1
:100B30009280A1EB0C014FEA1C471FFA8CFE0126A4
:100B4000200CB1FBF7F307FB131140EA01410EFB48
:100B500003F0884208D91CEB010103F1FF3802D2EF
:100B6000884200F2CB804346091AA4B2B1FBF7F0E9
:100B700007FB101144EA01440EFB00FEA64508D90C
:100B80001CEB040400F1FF3102D2A64500F2BB8049
:100B90000846A4EB0E0440EA03409CE7C6F1200798
:100BA000B34022FA07FC4CEA030C20FA07F401FADE
:100BB00006F31C43F9404FEA1C4900FA06F3B1FB67
:100BC000F9F8200C1FFA8CFE09FB181140EA0141CC
:100BD00008FB0EF0884202FA06F20BD91CEB010169
:100BE00008F1FF3A80F08880884240F28580A8F1C1
:100BF00002086144091AA4B2B1FBF9F009FB101113
:100C000044EA014100FB0EFE8E4508D91CEB0101B0
:100C100000F1FF346CD28E456AD90238614440EA53
:100C20000840A0FB0294A1EB0E01A142C846A646D3
:100C300056D353D05DB1B3EB080261EB0E0101FA5C
:100C400007F722FA06F3F1401F43C5E900710026B9
:100C50003146BDE8F087C2F12003D8400CFA02FC0F
:100C600021FA03F3914001434FEA1C471FFA8CFE1F
:100C7000B3FBF7F007FB10360B0C43EA064300FB0F
:100C80000EF69E4204FA02F408D91CEB030300F1AD
:100C9000FF382FD29E422DD9023863449B1B89B264
:100CA000B3FBF7F607FB163341EA034106FB0EF3ED
:100CB0008B4208D91CEB010106F1FF3816D28B429A
:100CC00014D9023E6144C91A46EA004638E72E4666
:100CD000284605E70646E3E61846F8E64B45A9D25E
:100CE000B9EB020864EB0C0E0138A3E74646EAE7CD
:100CF000204694E74046D1E7D0467BE7023B61447B
:100D000032E7304609E76444023842E7704700BFE3
:100D1000844641EA000313F003036DD1403A41D306
:100D200051F8043B40F8043B51F8043B40F8043BC5
:100D300051F8043B40F8043B51F8043B40F8043BB5
:100D400051F8043B40F8043B51F8043B40F8043BA5
:100D500051F8043B40F8043B51F8043B40F8043B95
:100D600051F8043B40F8043B51F8043B40F8043B85
:100D700051F8043B40F8043B51F8043B40F8043B75
:100D800051F8043B40F8043B51F8043B40F8043B65
:100D900051F8043B40F8043B51F8043B40F8043B55
:100DA000403ABDD2303211D351F8043B40F8043BF5
:100DB00051F8043B40F8043B51F8043B40F8043B35
:100DC00051F8043B40F8043B103AEDD20C3205D305
:100DD00051F8043B40F8043B043AF9D2043208D0FD
:100DE000D2071CBF11F8013B00F8013B01D30B886F
:100DF00003806046704700BF082A13D38B078DD04D
:100E000010F003038AD0C3F10403D21ADB071CBF1E
:100E100011F8013B00F8013B80D331F8023B20F888
:100E2000023B7BE7043AD9D3013A11F8013B00F8C1
:100E3000013BF9D20B7803704B7843708B78837049
:100E4000604670474FF0FF3C06E000BF4FF0010CDA
:100E500002E000BF4FF0010C4DF804CD4FEA410C09
:100E60007FEA6C5C4FEA430C18BF7FEA6C5C1BD0D6
:100E700001B050EA410C0CBF52EA430C91EA030F57
:100E800002BF90EA020F0020704710F1000F91EAB4
:100E9000030F58BF994208BF90422CBFD8176FEA82
:100EA000E37040F0010070474FEA410C7FEA6C5C50
:100EB00002D150EA013C07D14FEA430C7FEA6C5C57
:100EC000D6D152EA033CD3D05DF8040B704700BF83
:100ED0008446104662468C461946634600E000BFD1
:100EE00001B5FFF7B7FF002848BF10F1000F01BDA3
:100EF0004DF808EDFFF7F4FF0CBF012000205DF86E
:100F000008FB00BF4DF808EDFFF7EAFF34BF0120F2
:100F100000205DF808FB00BF4DF808EDFFF7E0FF8B
:100F200094BF012000205DF808FB00BF4DF808EDDC
:100F3000FFF7CEFF94BF012000205DF808FB00BF43
:100F40004DF808EDFFF7C4FF34BF012000205DF825
:100F500008FB00BF4FEA410C7FEA6C5C02D150EA0B
:100F6000013C0AD14FEA430C7FEA6C5C02D152EAA1
:100F7000033C02D14FF0000070474FF00100704772
:100F8000724B00221A6093F8351062F3000183F867
:100F9000351093F835100A2060F3870183F8351077
:100FA00093F83810642183F8381093F8391083F8D7
:100FB000392093F8361083F8362093F8371083F8E9
:100FC000372093F8311083F8312093F8321083F8EA
:100FD000322093F8331083F8332093F8341083F8D9
:100FE000342093F8351041F0020183F8351093F85E
:100FF000471062F3000183F8471093F8471060F33D
:10100000870183F84710996CC0F2C8019964996C04
:1010100062F30F01996493F8431083F8432093F827
:10102000441083F8442093F8451083F8452093F842
:10103000461083F8462093F8471041F0020183F8E8
:101040004710D98F62F30001D987D98F092060F347
:101050008701D987B3F84010C9B241F44841A3F8D9
:10106000401093F8421083F84220D98FC9B2D98733
:10107000B3F8401021F0FF01A3F84010598F5A87B0
:10108000998F9A87D88F40F00201D987B3F8621000
:1010900062F30001A3F86210B3F86210082060F355
:1010A0008701A3F86210B3F86410C9B241F4484153
:1010B000A3F8641093F8661083F86620B3F8621002
:1010C000C9B2A3F86210B3F8641021F0FF01A3F8CD
:1010D0006410B3F85E10A3F85E20B3F86010A3F8B4
:1010E0006020B3F8620040F00201A3F8621029E02A
:1010F000501C00EBC00315490B44197A6FF3000133
:1011000019720232197A62F387011972DA7A0022AF
:101110006FF03701D972197B1A73597A5A72997A1A
:101120009A7293F804C01A7193F805C05A7193F833
:1011300006C09A7193F807C0DA711A7A42F0020277
:101140001A720246052AD3DD704700BFCC04002086
:1011500000EBC002084B13441B7A13F0020F00D1BE
:10116000704710B5044602F0BBFB04EBC404024B0D
:101170001C44606010BD00BFCC04002038B5FFF7F0
:10118000FFFE642005F0B3FA40E004EBC402214BFB
:1011900013441A7A6FF300021A7201340A2C2FDCFE
:1011A00002F09EFB04EBC4021A4B13445A68801AE7
:1011B00080B2A3F809001B7A13F0020FE5D004EB0C
:1011C000C402144B1344B3F80920B3F80B309A420D
:1011D000DBD904EBC4020F4B13441A7A42F001022C
:1011E0001A721B7AB5EB930FD7DA0A4A04EBC403E1
:1011F00013441D7AAD080433136082F86740CCE7CE
:10120000044B00221A60322005F071FA00242546B2
:10121000C4E700BFCC040020B1F5805F0BDBA1F672
:10122000FF73834202DC401A00B27047401A00F597
:10123000005000B2704701F58053984204DD401A17
:10124000A0F5005000B27047401A00B2704700008D
:10125000214BB3F90030002BB8BF5B429BB2092B86
:101260002ED81D4BB3F90230002BB8BF5B429BB2A6
:10127000092B27D8184BB3F90430002BB8BF5B42B9
:101280009BB2092B20D8144BB3F90630002BB8BF02
:101290005B429BB2092B19D80F4BB3F90A30002BD4
:1012A000B8BF5B429BB2042B12D80B4BB3F90C3086
:1012B000002BB8BF5B429BB2042B0BD901207047B7
:1012C00001207047012070470120704701207047BE
:1012D0000120704700207047B010002038B52DED78
:1012E000088B40F6B83005F002FA9FED539A9FED57
:1012F00053BADFED53AA9FED538A534D5522002177
:10130000DFED524AB0EE494AF0EE4B3AB0EE6A3A9F
:10131000DFED4F2AB0EE002AF3EE001AB0EE481AC5
:10132000DFED4C0A9FED4C0A284609F01EFA4B4CA3
:101330004B4B236084ED018A84ED028A04231A4614
:10134000DFED480A21469FED480A05F5F27009F0E5
:1013500086FB9FED46AADFED469A47220021F0EE7C
:101360004A4A9FED444AF0EE003AB1EE043AF0EEFC
:101370000C2A9FED412ADFED411AB0EE481ADFED4D
:10138000400AB0EE690A05F1AA0009F0EEF984ED11
:10139000008A4FF07E53636084ED028ADFED398A64
:1013A00003231A46DFED380A2146B0EE680A05F538
:1013B0001D7009F054FB354B45F8AE3C344C05220A
:1013C0000021F0EE494AB0EE494AF0EE4B3AB0EE59
:1013D0006A3AF0EE4A2AB3EE042ADFED2E1AB0EE96
:1013E000481AF0EE690A9FED2C0A204609F0BDF973
:1013F00005220021F0EE484AB0EE484AF0EE003AED
:10140000B1EE043ADFED252AB6EE002AF3EE0E1A0D
:10141000B0EE481AF0EE680AB0EE680A04F1AA00CD
:1014200009F0A3F9194B44F8AE3C1D4B01221A7088
:10143000BDEC088B38BD00BFBD37863500409C45EC
:1014400000007A4400000000340700200AD7A33DC2
:101450008FC2753C0000FA4400007A463405002033
:101460000000C8410AD7A33B0060EA460AD7233CE4
:1014700000803B45CDCCCC3D000034430000B4425D
:10148000000016440000A043ACC5273700F0D24648
:10149000BC0B0020000096430000FA456F12833A0F
:1014A0004405002008B50C4B5B7B552B09D008F098
:1014B0003BFF01F039F901F027FA0A2005F017F98E
:1014C000F5E7054BB3F90A200260B3F908300B6069
:1014D000024B01221A7008BDA482002040050020A2
:1014E00008B52DED028B194801F094FB184BB3F9A8
:1014F0000010184BB3F91400FFF78EFE07EE900AA8
:10150000F8EEE77A9FED148A87EE887A134B83ED25
:10151000007A134BB3F90010124BB3F91400FFF724
:101520007BFE07EE900AF8EEE77A87EE887A0E4B9C
:1015300083ED007AFFF78CFE0C4B98701A785A7086
:1015400009F060FCBDEC028B08BD00BF6405002003
:10155000B4050020E00A00200000B641BC050020D0
:101560009C05002058060020A4050020440500200A
:1015700008B5084B00221A70074B1A68074B9A608F
:10158000C821074809F072FEC821064809F06EFE1E
:1015900008BD00BF58050020BC0500204405002000
:1015A000540000206800002010B5364B5B7A012BF8
:1015B00007D0032B52D0344B01221A7008F0B4FE2E
:1015C00010BD314B9B783BBB2F4B1B78022B0DD0B2
:1015D0002E4B1B78052B31D02B4B5B78012BEFD199
:1015E000294B00221A70FFF7C3FFE9E7284BD3ED20
:1015F000007AF0EEE77A274B93ED007AF4EEC77AA3
:10160000F1EE10FAE4D8204C032323700123E37099
:1016100002F066F96060DBE71B4B1B78033BDBB233
:10162000012BD5D8184B02221A700022DA701A4A00
:1016300000211160194A9269DA60C9E7124B1B78E0
:10164000032BC9D1104B02221A700022DA70124A01
:1016500000211160114A9269DA60BDE70A4B9B785C
:101660001BB9094B04221A70AAE7074B02221A7011
:101670000022DA70084A00211160084A9269DA6093
:101680009EE700BFB010002044050020700F00202E
:10169000BC05002020000020B005002064050020CB
:1016A00010B52F4C22682F4B1A602F4B1A682F4B06
:1016B0001A602F4809F0DEFDF7EE007A77EEC07A67
:1016C00094ED000A67EE807A2A4BC3ED007A2A4B2C
:1016D0001B78012B17D0022B34D003B110BD274B40
:1016E0009A68274B1A601F4BD3ED007AF0EEE77A29
:1016F000B0EE007AF4EEC77AF1EE10FAEED81E4B97
:1017000001221A70EAE71F4809F0B4FDF7EE007AEB
:1017100077EEC07A144B93ED000A67EE807A184B8F
:10172000C3ED007A114BD3ED007AF0EEE77AB0EE1C
:10173000007AF4EEC77AF1EE10FACFD80E4B0222FF
:101740001A70CBE70D4B02221A700F4A9169D960CB
:10175000D2691A610023074A1360094A1360BDE782
:10176000A405002094050020BC050020AC05002045
:101770005400002098050020580500204405002052
:10178000B0050020680000206405002010B52DED94
:10179000028B9FED1C4A9FED1C8A1C4C05220021E8
:1017A000F0EE444ADFED1A3A9FED1A3ADFED1A2ABD
:1017B000B3EE042ADFED191AB0EE481ADFED180A6D
:1017C0009FED180A204608F0D0FF9FED170A05226A
:1017D0000021F0EE484AB0EE484AF0EE003AB1EE91
:1017E000043ADFED122AB6EE002AF3EE0E1AB0EE3E
:1017F000481AF0EE400A04F1AA0008F0B6FFBDEC6A
:10180000028B10BDBD37863500000000BC0B0020E8
:1018100000409C4500007A440AD7233C00009643D0
:1018200000803B450000FA450000A0436F12833A58
:1018300010B52DED028B9FED1C4A9FED1C8A1C4CB0
:1018400005220021F0EE444ADFED1A3A9FED1A3AE4
:10185000DFED1A2AB0EE002ADFED191AB0EE481AB1
:10186000DFED180A9FED180A204608F07EFF0522DA
:101870000021F0EE484AB0EE484AF0EE003AB1EEF0
:10188000043ADFED122A9FED122AF3EE0E1AB0EEA3
:10189000481ADFED100A9FED100A04F1AA0008F0C3
:1018A00064FFBDEC028B10BDBD3786350000000023
:1018B000BC0B002000409C4500007A44CDCC4C3E3F
:1018C0000000C84200803B450000FA45CDCC4C3DAD
:1018D000000096430000484200007A45114AB2F9E0
:1018E00004305B4207EE903AF8EEE77A9FED0E7A0D
:1018F00067EE877AB6EE007A27EE877AB2F90A3079
:1019000007EE903AF8EEE77ADFED086A67EEA67A1E
:1019100077EE677A064B93ED007A77EE277AC3ED80
:10192000007A7047B01000206F12033B0AD7A33C27
:10193000B0050020134BB3F9062007EE902AF8EE0D
:10194000E77A9FED117A67EE877AB6EE007A67EE56
:10195000877AB3F90C3007EE103AB8EEC77ADFEDAC
:101960000B6A27EE267ADFED0A6A27EE267A77EEF3
:10197000C77A084B93ED007A77EE277AC3ED007AA9
:10198000704700BFB01000206F12033B0AD7A33C82
:10199000CDCC4C3F9805002008B5204B1A68204B51
:1019A0001A60204BD3ED067A1F4B93ED037A77EE46
:1019B000C77A1E4BC3ED007A1D4B1B78042B00D158
:1019C00008BDFFF78BFFFFF7B5FF144BD3ED007A8F
:1019D0009FED187AF4EEC77AF1EE10FAF0DB9FED86
:1019E000167AF4EEC77AF1EE10FAE9D8134BD3ED7C
:1019F000007A9FED107AF4EEC77AF1EE10FA02D871
:101A000083ED007ADCE79FED0C7AF4EEC77AF1EE15
:101A100010FAD5DB094B83ED007AD1E7A40500204D
:101A2000940500206405002044050020AC0500203A
:101A3000700F00200000FCC100000042980500204B
:101A400008B5174BDB78012B04D0154BDB78022B44
:101A500016D008BD01F044FF114B5B68C01A40F27C
:101A6000DB53984209D90E4B0222DA700D4A00214D
:101A700011600D4A9269DA60E7E7FFF78DFFE4E74E
:101A80000A4B1A680A4B1A60074BD3ED067A044BCF
:101A900093ED037A77EEC77A064BC3ED007AD8E769
:101AA00044050020B005002064050020A4050020A6
:101AB00094050020AC05002008B5214B93ED001AD9
:101AC000204BD3ED050A204B93ED000A1F4809F087
:101AD000C3FABDEEC00A1E4B10EE102A1A801D4B31
:101AE000D3ED007A9FED1C7AF4EEC77AF1EE10FA8E
:101AF0001AD883ED007A174B93ED001A114BD3EDF2
:101B0000030A164B93ED000A154809F0A5FABDEE3D
:101B1000C00A10EE103A19B2124B19800C4BB3F9EF
:101B2000000000F0CBFE08BD9FED0F7AF4EEC77AFF
:101B3000F1EE10FADFDB074B83ED007ADBE700BF45
:101B4000B005002064050020AC050020E00A00205C
:101B5000B8050020980500200000FCC19405002075
:101B600058060020A00500200000004210B5304BB0
:101B7000D3ED017A9FED2F7A67EE877A2E4A92EDA8
:101B8000007ADFED2E6A27EE267A77EE877A2C4CE4
:101B9000C4ED007A9A682B4B1A60FFF79FFED4EDD4
:101BA000007A9FED297AF4EEC77AF1EE10FA10DB95
:101BB0009FED267AF4EEC77AF1EE10FA09D8214BA0
:101BC000D3ED007AF4EEC77AF1EE10FA24D883ED63
:101BD000007A1C4BD3ED007A9FED1D7AF4EEC77AA4
:101BE000F1EE10FA08DB9FED1B7AF4EEC77AF1EE06
:101BF00010FA01D883ED007A0D4B59680E4A116036
:101C00009A68154B1A60154B1A68154B1A60154BDC
:101C10001A68154B1A6010BD9FED0B7AF4EEC77A67
:101C2000F1EE10FAD5DB074B83ED007AD1E700BF68
:101C30009C1000203333333F880500209A99993E49
:101C400098050020B0050020000000420000FCC103
:101C500000002A4300002AC38C050020A4050020B0
:101C600094050020BC050020AC05002000B583B021
:101C7000FFF734FB00234A4A13704A4A13704A495B
:101C80004A48FFF70FFC4A4B4BF6BB321A80012241
:101C90001A7304F0EDFC019055E0454B00221A73D5
:101CA0006CE0FFF7FDFC434B1B78012B35D0424B1A
:101CB00093F8353013F0010F2FD13F4B93F83E309E
:101CC00013F0010F29D13C4B93F8473013F0010F6B
:101CD00023D1FFF7F1FE28E0FFF7B2FEE3E7374B31
:101CE0001B7813B1FFF758FEDDE7FFF74FFD334BCD
:101CF00001221A70324B00221A70F3E7304B1B7826
:101D000013B1FFF733FFCEE7FFF792FD2C4B012213
:101D10001A702A4B00221A70F3E7264B01221A7020
:101D2000284B00221A6200F0EFFD214B264A126870
:101D30005A60264A12689A601E4A12781A7605215D
:101D400001A804F0DBFC01F0CBFD214C2368C01A94
:101D5000204B186001F0C4FD2060FFF7C1FBFFF7C6
:101D600023FC1D4B5B7C13F0040F07D01A4B1B7C2C
:101D700013F0100F91D00E4B01221A730D4B1B78EC
:101D8000042B90D801A252F823F000BFA31C000836
:101D9000A71C0008DF1C0008D91C0008FD1C000857
:101DA00040050020A8050020B40500209C05002067
:101DB0000400002044050020CC04002090050020F1
:101DC0000000002050830020A4050020BC05002056
:101DD0005C05002060050020B010002000B583B035
:101DE000244BD3ED0A1A93ED021AD3ED010A93EDB9
:101DF000000A07F003FF04F03BFC01901D4C204655
:101E000001F032FC1C4800F00FFEF0EE404A1B4B84
:101E100083ED000A9FED1A3AB0EE434AF0EE433AE2
:101E2000D4ED022A94ED012AD4ED001A94ED051A9E
:101E3000D4ED040A94ED030A07F04AFF114C204642
:101E400008F088F9D4ED0B7AF1EE677A0E4BC3ED0A
:101E5000007AD4ED0C7AF1EE677AC3ED017AD4ED15
:101E60000A7AF1EE677AC3ED027A012101A805F042
:101E700035FEC3E714110020D0050020CC0500205A
:101E800000000000D8810020C005002008B50C4BE0
:101E90001B6873B90B4B1B68012B0BD04FF4FA6115
:101EA000012000F005FF012000F0DAFE044B0122C2
:101EB0001A6008BD4FF47A71012000F0F9FEF2E7D4
:101EC000D4050020D80500201A4B93ED0B7ADFEDE6
:101ED0001A7AB4EEE77AF1EE10FA07D8174B1B78AE
:101EE0003BB9174A13680133136002E0144B002218
:101EF0001A60134B1B68B3F5167F05D30F4B0122F5
:101F00001A700F4B00221A600C4B1B78012B00D06B
:101F100070470C4A136801331360632B05D9002303
:101F2000064A1370074A13607047074B4FF4FA6272
:101F30001A80EDE78C83002000409CC51806002025
:101F4000140600201C0600202C06002038B52DEDBC
:101F5000028BB0EE408A05460C46274B1B681BB12E
:101F6000264B1B68834238D001F0BAFC2044013074
:101F7000234B1860234B1A69234B1A60214B1969B4
:101F8000214B1A68521A48F6FB7305FB03F39A4279
:101F900028D801F0A5FC1A4B1B68C01AA0420ED924
:101FA000B4EE000A28EE000A9FED188A20EE080A17
:101FB0009FED178A20EE080A164B83ED000A0E4AA1
:101FC0001368013313600D4B1D60134B1C60114BE4
:101FD00093ED000ABDEC028B38BD0F4B1B688B42A2
:101FE000C2D1CBE7084B19600A4B00221A6001F0FE
:101FF00077FC034B1860CCE7E0050020F4050020D7
:102000002006002004100020EC05002000001042F3
:10201000000070420C060020F005002070B5614BF6
:102020001B78002B36D1604B00221A805F4EB6F928
:10203000043000EE103A5E4D2B885B4200EE903A81
:10204000F8EEE00AB8EEC00A5A4809F0CBF85A4C4C
:10205000BDEEC00A10EE103A2380B6F9403000EE13
:10206000103A2B8800EE903AF8EE600AB8EEC00AFB
:10207000524809F0B7F8BDEEC00A10EE103A19B296
:102080004F4B1980484BB3F90020B4F9000000F021
:1020900061FC70BD4B4B1A784FF480514A4802F0F6
:1020A000EFFD4A4B1B78032B4DD8DFE803F00222EB
:1020B0004277444B1B7843B1454BDB68A3F5104393
:1020C000444A13603F4B00221A70414B93ED030AC0
:1020D000404BD3ED000AF8EEE00AB8EEC00A3E48E5
:1020E00009F080F8BDEEC00A3C4B10EE102A1A80B1
:1020F0003CE0344B1B7843B1354BDB68A3F5D83358
:10210000344A13602F4B00221A70314B93ED030AAF
:10211000304BD3ED000AF8EEE00AB8EEC00A2E48C4
:1021200009F060F8BDEEC00A2C4B10EE102A1A80A0
:102130001CE02B4B4FF081421A602A4B04221A609C
:10214000294B0A221A60284B1968264B1868244B21
:1021500093ED000AFFF7FAFEB1EE400ABDEEC00AA9
:102160001E4B10EE102A1A80FFF7AEFE184BB3F983
:10217000043000EE103A194BB3F9003000EE903AFB
:10218000F8EEE00AB8EEC00A184809F02BF8BDEEE8
:10219000C00A054B10EE102A1A8047E70F4B0022A9
:1021A0001A80E3E7E8050020240600208C0F0020B9
:1021B00024000020D882002006060020148300207E
:1021C0000806002004060020001002400A06002035
:1021D0000410002028060020508300202C06002038
:1021E0001006002000060020E40500208C8300205B
:1021F00008B50A4B1B784BB1094B41F658321A808F
:1022000001220421074802F03BFD08BD0022044BD7
:102210001A800421034802F033FDF6E7E8050020A8
:1022200024000020001C024000B583B09FED808A8E
:10223000B0EE481ADFED7F0A9FED7F0A4FF4FA6295
:1022400041F294117D4808F0C4FF9FED7D1AF6EE2F
:10225000000AB1EE0C0A40F6B83241F6583179481E
:1022600008F0B7FFDFED788AB0EE481AF0EE680AA2
:10227000B2EE020A40F6B83241F65831734808F01F
:10228000A8FFB0EE481AF0EE680AB2EE020A40F675
:10229000B83241F658316E4808F09BFF04F0E8F977
:1022A000019051E06B4B01221A606B4B00221A60C7
:1022B0006A4B1A7C20216A4802F0E2FC694B9B7B46
:1022C00013B9664B1B7C1BB1674B1B78032B79D072
:1022D000644B1B7A032B00F08C80624BDB7B002B62
:1022E00000F09280604B02221A70604BDA68604BFB
:1022F0001A60604B1B7813B95B4B03221A70FFF70F
:102300008DFEFFF7C3FD574B1B7A43B15A4A127833
:10231000934204D0584A1370012B00F08280FFF7DB
:1023200067FF504B597A554A1170554A107D5549EF
:102330000870517D544A1170B3F91220534B1A8022
:10234000022101A804F0DAF9464B1B7C13F0400F80
:1023500006D0444A527A022A02D0464A012111701C
:1023600003F05003502B03D03E4B5B7A022B02D17B
:10237000404B00221A70464B93F8353013F0010F92
:1023800002D03C4B00221A70364B5B7C13F0010FDD
:1023900003D1344B1B7A022B06D02E4B4FF0FF3269
:1023A0001A602D4B00221A602E4B1B8A03F488738F
:1023B000B3F5887F3FF476AF2A4B1B7A022B7FF46C
:1023C00077AF6FE7254B00221A74324B01221A7047
:1023D00001F086FA304B1860224B1B7C13F0100F73
:1023E00003D0214B01221A7083E71F4B00221A7081
:1023F0007FE701F075FA284B1B68C01A40F2DB53E7
:1024000098423FF66FAF68E701F06AFA224B1B680B
:10241000C01AB0F5167F7FF66CAF134B03221A700B
:1024200067E7144A1378B3FA83F35B09137076E70E
:10243000000000000AD7A33B9A99193E5083002060
:10244000CDCCCC3D8C8300200AD7A33CD882002081
:1024500014830020D8050020D40500209C10002003
:1024600000100240B01000200A06002004100020D6
:1024700028060020E8050020FA050020FB050020C2
:10248000BC820020F8050020F9050020FC05002092
:10249000CC04002004060020DC050020094B1B783A
:1024A0000370094B1B784370084BDA7882705A88A6
:1024B000C2701B681A0A02714371054B1B78837145
:1024C000704700BF4005002044050020BC050020E7
:1024D000A805002010B582B00B4617494FF49A7238
:1024E0000A6000228A60CA6008240C610A7593F8A9
:1024F00000C0124A82F800C093F801C082F801C0FF
:1025000093F802C082F802C093F803C082F803C0B7
:1025100093F804C082F804C093F805C082F805C09F
:1025200093F806C082F806C0DB79D37101AB01F0E5
:10253000F3FC02B010BD00BF3806002030060020BA
:1025400000B585B004F094F8039001224FF4806147
:10255000204802F095FB00230093019302931E4D47
:102560001E4C2946204600F0D9FC012004F0BFF89B
:1025700005F12401204600F0D1FC194D2846FFF753
:102580008DFF012004F0B3F829462046FFF7A2FF93
:10259000144BD3ED0B7AF1EE677ACDED007AD3EDE3
:1025A0000C7AF1EE677ACDED017AD3ED0A7AF1EE8D
:1025B000677ACDED027A0C226946012000F030FDE9
:1025C00004220949012000F02BFD2D2103A804F06D
:1025D00095F8C4E7001C0240C4100020FC740020E1
:1025E00050060020D8810020280000200A784B786F
:1025F00043EA0223038083827047000002884280FE
:1026000091F800C04B7843EA0C23038091F802C094
:10261000C97841EA0C2181809A1AB2F5805F25DDE4
:10262000816801398160A2F50052C261826803EBC2
:102630004233828A9B1AC3604FF4B47202FB03F3E5
:10264000002B1FDB5B13036190F83420531CDBB2BB
:1026500080F83430C169083240F82210042B02D9C6
:10266000002380F8343000231A4616E012F5805F0C
:1026700006DA81680131816002F50052C261D5E756
:10268000C261D3E703F5FF531F33DBE703F1080112
:1026900050F821100A440133DBB2042BF6D9044B65
:1026A00083FB0213D217C2EB63028263704700BF41
:1026B0006766666600B58BB0012208920023069318
:1026C0000792009301930293039305930493694641
:1026D000134801F057FB0028F9D1114801F0EEFB37
:1026E0000028FAD102210E4801F039FD0028F9D165
:1026F0000E230993059369460A4801F043FB00281D
:10270000F9D1084801F0DAFB0028FAD10221054886
:1027100001F025FD0028F9D10BB05DF804FB00BFE6
:10272000D4740020FC740020014B01221A70704701
:10273000A805002010B58AB0044601AB03AA002109
:1027400001F068FC424B9C4204D0424B9C420BD0AF
:102750000AB010BD039A40F233139A42F5D19DF8A6
:1027600004203D4B1A70F0E7039BA3F20123052BD5
:10277000EED801A252F823F0D12700080128000862
:10278000292800085127000891270008B7270008CA
:10279000324A536A591C5162322B07DC01A9104698
:1027A00008F0FAFC0620FEF7D3FCD1E701A92B487C
:1027B00008F086FCF6E72A4A536A591C5162322B0C
:1027C00014DC01A9104608F0E7FC0720FEF7C0FC66
:1027D000244A9369591C9161322B0CD801A91046E7
:1027E000FFF704FF0820FEF7B3FCB1E701A91C487E
:1027F00008F066FCE9E701A91A48FFF7FFFEF1E7D8
:10280000184A536D591C5165322B08D801A902F1A1
:102810003C00FFF7EBFE0920FEF79AFC98E701A9C0
:102820001148FFF7EBFEF6E7104A93690133936115
:102830000A2B07D801A91046FFF7D8FE0A20FEF799
:1028400087FC85E701A90948FFF7D8FEF6E700BF36
:10285000FC740020D4740020700F0020E00A0020D7
:10286000580600208C0F0020C80F00200410002004
:1028700084B000B583B00DF1100C8CE80F000F98F8
:102880000C4A0E9B136000239360D36008211161F2
:1028900003E0C15C084AD1540133072BF9DD01ABD9
:1028A000054A044904A801F037FB03B05DF804EBC6
:1028B00004B0704740100020680F002010B588B0A9
:1028C0000F4B02121A7058700A129A70D9700022B7
:1028D0009A71DA710B4C079340F2FF130693EC46A2
:1028E00004F1100EBEE80F00ACE80F009EE80300F4
:1028F0008CE8030094E80F00FFF7BAFF08B010BDA2
:10290000840F0020D474002010B588B00F4B002233
:102910001A705A709A70DA701A715A719A71DA7163
:102920000B4C079340F2FF130693EC4604F1100E94
:10293000BEE80F00ACE80F009EE803008CE803003F
:1029400094E80F00FFF794FF08B010BD7C0F002043
:10295000D474002010B588B0114B04121C7058704C
:1029600008129870D970111219715A7100229A7157
:10297000DA710C4C07934FF400730693EC4604F1A4
:10298000100EBEE80F00ACE80F009EE803008CE8D4
:10299000030094E80F00FFF76BFF08B010BD00BF05
:1029A000740F0020D4740020074B1B68074AA2FB59
:1029B0000312920C06490A70064AA2FB03239B09E4
:1029C000054A1360704700BF4000002083DE1B43B0
:1029D0005C100020D34D6210581000200C4AD2F831
:1029E000FC3043F08073C2F8FC300A4B0021596080
:1029F0001A6842F001021A60074B03FB00F0074B14
:102A00001860074B1960074B00221A60704700BF1F
:102A100000ED00E0001000E040420F0060100020D8
:102A2000641000206810002082B00A4B5B6801939C
:102A3000019B02689B1A07EE903AF8EE677A064B04
:102A400093ED000AB8EE400A019B036087EE800A0E
:102A500002B07047001000E0601000200A4B5A6876
:102A6000094B5B689B1A07EE903AB8EE677A074B02
:102A7000D3ED007AF8EE677A67EE807AB4EEE77A03
:102A8000F1EE10FAECD47047001000E06010002066
:102A900000F17843B3F5804F45D3A3F58043B3F5F8
:102AA000804F42D300F17843A3F50043B3F5804F44
:102AB0003DD300F17843A3F54043B3F5804F38D3BD
:102AC00000F1774303F57F03B3F5803F33D300F183
:102AD000774303F57E03B3F5003F2ED300F1774330
:102AE00003F57C03B3F5003F29D300F1774303F5E9
:102AF0007A03B3F5003F24D300F1774303F578035D
:102B0000B3F5003F1FD300F1774303F57603B3F528
:102B1000003F1AD300F1774000F57400B0F5003F94
:102B200015D20C4870470C4870470C4870470C4849
:102B300070470C4870470C4870470C4870470C4869
:102B400070470C4870470C4870470C4870474FF06E
:102B50000160704700000E08004000080080000877
:102B600000C000080000010800000208000004087E
:102B7000000006080000080800000A0800000C0811
:102B800070B505460E46144601F0F8FE184B1D6060
:102B90002846FFF77DFF174B1860174B1E60174B39
:102BA00000221A60124B1968124B1B68994215D803
:102BB000114B1B681A680023022001F031FF88B90D
:102BC0000B4A1368043313600B4A13680433136011
:102BD0000A4A136801331360A342E3D101F0E6FE11
:102BE000002070BD01F0E2FE4FF0FF30F9E700BFBA
:102BF00078100020741000206C100020701000204D
:102C000008B50A4601460248FFF7BAFF08BD00BFF3
:102C100000000E08104B1A6802605A6842609A68F9
:102C200082600E4AD2ED0B7AF1EE677AC0ED067A39
:102C3000D2ED0C7AF1EE677AC0ED077AD2ED0A7A1E
:102C4000F1EE677AC0ED087ADA68C2601A6902614B
:102C50005B694361704700BF14110020D8810020D8
:102C600010B504460D4803F05BF8601E032813D826
:102C7000DFE800F002060A0E0021084803F08EFA91
:102C80000421064803F08AFA0821044803F086FA72
:102C90000C21024803F082FA10BD00BF247E002000
:102CA000012800D07047014BD962FBE700000140CA
:102CB000013803280BD8DFE800F002040608044BB3
:102CC0005963034B9963024BD963014B19647047F5
:102CD0000000014010B591F800E04B784EEA032E59
:102CE000CEF30A0EA0F800E0AEF5806E1FFA8EFE5D
:102CF000A0F800E091F801C08B784FEADC0C4CEAB8
:102D0000431CCCF30A0CA0F802C0ACF5806C1FFA8F
:102D10008CFCA0F802C08B78CA789B0943EA820336
:102D20000A7943EA8223C3F30A038380A3F580630D
:102D30009BB283800A794C79520842EAC412C2F3EA
:102D40000A02C280A2F5806292B2C2800EF1050E24
:102D50001FFA8EFEBEF10A0F01D8002404800CF188
:102D6000050C1FFA8CFCBCF10A0F01D8002444802A
:102D700005339BB20A2B01D800238380053292B21F
:102D80000A2A01D80023C3804B799B0903724B792F
:102D9000C3F301134372B0F90030002BB8BF5B429C
:102DA0009BB2B3F5257F2ED8B0F90230002BB8BF07
:102DB0005B429BB2B3F5257F25D8B0F90430002BD8
:102DC000B8BF5B429BB2B3F5257F1CD8B0F9063083
:102DD000002BB8BF5B429BB2B3F5257F13D88B792C
:102DE000CA7943EA022343810B7A4A7A43EA0223EF
:102DF00083810B7B83734B7BC3738B7BCA7B43EADF
:102E00000223038205E00023036043608360C36004
:102E1000036110BD00B583B0374B1B681A6812F010
:102E2000200F09D0002200921A6800925B6800937C
:102E3000009B03B05DF804FB304A126812F0100FDB
:102E4000F7D0002201921A6801925B680193019BFE
:102E50002B4B1B681A6812F4002F23D11A6822F03A
:102E600001021A60264802685368C3F124039BB22A
:102E700024490B8024215160116841F40021116024
:102E800001680A6842F001020A60122BD1D11E4982
:102E90001E48FFF71FFF01224FF400611C4801F09C
:102EA000EFFEC6E71A6822F001021A6014490868AA
:102EB0004368C3F12403134A138024234360154855
:102EC000836A23F40023836209680B6843F00103DB
:102ED0000B601388122B03D00520FEF739F9A8E701
:102EE0000D490A48FFF7F6FE01224FF480510848C9
:102EF00001F0C6FEF0E700BF50810020004800400E
:102F0000EC7F00200C110020C4100020B010002025
:102F1000001C024000600240E8100020F0B583B0C1
:102F200007460D461D4E40F2311333600023B36057
:102F3000F3600822326133750B78194C23704B789B
:102F400063708B78A370CB78E3700B7923714B7926
:102F500063718B79A371CB79E37101AB2246314662
:102F600000F0DAFF4FF4997333602B7A23706B7A99
:102F70006370AB7AA370EB7AE3702B7B23716B7B6E
:102F80006371AB7BA371EB7BE37101AB22463146EE
:102F9000384600F0C1FF03B0F0BD00BF8410002030
:102FA0007C10002010B4164B1B685C6944F0400490
:102FB0005C61DC6844F01004DC60124B1C68236820
:102FC00023F00103236003E01C6824F001041C606B
:102FD0000C4B1B681C6814F0010FF5D10A4C9C6067
:102FE000D86019615A601A6842F480221A60054B51
:102FF0001A68136843F0010313605DF8044B7047CF
:1030000050810020EC7F00200448004008B50348B0
:1030100024228118FFF7C6FF08BD00BFC41000209E
:1030200008B503280AD006280ED0012800D008BD14
:103030004FF0FF33074803F09EFAF8E74FF0FF33F5
:10304000054803F098FAF2E74FF0FF33034803F026
:1030500092FAECE70C81002050810020948100203E
:1030600008B500221021024801F00AFE08BD00BF89
:103070000000024008B501221021024801F000FEC4
:1030800008BD00BF0000024008B50022012102482F
:1030900001F0F6FD08BD00BF0004024008B50122A2
:1030A0001146024801F0ECFD08BD00BF00040240DB
:1030B00000B587B08DF80F004FF47A7300930123A9
:1030C0000DF117020DF10F010448006802F047FCF2
:1030D0009DF8170007B05DF804FB00BF1011002039
:1030E00038B50D46144640F08000FFF7E1FF06E0DA
:1030F0005520FFF7DDFF05F8010B013CE4B2002C81
:10310000F6D138BD10B50C46FFF7D2FF2046FFF7C9
:10311000CFFF10BD10B50C4640F08000FFF7C8FF90
:103120005520FFF7C5FF207010BD000070B50446A4
:10313000E1E0FFF795FF9220FFF7BAFF924E0622DB
:1031400031461220FFF7CCFFFFF794FF73781B0284
:103150001BB2327813438D4A138007EE903AF8EE93
:10316000E77A8B4991ED007A67EE877AC4ED007AB1
:10317000F3781B021BB2B0780343138091ED006A11
:1031800007EE103AF8EEC76A66EE866AC4ED016A89
:1031900073791B021BB231790B43138007EE103A8F
:1031A000B8EEC77A27EE067A84ED027A67EEA77A40
:1031B00066EEA66A77EEA67A27EE077A77EE877A2A
:1031C00017EE900AFDF768F941EC100B08F068FB68
:1031D00053EC102B6F4ED6E90001FCF7FFFFC6E958
:1031E00000019FED6D0AFFF739FC0135ADB2B5F571
:1031F000FA7F47D2FFF748FF634E0822314600208E
:10320000FFF76EFFFFF74AFF33780F2B91D1F3786A
:103210001B021BB2B1780B435C490B805F48D0EDB9
:10322000006A07EE903AB8EEE77A27EE267AD4EDF8
:10323000037A37EE877A84ED037A73791B021BB227
:10324000307903430B8007EE903AB8EEE77A27EE29
:10325000267AD4ED047A37EE877A84ED047AF3790E
:103260001B021BB2B27913430B8007EE903AF8EEC3
:10327000E77A67EEA67A94ED057A77EE277AC4EDC1
:10328000057A56E700230FE09A1C04EB8202D2ED88
:10329000016A9FED437AC6EE877A9A1D04EB82029B
:1032A000C2ED017A0133DBB2022BEDD900223D4B96
:1032B0003849D1E90001FDF771FAFDF757FB07EE38
:1032C000100AA062384BB3F900300A2B21DC01331D
:1032D000354A1380D4ED077ADFED346A77EEE67A6B
:1032E000F0EEE77A87EEA66AF7EE007AB4EEE76AC8
:1032F000F1EE10FA16DD642000F0F8FA0023E36026
:1033000023616361234B00200021C3E900010025F4
:103310006DE7274BE361274B2362274B6362274B03
:10332000A36270BDD4ED087ADFED256A77EEA67A48
:10333000F0EEE77A9FED236AC7EE866AF7EE007A31
:10334000F4EEE76AF1EE10FAD5DCD4ED097ADFEDA0
:103350001E6A77EEE67AF0EEE77A87EEA66AF7EE77
:10336000007AB4EEE76AF1EE10FAC4DCDFED177A0A
:1033700077EE677AF0EEE77A9FED157AF4EEC77A8A
:10338000F1EE10FAB7DCCCE74C110020421100201E
:103390002C0000205811002085B1053A3000002093
:1033A0000000FA4300407F405411002006523D3A8D
:1033B00006523D3A3718EABA06DBE33950071E4198
:1033C0003718EA3A3718EABA06DBE33950071E41E4
:1033D000CDCC4C3E70B5FFF743FE8020FFF768FE72
:1033E0005520FFF765FE5520FFF762FE464C207022
:1033F000FFF740FE012000F079FAFFF731FE802050
:10340000FFF756FE5520FFF753FE5520FFF750FEFD
:103410002070FFF72FFE012000F068FAFFF720FE72
:10342000B6217E20FFF76EFEFFF724FE502000F04D
:103430005DFAFFF715FE8020FFF73AFE5520FFF7F3
:1034400037FE5520FFF734FE2070FFF713FE0120F2
:1034500000F04CFAFFF704FE8020FFF729FE55200C
:10346000FFF726FE5520FFF723FE2070FFF702FE30
:10347000012000F03BFA23781E2B42D1234B00227F
:103480001A7002E00133214A1370204B1B78052B80
:1034900035D8FFF7E5FD1D4D2B781D4C03EB43039D
:1034A000E2185178E05CFFF72DFEFFF7E3FD012005
:1034B00000F01CFAFFF7D4FD2B7803EB4303E05C2C
:1034C00040F08000FFF7F4FD5520FFF7F1FD552097
:1034D000FFF7EEFD0C4E3070FFF7CCFD012000F041
:1034E00005FA2B7803EB4302144461783278914259
:1034F000C8D0A2780749087802430A70C2E70020C2
:1035000070BDFF20FCE700BF6011002061110020AA
:10351000C8C000085611002070B5FFF7B5FD3F4C3C
:1035200021460020FFF7F6FDFFF7B8FD012000F06F
:10353000DDF9FFF7A9FD21460020FFF7EBFDFFF7BE
:10354000ADFD012000F0D2F9FFF79EFDB621142059
:10355000FFF7D8FDFFF7A2FD502000F0C7F9FFF7F5
:1035600093FD21460020FFF7D5FDFFF797FD0120D1
:1035700000F0BCF9FFF788FD21460020FFF7CAFDE7
:10358000FFF78CFD012000F0B1F923780F2B42D119
:10359000234B00221A7003E0214A13780133137081
:1035A0001F4B1B78052B34D8FFF76EFD1C4D2B7875
:1035B0001C4C03EB4303E2185178E05CFFF7A2FDDB
:1035C000FFF76CFD012000F091F9FFF75DFD134E50
:1035D0002B7803EB43033146E05CFFF79BFDFFF7DD
:1035E0005DFD012000F082F92B7803EB43021444C7
:1035F000617832789142CFD0013BDBB22B7003EB84
:103600004303094A13449B78084A11780B4313700B
:10361000C2E7002070BDFF20FCE700BF6011002062
:1036200061110020DCC00008C8C00008561100204D
:1036300010B50A4B18600A4C00232370FFF7CAFE2E
:10364000237818432070FFF767FF23781843207012
:103650000448FFF76BFD207810BD00BF101100205B
:10366000561100201411002038B50546FFF7F8FC6C
:103670009220FFF71DFD6F4C062221461220FFF716
:103680002FFDFFF7F7FC63781B021BB22278134370
:10369000694A138007EE903AF8EEE77A674991EDB0
:1036A000007A67EE877AC5ED007AE3781B021BB2D9
:1036B000A07803431380D1ED006A07EE903AB8EE8C
:1036C000E77A27EE267A85ED017A63791B021BB231
:1036D00021790B43138007EE903AF8EEE77A67EE14
:1036E000A67AC5ED027AFFF7CFFC0822214600201A
:1036F000FFF7F6FCFFF7D2FC23780F2B2BD0FFF758
:10370000AFFCA220FFF7D4FC4A4C02222146222023
:10371000FFF7E6FCFFF7AEFC227863785B0943EA2B
:10372000C203454A1380B3F5806F02DBA3F5006343
:103730001380414BB3F9003007EE903AF8EEE77A88
:10374000B4EE007A67EE877AB3EE077A77EE877A7F
:10375000C5ED067A38BD3A4B1B78002B3AD0E3789A
:103760001B021BB2A1780B4333490B803548D0EDC7
:10377000006A07EE903AB8EEE77A27EE267AD5EDA2
:10378000077A37EE677A85ED037A63791B021BB2FD
:10379000207903430B8007EE903AB8EEE77A27EEE4
:1037A000267AD5ED087A37EE677A85ED047AE379E3
:1037B0001B021BB2A27913430B8007EE903AF8EE7E
:1037C000E77A67EEA67A95ED097A77EEC77AC5EDC6
:1037D000057A94E7174AD3781B021BB291780B4302
:1037E00015490B801748D0ED006A07EE903AB8EE05
:1037F000E77A27EE267A85ED037A53791B021BB20E
:10380000107903430B8007EE903AB8EEE77A27EE83
:10381000267A85ED047AD3791B021BB29279134381
:103820000B8007EE903AF8EEE77A67EEA67AC5EDE0
:10383000057A64E744110020401100202C0000208C
:10384000340000203000002010B504460E4B1878DC
:103850004FF47A73B3FBF0F30C4A1068B0FBF3F04B
:1038600000F018FE68B90F2C01D901200AE00022EF
:1038700021464FF0FF3000F0C7FD054B1C600020D3
:1038800000E0012010BD00BF3500002040000020F6
:103890003800002008B50B4B1A6842F400721A6019
:1038A0001A6842F480621A601A6842F480721A60E0
:1038B000032000F097FD0F20FFF7C6FF05F0C8FBBF
:1038C000002008BD003C0240034A1168034B1B78EE
:1038D0000B441360704700BF6411002035000020C6
:1038E000014B1868704700BF6411002038B50446CA
:1038F000FFF7F6FF0546B4F1FF3F02D0044B1B78FB
:103900001C44FFF7EDFF401BA042FAD338BD00BFB7
:10391000350000204A4B5A6822F440325A605A68F7
:1039200041680A435A600268536823F48073536005
:1039300002685368016943EA0123536002685368CF
:1039400023F0407353600268536881680B435360EF
:103950000268936823F40063936002689368C16807
:103960000B439360826A374B9A4257D00268936840
:1039700023F07063936002689368816A0B439360DD
:103980000268936823F04053936002689368C16AA9
:103990000B4393600268936823F00203936002680C
:1039A0009368017E43EA4103936090F82030002B36
:1039B0003FD00268536843F4006353600268536861
:1039C00023F46043536001684B68426A013A43EA5A
:1039D00042334B600268D36A23F47003D3620168F8
:1039E000CB6AC269013A43EA0253CB620268936828
:1039F00023F4007393600268936890F8301043EAF0
:103A0000412393600268936823F4806393600268A3
:103A10009368416943EA8123936070470268936821
:103A200023F0706393600268936823F040539360BF
:103A3000B0E70268536823F400635360CAE700BF2D
:103A4000002301400100000F38B310B50446036C99
:103A500043B1236C13F0100F0BD00120002384F826
:103A60003C3010BD04F0DEFC0023636484F83C307D
:103A7000EFE7236C23F4885323F0020343F002039F
:103A800023642046FFF746FF00206064236C23F088
:103A9000030343F001032364E0E7012070470000C3
:103AA00030B482B00023019390F83C30012B00F039
:103AB000BB80012380F83C300B68092B41D9046896
:103AC000E2689BB203EB43031E3B4FF0070C0CFA7A
:103AD00003F322EA0303E3600468E2680B8803EB64
:103AE00043031E3B8D6805FA03F31343E3604B6801
:103AF000062B3DD80468626B03EB8303053B4FF054
:103B00001F0C0CFA03F322EA030363630468626B7D
:103B10004B6803EB8303053BB1F800C00CFA03F3D9
:103B2000134363630268414B9A4251D002683F4B92
:103B30009A4256D0002380F83C30184602B030BC80
:103B40007047046822699BB203EB43034FF0070CF4
:103B50000CFA03F322EA03032361046822690B8849
:103B600003EB43038D6805FA03F313432361BEE7B8
:103B70000C2B16D805682A6B03EB8303233B1F2409
:103B800004FA03F322EA03032B6305682A6B4B68EC
:103B900003EB8303233B0C8804FA03F313432B63E7
:103BA000C0E70568EA6A03EB8303413B1F2404FA7C
:103BB00003F322EA0303EB620568EA6A4B6803EB4E
:103BC0008303413B0C8804FA03F31343EB62A9E738
:103BD0000B68122BAAD1164A536843F48003536032
:103BE000A4E70B68103B012BA4D8114A536843F497
:103BF000000353600B68102B9CD10E4B1B6802F125
:103C0000467202F52E3202F28332A2FB03239B0C92
:103C100003EB83035B00019302E0019B013B0193F3
:103C2000019B002BF9D185E7022087E700200140A6
:103C30000023014040000020002800F0A18038B59A
:103C4000044690F82030D3B12268136843F0010392
:103C50001360FFF745FE054623685A6812F0010F0E
:103C600010D1FFF73DFE401B0A28F5D9636A43F4E3
:103C700000336362052384F82030012038BD04F04E
:103C800059FCE1E71A6822F002021A60FFF728FEE9
:103C9000054623685A6812F0020F0DD0FFF720FE88
:103CA000401B0A28F5D9636A43F400336362052395
:103CB00084F820300120E1E7227E012A3DD01A68F5
:103CC00022F080021A60637E012B3BD022681368C9
:103CD00023F040031360A37E012B39D022681368C0
:103CE00023F020031360E37E012B37D02268136892
:103CF00043F010031360237F012B35D02268136833
:103D000023F008031360637F012B33D0226813680C
:103D100023F004031360A368E2681343226913438A
:103D2000626913436268013A21681343CB61002042
:103D30006062012384F82030A0E71A6842F0800214
:103D40001A60C0E72268136843F040031360C2E7BB
:103D50002268136843F020031360C4E722681368E5
:103D600023F010031360C6E72268136843F00803CA
:103D70001360C8E72268136843F004031360CAE7BE
:103D80000120704790F82030013BDBB2012B05D9B0
:103D9000436A43F4802343620120704730B5464BA9
:103DA000D3F8002242F00102C3F80022D3F8002227
:103DB00022F47C52C3F80022D3F80022486A42EA77
:103DC0000022C3F800224A6902F01F02012000FA13
:103DD00002F2D3F81C026FEA020C20EA0200C3F8D8
:103DE0001C02CB69C3B9344BD3F80C020CEA0000B7
:103DF000C3F80C028C884869CD6844EA0544483011
:103E000043F830408C68088840EA04404C6904F16B
:103E1000480E03EBCE035860CB69012B1ED08B6993
:103E2000002B33D12448D0F804320CEA0303C0F845
:103E300004320B698BBB2048D0F814320CEA030320
:103E4000C0F814320B6A012B2ED01B4AD2F8003274
:103E500023F00103C2F80032002030BD164BD3F826
:103E60000C021043C3F80C028C8848690D6844EAC0
:103E70000544483043F8304088894C698D6840EAF1
:103E80000540483403EBC4035860C8E70A48D0F83B
:103E900004321343C0F80432CBE70748D0F8143299
:103EA0001343C0F81432CDE70349D1F81C321A434A
:103EB000C1F81C22C9E700BF0064004070B5044689
:103EC00090F82050EDB2012D06D0436A43F4002350
:103ED00043620125284670BD022380F82030026825
:103EE000136823F001031360FFF7FAFC064623680A
:103EF0005B6813F0010F0CD0FFF7F2FC831B0A2B59
:103F0000F5D9636A43F400336362052384F82030F3
:103F1000E0E700256562DDE730B590F820C0046871
:103F2000A4680CF1FF3C5FFA8CFCBCF1010F6BD86C
:103F300014F0E05F62D0C4F3016CBCF1020F05D94C
:103F4000436A43F400034362012062E0012404FA5F
:103F50000CF41C608B68002B3DD10D68CB680468A5
:103F600043EA45550CF118031B01E55003680C6941
:103F70000CF1180E03EB0E135C600B7D012B35D09A
:103F8000D17993791B0443EA0163517943EA012310
:103F900014790168234301EB0C11C1F88C31D178FD
:103FA00093781B0443EA0163517843EA01231178B3
:103FB00002680B4302EB0C12C2F8883102680CF164
:103FC000180C4FEA0C1C52F80C3043F0010342F875
:103FD0000C3000201DE04C6843EAC403CC68234346
:103FE0000CF11804240105682B51BFE7036803EBAB
:103FF0000E13596841F480715960C1E7436A43F474
:1040000000134362012004E0436A43F480234362C7
:10401000012030BD90F820C00CF1FF3C5FFA8CFC11
:10402000BCF1010F00F2958030B451B90468E46826
:1040300014F0030F10D1436A43F4001343620120CC
:1040400077E00468246914F0030F05D1436A43F450
:104050000013436201206CE001F11B042401056898
:104060002C5904F004049460002C64D101F11B0469
:10407000240105682C59640D1460046801F11B0CBF
:104080004FEA0C1C54F80C4004F00204D46004689D
:104090006444646804F00F04146104686444646850
:1040A000C4F307249461046864446468240C546174
:1040B000026802EB0112D2F8B8211A70026802EB12
:1040C0000112D2F8B821C2F307225A70026802EB3B
:1040D0000112D2F8B821C2F307429A70026802EBCB
:1040E0000112D2F8B821120EDA70026802EB011246
:1040F000D2F8BC211A71026802EB0112D2F8BC217D
:10410000C2F307225A71026802EB0112D2F8BC21F5
:10411000C2F307429A71026802EB0112D2F8BC2185
:10412000120EDA7179B90268D36843F02003D360C4
:10413000002030BC704701F11B04240105682C5994
:10414000E408546099E70268136943F0200313619F
:10415000EEE7436A43F4802343620120704790F8FE
:104160002030013BDBB2012B05D9436A43F48023A5
:10417000436201207047026853691943516100206E
:104180007047704770477047704770477047704777
:10419000704770477047704770472DE9F84F0546E4
:1041A00003685C69D3F804809F68D3F80CB0D3F837
:1041B00010A0D3F8189014F001063BD017F00106B8
:1041C00016D001229A6017F0020F08D117F0040FE1
:1041D0000CD117F0080606D04FF4805608E0FFF720
:1041E000D0FF002604E0FFF7CFFF01E04FF40066A8
:1041F00017F4807F0DD02B684FF480729A6017F40B
:10420000007F40F0868017F4806F00F0868046F4CF
:10421000005617F4803F0DD02B684FF480329A601F
:1042200017F4003F40F0838017F4802F00F0838064
:1042300046F4004614F0080F07D01BF0100F04D00E
:1042400046F400762B681022DA6014F0040F02D0D6
:104250001BF0080F79D114F0020F04D02B68DB6833
:1042600013F0030F78D114F0400F07D01AF0100F9D
:1042700004D046F480662B6810221A6114F0200FD7
:1042800002D01AF0080F6BD114F0100F04D02B6875
:104290001B6913F0030F6AD114F4003F02D018F029
:1042A000100F68D114F4803F02D018F0080F69D1C4
:1042B00014F4004F7AD018F0040F74D014F4807FF7
:1042C00004D019F0010F01D046F0010614F4007F6C
:1042D00004D019F0020F01D046F0020614F4806FEA
:1042E00004D019F0040F01D046F0040614F4006F56
:1042F00059D019F0700956D0B9F1400F65D058D88F
:10430000B9F1200F5ED0B9F1300F42D146F020064E
:1043100044E02846FFF736FF7BE717F4006F02D032
:1043200046F4804675E72846FFF72FFF71E72846D9
:10433000FFF729FF7EE717F4002F02D046F48036FE
:1043400078E72846FFF722FF74E72B680822DA6037
:104350002846FFF71CFF7EE72846FEF7EBF982E7C9
:104360002B6808221A612846FFF713FF8CE72846BE
:10437000FFF70EFF90E72B6810225A602846FFF7E0
:1043800009FF8FE72B6808225A602846FFF703FFD2
:104390008EE7B9F1100F01D146F008062A6893693B
:1043A00023F0700393612B6804225A609EB9BDE824
:1043B000F88FB9F1500F0BD0B9F1600FEED146F480
:1043C0008076EBE746F01006E8E746F04006E5E7C2
:1043D00046F08006E2E76B6A1E436E622846FFF7EE
:1043E000DBFEE4E7074AD36823F4E0631B041B0CFD
:1043F000000200F4E060034343F0BF6343F4003382
:10440000D360704700ED00E000B5194BDB68C3F3E3
:104410000223C3F1070CBCF1040F28BF4FF0040CBA
:1044200003F1040EBEF1060F18D9033B4FF0FF3E17
:104430000EFA0CFC21EA0C0199400EFA03F322EA71
:104440000303194300280BDB0901C9B200F16040E6
:1044500000F5614080F800135DF804FB0023E5E7F8
:1044600000F00F000901C9B2024B1954F4E700BF74
:1044700000ED00E014ED00E0002807DB00F01F0273
:10448000400901239340024A42F82030704700BFA0
:1044900000E100E00138B0F1807F0BD24FF0E02363
:1044A0005861054AF02182F8231000209861072204
:1044B0001A6170470120704700ED00E058B110B557
:1044C000044643791BB101236371002010BD0371C1
:1044D00004F0D0F8F7E701207047000010B403683B
:1044E000D9B210390C4AA2FB014212090B4CA25C52
:1044F000C2655F2909D923F47F7323F003030433D2
:104500008365806D5DF8044B704723F47F7323F05F
:1045100003038365F5E700BFABAAAAAAF0C00008B1
:10452000836A826992B9012B0AD0022B02D00BB1A7
:1045300000207047C36A13F0807F28D100207047A5
:10454000C36AB3F1C07F24D000207047B2F5005F8A
:1045500009D0022B25D9032B25D1C36A13F0807F04
:1045600023D100207047032B03D8DFE803F01404A5
:10457000140A00207047C36A13F0807F0DD1002019
:104580007047C36AB3F1C07F09D000207047012093
:1045900070470120704701207047012070470120BB
:1045A00070470120704700207047012070470000CD
:1045B00070B50446FFF794F9002C5BD00546022342
:1045C00084F83530002384F834302268136823F0EF
:1045D0000103136023681A6812F0010F0AD0FFF775
:1045E0007FF9431B052BF5D920236365032084F84D
:1045F000350070BD1A68204810406168A2680A43FF
:10460000E1680A4321690A4361690A43A1690A43CF
:10461000E1690A43216A0A430243616A04291ED000
:104620001A602668756925F00705636A1D43042B27
:1046300007D1A36A1D43E36A1BB12046FFF770FF51
:1046400090B975612046FFF749FFE26D3F23934023
:10465000836000206065012384F83530C9E7E16A92
:10466000206B01430A43DBE740236365012084F8A4
:104670003500BEE70120BCE73F8010F0F0B583B005
:10468000044600230193724B1D68724BA3FB053552
:10469000AD0A876D3E68C26D08239340334210D047
:1046A00003681A6812F0040F0BD01A6822F0040293
:1046B0001A60C26D08239340BB60436D43F0010351
:1046C0004365E26D01239340334209D02268526969
:1046D00012F0800F04D0BB60636D43F0020363658A
:1046E000E26D04239340334209D02268126812F02D
:1046F000020F04D0BB60636D43F004036365E26D99
:1047000010239340334224D02268126812F0080F1D
:104710001FD0BB6023681A6812F4802F0DD01B686D
:1047200013F4002F04D1236C9BB12046984710E06E
:10473000A36C73B1204698470BE01A6812F4807F8F
:1047400003D11A6822F008021A60236C0BB12046CC
:104750009847E26D20239340334255D02268126877
:1047600012F0100F50D0BB6094F83530DBB2052B3F
:104770000ED023681A6812F4802F33D01B6813F40C
:10478000002F2AD1636C002B3ED0204698473BE097
:104790002268136823F0160313602268536923F01C
:1047A00080035361236CA3B12268136823F00803CC
:1047B0001360E26D3F239340BB60012384F83530E2
:1047C000002384F83430236D002B3FD020469847D7
:1047D0003CE0A36C002BE7D1EBE7E36BA3B12046F1
:1047E000984711E01A6812F4807F09D11A6822F004
:1047F00010021A60012384F83530002384F8343025
:10480000E36B0BB120469847636DFBB1636D13F00A
:10481000010F17D0052384F835302268136823F080
:1048200001031360019B01330193AB4204D8236859
:104830001B6813F0010FF5D1012384F835300023F4
:1048400084F83430E36C0BB12046984703B0F0BDD8
:1048500040000020B5814E1B10B40A490C6924F4B5
:1048600040740C610C6944F440740C610C6944F0B0
:1048700001040C610260BFF36F8F43605DF8044B6D
:10488000704700BF003C0240074B1A6922F4407297
:104890001A611A6942F400721A611A6942F001023F
:1048A0001A610160704700BF003C0240074B1A6963
:1048B00022F440721A611A6942F480721A611A690C
:1048C00042F001021A610180704700BF003C0240C3
:1048D000064B1A6922F440721A611A691A611A6940
:1048E00042F001021A610170704700BF003C0240B3
:1048F000204BDB6813F0100F07D01F4AD36943F039
:104900001003D3611B4B1022DA601A4BDB6813F0E3
:10491000200F07D0184AD36943F00803D361154B21
:104920002022DA60134BDB6813F0400F07D0124AE5
:10493000D36943F00403D3610E4B4022DA600D4B80
:10494000DB6813F0800F07D00B4AD36943F00203F2
:10495000D361084B8022DA60064BDB6813F0020F4C
:1049600007D0054AD36943F02003D361014B0222EB
:10497000DA607047003C024068110020094B1B6957
:10498000002B01DB00207047064B074A5A6002F1FA
:1049900088325A601B69002B01DB00207047012020
:1049A000704700BF003C024023016745034A13697A
:1049B00043F0004313610020704700BF003C0240F9
:1049C00038B50446144B0022DA61FEF789FF05462C
:1049D000124BDB6813F4803F0AD0B4F1FF3FF7D0ED
:1049E00024B1FEF77DFF401BA042F1D903200DE06A
:1049F0000A4BDB6813F0010F02D0084B0122DA608A
:104A0000064BDB6813F0F20F01D1002038BDFFF731
:104A10006FFF0120FAE700BF68110020003C024050
:104A2000F8B516461B4A127E012A30D004460D46C0
:104A30001F46184B01221A764CF25030FFF7C0FF88
:104A400090B9ACB1012C18D0022C1BD032463B4699
:104A50002846FFF701FF4CF25030FFF7B1FF0E4A36
:104A6000136923F0010313610A4B00221A76F8BD83
:104A7000F1B22846FFF72CFFEDE7B1B22846FFF769
:104A800015FFE8E731462846FFF7FEFEE3E7022080
:104A9000EDE700BF68110020003C024000230F2B0F
:104AA00000F2E48070B582B060E085685E000324A7
:104AB000B44025EA0405CC68B4402C4384604568C2
:104AC00025EA02054C68C4F300129A402A4342606A
:104AD0005AE0DC08083450F8246003F0070295001F
:104AE0000F22AA4026EA020E0A69AA4042EA0E02F2
:104AF00040F824205CE0072200E0002202FA0EF2D7
:104B00002A4302345A4D45F824205A4A14686FEA61
:104B10000C0224EA0C054E6816F4803F01D04CEAE2
:104B20000405544C2560646802EA04054E6816F4D6
:104B3000003F01D04CEA04054E4C6560A46802EACF
:104B400004054E6816F4801F01D04CEA0405494C58
:104B5000A560E46822404D6815F4001F01D04CEABE
:104B60000402444CE26001330F2B7DD801229A40AD
:104B70000C6804EA020C32EA0404F4D14C6804F034
:104B80000304013C012C90D94A6802F00302032A75
:104B900009D0C4685D000322AA4024EA02048A689E
:104BA000AA402243C2604A6802F00302022A90D05F
:104BB00004684FEA430E032202FA0EF224EA0204CA
:104BC0004A6802F0030202FA0EF2224302604A68C7
:104BD00012F4403FC7D000220192274A546C44F49B
:104BE00080445464526C02F480420192019A9C0801
:104BF000A51C1F4A52F8255003F003024FEA820E0B
:104C00000F2202FA0EF225EA02051C4A90423FF4F6
:104C100074AF02F5806290421AD002F58062904231
:104C200018D002F58062904216D002F58062904260
:104C300014D002F58062904212D002F58062904258
:104C400010D002F5806290423FF455AF082255E73C
:104C5000012253E7022251E703224FE704224DE7E6
:104C600005224BE7062249E702B070BD704700BF3E
:104C700000380140003C0140003802400000024082
:104C80000AB1816170470904816170477047000073
:104C900008B5054B5B69034200D108BD024B586162
:104CA000FFF7F4FFF9E700BF003C0140002800F0E7
:104CB000CC8070B5044690F83D30002B77D024238B
:104CC00084F83D302268136823F0010313602268E2
:104CD000136843F4004313602268136823F400430D
:104CE000136000F0C5FB62685A4B9A4264D85A4B75
:104CF00098428CBF00230123002B40F0A880574925
:104D0000A1FB00318B0C25686A6822F03F0242EA61
:104D100091426A6021680A6A22F03F0266684D4D3E
:104D2000AE424FD8013313430B622168CA6922F4A3
:104D30004F4222F0FF026668464B9E424CD8431E0B
:104D40007600B3FBF6F3013340F6FC70034278D0F3
:104D5000C3F30B031343CB6121680B6823F0C0033B
:104D6000E269206A024313430B6021688B6823F4D5
:104D7000034323F0FF032269E068024313438B607F
:104D80002168CB6823F0FF036269A06902431343E3
:104D9000CB602268136843F0010313600020206495
:104DA000202384F83D30206384F83E0070BD80F8F5
:104DB0003C3003F0B1FE82E7294B98428CBF0023C0
:104DC000012399E74FF4967505FB03F3254DA5FBE9
:104DD00003539B090133A6E7A368BBB9451E06EB45
:104DE000460CB5FBFCF50135C5F30B05B5FA85F5A9
:104DF0006D0945BBC3B9013806EB4603B0FBF3F3BD
:104E00000133C3F30B0343F40043A3E7451E06EB52
:104E1000860C0CEB8C0CB5FBFCF50135C5F30B05D2
:104E2000B5FA85F56D09E4E7013806EB860303EB77
:104E30008303B0FBF3F30133C3F30B0343F44043A9
:104E400088E7042386E7012384E7012070470120D7
:104E5000ACE700BFA08601007F841E0083DE1B43F9
:104E6000FF083D00D34D6210002800F0E08170B5CE
:104E700082B00446036813F0010F3BD09F4B9B6840
:104E800003F00C03042B2CD09C4B9B6803F00C0309
:104E9000082B21D06368B3F5803F4FD0B3F5A02F26
:104EA00052D0964B1A6822F480321A601A6822F4A3
:104EB00080221A606368002B50D0FEF711FD054672
:104EC0008E4B1B6813F4003F14D1FEF709FD401B05
:104ED0006428F5D90320B1E1884B5B6813F4800F97
:104EE000D8D0864B1B6813F4003F03D06368002BB7
:104EF00000F09F81236813F0020F54D07F4B9B6812
:104F000013F00C0F3ED07D4B9B6803F00C03082B75
:104F100033D0E368002B68D0794B01221A60FEF78A
:104F2000DFFC0546754B1B6813F0020F54D1FEF7EA
:104F3000D7FC401B0228F5D903207FE16F4A136894
:104F400043F480331360B5E76C4B1A6842F4802257
:104F50001A601A6842F480321A60ABE7FEF7C0FCB0
:104F60000546664B1B6813F4003FC3D0FEF7B8FC40
:104F7000401B6428F5D9032060E1604B5B6813F4A3
:104F8000800FC6D15D4B1B6813F0020F03D0E3689E
:104F9000012B40F05081594A136823F0F80321692E
:104FA00043EAC1031360236813F0080F42D063691A
:104FB0006BB3534B0122C3F8802EFEF791FC0546DC
:104FC0004E4B5B6F13F0020F34D1FEF789FC401B90
:104FD0000228F5D9032031E1484A136823F0F80389
:104FE000216943EAC1031360DDE7454B00221A60E3
:104FF000FEF776FC0546414B1B6813F0020FD2D03A
:10500000FEF76EFC401B0228F5D9032016E13C4B4D
:105010000022C3F8802EFEF763FC0546374B5B6F1A
:1050200013F0020F06D0FEF75BFC401B0228F5D9F7
:10503000032003E1236813F0040F77D02F4B1B6C80
:1050400013F0805F33D1002301932C4B1A6C42F094
:1050500080521A641B6C03F080530193019B01255D
:10506000284B1B6813F4807F23D0A368012B34D016
:10507000052B38D0214B1A6F22F001021A671A6FE4
:1050800022F004021A67A368002B3DD0FEF728FC2B
:1050900006461A4B1B6F13F0020F46D1FEF720FC99
:1050A000801B41F288339842F3D90320C6E00025E3
:1050B000D6E7144A136843F480731360FEF710FCBC
:1050C0000646104B1B6813F4807FCED1FEF708FC18
:1050D000801B0228F5D90320B0E0084A136F43F083
:1050E00001031367CFE7054B1A6F42F004021A67FA
:1050F0001A6F42F001021A67C5E700BF003802408C
:105100000000474200700040FEF7EAFB0646524BA3
:105110001B6F13F0020F08D0FEF7E2FB801B41F279
:1051200088339842F3D9032088E0EDB9A369002BB6
:1051300000F08380484A926802F00C02082A51D09D
:10514000022B17D0454B00221A66FEF7C9FB044616
:10515000414B1B6813F0007F42D0FEF7C1FB001BE0
:105160000228F5D9032069E03B4A136C23F08053F1
:105170001364DBE7394B00221A66FEF7B1FB0546E4
:10518000354B1B6813F0007F06D0FEF7A9FB401BD0
:105190000228F5D9032051E0E369226A1343626AC9
:1051A00043EA8213A26A5208013A43EA0243E26ADE
:1051B00043EA0263284A5360284B01221A66FEF72D
:1051C0008FFB0446244B1B6813F0007F06D1FEF7CB
:1051D00087FB001B0228F5D903202FE000202DE0DB
:1051E00000202BE0012B2BD01B4B5B6803F48001CC
:1051F000E269914226D103F03F02216A8A4223D11B
:10520000616A47F6C0721A40B2EB811F1ED103F4E7
:105210004031A26A5208013AB1EB024F18D103F0B3
:105220007063E26AB3EB026F14D1002006E0012044
:105230007047012002E0012000E0002002B070BDB4
:105240000120FBE70120F9E70120F7E70120F5E75E
:105250000120F3E70120F1E7003802400000474257
:1052600008B5254B9B6803F00C03042B3FD0082B9B
:105270003FD1214B5A6802F03F025B6813F4800F64
:1052800012D01D4B5968C1F388111C480023A1FBA3
:105290000001FBF7BBFB184B5B68C3F30143013311
:1052A0005B00B0FBF3F025E0134B5968C1F3881C99
:1052B0004FEA4C11B1EB0C006EEB0E0E4FEA8E1361
:1052C00043EA90638101091A63EB0E03DB0043EAB2
:1052D0005173C90011EB0C0C43F100039902002338
:1052E0004FEA8C2041EA9C51FBF790FBD3E703483F
:1052F00000E0034808BD00BF00380240001BB700B3
:105300000024F400002800F09B8070B50D46044690
:105310004F4B1B6803F007038B4208D2CBB24C4AB9
:105320001370136803F007038B4240F08B802368EF
:1053300013F0020F17D013F0040F04D0454A9368FE
:1053400043F4E0539360236813F0080F04D0414AFC
:10535000936843F4604393603E4A936823F0F003FC
:10536000A1680B439360236813F0010F32D0636888
:10537000012B21D09A1E012A25D9364A126812F033
:10538000020F61D033498A6822F0030213438B6015
:10539000FEF7A6FA06462F4B9B6803F00C036268E3
:1053A000B3EB820F16D0FEF79BFA801B41F28833D5
:1053B0009842F0D9032042E0264A126812F4003FD6
:1053C000E0D101203BE0234A126812F0007FD9D1DE
:1053D000012034E01E4B1B6803F00703AB4207D9E2
:1053E000EAB21B4B1A701B6803F00703AB422DD1C6
:1053F000236813F0040F06D0164A936823F4E05391
:10540000E1680B439360236813F0080F07D0114A3B
:10541000936823F46043216943EAC1039360FFF773
:105420001FFF0C4B9B68C3F303130B4AD35CD8409C
:105430000A4B18600A4B1868FEF706FA002070BD88
:10544000012070470120FAE70120F8E70120F6E784
:10545000003C02400038024050C1000840000020DB
:1054600038000020014B1868704700BF4000002042
:1054700008B5FFF7F7FF044B9B68C3F38223034A89
:10548000D35CD84008BD00BF0038024060C10008AE
:1054900008B5FFF7E7FF044B9B68C3F34233034AA9
:1054A000D35CD84008BD00BF0038024060C100088E
:1054B00030B583B00446036813F0050F06D12368A6
:1054C00013F0020F2ED1002003B030BD4A4B002252
:1054D0009A66FEF705FA0546484B1B6813F0006F05
:1054E00006D0FEF7FDF9431B022BF5D90320EBE7AD
:1054F0006268A3681B0743EA8213404AC2F88430FB
:105500003D4B01229A66FEF7EBF905463B4B1B68C3
:1055100013F0006FD3D1FEF7E3F9431B022BF5D94B
:105520000320D1E700230193344B1A6C42F08052E0
:105530001A641B6C03F080530193019B304A13687B
:1055400043F480731360FEF7CBF905462C4B1B68C0
:1055500013F4807F06D1FEF7C3F9431B022BF5D964
:105560000320B1E7254B1B6F13F4407314D0E2689E
:1055700002F440729A420FD0204B1A6F22F440720C
:105580001D490120C1F8400E0020C1F8400E1A67E5
:105590001B6F13F0010F13D1E36803F44072B2F5EF
:1055A000407F1ED0154A936823F4F8139360134983
:1055B0000B6FE268C2F30B0213430B67002083E713
:1055C000FEF78EF905460D4B1B6F13F0020FE3D16A
:1055D000FEF786F9401B41F288339842F3D9032045
:1055E00072E706498A6822F4F81223F0704323F424
:1055F000407313438B60DAE70000474200380240F3
:105600000070004098B110B5044643795BB10223A5
:1056100063712268136843F004031360012363710C
:105620000020A06010BD037103F0FAFBEFE701203A
:10563000704738B504460268D36823F0A003D360EE
:10564000FEF74EF905462368DB6813F0200F07D1FB
:10565000FEF746F9401BB0F57A7FF4D9032000E04D
:10566000002038BD38B50368DA6812F0400F01D069
:10567000002038BD04464FF0FF32DA60FEF730F903
:1056800005462368DB6813F0400F07D1FEF728F9C1
:10569000431BB3F57A7FF4D90320EAE70020E8E75B
:1056A00038B500285CD00446437F002B41D002234C
:1056B00063772368CA225A62236853225A622046BB
:1056C000FFF7D0FF0546002837D12268936823F4FE
:1056D000E00323F04003936021688A6863682069CF
:1056E00003436069034313438B602368E2681A61D4
:1056F00022681369A16843EA014313612268D368F1
:1057000023F08003D36023689B6813F0200F1BD025
:105710002268136C23F4802313642268136CA1693C
:105720000B4313642368FF225A62012363772846E0
:1057300038BD037703F0A6FBB9E72368FF225A625E
:10574000042363770125F2E72046FFF772FF002864
:10575000DED02368FF225A62042363770125E6E73F
:105760000125E4E72DE9F04782B005468846174653
:105770001E46FEF7B5F80A9B1B1A03EB0609FEF757
:10578000AFF882462B4B1B68C3F3CB3309FB03F303
:1057900001932B689C6838EA04030CBF4FF0010C9E
:1057A0004FF0000CBC4540D0B6F1FF3FF1D0FEF702
:1057B00097F8A0EB0A0048450AD2B9F1000F07D0CC
:1057C000019A02B14A46019B013B01939146E0E7F1
:1057D0002A68536823F0E00353606B68B3F5827F57
:1057E0000BD0AB6AB3F5005F14D0012385F85130BC
:1057F000002385F85030032018E0AB68B3F5004F64
:1058000002D0B3F5806FECD12A68136823F040030F
:105810001360E6E72A68136823F4005313602A68CC
:10582000136843F400531360DFE7002002B0BDE8C3
:10583000F08700BF4000002010B584B00446164B2E
:105840001868164BA3FB0030400D4FF47A7303FB2E
:1058500000F003906368B3F5827F0BD0039BBBB16C
:10586000039B013B039323689B6813F0800FF5D1E2
:1058700000200EE000920B46002280212046FFF718
:1058800071FF30B1636D43F020036365032000E0D6
:10589000002004B010BD00BF40000020819F5E16B4
:1058A00000285AD010B50446436A33B94368B3F5AB
:1058B000827F05D00023C36102E0002303614361BE
:1058C0000023A36294F85130002B40D0022384F8C7
:1058D00051302268136823F040031360636803F4B7
:1058E0008273A26802F404421343E26802F4006285
:1058F0001343226902F002021343626902F00102BB
:105900001343A26902F400721343E26902F0380201
:105910001343226A02F080021343A26A02F4005287
:10592000216813430B60638B03F00403626A02F087
:105930001002216813434B602268D36923F400638B
:10594000D36100206065012384F8513010BD84F8D4
:105950005030204603F002FBB8E7012070472DE9E4
:10596000F04383B01F460A9D90F85030012B00F0A1
:105970001081044688469146012380F85030FDF797
:10598000AFFF064694F85130DBB26268012B0AD0B3
:10599000B2F5827F40F0E380A268002A40F0E980FF
:1059A000042B40F0E880B8F1000F00F0E680B9F178
:1059B000000F00F0E480002F00F0E38094F85130F5
:1059C000DBB2042B02D0052384F851300023636539
:1059D000C4F83890E787A787C4F83080E786A786A1
:1059E0002364636423681A6812F0400F03D11A68B5
:1059F00042F040021A60E368B3F5006F11D06368AB
:105A00000BB1012F0BD1226B236812781A73236B11
:105A100001332363E38E9BB2013B9BB2E3860127F4
:105A20006BE063680BB1012F0BD1226B23681288E6
:105A3000DA60236B02332363E38E9BB2013B9BB29C
:105A4000E38601271CE023689A6812F0010F0ED04C
:105A5000E28F92B25AB1DA68A36B1A80A36B023359
:105A6000A363E38F9BB2013B9BB2E3870127FDF762
:105A700037FF801BA84203D3B5F1FF3F40F083807E
:105A8000E38E9BB21BB9E38F9BB2002B53D02368EC
:105A90009A6812F0020FD6D0E28E92B2002AD2D0CB
:105AA000002FD0D0226B1288DA60236B023323637D
:105AB000E38E9BB2013B9BB2E3860027C3E72368DA
:105AC0009A6812F0010F0ED0E28F92B25AB1DA68E2
:105AD000A36B1A70A36B0133A363E38F9BB2013BEB
