:020000040800F2
:1000000000000220B17E0008091100080B11000851
:100010000D1100080F110008111100080000000068
:10002000000000000000000000000000F15F000878
:10003000131100080000000091600008F56000083E
:10004000017F0008017F0008017F0008017F000890
:10005000017F0008017F000815110008017F0008DA
:10006000017F0008017F0008017F0008017F000870
:1000700021110008017F0008017F0008017F0008AE
:10008000017F0008017F0008017F0008311100088E
:1000900041110008017F0008017F0008511100088C
:1000A00061110008017F0008017F0008017F00083E
:1000B000017F0008017F0008017F0008017F000820
:1000C000017F0008017F0008017F0008017F000810
:1000D000017F000871110008017F000881110008EC
:1000E000017F0008017F0008017F0008017F0008F0
:1000F000017F0008017F0008017F0008017F0008E0
:10010000017F0008017F0008017F0008017F0008CF
:10011000017F0008017F0008017F0008017F0008BF
:1001200091110008A1110008B1110008C1110008C7
:10013000017F0008017F0008017F0008D11100083D
:10014000E1110008017F0008017F0008F11100089B
:10015000017F000801120008111200082112000896
:10016000017F0008017F0008017F0008017F00086F
:10017000017F0008017F0008017F000800000000E7
:08018000017F0008017F000867
:1001900010B5054C237833B9044B13B10448AFF3C1
:1001A00000800123237010BDBC0900200000000066
:1001B0004489000808B5034B1BB103490348AFF35A
:1001C000008008BD00000000C0090020448900082C
:1001D00053B94AB9002908BF00281CBF4FF0FF31AE
:1001E0004FF0FF3000F074B9ADF1080C6DE904CEAA
:1001F00000F006F8DDF804E0DDE9022304B0704702
:100200002DE9F047089D04468E46002B4DD18A42C9
:10021000944669D9B2FA82F252B101FA02F3C2F1FC
:10022000200120FA01F10CFA02FC41EA030E94408D
:100230004FEA1C48210CBEFBF8F61FFA8CF708FBAE
:1002400016E341EA034306FB07F199420AD91CEB86
:10025000030306F1FF3080F01F81994240F21C81B8
:10026000023E63445B1AA4B2B3FBF8F008FB103300
:1002700044EA034400FB07F7A7420AD91CEB040435
:1002800000F1FF3380F00A81A74240F20781644405
:10029000023840EA0640E41B00261DB1D44000238A
:1002A000C5E900433146BDE8F0878B4209D9002DEE
:1002B00000F0EF800026C5E9000130463146BDE878
:1002C000F087B3FA83F6002E4AD18B4202D38242E2
:1002D00000F2F980841A61EB030301209E46002D91
:1002E000E0D0C5E9004EDDE702B9FFDEB2FA82F2E6
:1002F000002A40F09280A1EB0C014FEA1C471FFA44
:100300008CFE0126200CB1FBF7F307FB131140EA2A
:1003100001410EFB03F0884208D91CEB010103F1F7
:10032000FF3802D2884200F2CB804346091AA4B2B9
:10033000B1FBF7F007FB101144EA01440EFB00FE8D
:10034000A64508D91CEB040400F1FF3102D2A645F2
:1003500000F2BB800846A4EB0E0440EA03409CE791
:10036000C6F12007B34022FA07FC4CEA030C20FA3E
:1003700007F401FA06F31C43F9404FEA1C4900FA5E
:1003800006F3B1FBF9F8200C1FFA8CFE09FB1811DB
:1003900040EA014108FB0EF0884202FA06F20BD94E
:1003A0001CEB010108F1FF3A80F08880884240F29E
:1003B0008580A8F102086144091AA4B2B1FBF9F0E2
:1003C00009FB101144EA014100FB0EFE8E4508D9DD
:1003D0001CEB010100F1FF346CD28E456AD9023862
:1003E000614440EA0840A0FB0294A1EB0E01A14247
:1003F000C846A64656D353D05DB1B3EB080261EBB5
:100400000E0101FA07F722FA06F3F1401F43C5E98E
:10041000007100263146BDE8F087C2F12003D840C4
:100420000CFA02FC21FA03F3914001434FEA1C4706
:100430001FFA8CFEB3FBF7F007FB10360B0C43EAF8
:10044000064300FB0EF69E4204FA02F408D91CEBA8
:10045000030300F1FF382FD29E422DD902386344A6
:100460009B1B89B2B3FBF7F607FB163341EA034146
:1004700006FB0EF38B4208D91CEB010106F1FF3895
:1004800016D28B4214D9023E6144C91A46EA00468C
:1004900038E72E46284605E70646E3E61846F8E61E
:1004A0004B45A9D2B9EB020864EB0C0E0138A3E767
:1004B0004646EAE7204694E74046D1E7D0467BE748
:1004C000023B614432E7304609E76444023842E7C0
:1004D000704700BF844641EA000313F003036DD167
:1004E000403A41D351F8043B40F8043B51F8043BF7
:1004F00040F8043B51F8043B40F8043B51F8043BFE
:1005000040F8043B51F8043B40F8043B51F8043BED
:1005100040F8043B51F8043B40F8043B51F8043BDD
:1005200040F8043B51F8043B40F8043B51F8043BCD
:1005300040F8043B51F8043B40F8043B51F8043BBD
:1005400040F8043B51F8043B40F8043B51F8043BAD
:1005500040F8043B51F8043B40F8043B51F8043B9D
:1005600040F8043B403ABDD2303211D351F8043B3D
:1005700040F8043B51F8043B40F8043B51F8043B7D
:1005800040F8043B51F8043B40F8043B103AEDD2EC
:100590000C3205D351F8043B40F8043B043AF9D23D
:1005A000043208D0D2071CBF11F8013B00F8013B10
:1005B00001D30B8803806046704700BF082A13D31D
:1005C0008B078DD010F003038AD0C3F10403D21A35
:1005D000DB071CBF11F8013B00F8013B80D331F869
:1005E000023B20F8023B7BE7043AD9D3013A11F8E9
:1005F000013B00F8013BF9D20B7803704B78437054
:100600008B7883706046704710B591F800E04B78A6
:100610004EEA032ECEF30A0EA0F800E0AEF5806E8F
:100620001FFA8EFEA0F800E091F801C08B784FEA27
:10063000DC0C4CEA431CCCF30A0CA0F802C0ACF56D
:10064000806C1FFA8CFCA0F802C08B78CA789B09DA
:1006500043EA82030A7943EA8223C3F30A038380CD
:10066000A3F580639BB283800A794C79520842EAF1
:10067000C412C2F30A02C280A2F5806292B2C280A2
:100680000EF1050E1FFA8EFEBEF10A0F01D80024EE
:1006900004800CF1050C1FFA8CFCBCF10A0F01D888
:1006A0000024448005339BB20A2B01D800238380A9
:1006B000053292B20A2A01D80023C3804B799B09E4
:1006C00003724B79C3F301134372B0F90030002B6E
:1006D000B8BF5B429BB2B3F5257F37D8B0F9023083
:1006E000002BB8BF5B429BB2B3F5257F2ED8B0F983
:1006F0000430002BB8BF5B429BB2B3F5257F25D8F1
:10070000B0F90630002BB8BF5B429BB2B3F5257F32
:100710001CD88B79CA7943EA022343810B7A4A7A3F
:1007200043EA022383810B7B83734B7BC3738B7BF5
:10073000CA7B43EA022303820B7C4A7C43EA0223FE
:100740001BB24382A3F58063438205E0002303606C
:1007500043608360C360036110BD0000F0B583B0E7
:1007600007460D461C4E40F2311333600023B36040
:10077000F360082333610B78184C23704B78637057
:100780008B78A370CB78E3700B7923714B7963710D
:100790008B79A371CB79E37101AB2246314601F02D
:1007A00041FA4FF4997333602B7A23706B7A63703C
:1007B000AB7AA370EB7AE3702B7B23716B7B637155
:1007C000AB7BA371EB7BE37101AB2246314638462C
:1007D00001F028FA03B0F0BDE0090020D80900209C
:1007E000074B834200D0704710B5064C214606489F
:1007F000FFF70AFF21460548FFF7B0FF10BD00BF15
:1008000000160020F80900200C0A0020240A00200D
:1008100008B50E480E4B036003234360002282603C
:10082000C2604FF4102303614FF40013436102765A
:10083000012343768376C3760277437701F04CF940
:1008400000B908BD00F026FBFBE700BF240A00202A
:100850000064004008B50E480E4B0360032343605C
:1008600000228260C2604FF4102303614FF4001332
:1008700043610276012343768376C376027743771A
:1008800001F02AF900B908BD00F004FBFBE700BF46
:100890004C0A00200068004010B58AB00023059380
:1008A00006930793089309930368454A934204D03B
:1008B000444A93423CD00AB010BD434A1368013306
:1008C0001360012B27D000240194404B1A6B42F097
:1008D00008021A631B6B03F008030193019B0323B7
:1008E00005930222069208930923099305A9384823
:1008F00001F072FD22460521132001F055FB132063
:1009000001F08AFB22460521142001F04DFB142042
:1009100001F082FBCFE7002300932C4B1A6C42F0CE
:1009200000721A641B6C03F000730093009BCAE70B
:1009300000230293254B1A6C42F080621A641B6CF0
:1009400003F080630293029B1F4A13680133136014
:10095000012B28D0002404941C4B1A6B42F0020295
:100960001A631B6B03F002030493049B602305933B
:1009700002230693032308930923099305A9154825
:1009800001F02AFD224605213F2001F00DFB3F200A
:1009900001F042FB22460521402001F005FB4020EA
:1009A00001F03AFB87E700230393084B1A6C42F0EF
:1009B00000721A641B6C03F000730393039BC9E776
:1009C0000064004000680040200A00200038024017
:1009D000000C02400004024010B582B000240094D4
:1009E000264B1A6B42F480021A631A6B02F48002DF
:1009F0000092009A01941A6B42F400121A631B6B66
:100A000003F400130193019B224605210C2001F001
:100A1000CBFA0C2001F000FB22460521382001F022
:100A2000C3FA382001F0F8FA22460521392001F0F6
:100A3000BBFA392001F0F0FA224605213A2001F0F4
:100A4000B3FA3A2001F0E8FA224605213B2001F0F2
:100A5000ABFA3B2001F0E0FA22460521452001F0E7
:100A6000A3FA452001F0D8FA22460521462001F0DC
:100A70009BFA462001F0D0FA02B010BD00380240C7
:100A800008B506F0D9FF012005F012FAFBE7704720
:100A900070470000034B0360034B0B60802313601F
:100AA000704700BF780C0020780A0020034B0360D9
:100AB000034B0B604FF4807313607047CC10002021
:100AC000CC0C002010B588B00DF1040C074C0FCCF5
:100AD000ACE80F0094E807008CE80700002101A8AB
:100AE00005F0B1F9024B186008B010BD5C89000830
:100AF000740A00202DE9F04F8FB0002409940A9465
:100B00000B940C940D9401946E4B1A6B42F00202FC
:100B10001A631A6B02F002020192019A02941A6B94
:100B200042F040021A631A6B02F040020292029AEB
:100B300003941A6B42F001021A631A6B02F001026D
:100B40000392039A04941A6B42F008021A631A6B18
:100B500002F008020492049A05941A6B42F004020F
:100B60001A631A6B02F004020592059A06941A6B36
:100B700042F480721A631A6B02F480720692069A2B
:100B800007941A6B42F080021A631A6B02F080021B
:100B90000792079A08941A6B42F020021A631B6BA3
:100BA00003F020030893089B474F01224021384659
:100BB00001F0F8FCDFF820A122464FF4E051504646
:100BC00001F0F0FCDFF8149101221021484601F0F9
:100BD000E9FC3E4E01221146304601F0E3FC4FF0A5
:100BE000400BCDF824B03A4B0A9301250B95DFF862
:100BF000F08009A9404601F0EFFBCDF824B00A953A
:100C00000B950C9509A9384601F0E6FB4FF4E0532B
:100C100009930A950B940C9409A9504601F0DCFB4A
:100C2000082309932B4B0A930B9509A9384601F029
:100C3000D3FB072309930A940B9409A9404601F0BA
:100C4000CBFB0995DFF89CA0CDF828A00B9409A94F
:100C5000484601F0C1FB102309930A950B95022722
:100C60000C9709A9484601F0B7FB30230993CDF84A
:100C700028A00B9409A9404601F0AEFB4FF40053A5
:100C800009930A940B9709A9304601F0A5FB099531
:100C90000A950B950C9709A9304601F09DFB224659
:100CA0000521062001F080F9062001F0B5F9224661
:100CB0000521172001F078F9172001F0ADF90FB0E8
:100CC000BDE8F08F003802400018024000040240E6
:100CD0000000311000002110001C02400000024002
:100CE000000802400000111008B50B480B4B0360D0
:100CF0000B4B436000238360C3604FF4804202616A
:100D000043618361C361036201F062FC00B908BD05
:100D100000F0C0F8FBE700BF2011002000540040A5
:100D2000801A060030B589B000230393049305931D
:100D3000069307930268154B9A4201D009B030BD63
:100D400000250195124C236B43F002032363236BB0
:100D500003F002030193019B4FF4407303931223AA
:100D6000049301230593032306930423079303A904
:100D7000084801F031FB0295236C43F4001323640F
:100D8000236C03F400130293029BD7E70054004046
:100D9000003802400004024030B595B030220021F6
:100DA00008A807F099FB0024039404940594069482
:100DB000079401941C4B1A6C42F080521A641B6C0D
:100DC00003F080530193019B0294184B1A6842F47C
:100DD00080421A601B6803F480430293029B012344
:100DE00008934FF48033099302250E954FF4800346
:100DF0000F9306231093A82311931295072313939F
:100E000008A802F069FA0F230393049505944FF4A0
:100E1000A05306934FF480530793052103A802F0D3
:100E200079FC15B030BD00BF0038024000700040B2
:100E300008B500F011FEFFF7AFFFFFF75BFEFFF70D
:100E4000CBFDFFF7E5FCFFF705FDFFF74DFF00F0D9
:100E50004BF800F04DFB00F08DFB00F01DF800F0AA
:100E600005FB00F005FC00F03DFC00F073FC00F019
:100E700053FCFFF727FE04F0E1FFFEE708B5026828
:100E8000034B9A4200D008BD00F000FEFBE700BF14
:100E9000004001407047000008B50548054B03605D
:100EA00002F02AFD00B908BDFFF7F4FFFBE700BF21
:100EB00074110020000806500268094B9A4200D0C5
:100EC000704782B000230193064B5A6B42F04002F8
:100ED0005A635B6B03F040030193019B02B07047C0
:100EE000000806500038024008B50E480E4B03605B
:100EF0004FF48273436000238360C36003614361E6
:100F00004FF4007282613022C261036243628362E5
:100F10000A23C36202F007FD00B908BDFFF7BAFF5C
:100F2000FBE700BF44120020003001402DE9F041F2
:100F300088B00023039304930593069307930268F4
:100F40003A4B9A4202D008B0BDE8F0810446002531
:100F5000009503F584335A6C42F480525A645A6CFB
:100F600002F480520092009A01951A6B42F002023C
:100F70001A631A6B02F002020192019A02951A6B2F
:100F800042F001021A631B6B03F001030293029B00
:100F9000182303934FF00208CDF81080032706971B
:100FA0000526079603A9224801F016FA8023039329
:100FB000CDF8108005950697079603A91D4801F006
:100FC0000BFA1D481D4B03604FF0C0634360856002
:100FD000C5604FF48063036145618561C561056249
:100FE000456201F091F8D8B9134BE3649C6314484F
:100FF000144B03604FF0C0634360402383600023C1
:10100000C3604FF48062026143618361C361036224
:10101000436201F079F830B9094BA3649C6392E70D
:10102000FFF738FFE0E7FFF735FFF5E70030014055
:1010300000040240000002408411002010640240BD
:10104000E41100205864024000B583B000220092F1
:101050000D4B596C41F480415964596C01F4804145
:10106000009100990192196C41F0805119641B6C38
:1010700003F080530193019B0F216FF0010000F0FA
:1010800093FF03B05DF804FB0038024010B588B050
:1010900001460022182000F087FF182000F0BCFF56
:1010A00000240194144B5A6C42F480325A645B6CF5
:1010B00003F480330193019B02A903A802F0FEFB15
:1010C00002F0ECFB43000D48A0FB03239B0C013B0B
:1010D0000B480C4A026040F2E732C2604360046190
:1010E000846002F05BFE10B1012008B010BD04481E
:1010F00002F01DFDF9E700BF0038024083DE1B430C
:101100009C120020004001407047FEE7FEE7FEE72A
:10111000FEE7704708B5012001F04CFA08BD000059
:1011200008B5024801F06AF808BD00BFA01400200D
:1011300008B5024800F001FE08BD00BF240A0020E7
:1011400008B5024800F0F9FD08BD00BF240A0020E0
:1011500008B5202001F02EFA402001F02BFA08BD3E
:1011600008B5024802F0F8FC08BD00BF9C12002040
:1011700008B5024803F018FA08BD00BFC0150020EA
:1011800008B5024803F010FA08BD00BF00160020A1
:1011900008B5024801F032F808BD00BF84110020F4
:1011A00008B5024801F02AF808BD00BF001500206C
:1011B00008B5024801F022F808BD00BFE013002086
:1011C00008B5024801F01AF808BD00BFE41100207C
:1011D00008B5024800F0B1FD08BD00BF4C0A002070
:1011E00008B5024800F0A9FD08BD00BF4C0A002068
:1011F00008B5024801F090FC08BD00BFD0CD00202A
:1012000008B5024800F0FAFF08BD00BF60150020D5
:1012100008B5024800F0F2FF08BD00BF40140020EE
:1012200008B5024803F0C0F908BD00BF4016002011
:1012300008B503460B4A126842B10A4A10680344D3
:101240006A46934206D8074A136008BD054A064914
:101250001160F2E706F056FE0C2303604FF0FF30FA
:10126000F3E700BFDC12002018D200200F49D1F8AC
:10127000883043F47003C1F888300D4B1A6842F08F
:1012800001021A60002098601A6822F0847222F429
:1012900080321A60074A5A601A6822F480221A6063
:1012A000D8604FF000638B60704700BF00ED00E036
:1012B000003802401030002482B00368104A934284
:1012C00004D0104A93420ED002B07047002300931E
:1012D0000D4B1A6C42F002021A641B6C03F00203FD
:1012E0000093009BF0E700230193074B1A6C42F038
:1012F00004021A641B6C03F004030193019BE3E7EF
:1013000000040040000800400038024082B003683A
:10131000104A934204D0104A93420ED002B0704754
:10132000002300930D4B5A6C42F002025A645B6C2E
:1013300003F002030093009BF0E700230193074BA7
:101340005A6C42F400325A645B6C03F4003301932C
:10135000019BE3E7000401400044014000380240E3
:1013600000B58BB000230593069307930893099368
:101370000368354A93420BD0344A93421FD0344A13
:10138000934233D0334A934247D00BB05DF804FB0D
:1013900000230193304B1A6B42F004021A631B6B5B
:1013A00003F004030193019B4FF480730593022320
:1013B0000693099305A9294801F00EF8E5E70023F3
:1013C0000293254B1A6B42F008021A631B6B03F061
:1013D00008030293029B4FF4804305930223069374
:1013E000099305A91E4800F0F7FFCEE700230393F9
:1013F000194B1A6B42F480721A631B6B03F48073EF
:101400000393039BC02305930223069303230993AD
:1014100005A9144800F0E0FFB7E7002304930E4B42
:101420001A6B42F020021A631B6B03F02003049333
:10143000049B40230593022306930323099305A9E4
:10144000094800F0C9FFA0E7000400400008004080
:1014500000040140004401400038024000080240FE
:10146000000C0240002002400014024000B58BB086
:101470000023089309930193029303930493059324
:10148000069307931848194A02605322426083600A
:1014900040F2CF72C2600361836102F099FCC8B967
:1014A00000230893099308A90F4802F0CBFDA0B9C7
:1014B000602301930023029303930593082201A95B
:1014C000094802F0D7FC58B90748FFF749FF0BB0AD
:1014D0005DF804FBFFF7DEFCE2E7FFF7DBFCE7E784
:1014E000FFF7D8FCF0E700BF201300200004004005
:1014F00000B58BB0002308930993019302930393E3
:1015000004930593069307931848194A02605322DF
:101510004260836044F61F62C2600361836102F02F
:1015200057FCC8B900230893099308A90F4802F093
:1015300089FDA0B9602301930023029303930593CF
:10154000082201A9094802F095FC58B90748FFF79D
:1015500007FF0BB05DF804FBFFF79CFCE2E7FFF729
:1015600099FCE7E7FFF796FCF0E700BF6013002067
:101570000008004010B596B00024129413941494FF
:1015800015941094119409940A940B940C940D944E
:101590000E940F942022214601A806F09DFF3248A8
:1015A000324B0360A7234360846044F61F63C3602B
:1015B00004614461846102F0F1FB00283FD14FF4E3
:1015C0008053129312A9284802F0CFFC002839D189
:1015D000254802F0FDFB002837D10023109311931A
:1015E00010A9214802F02EFD002831D16023099373
:1015F00000230A930B930C930D930E930F930422E5
:1016000009A9194802F036FC28BB082209A9164886
:1016100002F030FC10BB0023019302930393049368
:1016200005934FF400520692089301A90E4802F068
:101630002DFDB0B90C48FFF793FE16B010BDFFF7B3
:1016400029FCBCE7FFF726FCC2E7FFF723FCC4E751
:10165000FFF720FCCAE7FFF71DFCD6E7FFF71AFCEF
:10166000D9E7FFF717FCE5E7A013002000040140CD
:1016700000B589B00023019302930393049305936B
:10168000069307931548164A0260A72242608360BA
:1016900040F2CF72C2600361836102F07FFBA0B9A8
:1016A0000E4802F095FB98B9602301930022029244
:1016B0000392059201A9094802F0DCFB58B90748DA
:1016C000FFF74EFE09B05DF804FBFFF7E3FBE7E729
:1016D000FFF7E0FBE8E7FFF7DDFBF0E7E0120020B3
:1016E0000044014008B50A480A4B03604FF46123E7
:1016F000436000238360C36003610C224261836105
:10170000C36102F0C3FE00B908BDFFF7C3FBFBE7EE
:10171000C01500200010014008B50B480B4B0360BA
:101720000B4B436000238360C3604FF4806202610F
:101730000C2242618361C36102F0A8FE00B908BDBA
:10174000FFF7A8FBFBE700BF0016002000480040A1
:10175000A086010008B50A480A4B03604FF4E13344
:10176000436000238360C36003610C224261836194
:10177000C36102F08BFE00B908BDFFF78BFBFBE7EE
:1017800040160020001401402DE9F0438DB00446BE
:1017900000230793089309930A930B9303689C4AC9
:1017A00093420AD09B4A934200F085809A4A934222
:1017B00000F0CA800DB0BDE8F08300250095974B7E
:1017C0005A6C42F010025A645A6C02F010020092F5
:1017D000009A01951A6B42F002021A631A6B02F02A
:1017E00002020192019A02951A6B42F001021A63F9
:1017F0001B6B03F001030293029B802307934FF0BE
:101800000209CDF820904FF00108CDF8248003277D
:101810000A9707260B9607A9814800F0DDFD4FF4D3
:1018200000730793CDF82090CDF824800A970B968B
:1018300007A97C4800F0D0FD7B487C4B03604FF04B
:10184000006343608560C5604FF480630361456158
:1018500085614FF48073C3610562456200F054FCFA
:1018600018BB714B63639C637148724B03604FF00C
:1018700000634360402383600023C3604FF48062B1
:10188000026143618361C3610362436200F03CFC17
:1018900070B9674B23639C6300220521252000F06B
:1018A00083FB252000F0B8FB84E7FFF7F3FAD8E7C5
:1018B000FFF7F0FAEDE700250395584B1A6C42F458
:1018C00080221A641A6C02F480220392039A04950F
:1018D0001A6B42F004021A631B6B03F004030493B7
:1018E000049B4FF440630793022308930123099359
:1018F00003230A9307230B9307A94F4800F06CFDBD
:101900004E484F4B03604FF0006343608560C560F5
:101910004FF480630361456185614FF48073C36157
:101920000562456200F0F0FB58B9444B63639C6369
:1019300000220521272000F037FB272000F06CFB58
:1019400038E7FFF7A7FAF0E700250595334B5A6C07
:1019500042F020025A645A6C02F020020592059A65
:1019600006951A6B42F040021A631B6B03F04003AA
:101970000693069B4FF484430793022308930123A5
:10198000099303230A9308230B9307A92D4800F01A
:1019900023FD2D482D4B03604FF02063436085608D
:1019A000C5604FF480630361456185614FF48073C6
:1019B000C3610562456200F0A7FB18BB224B63635D
:1019C0009C632348234B03604FF020634360402314
:1019D00083600023C3604FF48062026143618361CE
:1019E000C3610362436200F08FFB70B9184B23633D
:1019F0009C6300220521472000F0D6FA472000F022
:101A00000BFBD7E6FFF746FAD8E7FFF743FAEDE717
:101A1000001001400048004000140140003802401E
:101A20000004024000000240E01300204064024035
:101A300040140020B864024000080240A0140020B6
:101A4000286002400018024000150020286402406F
:101A500060150020A064024008B50B4B1A6842F4E0
:101A600000721A601A6842F480621A601A6842F4BE
:101A700080721A60032000F085FA0020FFF706FB51
:101A8000FFF7E2FA002008BD003C0240034A11685B
:101A9000034B1B780B441360704700BF8016002077
:101AA00004000020014B1868704700BF801600201A
:101AB00038B50446FFF7F6FF0546B4F1FF3F02D004
:101AC000044B1B781C44FFF7EDFF401BA042FAD3E8
:101AD00038BD00BF04000020002800F0A18038B508
:101AE000044690F82030D3B12268136823F0020333
:101AF0001360FFF7D7FF054623685A6812F0020FFC
:101B000010D0FFF7CFFF401B0A28F5D9636A43F4D2
:101B100000336362052384F82030012038BDFEF7CE
:101B2000BBFEE1E71A6842F001021A60FFF7BAFF54
:101B3000054623685A6812F0010F0DD1FFF7B2FF76
:101B4000401B0A28F5D9636A43F400336362052316
:101B500084F820300120E1E7227E012A3DD01A6876
:101B600022F080021A60637E012B3BD0226813684A
:101B700023F040031360A37E012B39D02268136841
:101B800023F020031360E37E012B37D02268136813
:101B900043F010031360237F012B35D022681368B4
:101BA00023F008031360637F012B33D0226813688E
:101BB00023F004031360A368E2681343226913430C
:101BC000626913436268013A21681343CB610020C4
:101BD0006062012384F82030A0E71A6842F0800296
:101BE0001A60C0E72268136843F040031360C2E73D
:101BF0002268136843F020031360C4E72268136867
:101C000023F010031360C6E72268136843F008034B
:101C10001360C8E72268136843F004031360CAE73F
:101C20000120704730B590F820C00468A4680CF11A
:101C3000FF3C5FFA8CFCBCF1010F6BD814F0E05F45
:101C400062D0C4F3016CBCF1020F05D9436A43F4BE
:101C500000034362012062E0012404FA0CF41C60DA
:101C60008B68002B3DD10D68CB68046843EA45556D
:101C70000CF118031B01E55003680C690CF1180EF8
:101C800003EB0E135C600B7D012B35D0D17993797A
:101C90001B0443EA0163517943EA01231479016883
:101CA000234301EB0C11C1F88C31D17893781B04DC
:101CB00043EA0163517843EA0123117802680B4338
:101CC00002EB0C12C2F8883102680CF1180C4FEAD2
:101CD0000C1C52F80C3043F0010342F80C30002089
:101CE0001DE04C6843EAC403CC6823430CF118049C
:101CF000240105682B51BFE7036803EB0E135968F5
:101D000041F480715960C1E7436A43F400134362B0
:101D1000012004E0436A43F480234362012030BD84
:101D200070477047704770477047704770477047FB
:101D3000704770477047704770472DE9F84F054668
:101D400003685C69D3F804809F68D3F80CB0D3F8BB
:101D500010A0D3F8189014F001063BD017F001063C
:101D600016D001229A6017F0020F08D117F0040F65
:101D70000CD117F0080606D04FF4805608E0FFF7A4
:101D8000CFFF002604E0FFF7CEFF01E04FF400662E
:101D900017F4807F0DD02B684FF480729A6017F48F
:101DA000007F40F0868017F4806F00F0868046F454
:101DB000005617F4803F0DD02B684FF480329A60A4
:101DC00017F4003F40F0838017F4802F00F08380E9
:101DD00046F4004614F0080F07D01BF0100F04D093
:101DE00046F400762B681022DA6014F0040F02D05B
:101DF0001BF0080F79D114F0020F04D02B68DB68B8
:101E000013F0030F78D114F0400F07D01AF0100F21
:101E100004D046F480662B6810221A6114F0200F5B
:101E200002D01AF0080F6BD114F0100F04D02B68F9
:101E30001B6913F0030F6AD114F4003F02D018F0AD
:101E4000100F68D114F4803F02D018F0080F69D148
:101E500014F4004F7AD018F0040F74D014F4807F7B
:101E600004D019F0010F01D046F0010614F4007FF0
:101E700004D019F0020F01D046F0020614F4806F6E
:101E800004D019F0040F01D046F0040614F4006FDA
:101E900059D019F0700956D0B9F1400F65D058D813
:101EA000B9F1200F5ED0B9F1300F42D146F02006D3
:101EB00044E02846FFF735FF7BE717F4006F02D0B8
:101EC00046F4804675E72846FFF72EFF71E728465F
:101ED000FFF728FF7EE717F4002F02D046F4803684
:101EE00078E72846FFF721FF74E72B680822DA60BD
:101EF0002846FFF71CFF7EE72846FFF717FF82E71B
:101F00002B6808221A612846FFF713FF8CE7284642
:101F1000FFF70EFF90E72B6810225A602846FFF764
:101F200009FF8FE72B6808225A602846FFF703FF56
:101F30008EE7B9F1100F01D146F008062A689369BF
:101F400023F0700393612B6804225A609EB9BDE8A8
:101F5000F88FB9F1500F0BD0B9F1600FEED146F404
:101F60008076EBE746F01006E8E746F04006E5E746
:101F700046F08006E2E76B6A1E436E622846FFF772
:101F8000DBFEE4E7074AD36823F4E0631B041B0C81
:101F9000000200F4E060034343F0BF6343F4003306
:101FA000D360704700ED00E000B5194BDB68C3F368
:101FB0000223C3F1070CBCF1040F28BF4FF0040C3F
:101FC00003F1040EBEF1060F18D9033B4FF0FF3E9C
:101FD0000EFA0CFC21EA0C0199400EFA03F322EAF6
:101FE0000303194300280BDB0901C9B200F160406B
:101FF00000F5614080F800135DF804FB0023E5E77D
:1020000000F00F000901C9B2024B1954F4E700BFF8
:1020100000ED00E014ED00E0002807DB00F01F02F7
:10202000400901239340024A42F82030704700BF24
:1020300000E100E010B40368D9B210390C4AA2FBE9
:10204000014212090B4CA25CC2655F2909D923F435
:102050007F7323F0030304338365806D5DF8044BC5
:10206000704723F47F7323F003038365F5E700BF14
:10207000ABAAAAAAA0890008836A826992B9012B37
:102080000AD0022B02D00BB100207047C36A13F0B4
:10209000807F28D100207047C36AB3F1C07F24D06D
:1020A00000207047B2F5005F09D0022B25D9032B21
:1020B00025D1C36A13F0807F23D100207047032B02
:1020C00003D8DFE803F01404140A00207047C36A41
:1020D00013F0807F0DD100207047C36AB3F1C07F39
:1020E00009D000207047012070470120704701206F
:1020F0007047012070470120704701207047002081
:10210000704701207047000070B50446FFF7CAFC15
:10211000002C5BD00546002384F83430022384F879
:1021200035302268136823F00103136023681A68AE
:1021300012F0010F0AD0FFF7B5FC431B052BF5D9B0
:1021400020236365032084F8350070BD1A68204899
:1021500010406168A2680A43E1680A4321690A43A2
:1021600061690A43A1690A43E1690A43216A0A4392
:102170000243616A04291ED01A602668756925F039
:102180000705636A1D43042B07D1A36A1D43E36A55
:102190001BB12046FFF770FF90B975612046FFF72D
:1021A00049FFE26D3F239340836000206065012377
:1021B00084F83530C9E7E16A206B01430A43DBE765
:1021C00040236365012084F83500BEE70120BCE7A9
:1021D0003F8010F090F83530DBB2022B03D0802323
:1021E000436501207047052380F835300268136885
:1021F00023F001031360002070470000F0B583B0A6
:10220000044600230193724B1D68724BA3FB0535F6
:10221000AD0A876D3E68C26D08239340334210D0EB
:1022200003681A6812F0040F0BD01A6822F0040237
:102230001A60C26D08239340BB60436D43F00103F5
:102240004365E26D01239340334209D0226852690D
:1022500012F0800F04D0BB60636D43F0020363652E
:10226000E26D04239340334209D02268126812F0D1
:10227000020F04D0BB60636D43F004036365E26D3D
:1022800010239340334224D02268126812F0080FC2
:102290001FD0BB6023681A6812F4802F0DD01B6812
:1022A00013F4002F04D1236C9BB12046984710E013
:1022B000A36C73B1204698470BE01A6812F4807F34
:1022C00003D11A6822F008021A60236C0BB1204671
:1022D0009847E26D20239340334255D0226812681C
:1022E00012F0100F50D0BB6094F83530DBB2052BE4
:1022F0000ED023681A6812F4802F33D01B6813F4B1
:10230000002F2AD1636C002B3ED0204698473BE03B
:102310002268136823F0160313602268536923F0C0
:1023200080035361236CA3B12268136823F0080370
:102330001360E26D3F239340BB60002384F8343088
:10234000012384F83530236D002B3FD02046984779
:102350003CE0A36C002BE7D1EBE7E36BA3B1204695
:10236000984711E01A6812F4807F09D11A6822F0A8
:1023700010021A60002384F83430012384F83530C9
:10238000E36B0BB120469847636DFBB1636D13F0AF
:10239000010F17D0052384F835302268136823F025
:1023A00001031360019B01330193AB4204D82368FE
:1023B0001B6813F0010FF5D1002384F8343001239A
:1023C00084F83530E36C0BB12046984703B0F0BD7C
:1023D00000000020B5814E1B00230F2B00F2D88097
:1023E000F0B583B03AE0072200E00022AA40324371
:1023F0000234684D45F82420674A14686FEA0C02DD
:1024000024EA0C054E6816F4803F01D04CEA04051E
:10241000614C2560646802EA04054E6816F4003FCA
:1024200001D04CEA04055C4C6560A46802EA04052E
:102430004E6816F4801F01D04CEA0405564CA56086
:10244000E46822404D6815F4001F01D04CEA0402F4
:10245000514CE26001330F2B00F2988001229A4028
:102460000C6804EA020C32EA0404F3D14C68022C32
:1024700001D0122C10D1DD08083550F8257003F07A
:102480000704A6000F24B44027EA040E0C69B440E8
:1024900044EA0E0440F8254006684FEA430E032440
:1024A00004FA0EF4E54326EA04064C6804F003043B
:1024B00004FA0EF4344304604C68661E012E03D9FE
:1024C000112C01D0122C0FD186682E40CC6804FA52
:1024D0000EF434438460446824EA02024C68C4F376
:1024E00000149C4014434460C26815408A6802FA94
:1024F0000EF22A43C2604A6812F0805FAAD000221E
:102500000192264A546C44F480445464526C02F4A0
:1025100080420192019A9C08A51C1E4A52F825602F
:1025200003F0030295000F22AA4026EA02061C4A85
:1025300090423FF45AAF02F5806290421AD002F501
:102540008062904218D002F58062904216D002F567
:102550008062904214D002F58062904212D002F55F
:102560008062904210D002F5806290423FF43BAF0F
:1025700008223BE7012239E7022237E7032235E749
:10258000042233E7052231E706222FE703B0F0BD2E
:10259000704700BF00380140003C01400038024055
:1025A000000002400AB181617047090481617047EF
:1025B0007047000008B5054B5B69034200D108BDB8
:1025C000024B5861FFF7F4FFF9E700BF003C014000
:1025D000002800F0C28070B5044690F83D30002B12
:1025E0006DD0242384F83D302268136823F0010362
:1025F000136001F043F962685A4B9A4264D85A4B0F
:1026000098428CBF00230123002B40F0A88057493B
:10261000A1FB00318B0C25686A6822F03F0242EA78
:1026200091426A6021680A6A22F03F0266684D4D55
:10263000AE424FD8013313430B622168CA6922F4BA
:102640004F4222F0FF026668464B9E424CD8431E22
:102650007600B3FBF6F3013340F6FC70034278D00A
:10266000C3F30B031343CB6121680B6823F0C00352
:10267000E269206A024313430B6021688B6823F4EC
:10268000034323F0FF032269E068024313438B6096
:102690002168CB6823F0FF036269A06902431343FA
:1026A000CB602268136843F00103136000202064AC
:1026B000202384F83D30206384F83E0070BD80F80C
:1026C0003C30FEF72FFB8CE7294B98428CBF002350
:1026D000012399E74FF4967505FB03F3254DA5FB00
:1026E00003539B090133A6E7A368BBB9451E06EB5C
:1026F000460CB5FBFCF50135C5F30B05B5FA85F5C0
:102700006D0945BBC3B9013806EB4603B0FBF3F3D3
:102710000133C3F30B0343F40043A3E7451E06EB69
:10272000860C0CEB8C0CB5FBFCF50135C5F30B05E9
:10273000B5FA85F56D09E4E7013806EB860303EB8E
:102740008303B0FBF3F30133C3F30B0343F44043C0
:1027500088E7042386E7012384E7012070470120EE
:10276000ACE700BFA08601007F841E0083DE1B4310
:10277000FF083D00D34D62102DE9F04383B0D0F83F
:102780000080C1EBC10300EB83035A6D1B6D9A42BD
:1027900054D807460C469B1AC1EBC10200EB8202DB
:1027A000526C9A4200D31A4602F103094FEA990982
:1027B00015E006F103094FEA9909C4EBC40507EBDC
:1027C0008505A96C3B7C0093B3B2E2B2404602F0AF
:1027D000B3FAAB6C3344AB646B6D33446B6508EB9D
:1027E000441303F510639B699BB24B4512D3C4EBB2
:1027F000C40207EB8202516D136D99420AD24BB1AC
:102800005B1AC4EBC40207EB8202566C9E42D0D323
:102810001E46CEE7C4EBC40007EB80073A6D7B6D24
:102820009A420FD804F00F040123A340D8F834488B
:1028300024EA0304C8F83448002000E0012003B073
:10284000BDE8F0830020FAE770B58AB0002800F0F8
:1028500090800546046890F8BD333BB3032385F8A8
:10286000BD33E36B13F4807F01D100232B61286813
:1028700002F00EF82C4654F8106BEC460FCCACE886
:102880000F000FCCACE80F0094E803008CE80300C5
:102890002B1D0ECB304601F03DFF044658B10223FC
:1028A00085F8BD33012420460AB070BD80F8BC33E2
:1028B00005F0ACF9D2E70021286801F0EFFF2346CC
:1028C00016E0C3EBC30205EB8202012182F83D1042
:1028D00082F83C30A2F84230002182F83F10516467
:1028E0009164C3EBC30205EB820211650133DBB2D5
:1028F00069688B42E5D316E0C4EBC40305EB8303A0
:10290000002283F8FD2183F8FC4183F8FF21C3F8FE
:102910000422C3F80822C4EBC40305EB8303C3F805
:1029200010220134E4B2A142E6D82C4654F8106BD0
:10293000EC460FCCACE80F000FCCACE80F0094E8ED
:1029400003008CE803002B1D0ECB304601F0ECFF9A
:10295000044620B1022385F8BD330124A3E70023F8
:1029600085F83830012385F8BD33286802F09EFBD6
:1029700099E7012497E7026890F8BC33012B19D03E
:1029800010B50446012380F8BC33836A012B09D0BB
:10299000206802F07FFB206801F074FF002084F8BB
:1029A000BC0310BD8369012BF2D0936B43F48033D9
:1029B0009363EDE70220704770B505460E46036845
:1029C000196C03EB461303F53064A3680269012A0E
:1029D00009D0344A91425FD113F4004F52D04FF4E2
:1029E0000043A3605BE013F0080F14D02E4A91421D
:1029F00005D913F4004F02D04FF40043A3602846DA
:102A000005F046F905F571720121286802F0ACFB6A
:102A10000823A36043E013F0200F02D02023A3601B
:102A20003DE013F0280F3AD11F4A914206D913F422
:102A3000004F03D04FF40043A36030E0C6EBC60361
:102A400005EB8303D3F804122269C2F312028A1A37
:102A5000C3F81422D3F808220A44C3F80822F1B2BA
:102A6000284605F01DF9D6B9C6EBC60605EB860368
:102A7000D3F810329BB905F571720121286802F074
:102A800073FB0CE013F0200F01D02023A360F1B200
:102A9000284605F005F902E0F1B205F001F9002041
:102AA00070BD00BF0A31544F0A30544F38B5044648
:102AB00003681D6C03EB411303F5306399680269E9
:102AC000012A0DD0124A954214D0204605F0E0F8B4
:102AD000104B9D4202D92369012B12D0002038BD32
:102AE0000C4A9542F1D911F4004FEED04FF4004258
:102AF0009A60EAE711F4004FE7D04FF400429A6081
:102B0000E3E704F571720121206802F02DFBE5E78F
:102B10000A31544F0A30544F2DE9F04704460568F6
:102B2000284602F000FB08B1BDE8F08706462068A1
:102B300002F0C8FA0028F7D0206802F0C3FA10F0BB
:102B4000020F04D02268536903F002035361206826
:102B500002F0B8FA10F4002F74D1206802F0B2FA33
:102B600010F4802F40F0C080206802F0ABFA0028FB
:102B7000C0F22E81206802F0A5FA10F4006F0AD08E
:102B8000D5F8083813F0010F40F03C8122685369F2
:102B900003F400635361206802F094FA10F4805F3C
:102BA00040F03481206802F08DFA10F4005F40F0AC
:102BB0007D81206802F086FA10F0100F14D0226890
:102BC000936923F0100393612E6A06F00F07C6F392
:102BD0004343022B00F08281062B00F09E81226885
:102BE000936943F010039361206802F06BFA10F0D0
:102BF000080F40F0A481206802F064FA10F4801FEE
:102C000040F0A681206802F05DFA10F4001F40F049
:102C1000A981206802F056FA10F0804F40F0AC8194
:102C2000206802F04FFA10F0040F3FF47DAF2368E4
:102C30005D6815F0040F40F0A881226853682B43AB
:102C4000536071E7206802F041FA0746B04624E07D
:102C500005EB48130122C3F8082B41462046FFF735
:102C6000ABFE29E041462046FFF720FF05EB481365
:102C70000822C3F8082B22E005EB48132022C3F8F2
:102C8000082B19F4005F05D005EB48134FF40052F0
:102C9000C3F8082B08F101087F08002F3FF45DAF4F
:102CA00017F0010FF6D05FFA88F1206802F01EFAE3
:102CB000814610F0010FCBD119F0080FD2D119F0D5
:102CC000100F04D005EB48131022C3F8082B19F09D
:102CD000200FD6D02369012BCED104F571720121CA
:102CE000206802F041FAC7E7206802F0F7F90746CA
:102CF000B0462EE0C8EBC80304EB8303596C9A6C12
:102D00000A449A6447E019F0080F04D005EB481311
:102D10000822C3F8082919F0100F04D005EB481356
:102D20001022C3F8082919F0400F04D005EB48130E
:102D30004022C3F8082919F0020F04D005EB48130C
:102D40000222C3F8082919F0800F3CD108F10108CC
:102D50007F08002F3FF408AF17F0010FF6D05FFA9D
:102D600088FA5146206802F0CAF9814610F0010F36
:102D7000C9D008F00F03012101FA03F2D5F8343865
:102D800023EA0203C5F8343805EB4813C3F80819E1
:102D900023698B42AED05146204604F08DFF236953
:102DA000012BB0D1B8F1000FADD1C8EBC80304EBD3
:102DB00083031B6D002BA6D104F5717201212068DD
:102DC00002F0D2F99FE741462046FFF7D5FCBDE768
:102DD000D5F8043823F00103C5F8043894F8F43327
:102DE000012B08D0204604F0A7FF2268536903F0A6
:102DF00000435361BEE6002184F8F413204600F03E
:102E00006AFAF2E7204604F07FFFBFE605F50067A7
:102E10007B6823F001037B601021206801F056FDE0
:102E200014E005EB46134FF67F31C3F80819D3F8C9
:102E3000002922F40012C3F80029C3F8081BD3F8B4
:102E4000002B22F40012C3F8002B01366368B34252
:102E5000E7D8FB6943F00113FB61236BDBB1D7F8C3
:102E6000843043F00B03C7F884307B6C43F00B03D2
:102E70007B64D5F8003823F4FE63C5F8003804F508
:102E80007172217C206802F06FF92268536903F4A3
:102E90008053536186E67B6943F4005343F02B0370
:102EA0007B613B6943F00B033B61E2E7206802F082
:102EB0003EF9206801F006FEE060266800F0D8FCCC
:102EC0000146227B304601F06BFC204604F005FFF2
:102ED0002268536903F4005353616AE647F6F073BE
:102EE0001E423FF47CAE4FEA161AC7EBC70804EB4C
:102EF0008808C6F30A12D8F80812284602F050F8DB
:102F0000CAF30A02D8F808321344C8F80832D8F8CD
:102F100014321A44C8F8142261E6082204F57171CB
:102F2000284602F03DF8C6F30A16C7EBC70204EBC9
:102F30008202D2F814321E44C2F814624FE62046D0
:102F400004F0C5FE2268536903F00803536152E69A
:102F50000021204604F0FCFE2268536903F480132C
:102F600053614FE60021204604F0ECFE22685369CD
:102F700003F4001353614CE6204604F0EFFE226890
:102F8000536903F0804353614AE6204604F0ECFEA7
:102F900053E690F8BC33012B0DD010B50446012345
:102FA00080F8BC3380F83810006802F063F8002025
:102FB00084F8BC0310BD0220704738B505468C4626
:102FC00011F0800F29D101F00F0ECEEBCE04A4003A
:102FD00004F5FC740444211DCEEBCE0E00EB8E0EE6
:102FE00000208EF8FD010CF00F0C81F800C08A6003
:102FF000CB704A780AB1A1F806C0022B1DD095F813
:10300000BC33012B1CD0012385F8BC33286801F0A8
:103010006AFD002085F8BC0338BD01F00F00C0EB4D
:10302000C0018900383129440431C0EBC00005EBF0
:103030008000012480F83D40D5E700230B71DEE7D6
:103040000220E9E710B504460A4611F0800F20D1AE
:1030500001F00F00C0EBC0039B0003F5FC73234499
:10306000191DC0EBC00004EB8000002380F8FD3187
:1030700002F00F020A7094F8BC33012B19D001231F
:1030800084F8BC33206801F07DFD002084F8BC0387
:1030900010BD01F00F00C0EBC0039B003833234488
:1030A000191DC0EBC00004EB8000012380F83D3007
:1030B000DEE70220ECE710B501F00F04C4EBC40119
:1030C000890001F5FC7101440431C4EBC40C00EB30
:1030D0008C0CCCF80822CCF810320023CCF8143237
:1030E0008CF8FD318CF8FC410369012B06D064B9E2
:1030F000DAB2006801F090FD002010BDC4EBC40CF2
:1031000000EB8C0CCCF80C22F1E7DAB2006801F08D
:103110002BFEF1E701F00F01C1EBC10100EB8101D2
:10312000D1F81402704710B501F00F04C4EBC401CC
:103130008900383101440431C4EBC40C00EB8C0C21
:10314000CCF84820CCF850300023CCF85430012380
:103150008CF83D308CF83C400369012B06D064B9F3
:10316000DAB2006801F058FD002010BDC4EBC40CB9
:1031700000EB8C0CCCF84C20F1E7DAB2006801F0DF
:10318000F3FDF1E738B501F00F054268954239D8F3
:1031900004460B4611F0800F1FD1C1EBC10189001D
:1031A00001F5FC7101440431C3EBC30300EB83035D
:1031B000002283F8FD2101238B700D7094F8BC333D
:1031C000012B21D0012384F8BC33206801F0F7FEE5
:1031D0008DB1002084F8BC0338BDC5EBC501890062
:1031E000383101440431C5EBC50300EB83030122F0
:1031F00083F83D20DFE704F57172217C206801F03F
:10320000B3FFE6E70120E7E70220E5E701F00F035F
:103210004268934231D810B5044611F0800F1ED198
:10322000C3EBC301890001F5FC7101440431C3EB18
:10323000C30200EB8202002082F8FD0100228A70A6
:103240000B7094F8BC33012B19D0012384F8BC33E4
:10325000206801F0E1FE002084F8BC0310BDC3EB40
:10326000C3018900383101440431C3EBC30200EBD0
:103270008202012082F83D00E0E701207047022031
:10328000ECE710B40468606A31B940EA0240A06219
:1032900000205DF8044B70478C46A36A00EB134096
:1032A000002308E003F1400104EB8101496800EBD1
:1032B00011400133DBB20CF1FF318B42F2D340EA13
:1032C00002400CF13F0104EB81014860E0E7036834
:1032D0005962002070477047002800F0BA8170B52D
:1032E00082B00446036813F0010F3BD09F4B9B68EC
:1032F00003F00C03042B2CD09C4B9B6803F00C03B5
:10330000082B21D06368B3F5803F4FD0B3F5A02FD1
:1033100052D0964B1A6822F480321A601A6822F44E
:1033200080221A606368002B50D0FEF7BBFB054675
:103330008E4B1B6813F4003F14D1FEF7B3FB401B08
:103340006428F5D903208BE1884B5B6813F4800F68
:10335000D8D0864B1B6813F4003F03D06368002B62
:1033600000F07981236813F0020F54D07F4B9B68E3
:1033700013F00C0F3ED07D4B9B6803F00C03082B21
:1033800033D0E368002B68D0794B01221A60FEF736
:1033900089FB0546754B1B6813F0020F54D1FEF7ED
:1033A00081FB401B0228F5D9032059E16F4A1368BD
:1033B00043F480331360B5E76C4B1A6842F4802203
:1033C0001A601A6842F480321A60ABE7FEF76AFBB3
:1033D0000546664B1B6813F4003FC3D0FEF762FB43
:1033E000401B6428F5D903203AE1604B5B6813F475
:1033F000800FC6D15D4B1B6813F0020F03D0E3684A
:10340000012B40F02A81594A136823F0F8032169FF
:1034100043EAC1031360236813F0080F42D06369C5
:103420006BB3534B0122C3F8802EFEF73BFB0546DE
:103430004E4B5B6F13F0020F34D1FEF733FB401B92
:103440000228F5D903200BE1484A136823F0F8035A
:10345000216943EAC1031360DDE7454B00221A608E
:10346000FEF720FB0546414B1B6813F0020FD2D03C
:10347000FEF718FB401B0228F5D90320F0E03C4B77
:103480000022C3F8802EFEF70DFB0546374B5B6F1D
:1034900013F0020F06D0FEF705FB401B0228F5D9FA
:1034A0000320DDE0236813F0040F77D02F4B1B6C53
:1034B00013F0805F33D1002301932C4B1A6C42F040
:1034C00080521A641B6C03F080530193019B012509
:1034D000284B1B6813F4807F23D0A368012B34D0C2
:1034E000052B38D0214B1A6F22F001021A671A6F90
:1034F00022F004021A67A368002B3DD0FEF7D2FA2F
:1035000006461A4B1B6F13F0020F46D1FEF7CAFA9C
:10351000801B41F288339842F3D90320A0E00025B4
:10352000D6E7144A136843F480731360FEF7BAFABF
:103530000646104B1B6813F4807FCED1FEF7B2FA1B
:10354000801B0228F5D903208AE0084A136F43F054
:1035500001031367CFE7054B1A6F42F004021A67A5
:103560001A6F42F001021A67C5E700BF0038024037
:103570000000474200700040FEF794FA06463A4BBE
:103580001B6F13F0020F08D0FEF78CFA801B41F27C
:1035900088339842F3D9032062E0E5B9A369002B90
:1035A0005DD0314A926802F00C02082A5AD0022BF0
:1035B00017D02E4B00221A66FEF774FA04462A4BE7
:1035C0001B6813F0007F42D0FEF76CFA001B022844
:1035D000F5D9032044E0244A136C23F0805313648C
:1035E000DCE7224B00221A66FEF75CFA05461E4B0A
:1035F0001B6813F0007F06D0FEF754FA401B022828
:10360000F5D903202CE0E369226A1343626A43EA96
:103610008213A26A5208013A43EA0243E26A43EA89
:103620000263114A5360114B01221A66FEF73AFAFF
:1036300004460D4B1B6813F0007F06D1FEF732FAEB
:10364000001B0228F5D903200AE0002008E0002032
:1036500006E001207047012002E0012000E0002088
:1036600002B070BD0120FBE7003802400000474275
:1036700008B5254B9B6803F00C03042B3FD0082BA7
:103680003FD1214B5A6802F03F025B6813F4800F70
:1036900012D01D4B5968C1F388111C480023A1FBAF
:1036A0000001FCF795FD184B5B68C3F30143013340
:1036B0005B00B0FBF3F025E0134B5968C1F3881CA5
:1036C0004FEA4C11B1EB0C006EEB0E0E4FEA8E136D
:1036D00043EA90638101091A63EB0E03DB0043EABE
:1036E0005173C90011EB0C0C43F100039902002344
:1036F0004FEA8C2041EA9C51FCF76AFDD3E703486E
:1037000000E0034808BD00BF00380240001BB700BE
:103710000024F400002800F09A8070B50D4604469D
:103720004F4B1B6803F00F038B4208D2CBB24C4ABD
:103730001370136803F00F038B4240F08A802368F4
:1037400013F0020F17D013F0040F04D0454A93680A
:1037500043F4E0539360236813F0080F04D0414A08
:10376000936843F4604393603E4A936823F0F00308
:10377000A1680B439360236813F0010F32D0636894
:10378000012B21D09A1E012A25D9364A126812F03F
:10379000020F60D033498A6822F0030213438B6022
:1037A000FEF780F906462F4B9B6803F00C03626816
:1037B000B3EB820F16D0FEF775F9801B41F2883308
:1037C0009842F0D9032041E0264A126812F4003FE3
:1037D000E0D101203AE0234A126812F0007FD9D1EB
:1037E000012033E01E4B1B6803F00F03AB4207D9E7
:1037F000EAB21B4B1A701B6803F00F03AB422CD1CB
:10380000236813F0040F06D0164A936823F4E0539C
:10381000E1680B439360236813F0080F07D0114A47
:10382000936823F46043216943EAC1039360FFF77F
:103830001FFF0C4B9B68C3F303130B4AD35CD840A8
:103840000A4B18600020FDF721FC002070BD01200C
:1038500070470120FAE70120F8E70120F6E700BFF2
:10386000003C024000380240888900080000002027
:10387000014B1868704700BF0000002008B5FFF733
:10388000F7FF044B9B68C3F38223034AD35CD84001
:1038900008BD00BF003802409889000808B5FFF74E
:1038A000E7FF044B9B68C3F34233034AD35CD84021
:1038B00008BD00BF00380240988900080F2303604C
:1038C0000B4B9A6802F0030242609A6802F0F00221
:1038D00082609A6802F4E052C2609B68DB0803F4DD
:1038E000E0530361034B1B6803F00F030B60704749
:1038F00000380240003C024098B110B504464379BC
:103900005BB1022363712268136843F00403136000
:10391000012363710020A06010BD0371FDF7CCFA94
:10392000EFE70120704700283BD010B50446002384
:10393000836290F85130002B2ED0022384F851304E
:103940002268136823F0400313606368A26813437E
:10395000E26813432269134362691343A26902F4C4
:1039600000721343E2691343226A1343A16A226877
:103970000B431360638B03F00403616A22680B43FB
:1039800053602268D36923F40063D361002060652B
:10399000012384F8513010BD80F85030FDF7C6FA8D
:1039A000CBE701207047000030B4036A23F0010325
:1039B0000362036A4268846924F073040D682C432F
:1039C00023F0020C8B6843EA0C03104DA84203D08D
:1039D00005F58065A84205D123F00803CD682B4387
:1039E00023F00403094DA84203D005F58065A842E1
:1039F00005D122F440724D692A438D692A43426001
:103A000084614A684263036230BC70470000014031
:103A100030B4036A23F480730362036A4268C469A2
:103A200024F0730C0C6844EA0C0523F400738C68D2
:103A300043EA0423114CA04203D004F58064A04261
:103A400006D123F40063CC6843EA042323F48063A3
:103A50000A4CA04203D004F58064A04207D122F4AE
:103A600040524C6942EA04128C6942EA04124260F4
:103A7000C5614A68C263036230BC70470000014000
:103A800030B4036A23F480530362036A4468C26952
:103A900022F4E6420D6842EA052223F400538D68C1
:103AA00043EA0533094DA84203D005F58065A842D5
:103AB00004D124F480444D6944EA85144460C26111
:103AC0004A680264036230BC704700BF00000140D6
:103AD00010B4036A046A24F001040462846924F0C7
:103AE000F00C4CEA021223F00A030B4382610362DA
:103AF0005DF8044B704710B4046A24F010040462AB
:103B00008469036A24F4704C4CEA023223F0A00367
:103B100043EA0113826103625DF8044B70478368D6
:103B200023F070030B4343F0070383607047026880
:103B3000D36843F00103D3600268936803F007037E
:103B4000062B03D0136843F0010313600020704775
:103B5000704770477047704710B5044603681A698C
:103B600012F0020F11D0DA6812F0020F0DD06FF0D0
:103B700002021A610123037703689B6913F0030FA4
:103B800070D0FFF7E6FF0023237723681A6912F04D
:103B9000040F12D0DA6812F0040F0ED06FF0040296
:103BA0001A610223237723689B6913F4407F5FD057
:103BB0002046FFF7CEFF0023237723681A6912F00F
:103BC000080F12D0DA6812F0080F0ED06FF008025A
:103BD0001A61042323772368DB6913F0030F4ED0A7
:103BE0002046FFF7B6FF0023237723681A6912F0F7
:103BF000100F12D0DA6812F0100F0ED06FF0100212
:103C00001A61082323772368DB6913F4407F3DD0D2
:103C10002046FFF79EFF0023237723681A6912F0DE
:103C2000010F03D0DA6812F0010F36D123681A6948
:103C300012F0800F03D0DA6812F0800F34D12368BD
:103C40001A6912F0400F03D0DA6812F0400F32D137
:103C500023681A6912F0200F03D0DA6812F0200FDF
:103C600030D110BDFFF774FF2046FFF773FF8AE7DE
:103C70002046FFF76DFF2046FFF76CFF9BE72046CD
:103C8000FFF766FF2046FFF765FFACE72046FFF72A
:103C90005FFF2046FFF75EFFBDE76FF001021A618C
:103CA0002046FDF7EBF8C1E76FF080021A6120466D
:103CB00000F016FAC3E76FF040021A612046FFF7E2
:103CC0004AFFC5E76FF020021A61204600F007FAAC
:103CD000C7E700000368304A904212D0B0F1804F2D
:103CE0000FD0A2F57C4290420BD002F58062904248
:103CF00007D002F58062904203D002F578429042EC
:103D000003D123F070034A681343234A90422AD018
:103D1000B0F1804F27D0A2F57C42904223D002F52B
:103D2000806290421FD002F5806290421BD002F563
:103D30007842904217D002F57052904213D002F5AB
:103D4000806290420FD002F5806290420BD0A2F5C3
:103D50009832904207D002F58062904203D002F57B
:103D60008062904203D123F44073CA68134323F066
:103D700080034A69134303608B68C3620B688362E4
:103D8000054B984203D003F58063984201D10B693B
:103D9000036301234361704700000140B0B110B5D7
:103DA000044690F83D3063B1022384F83D3021464B
:103DB00051F8040BFFF78EFF012384F83D300020FB
:103DC00010BD80F83C30FDF7A1FAEDE70120704707
:103DD000B0B110B5044690F83D3063B1022384F8C9
:103DE0003D30214651F8040BFFF774FF012384F89E
:103DF0003D30002010BD80F83C30FDF75DFAEDE766
:103E00000120704730B4036A23F010030362036A91
:103E10004468826922F4E6420D6842EA052223F0F2
:103E200020038D6843EA0513114DA84203D005F520
:103E30008065A84206D123F08003CD6843EA0513CC
:103E400023F040030A4DA84203D005F58065A8423F
:103E500007D124F440644D6944EA85048D6944EA3D
:103E60008504446082614A688263036230BC7047A3
:103E70000000014038B590F83C30012B66D0044674
:103E80000D46012380F83C30022380F83D300C2A97
:103E90001AD8DFE802F0071919192019191934196D
:103EA000191947000068FFF77FFD2268936943F006
:103EB000080393612268936923F0040393612268E5
:103EC000936929690B439361012384F83D300020F5
:103ED00084F83C0038BD0068FFF794FF22689369BE
:103EE00043F4006393612268936923F480639361D0
:103EF00022689369296943EA01239361E4E7006832
:103F0000FFF786FD2268D36943F00803D361226876
:103F1000D36923F00403D3612268D36929690B4371
:103F2000D361D1E70068FFF7ABFD2268D36943F4A2
:103F30000063D3612268D36923F48063D36122686C
:103F4000D369296943EA0123D361BDE70220C1E7B0
:103F500010B4846824F47F4C42EA03220A4342EA04
:103F60000C0282605DF8044B704790F83C30012BE6
:103F700066D010B50446012380F83C30022380F857
:103F80003D300268936823F47F4323F07703936006
:103F90000B68602B40D022D8402B47D00BD9502B38
:103FA0000ED1CA6849680068FFF792FD5021206869
:103FB000FFF7B5FD04E0202B0CD008D9302B09D039
:103FC000012384F83D30002084F83C0010BD0BB183
:103FD000102BF5D119462068FFF7A1FDF0E7702BF3
:103FE0000ED0B3F5005FEBD1CB684A6889680068F2
:103FF000FFF7AEFF2268936843F480439360DFE7E6
:10400000CB684A6889680068FFF7A2FF2268936856
:1040100043F077039360D3E7CA6849680068FFF705
:104020006AFD60212068FFF77AFDC9E7CA68496820
:104030000068FFF74DFD40212068FFF770FDBFE7E6
:104040000220704790F83C30012B1DD030B54FF066
:10405000010E80F83CE0022380F83D30026854688D
:10406000936824F070040D682C4323F0800C4B6897
:1040700043EA0C0354600268936080F83DE000233B
:1040800080F83C30184630BD0220704790F83C3034
:10409000012B22D0012380F83C30CB6823F44073FD
:1040A0008A68134323F480634A68134323F400634C
:1040B0000A68134323F480530A69134323F400531B
:1040C0004A69134323F48043CA6913430268536463
:1040D000002380F83C301846704702207047704734
:1040E00070470268D36823F49073D3600268536901
:1040F00023F001035361202380F83A30704790F891
:104100003930DBB2212B01D0022070478368B3F530
:10411000805F17D0036A5A1C02621A7803685A60DB
:10412000C38C9BB2013B9BB2C3844BB90268D3687A
:1041300023F08003D3600268D36843F04003D36068
:1041400000207047036A1B880268C3F308035360AA
:1041500003691BB9036A02330362E1E7036A0133AF
:104160000362DDE72DE9F84304460268136923F48E
:104170004053C1680B43136183680269134342696A
:104180001343C2691A430168CB6823F4164323F032
:104190000C031343CB600268536923F440738169B5
:1041A0000B435361C369B3F5004F5ED00368B54A52
:1041B000934200F0108102F58062934200F00B817F
:1041C000FFF75CFB00EB800000EB80006568AD0052
:1041D000B0FBF5F5AC4FA7FB05356D092E01FFF7D8
:1041E0004DFB00EB800000EB80006568AD00B0FB8C
:1041F000F5F5FFF743FB00EB800000EB8000636800
:104200009B00B0FBF3F3A7FB03235B094FF06408AB
:1042100008FB13531B013233A7FB03235B0903F095
:10422000F003F518FFF72AFB00EB800000EB80009D
:104230006668B600B0FBF6F6FFF720FB00EB8000E7
:1042400000EB800063689B00B0FBF3F0A7FB00303D
:10425000400908FB106000013230A7FB0037C7F3AC
:10426000431723682F449F6009E10368854A9342FE
:104270005AD002F58062934256D0FFF7FFFA00EB66
:10428000800000EB800065686D00B0FBF5F57E4FA7
:10429000A7FB05356D094FEA0519FFF7EFFA00EBAB
:1042A000800000EB800066687600B0FBF6F6FFF752
:1042B000E5FA00EB800000EB800065686D00B0FB64
:1042C000F5F5A7FB05356D094FF0640808FB15658A
:1042D000ED003235A7FB05356D096D0005F4F87565
:1042E0004D44FFF7CBFA00EB800000EB80006668DE
:1042F0007600B0FBF6F6FFF7C1FA00EB800000EBAA
:10430000800063685B00B0FBF3F3A7FB03235B094A
:1043100008FB1363DB003233A7FB0337C7F34217F5
:1043200023682F449F60AAE0FFF7B8FA00EB8000F3
:1043300000EB800065686D00B0FBF5F5524FA7FB00
:1043400005356D094FEA0519FFF7A8FA00EB800063
:1043500000EB800066687600B0FBF6F6FFF79EFA89
:1043600000EB800000EB800065686D00B0FBF5F5A8
:10437000A7FB05356D094FF0640808FB1565ED00D6
:104380003235A7FB05356D096D0005F4F8754D4410
:10439000FFF784FA00EB800000EB8000666876008F
:1043A000B0FBF6F6FFF77AFA00EB800000EB800036
:1043B00063685B00B0FBF3F3A7FB03235B0908FB17
:1043C0001363DB003233A7FB0337C7F342172368BD
:1043D0002F449F6053E0FFF761FA00EB800000EB91
:1043E00080006568AD00B0FBF5F5274FA7FB0535EC
:1043F0006D092E01FFF752FA00EB800000EB800000
:104400006568AD00B0FBF5F5FFF748FA00EB8000FA
:1044100000EB800063689B00B0FBF3F3A7FB032372
:104420005B094FF0640808FB13531B013233A7FBF1
:1044300003235B0903F0F003F518FFF72FFA00EBF5
:10444000800000EB80006668B600B0FBF6F6FFF770
:1044500025FA00EB800000EB800063689B00B0FB56
:10446000F3F0A7FB0030400908FB10600001323078
:10447000A7FB0037C7F3431723682F449F60BDE8AD
:10448000F88300BF001001401F85EB5158B310B5F1
:10449000044690F839300BB3242384F8393022686D
:1044A000D36823F40053D3602046FFF75BFE2268F5
:1044B000136923F4904313612268536923F02A039C
:1044C00053612268D36843F40053D3600020E06353
:1044D000202384F8393084F83A3010BD80F8383021
:1044E000FDF752F9D8E701207047704708B5016819
:1044F000CA6822F04002CA60202280F83920FFF703
:10450000F4FF002008BD08B590F83A30DBB2222B4A
:1045100046D18368B3F5805F0FD003690BBB036896
:104520005A68836A591C81621A70C38D9BB2013B21
:104530009BB2C385F3B1002008BD826A036943B909
:1045400003685B68C3F308031380836A02338362E2
:10455000EBE703685B68DBB21380836A0133836235
:10456000E3E703685B68826A511C816203F07F03A2
:104570001370DAE70268D36823F02003D36002687F
:10458000D36823F48073D3600268536923F0010376
:104590005361202380F83A30FCF722F90020CBE762
:1045A0000220C9E77047000010B50446026813688E
:1045B000D168526913F00F0005D113F0200F02D01B
:1045C00011F0200F13D128B112F0010213D111F410
:1045D000907F10D113F0800F02D011F0800F69D1BD
:1045E00013F0400F02D011F0400F67D110BD2046EC
:1045F000FFF789FFFAE713F0010F06D011F4807F6F
:1046000003D0E06B40F00100E06313F0040F04D02E
:104610001AB1E06B40F00200E06313F0020F04D027
:104620001AB1E06B40F00400E06313F0080F04D00F
:104630001AB1E26B42F00802E263E26B002AD5D0C5
:1046400013F0200F02D011F0200F21D123685B69F5
:1046500003F04003E26B12F0080F00D123B32046B1
:10466000FFF73FFD23685A6912F0400F18D05A69CE
:1046700022F040025A61636B73B1124A1A65606B93
:10468000FDF7A8FD0028B1D0606B036D9847ADE73A
:104690002046FFF738FFD9E72046FFF783FFA5E75D
:1046A0002046FFF77FFFA1E72046FFF77BFF0023AF
:1046B000E3639BE72046FFF722FD97E72046FFF7DD
:1046C00015FF93E7C946000808B5806B0023C38532
:1046D000C384FFF767FF08BD002301330C4A9342F0
:1046E00011D80269002AF8DA036943F00103036173
:1046F00000230133064A934207D8026912F0010FE2
:10470000F7D100207047032070470320704700BF97
:10471000400D030084B010B5044603A880E80E00E5
:10472000089B012B1FD1A36B23F48033A363E368A1
:1047300023F4840323F04003E360E36823F440138D
:10474000E3600F9B012B09D02046FFF7C5FF069BB6
:10475000012B1BD0BDE8104004B07047E36843F460
:104760008013E360F0E7E36843F04003E360204632
:10477000FFF7B2FF0C9B23B9A36B43F48033A36311
:10478000E5E7A36B23F48033A363E0E7A36843F07A
:104790000603A360A36843F02003A360DAE70000E8
:1047A000022A0AD00921C26822F47052C260C3688A
:1047B00043EA8123C36000207047234B0B44234A04
:1047C00093422FD9224B0B44224A93422CD9A1F574
:1047D0007403A3F51053204A934227D9A1F18373A0
:1047E000A3F5E7431D4A934222D31D4B0B441D4AB8
:1047F00093421FD91C4B0B441C4A93421CD31C4BA5
:104800000B441C4A934219D3A1F1B773A3F5585333
:10481000194A934214D3194B0B44194A934211D2AB
:104820000721C0E70F21BEE70E21BCE70D21BAE743
:104830000C21B8E70B21B6E70A21B4E70921B2E75A
:104840000821B0E70621AEE7405327FFFF340C00F4
:10485000401E1BFF3F420F007F4F120020D6130067
:1048600060B6E5FE5FE3160000D3CEFE40771B0086
:10487000C05BB3FEC091210020753800E05459FEA2
:10488000E09C4100836843F001038360002070478F
:10489000836823F0010383600020704708B5C36874
:1048A00023F0C043C360012909D069B9C36843F04C
:1048B0008043C3603220FDF7FBF8002008BDC368C9
:1048C00043F00053C360F5E70120F7E7890141F0A9
:1048D0002001016100230133054A934205D8026992
:1048E00012F0200FF7D1002070470320704700BF5F
:1048F000400D03001023036100230133054A934256
:1049000005D8026912F0100FF7D10020704703207C
:10491000704700BF400D0300D0F800381943C0F8BD
:10492000001800207047000084B02DE9F0410446D3
:1049300007A880E80E00002306E003F1400204EB24
:1049400082020021516001330E2BF6D9119FF7B975
:10495000A36B43F40013A363A36B23F40023A363AB
:10496000A36B23F48023A3630023C4F8003E04F563
:104970000065D4F80038C4F800380C9B012B14D122
:10498000099B6BB900212046FFF7C6FF11E02368A1
:1049900023F400132360A36B43F40023A363E3E732
:1049A00001212046FFF7B8FF03E003212046FFF76F
:1049B000B3FF10212046FFF789FF804608B14FF072
:1049C00001082046FFF796FF08B14FF001080023C9
:1049D0002B616B61EB610AE0C3B94FF00060C2F874
:1049E000000900220A614FF67F328A60013307997D
:1049F000994210D904EB431202F51061D2F8000974
:104A00000028E9DB0020C2F80009EAE74FF09040F7
:104A1000C2F80009E5E700230AE0C3B14FF0904C6B
:104A2000C2F800CB002202614FF67F328260013370
:104A3000994211D904EB431202F53060D2F8006BB1
:104A4000002EEADB4FF0000CC2F800CBEAE74FF093
:104A5000006CC2F800CBE5E72B6923F480732B616F
:104A60000A9B012B1AD00022A2616FF08042626182
:104A70001BB9A36943F01003A361A2690F4B134351
:104A8000A3610D9B1BB1A36943F00803A361012F30
:104A90000DD04046BDE8F04104B07047084A2A6393
:104AA0002A6B42F4803242F003022A63DBE7A369F7
:104AB00043F0804343F00403A361EAE700383C80FD
:104AC00000018000D0F8083813F0060307D0022B4D
:104AD00007D0062B01D00F2070470220704700201E
:104AE00070470220704710B591F800C04B78012B39
:104AF00023D000F5006ED0F81C380CF00F04012212
:104B0000A24043EA0243C0F81C3800EB4C10D0F836
:104B1000003B13F4004F0ED1D0F8003B8A68C2F37B
:104B20000A02C97842EA8142134343F0805343F4B6
:104B30000043C0F8003B002010BDD0F81C280CF04A
:104B40000F0E03FA0EF39BB21343C0F81C3800EBB0
:104B50004C10D0F8003913F4004FECD1D0F80039E4
:104B60008A68C2F30A02C97842EA814242EA8C5C4E
:104B700043EA0C0343F0805343F40043C0F8003988
:104B8000D9E7000030B50B784A78012A20D0D0F858
:104B90003C4803F00F0E4FF0010C0CFA0EFE24EA15
:104BA0000E44C0F83C48D0F81C48097801F00F01C9
:104BB0000CFA01FC24EA0C44C0F81C4800EB43103A
:104BC000D0F8002B124B1340C0F8003B002030BD42
:104BD000D0F83C5803F00F0402FA04F4A4B225EA1A
:104BE0000404C0F83C48D0F81C48097801F00F01D3
:104BF0008A4092B224EA0202C0F81C2800EB43105B
:104C0000D0F80039034A1A40C0F80029DEE700BF97
:104C10000078F3EF007833EC70B40B784C78012C0B
:104C200027D000EB431000F530631C69E40CE4046A
:104C30001C611C6924F0FF5424F4C0141C614C69ED
:104C40000CB18C684C611C6944F400241C611C6923
:104C50008D68C5F3120C44EA0C041C61012A66D06D
:104C6000D0F8003B43F00443C0F8003B002070BC88
:104C700070474C696CBB00EB4314D4F8105925F015
:104C8000FF5525F4C015C4F81059D4F8105945F44F
:104C90000025C4F81059D4F81059ED0CED04C4F8EF
:104CA0001059012A34D000EB4313D3F8002942F005
:104CB0000442C3F800294B69002BD7D0D0F8343810
:104CC0000A7802F00F0101228A401343C0F83438F9
:104CD000CCE700EB431404F510642569ED0CED04FA
:104CE0002561256925F0FF5525F4C01525618D68DE
:104CF0004E69AE4200D94D61256945F40025256114
:104D000025694E69C6F3120C45EA0C052561C8E712
:104D10000A691AB100EB4311C1F8142900EB4310E2
:104D2000D0F8002942F00442C0F800299EE7CA6882
:104D3000002A95D05A6193E710B59DF8084084B9D0
:104D400003334FEA930E4FF0000C08E000EB023300
:104D500003F5805351F8044B1C600CF1010CF44531
:104D6000F4D3002010BD0000F0B583B00B784C7870
:104D7000012C33D000EB431303F5306CDCF810400A
:104D8000E40CE404CCF81040DCF8104024F0FF54AC
:104D900024F4C014CCF810404C69002C40F0CA80B8
:104DA000DCF810408D68C5F312052C43CCF8104098
:104DB000DCF8104044F40024CCF81040012A00F044
:104DC000D380CA78012A00F0D680D3F8002B42F0B5
:104DD0000442C3F8002B002003B0F0BD4C6984BB33
:104DE00000EB4314D4F8105925F0FF5525F4C015F5
:104DF000C4F81059D4F8105945F40025C4F81059D6
:104E0000D4F81059ED0CED04C4F81059012A4FD014
:104E100000EB4313D3F8004944F00444C3F80049BD
:104E2000CC78012C6DD04B69002BD4D0D0F834381D
:104E30000A7802F00F0101228A401343C0F8343887
:104E4000C9E700EB4314D4F81059ED0CED04C4F895
:104E50001059D4F8105925F0FF5525F4C015C4F8A1
:104E60001059D4F810598E684F6907EB060C0CF1F5
:104E7000FF3CBCFBF6FC494E06EACC4C45EA0C056F
:104E8000C4F81059D4F810594E69C6F312063543C8
:104E9000C4F8105904F51064CD78012DB6D12569F8
:104EA00025F0C0452561256945F000552561ADE730
:104EB0000A691AB100EB4314C4F81429CA78012A0C
:104EC00008D000EB4313D3F8002942F00442C3F8A2
:104ED000002980E7D0F8082812F4807F08D100EB81
:104EE0004311D1F8002942F00052C1F80029E8E747
:104EF00000EB4311D1F8002942F08052C1F800299B
:104F0000DFE7D0F8084814F4807F0CD1D3F80049CB
:104F100044F00054C3F8004900928B8A0A78C968AB
:104F2000FFF70AFF57E7D3F8004944F08054C3F86D
:104F30000049F1E78D682C44013CB4FBF5F4DCF842
:104F400010501FFA84FE154E06EAC4442543CCF8DF
:104F50001050DCF810508C680EFB04F4C4F31204FB
:104F60002C43CCF8104029E7CA68002A3FF429AF47
:104F7000CCF8142025E7D0F8082812F4807F06D159
:104F8000D3F8002B42F00052C3F8002B1DE7D3F8F2
:104F9000002B42F08052C3F8002B16E70000F81FE8
:104FA00084460846D11C8908002305E00CF5805290
:104FB000126840F8042B01338B42F7D370470B780B
:104FC0004A78012A14D000EB4310D0F8002B002AB5
:104FD00006DB2BB1D0F8003B23F08043C0F8003B48
:104FE000D0F8003B43F40013C0F8003B00207047AA
:104FF00000EB4310D0F80029002A06DB2BB1D0F8D3
:10500000003923F08043C0F80039D0F8003943F468
:105010000013C0F80039E9E70B784A78012A0ED06E
:1050200000EB4310D0F8003B23F40013C0F8003B22
:10503000CB78023BDBB2012B15D90020704700EB87
:105040004310D0F8003923F40013C0F80039CB78AE
:10505000023BDBB2012BF0D8D0F8003943F080538B
:10506000C0F80039E9E7D0F8003B43F08053C0F8BE
:10507000003BE2E7D0F8003823F4FE63C0F80038C4
:10508000D0F80038090101F4FE611943C0F8001896
:105090000020704708B5D0F8043823F00203C0F8A8
:1050A00004380320FCF704FD002008BD08B5D0F843
:1050B000043843F00203C0F804380320FCF7F8FC7E
:1050C000002008BD4269806910407047D0F8183848
:1050D00000F50060C0691840000C7047D0F818381F
:1050E00000F50060C069184080B2704700EB4111C4
:1050F000D1F8082B00F5006040691040704710B4EB
:10510000D0F81048D0F8343801F00F02D340DB015A
:10511000DBB2234300EB411000F5106080681840BB
:105120005DF8044B7047406900F001007047D0F80B
:10513000003923F4FF6323F00703C0F8003900F5BA
:1051400000639A6802F00602042A05D05A6842F405
:1051500080725A6000207047D0F8002942F00302A4
:10516000C0F80029F2E7000010B4046C154B9C4213
:1051700003D9D0F8003B002B16DB0024C0F8104BFD
:10518000D0F8104B44F40024C0F8104BD0F8104B6A
:1051900044F01804C0F8104BD0F8104B44F0C04451
:1051A000C0F8104B012903D000205DF8044B704774
:1051B000C0F8142BD0F8003B43F08023C0F8003B2C
:1051C000F2E700BF0A30544F10B5D0F89042D0F843
:1051D00094325BB194F80002FF2807D09B6894F8E2
:1051E000012221469847FF2384F80032002010BD99
:1051F000432303800048704740000020432303807E
:105200000048704784000020432303800048704713
:10521000D40000200A23038000487047C800002003
:1052200038B50446D0F8905202F0EFFDC5F80C02F4
:10523000D4F890324BB1D4F89432DB6805F50371A1
:10524000D5F804029847002038BD0220FCE710B5CD
:10525000D0F89022D0F89842F2B101EB810300EB34
:105260008303DB694BB1C1EBC10C04EB8C04646CB0
:10527000B3FBF4FC04FB1C3323B10023C2F814324B
:10528000002010BD01EB810300EB83030022DA61F3
:10529000134602F0FDFDF3E70220F2E7F0B583B01C
:1052A00006460C46D0F8907200238DF80730ADF812
:1052B00004300B7813F0600527D0202D53D1CA8815
:1052C000DAB113F0800F0CD0D0F894329B683946D5
:1052D00060789847E2883946304600F067FD00253F
:1052E00044E04B7887F800328B7987F80132CA881E
:1052F000394600F070FD002538E0D0F894329B6804
:10530000002248789847002530E04F780A2F14D0C3
:105310000B2F20D01FB100F061FA022526E090F893
:105320007432032B03D000F059FA02251EE002224A
:1053300001A900F03BFD3D4618E090F87432032BC4
:1053400003D000F04BFA022510E001220DF1070115
:1053500000F02CFD0AE090F87432032B06D000F028
:105360003DFA022502E000F039FA0225284603B092
:10537000F0BD38B50446812102F06AFD0025E562E2
:105380000121204602F064FDC4F8585182212046D4
:1053900002F05EFD2564D4F890324BB1D4F894321B
:1053A0005B689847D4F8900202F0DEFDC4F8905292
:1053B000002038BD70B50446037CABBB4FF40073CE
:1053C0000222812102F039FD0125E5624FF40073CC
:1053D00002222946204602F030FDC4F85851082325
:1053E00003228221204602F028FD012323644FF48A
:1053F000077002F0B1FD0546C4F8900268B3D4F816
:1054000094321B6898470023C5F81432C5F8183247
:10541000267CCEB94FF40073D5F804220121204632
:1054200002F03EFD304670BD40230222812102F091
:1054300004FD0125E562402302222946204602F0B0
:10544000FCFCC4F85851CAE74023D5F804220121D6
:10545000204602F025FD0026E4E70126E2E719B127
:10546000C0F894120020704702207047D0F89032A4
:10547000C3F80812C3F8102200207047D0F8903209
:10548000C3F8041200207047D0F8902292B108B5FA
:10549000037C43B94FF40073D2F80422012102F0D7
:1054A000FFFC002008BD4023D2F80422012102F0B5
:1054B000F7FCF6E70220704798B108B50346D0F82C
:1054C0008C0210B10020C3F88C0209B1C3F8881215
:1054D000012183F874121A70184602F04BFC002068
:1054E00008BD0220704719B1C0F88C120020704727
:1054F0000220704708B502F098FC002008BD08B5EE
:10550000D0F88C322BB11B68984700B908BD022037
:10551000FCE70220FAE708B5D0F88C325B689847C0
:10552000002008BD38B5044600F52075284600F077
:1055300041F90123C4F86C32B4F88632C4F87032F1
:1055400094F8801201F01F03012B0ED0022B11D012
:105550002BB101F08001204602F082FC03E02946D5
:10556000204600F0B3FA002038BD2946204600F05E
:10557000E1FAF8E72946204600F00CFBF3E738B5DE
:1055800004460D4691BB1346D0F86C22032A03D083
:10559000052A24D0084633E0D0F84C11D0F8502129
:1055A00091420DD9891AC0F84C118A4206D98AB2A3
:1055B0001946204600F01EFC284621E092B2F7E78B
:1055C000D0F88C321B691BB190F87422032A04D0E6
:1055D000204600F017FC284612E09847F8E7002123
:1055E000C0F86C1202F03CFC284609E0D0F88C327E
:1055F0009B6933B190F87422032A04D198470020A4
:1056000038BD0220FCE70220FAE738B504460D4613
:10561000002953D11346D0F86C22022A0CD0042A58
:1056200000D01AB98021204602F01AFC94F8783292
:10563000012B3ED0284638BD016A426A91421BD8F0
:10564000C169B1FBF2F302FB13132BB98A4203D8F1
:10565000D0F8703299421CD3D4F88C32DB681BB17D
:1056600094F87422032A21D08021204602F0F8FB0E
:10567000204600F0D2FBD9E78A1A026292B219469C
:1056800000F0A1FB00231A461946204602F008FC50
:10569000CCE70022114600F096FB0021C4F87012FE
:1056A0000B460A46204602F0FBFBBFE72046984720
:1056B000DAE7002384F878322846BCE7D0F88C3249
:1056C0005B6933B190F87422032A04D19847002013
:1056D000B1E70220AFE70220ADE770B504464023F2
:1056E0000022114602F0A9FB0125C4F844514026CE
:1056F000C4F85061334600228021204602F09DFB11
:10570000A561666284F874520023C4F86C32636049
:10571000C4F87C32D4F890322BB1D4F88C325B6868
:10572000002120469847002070BD0174002070477A
:1057300090F8743280F87532042380F874320020B7
:10574000704790F8753280F874320020704708B5C1
:1057500090F87432032B01D0002008BDD0F88C32B1
:10576000DB69002BF8D09847F6E70020704700204F
:1057700070470020704708B5012280F87422D0F8E5
:105780008C22526801799047002008BD0346002012
:1057900002E00130C0B201331A78002AF9D1704713
:1057A00008B54B88012B00D008BDC0F87C3200F052
:1057B00029FBF9E70B7803704B7843708B78CA7834
:1057C00003EB022343800B794A7903EB02238380A6
:1057D0008B79CA7903EB0223C380704710B5044666
:1057E000802102F03DFB0021204602F039FB10BD74
:1057F00030B583B005460C464A88130A013B062B98
:1058000000F28480DFE803F004162A8282667300C7
:10581000D0F888321B680DF10601007C9847BDF86E
:10582000062012B1E388002B74D1E388002B7BD0D3
:1058300003B030BD037C43B9D0F88C329B6A0DF1C4
:105840000600984702234370E9E7D0F88C32DB6A00
:105850000DF10600984702234370E0E7D2B2052A13
:1058600034D8DFE802F0030B131B232BD0F8883267
:105870005B680DF10601007C9847D0E7D0F88832CC
:105880009B680DF10601007C9847C8E7D0F8883284
:10589000DB680DF10601007C9847C0E7D0F888323C
:1058A0001B690DF10601007C9847B8E7D0F88832F3
:1058B0005B690DF10601007C9847B0E7D0F88832AB
:1058C0009B690DF10601007C9847A8E72146FFF788
:1058D00085FFADE7037C33B9D0F88C325B6B0DF1FB
:1058E000060098479BE72146FFF778FFA0E7037C77
:1058F00043B9D0F88C321B6B0DF106009847072393
:1059000043708CE72146FFF769FF91E72146FFF7D7
:1059100065FF8DE79A4228BF1A46ADF8062001467A
:10592000284600F043FA80E7284600F06BFA7FE74C
:1059300038B504468B88F3B9CB88E3B94B887F2B05
:1059400019D803F07F0590F87432032B0CD080F83F
:105950007652294602F094FA204600F053FA35B107
:10596000022384F8743209E0FFF738FF06E00123D0
:1059700084F8743202E02046FFF730FF38BD0000A3
:1059800038B504460D468978284B197001290ED880
:1059900090F87432022B0ED0032B21D02946FFF74A
:1059A0001DFF224B19782046FFF7B5FD02E029467E
:1059B000FFF714FF38BD81B14160032380F87432D2
:1059C000FFF79DFD022803D0204600F01BFAF1E707
:1059D00029462046FFF702FFECE700F013FAE9E75B
:1059E00089B1436899421DD0D9B2FFF794FD0F4B9E
:1059F000197861602046FFF782FD02280DD020460D
:105A000000F000FAD6E7022380F874324160FFF715
:105A100082FD204600F0F6F9CCE729462046FFF744
:105A2000DDFEC7E700F0EEF9C4E700BF84160020F2
:105A300008B5CB88012B0AD190F87432022B09D912
:105A4000032B09D10122011D00F0B0F901E0FFF79D
:105A5000C5FE08BD5BB213B9FFF7C0FEF9E701460A
:105A6000002341F8083F012200F0A0F9F1E708B552
:105A700090F87432013B022B12D8CB88022B0CD148
:105A80000123C360D0F87C320BB10323C360022230
:105A900000F10C0100F08AF908BDFFF79FFEFBE75B
:105AA000FFF79CFEF8E708B590F87432013B022B33
:105AB00009D84B88012B00D008BD0023C0F87C32E8
:105AC00000F0A0F9F8E7FFF789FEF5E708B50B78D5
:105AD00003F06003202B05D0402B03D043B1FFF728
