:020000040800F2
:1000000000000220A1EB0008A1C70008A3C7000858
:10001000A5C70008A7C70008A9C70008000000007E
:10002000000000000000000000000000619C0008CB
:10003000ABC7000800000000019D0008ADC7000824
:10004000F1EB0008F1EB0008F1EB0008F1EB000820
:10005000F1EB0008F1EB0008C3C70008F1EB000862
:10006000F1EB0008CDC70008D7C70008F1EB000886
:10007000F1EB0008F1EB0008F1EB0008F1EB0008F0
:10008000F1EB0008F1EB0008F1EB0008F1EB0008E0
:10009000E1C70008F1EB0008F1EB0008F1C7000828
:1000A000F1EB0008F1EB0008F1EB0008F1EB0008C0
:1000B000F1EB0008F1EB0008F1EB0008F1EB0008B0
:1000C000F1EB0008F1EB0008F1EB0008F1EB0008A0
:1000D000F1EB0008F1EB0008F1EB0008095900080A
:1000E000F1EB0008F1EB0008F1EB0008F1EB000880
:1000F000F1EB0008F1EB0008F1EB0008F1EB000870
:10010000F1EB0008F1EB0008F1EB0008F1EB00085F
:10011000F1EB0008F1EB0008F1EB0008F1EB00084F
:10012000F1EB0008FDC700085D240008F1EB0008B2
:10013000F1EB0008F1EB0008F1EB0008F1EB00082F
:100140000DC80008F1EB0008F1EB0008F1EB000826
:10015000F1EB00081DC800082DC80008F1EB0008ED
:10016000F1EB0008F1EB0008F1EB0008F1EB0008FF
:10017000F1EB0008F1EB0008F1EB000800000000D3
:08018000F1EB0008F1EB0008AF
:1001C00010B5054C237833B9044B13B10448AFF391
:1001D00000800123237010BDBC040020000000003B
:1001E0005CF5000808B5034B1BB103490348AFF3A6
:1001F000008008BD00000000C00400205CF500087D
:1002000081F0004102E000BF83F0004330B54FEAC7
:1002100041044FEA430594EA050F08BF90EA020F34
:100220001FBF54EA000C55EA020C7FEA645C7FEAC7
:10023000655C00F0E2804FEA5454D4EB5555B8BFEA
:100240006D420CDD2C4480EA020281EA030382EA5B
:10025000000083EA010180EA020281EA0303362DED
:1002600088BF30BD11F0004F4FEA01314FF4801CC0
:100270004CEA113102D0404261EB410113F0004FD2
:100280004FEA03334CEA133302D0524263EB430389
:1002900094EA050F00F0A780A4F10104D5F1200E27
:1002A0000DDB02FA0EFC22FA05F2801841F1000182
:1002B00003FA0EF2801843FA05F359410EE0A5F156
:1002C00020050EF1200E012A03FA0EFC28BF4CF087
:1002D000020C43FA05F3C01851EBE37101F000453D
:1002E00007D54FF0000EDCF1000C7EEB00006EEB4A
:1002F0000101B1F5801F1BD3B1F5001F0CD34908D4
:100300005FEA30004FEA3C0C04F101044FEA44522A
:1003100012F5800F80F09A80BCF1004F08BF5FEAB1
:10032000500C50F1000041EB045141EA050130BD91
:100330005FEA4C0C404141EB0101013C28BFB1F5A3
:10034000801FE9D291F0000F04BF01460020B1FAEE
:1003500081F308BF2033A3F10B03B3F120020CDAC1
:100360000C3208DD02F1140CC2F10C0201FA0CF09F
:1003700021FA02F10CE002F11402D8BFC2F1200C04
:1003800001FA02F120FA0CFCDCBF41EA0C019040BA
:10039000E41AA2BF01EB0451294330BD6FEA040403
:1003A0001F3C1CDA0C340EDC04F11404C4F12002EE
:1003B00020FA04F001FA02F340EA030021FA04F300
:1003C00045EA030130BDC4F10C04C4F1200220FA57
:1003D00002F001FA04F340EA0300294630BD21FA95
:1003E00004F0294630BD94F0000F83F4801306BF5B
:1003F00081F480110134013D4EE77FEA645C18BF4F
:100400007FEA655C29D094EA050F08BF90EA020FE5
:1004100005D054EA000C04BF1946104630BD91EADD
:10042000030F1EBF0021002030BD5FEA545C05D1E0
:100430004000494128BF41F0004130BD14F580041F
:100440003CBF01F5801130BD01F0004545F0FE4193
:1004500041F470014FF0000030BD7FEA645C1ABFC8
:10046000194610467FEA655C1CBF0B46024650EAFF
:10047000013406BF52EA033591EA030F41F400212B
:1004800030BD00BF90F0000F04BF0021704730B5B1
:100490004FF4806404F132044FF000054FF0000186
:1004A00050E700BF90F0000F04BF0021704730B547
:1004B0004FF4806404F1320410F0004548BF40421C
:1004C0004FF000013EE700BF42004FEAE2014FEA71
:1004D00031014FEA02701FBF12F07F4393F07F4F4C
:1004E00081F06051704732F07F4208BF704793F04F
:1004F0007F4F04BF41F40021704730B54FF4607462
:1005000001F0004521F000411CE700BF50EA010264
:1005100008BF704730B54FF000050AE050EA01020D
:1005200008BF704730B511F0004502D5404261EB7D
:1005300041014FF4806404F132045FEA915C3FF4BE
:10054000D8AE4FF003025FEADC0C18BF03325FEA5B
:10055000DC0C18BF033202EBDC02C2F1200300FA0C
:1005600003FC20FA02F001FA03FE40EA0E0021FA31
:1005700002F11444BDE600BF70B54FF0FF0C4CF41F
:10058000E06C1CEA11541DBF1CEA135594EA0C0FD1
:1005900095EA0C0F00F0DEF82C4481EA030621EA0C
:1005A0004C5123EA4C5350EA013518BF52EA033547
:1005B00041F4801143F4801338D0A0FB02CE4FF0F9
:1005C0000005E1FB02E506F00042E0FB03E54FF029
:1005D0000006E1FB03569CF0000F18BF4EF0010E21
:1005E000A4F1FF04B6F5007F64F5407404D25FEA1D
:1005F0004E0E6D4146EB060642EAC62141EA5551D0
:100600004FEAC52040EA5E504FEACE2EB4F1FD0C11
:1006100088BFBCF5E06F1ED8BEF1004F08BF5FEA8F
:10062000500E50F1000041EB045170BD06F0004641
:1006300046EA010140EA020081EA0301B4EB5C04EE
:10064000C2BFD4EB0C0541EA045170BD41F48011E6
:100650004FF0000E013C00F3AB8014F1360FDEBF0B
:10066000002001F0004170BDC4F10004203C35DAE7
:100670000C341BDC04F11404C4F1200500FA05F36A
:1006800020FA04F001FA05F240EA020001F000420B
:1006900021F0004110EBD37021FA04F642EB060181
:1006A0005EEA430E08BF20EAD37070BDC4F10C04AB
:1006B000C4F1200500FA04F320FA05F001FA04F26F
:1006C00040EA020001F0004110EBD37041F100015B
:1006D0005EEA430E08BF20EAD37070BDC4F1200566
:1006E00000FA05F24EEA020E20FA04F301FA05F2CE
:1006F00043EA020321FA04F001F0004121FA04F276
:1007000020EA020000EBD3705EEA430E08BF20EA45
:10071000D37070BD94F0000F0FD101F0004640007F
:1007200041EB010111F4801F08BF013CF7D041EA01
:10073000060195F0000F18BF704703F00046520005
:1007400043EB030313F4801F08BF013DF7D043EAD6
:100750000603704794EA0C0F0CEA135518BF95EA8C
:100760000C0F0CD050EA410618BF52EA4306D1D113
:1007700081EA030101F000414FF0000070BD50EA32
:10078000410606BF1046194652EA430619D094EABC
:100790000C0F02D150EA013613D195EA0C0F05D1A6
:1007A00052EA03361CBF104619460AD181EA0301FA
:1007B00001F0004141F0FE4141F470014FF00000B2
:1007C00070BD41F0FE4141F4780170BD70B54FF04D
:1007D000FF0C4CF4E06C1CEA11541DBF1CEA1355CD
:1007E00094EA0C0F95EA0C0F00F0A7F8A4EB0504AF
:1007F00081EA030E52EA03354FEA013100F08880A6
:100800004FEA03334FF0805545EA131343EA12636E
:100810004FEA022245EA111545EA10654FEA002623
:100820000EF000419D4208BF964244F1FD0404F5DC
:10083000407402D25B084FEA3202B61A65EB030538
:100840005B084FEA32024FF480104FF4002CB6EBF5
:10085000020E75EB030E22BFB61A754640EA0C0075
:100860005B084FEA3202B6EB020E75EB030E22BFB5
:10087000B61A754640EA5C005B084FEA3202B6EBF6
:10088000020E75EB030E22BFB61A754640EA9C00B5
:100890005B084FEA3202B6EB020E75EB030E22BF85
:1008A000B61A754640EADC0055EA060E18D04FEA43
:1008B000051545EA16754FEA06164FEAC30343EAE3
:1008C00052734FEAC2025FEA1C1CC0D111F4801FB0
:1008D0000BD141EA00014FF000004FF0004CB6E7A9
:1008E00011F4801F04BF01430020B4F1FD0C88BF48
:1008F000BCF5E06F3FF6AFAEB5EB030C04BFB6EB53
:10090000020C5FEA500C50F1000041EB045170BD45
:100910000EF0004E4EEA113114EB5C04C2BFD4EB72
:100920000C0541EA045170BD41F480114FF0000EF6
:10093000013C90E645EA060E8DE60CEA135594EA72
:100940000C0F08BF95EA0C0F3FF43BAF94EA0C0F75
:100950000AD150EA01347FF434AF95EA0C0F7FF4EA
:1009600025AF104619462CE795EA0C0F06D152EA3E
:1009700003353FF4FDAE1046194622E750EA410622
:1009800018BF52EA43067FF4C5AE50EA41047FF433
:100990000DAF52EA43057FF4EBAE12E74FEA410296
:1009A000B2F1E04324BFB3F5001CDCF1FE5C0DD9CD
:1009B00001F0004C4FEAC0024CEA5070B2F1004F17
:1009C00040EB830008BF20F00100704711F0804F1A
:1009D00021D113F13872BCBF01F00040704741F4DF
:1009E00080114FEA5252C2F11802C2F1200C10FAE3
:1009F0000CF320FA02F018BF40F001004FEAC123C7
:100A00004FEAD32303FA0CFC40EA0C0023FA02F36A
:100A10004FEA4303CCE77FEA625307D150EA013340
:100A20001EBF4FF0FE4040F44000704701F0004010
:100A300040F0FE4040F40000704700BF53B94AB98F
:100A4000002908BF00281CBF4FF0FF314FF0FF30D6
:100A500000F074B9ADF1080C6DE904CE00F006F8B1
:100A6000DDF804E0DDE9022304B070472DE9F0472A
:100A7000089D04468E46002B4DD18A42944669D982
:100A8000B2FA82F252B101FA02F3C2F1200120FA65
:100A900001F10CFA02FC41EA030E94404FEA1C48B3
:100AA000210CBEFBF8F61FFA8CF708FB16E341EAAF
:100AB000034306FB07F199420AD91CEB030306F135
:100AC000FF3080F01F81994240F21C81023E634456
:100AD0005B1AA4B2B3FBF8F008FB103344EA0344FA
:100AE00000FB07F7A7420AD91CEB040400F1FF330F
:100AF00080F00A81A74240F207816444023840EA4C
:100B00000640E41B00261DB1D4400023C5E9004384
:100B10003146BDE8F0878B4209D9002D00F0EF8007
:100B20000026C5E9000130463146BDE8F087B3FA3A
:100B300083F6002E4AD18B4202D3824200F2F98022
:100B4000841A61EB030301209E46002DE0D0C5E925
:100B5000004EDDE702B9FFDEB2FA82F2002A40F071
:100B60009280A1EB0C014FEA1C471FFA8CFE012674
:100B7000200CB1FBF7F307FB131140EA01410EFB18
:100B800003F0884208D91CEB010103F1FF3802D2BF
:100B9000884200F2CB804346091AA4B2B1FBF7F0B9
:100BA00007FB101144EA01440EFB00FEA64508D9DC
:100BB0001CEB040400F1FF3102D2A64500F2BB8019
:100BC0000846A4EB0E0440EA03409CE7C6F1200768
:100BD000B34022FA07FC4CEA030C20FA07F401FAAE
:100BE00006F31C43F9404FEA1C4900FA06F3B1FB37
:100BF000F9F8200C1FFA8CFE09FB181140EA01419C
:100C000008FB0EF0884202FA06F20BD91CEB010138
:100C100008F1FF3A80F08880884240F28580A8F190
:100C200002086144091AA4B2B1FBF9F009FB1011E2
:100C300044EA014100FB0EFE8E4508D91CEB010180
:100C400000F1FF346CD28E456AD90238614440EA23
:100C50000840A0FB0294A1EB0E01A142C846A646A3
:100C600056D353D05DB1B3EB080261EB0E0101FA2C
:100C700007F722FA06F3F1401F43C5E90071002689
:100C80003146BDE8F087C2F12003D8400CFA02FCDF
:100C900021FA03F3914001434FEA1C471FFA8CFEEF
:100CA000B3FBF7F007FB10360B0C43EA064300FBDF
:100CB0000EF69E4204FA02F408D91CEB030300F17D
:100CC000FF382FD29E422DD9023863449B1B89B234
:100CD000B3FBF7F607FB163341EA034106FB0EF3BD
:100CE0008B4208D91CEB010106F1FF3816D28B426A
:100CF00014D9023E6144C91A46EA004638E72E4636
:100D0000284605E70646E3E61846F8E64B45A9D22D
:100D1000B9EB020864EB0C0E0138A3E74646EAE79C
:100D2000204694E74046D1E7D0467BE7023B61444A
:100D300032E7304609E76444023842E7704700BFB3
:100D4000844641EA000313F003036DD1403A41D3D6
:100D500051F8043B40F8043B51F8043B40F8043B95
:100D600051F8043B40F8043B51F8043B40F8043B85
:100D700051F8043B40F8043B51F8043B40F8043B75
:100D800051F8043B40F8043B51F8043B40F8043B65
:100D900051F8043B40F8043B51F8043B40F8043B55
:100DA00051F8043B40F8043B51F8043B40F8043B45
:100DB00051F8043B40F8043B51F8043B40F8043B35
:100DC00051F8043B40F8043B51F8043B40F8043B25
:100DD000403ABDD2303211D351F8043B40F8043BC5
:100DE00051F8043B40F8043B51F8043B40F8043B05
:100DF00051F8043B40F8043B103AEDD20C3205D3D5
:100E000051F8043B40F8043B043AF9D2043208D0CC
:100E1000D2071CBF11F8013B00F8013B01D30B883E
:100E200003806046704700BF082A13D38B078DD01C
:100E300010F003038AD0C3F10403D21ADB071CBFEE
:100E400011F8013B00F8013B80D331F8023B20F858
:100E5000023B7BE7043AD9D3013A11F8013B00F891
:100E6000013BF9D20B7803704B7843708B78837019
:100E70006046704700000000000000000000000015
:100E800090F800F06DE9024520F007016FF0000CCA
:100E900010F0070491F820F040F049804FF0000472
:100EA0006FF00700D1E9002391F840F000F108004D
:100EB00082FA4CF2A4FA8CF283FA4CF3A2FA8CF385
:100EC0004BBBD1E9022382FA4CF200F10800A4FAEC
:100ED0008CF283FA4CF3A2FA8CF3E3B9D1E9042340
:100EE00082FA4CF200F10800A4FA8CF283FA4CF377
:100EF000A2FA8CF37BB9D1E9062301F1200182FA31
:100F00004CF200F10800A4FA8CF283FA4CF3A2FA36
:100F10008CF3002BC6D0002A04BF04301A4612BA44
:100F2000B2FA82F2FDE8024500EBD2007047D1E947
:100F3000002304F00305C4F100004FEAC50514F0D6
:100F4000040F91F840F00CFA05F562EA05021CBFA7
:100F500063EA050362464FF00004A9E74FF0FF3C47
:100F600006E000BF4FF0010C02E000BF4FF0010CA3
:100F70004DF804CD4FEA410C7FEA6C5C4FEA430C1C
:100F800018BF7FEA6C5C1BD001B050EA410C0CBF6B
:100F900052EA430C91EA030F02BF90EA020F0020CD
:100FA000704710F1000F91EA030F58BF994208BF34
:100FB00090422CBFD8176FEAE37040F001007047F1
:100FC0004FEA410C7FEA6C5C02D150EA013C07D148
:100FD0004FEA430C7FEA6C5CD6D152EA033CD3D093
:100FE0005DF8040B704700BF8446104662468C468D
:100FF0001946634600E000BF01B5FFF7B7FF0028C0
:1010000048BF10F1000F01BD4DF808EDFFF7F4FFE8
:101010000CBF012000205DF808FB00BF4DF808ED73
:10102000FFF7EAFF34BF012000205DF808FB00BF96
:101030004DF808EDFFF7E0FF94BF012000205DF8B8
:1010400008FB00BF4DF808EDFFF7CEFF94BF01206D
:1010500000205DF808FB00BF4DF808EDFFF7C4FF66
:1010600034BF012000205DF808FB00BF4FEA410CAF
:101070007FEA6C5C02D150EA013C0AD14FEA430C92
:101080007FEA6C5C02D152EA033C02D14FF00000CF
:1010900070474FF001007047724B00221A6093F8BE
:1010A000351062F3000183F8351093F835100A20EB
:1010B00060F3870183F8351093F83810642183F8C2
:1010C000381093F8391083F8392093F8361083F8E4
:1010D000362093F8371083F8372093F8311083F8CF
:1010E000312093F8321083F8322093F8331083F8CC
:1010F000332093F8341083F8342093F8351041F0FE
:10110000020183F8351093F8471062F3000183F869
:10111000471093F8471060F3870183F84710996CE4
:10112000C0F2C8019964996C62F30F01996493F855
:10113000431083F8432093F8441083F8442093F835
:10114000451083F8452093F8461083F8462093F81D
:10115000471041F0020183F84710D98F62F3000174
:10116000D987D98F092060F38701D987B3F8401058
:10117000C9B241F44841A3F8401093F8421083F8F3
:101180004220D98FC9B2D987B3F8401021F0FF01AE
:10119000A3F84010598F5A87998F9A87D88F40F0BB
:1011A0000201D987B3F8621062F30001A3F862105C
:1011B000B3F86210082060F38701A3F86210B3F857
:1011C0006410C9B241F44841A3F8641093F8661062
:1011D00083F86620B3F86210C9B2A3F86210B3F8BE
:1011E000641021F0FF01A3F86410B3F85E10A3F8B7
:1011F0005E20B3F86010A3F86020B3F8620040F0FE
:101200000201A3F8621029E0501C00EBC00315494D
:101210000B44197A6FF3000119720232197A62F3E2
:1012200087011972DA7A00226FF03701D972197BBF
:101230001A73597A5A72997A9A7293F804C01A7189
:1012400093F805C05A7193F806C09A7193F807C0D5
:10125000DA711A7A42F002021A720246052AD3DDC6
:10126000704700BFD804002000EBC002084B1344B5
:101270001B7A13F0020F00D1704710B5044605F039
:1012800043FA04EBC404024B1C44606010BD00BF71
:10129000D804002038B5FFF7FFFE642008F033FCC7
:1012A00040E004EBC402214B13441A7A6FF30002AE
:1012B0001A7201340A2C2FDC05F026FA04EBC40262
:1012C0001A4B13445A68801A80B2A3F809001B7A9B
:1012D00013F0020FE5D004EBC402144B1344B3F82F
:1012E0000920B3F80B309A42DBD904EBC4020F4B50
:1012F00013441A7A42F001021A721B7AB5EB930F6B
:10130000D7DA0A4A04EBC40313441D7AAD08043348
:10131000136082F86740CCE7044B00221A60322049
:1013200008F0F1FB00242546C4E700BFD8040020E4
:10133000B1F5805F0BDBA1F6FF73834202DC401A3C
:1013400000B27047401A00F5005000B2704701F536
:101350008053984204DD401AA0F5005000B2704757
:10136000401A00B270470000214BB3F90030002B47
:10137000B8BF5B429BB2092B2ED81D4BB3F902308C
:10138000002BB8BF5B429BB2092B27D8184BB3F98F
:101390000430002BB8BF5B429BB2092B20D8144B02
:1013A000B3F90630002BB8BF5B429BB2092B19D8AA
:1013B0000F4BB3F90A30002BB8BF5B429BB2042B32
:1013C00012D80B4BB3F90C30002BB8BF5B429BB269
:1013D000042B0BD901207047012070470120704772
:1013E000012070470120704701207047002070479E
:1013F0006411002038B52DED088B40F6B83008F0A8
:1014000082FB9FED539A9FED53BADFED53AA9FEDF8
:10141000538A534D55220021DFED524AB0EE494A1E
:10142000F0EE4B3AB0EE6A3ADFED4F2AB0EE002A0A
:10143000F1EE081AB0EE481ADFED4C0A9FED4C0AA7
:1014400028460CF0B2FC4B4C4B4B236084ED018AD8
:1014500084ED028A04231A46DFED480A21469FEDF7
:10146000480A05F5F2700CF01AFE9FED46AADFED72
:10147000469A47220021F0EE4A4A9FED444AF0EE98
:10148000003AB1EE043AF0EE0C2A9FED412AF3EE59
:101490000E1AB0EE481ADFED3F0AB0EE690A05F108
:1014A000AA000CF082FC84ED008A4FF07E5363604A
:1014B00084ED028ADFED388A03231A46DFED370A0E
:1014C0002146B0EE680A05F51D700CF0E8FD344BBE
:1014D00045F8AE3C334C05220021F0EE494AB0EE0F
:1014E000494AF0EE4B3AB0EE6A3AF0EE4A2AB2EED2
:1014F000042ADFED2D1AB0EE481AF0EE690A9FEDCE
:101500002B0A20460CF051FC05220021F0EE484A3F
:10151000B0EE484AF0EE003AB1EE043ADFED242A8C
:101520009FED242AF2EE0E1AB0EE481AF0EE680A89
:10153000B0EE680A04F1AA000CF037FC184B44F82E
:10154000AE3C1D4B01221A70BDEC088B38BD00BFAC
:10155000BD37863500409C4500007A4400000000FD
:10156000E80700200AD7A33D8FC2753C0000FA446B
:1015700000007A46400500200000C8410AD7A33B7E
:101580000060EA460AD7233C00803B45CDCCCC3DE9
:1015900000003443000016440000A043ACC52737C8
:1015A00000F0D246700C0020000016430000FA45FF
:1015B0006F12833A9A99993E5005002008B50C4B5A
:1015C0005B7B552B09D00CF0CFF901F0C9FE01F07F
:1015D000B7FF0A2008F097FAF5E7054BB3F90A20A0
:1015E0000260B3F908300B60024B01221A7008BD8B
:1015F0000C8300204C05002008B52DED028B194806
:1016000002F02AF9184BB3F90010184BB3F9140083
:10161000FFF78EFE07EE900AF8EEE77A9FED148A48
:1016200087EE887A134B83ED007A134BB3F90010E1
:10163000124BB3F91400FFF77BFE07EE900AF8EEA9
:10164000E77A87EE887A0E4B83ED007AFFF78CFEFF
:101650000C4B98701A785A700CF0F4FEBDEC028BAB
:1016600008BD00BF70050020C0050020940B0020BD
:101670000000B641C8050020A80500200C07002086
:10168000B00500205005002008B5084B00221A7054
:10169000074B1A68074B9A60C82107480DF006F9F6
:1016A000C82106480DF002F908BD00BF64050020FE
:1016B000C8050020500500206000002074000020B4
:1016C00010B5364B5B7A012B07D0032B52D0344B2D
:1016D00001221A700CF048F910BD314B9B783BBBCE
:1016E0002F4B1B78022B0DD02E4B1B78052B31D0A6
:1016F0002B4B5B78012BEFD1294B00221A70FFF79F
:10170000C3FFE9E7284BD3ED007AF0EEE77A274BE9
:1017100093ED007AF4EEC77AF1EE10FAE4D8204C9B
:10172000032323700123E37004F0EEFF6060DBE726
:101730001B4B1B78033BDBB2012BD5D8184B022285
:101740001A700022DA701A4A00211160194A92694F
:10175000DA60C9E7124B1B78032BC9D1104B022268
:101760001A700022DA70124A00211160114A92693F
:10177000DA60BDE70A4B9B781BB9094B04221A704B
:10178000AAE7074B02221A700022DA70084A0021E9
:101790001160084A9269DA609EE700BF6411002078
:1017A0005005002024100020C80500202000002043
:1017B000BC0500207005002010B52F4C22682F4B6F
:1017C0001A602F4B1A682F4B1A602F480DF072F8D1
:1017D000F7EE007A77EEC07A94ED000A67EE807A31
:1017E0002A4BC3ED007A2A4B1B78012B17D0022B12
:1017F00034D003B110BD274B9A68274B1A601F4B9A
:10180000D3ED007AF0EEE77AB0EE007AF4EEC77A24
:10181000F1EE10FAEED81E4B01221A70EAE71F48CB
:101820000DF048F8F7EE007A77EEC07A144B93ED9E
:10183000000A67EE807A184BC3ED007A114BD3EDA6
:10184000007AF0EEE77AB0EE007AF4EEC77AF1EEC5
:1018500010FACFD80E4B02221A70CBE70D4B0222A2
:101860001A700F4A9169D960D2691A610023074A38
:101870001360094A1360BDE7B0050020A0050020F1
:10188000C8050020B805002060000020A405002045
:101890006405002050050020BC05002074000020D5
:1018A0007005002010B52DED028B9FED1C4A9FEDB9
:1018B0001C8A1C4C05220021F0EE444ADFED1A3A46
:1018C0009FED1A3ADFED1A2AB2EE042ADFED191A5B
:1018D000B0EE481ADFED180A9FED180A20460CF00A
:1018E00064FA9FED170A05220021F0EE484AB0EE97
:1018F000484AF0EE003AB1EE043ADFED122A9FEDCD
:10190000122AF2EE0E1AB0EE481AF0EE400A04F176
:10191000AA000CF04AFABDEC028B10BDBD3786352B
:1019200000000000700C002000409C4500007A443C
:101930000AD7233C0000164300803B450000FA45CF
:101940000000A0436F12833A9A99993E10B52DED8D
:10195000028B9FED1C4A9FED1C2A9FED1C8A1C4C9C
:1019600005220021F0EE444ADFED1A3A9FED1A3AC3
:10197000F0EE422AF1EE041AB0EE481ADFED170A33
:101980009FED170A20460CF010FA05220021F0EE18
:10199000484AB0EE484AF0EE003AB1EE043ADFEDC4
:1019A000112AB3EE042AF0EE431AB0EE481ADFED26
:1019B0000E0A9FED0E0A04F1AA000CF0F6F9BDEC38
:1019C000028B10BDBD378635CDCC4C3E00000000EB
:1019D000700C002000409C4500007A4400803B458C
:1019E0000000FA45CDCC4C3D0000484200007A454D
:1019F000114AB2F904305B4207EE903AF8EEE77A0A
:101A00009FED0E7A67EE877AB6EE007A27EE877A38
:101A1000B2F90A3007EE903AF8EEE77ADFED086A9D
:101A200067EEA67A77EE677A064B93ED007A77EE4B
:101A3000277AC3ED007A7047641100206F12033BD0
:101A40000AD7A33CBC050020134BB3F9062007EED0
:101A5000902AF8EEE77A9FED117A67EE877AB6EE74
:101A6000007A67EE877AB3F90C3007EE103AB8EED9
:101A7000C77ADFED0B6A27EE267ADFED0A6A27EEDA
:101A8000267A77EEC77A084B93ED007A77EE277ABD
:101A9000C3ED007A704700BF641100206F12033B52
:101AA0000AD7A33CCDCC4C3FA405002008B52C4B55
:101AB0001A682C4B1A602C4BD3ED067A2B4B93ED06
:101AC000037A77EEC77A2A4BC3ED007A294B1B784D
:101AD000042B00D108BDFFF78BFFFFF7B5FF264BA6
:101AE000D3ED007A9FED257AF4EEC77AF1EE10FA85
:101AF0001FD883ED007A1A4BD3ED007A9FED207A40
:101B0000F4EEC77AF1EE10FAE4DB9FED1E7AF4EE04
:101B1000C77AF1EE10FADDD81B4BD3ED007A9FEDBA
:101B2000187AF4EEC77AF1EE10FA0DD883ED007A48
:101B3000D0E79FED167AF4EEC77AF1EE10FADADB11
:101B40000D4B83ED007AD6E79FED0E7AF4EEC77A5F
:101B5000F1EE10FABEDB0C4B83ED007ABAE700BF62
:101B6000B0050020A00500207005002050050020D1
:101B7000B805002024100020BC0500200000A0C2F1
:101B80000000FCC100000042A40500200000A042AB
:101B900008B5174BDB78012B04D0154BDB78022BF3
:101BA00016D008BD04F0B0FD114B5B68C01A40F2BE
:101BB000DB53984209D90E4B0222DA700D4A0021FC
:101BC00011600D4A9269DA60E7E7FFF76FFFE4E71B
:101BD0000A4B1A680A4B1A60074BD3ED067A044B7E
:101BE00093ED037A77EEC77A064BC3ED007AD8E718
:101BF00050050020BC05002070050020B005002025
:101C0000A0050020B805002008B5214B93ED001A6F
:101C1000204BD3ED050A204B93ED000A1F480CF032
:101C20003BFDBDEEC00A1E4B10EE102A1A801D4B64
:101C3000D3ED007A9FED1C7AF4EEC77AF1EE10FA3C
:101C40001AD883ED007A174B93ED001A114BD3EDA0
:101C5000030A164B93ED000A15480CF01DFDBDEE6E
:101C6000C00A10EE103A19B2124B19800C4BB3F99E
:101C7000000001F03FFC08BD9FED0F7AF4EEC77A3B
:101C8000F1EE10FADFDB074B83ED007ADBE700BFF4
:101C9000BC05002070050020B8050020940B002032
:101CA000C4050020A40500200000FCC1A005002000
:101CB0000C070020AC0500200000004210B5304B9E
:101CC000D3ED017A9FED2F7A67EE877A2E4A92ED57
:101CD000007ADFED2E6A27EE267A77EE877A2C4C93
:101CE000C4ED007A9A682B4B1A60FFF781FED4EDA1
:101CF000007A9FED297AF4EEC77AF1EE10FA10DB44
:101D00009FED267AF4EEC77AF1EE10FA09D8214B4E
:101D1000D3ED007AF4EEC77AF1EE10FA24D883ED11
:101D2000007A1C4BD3ED007A9FED1D7AF4EEC77A52
:101D3000F1EE10FA08DB9FED1B7AF4EEC77AF1EEB4
:101D400010FA01D883ED007A0D4B59680E4A1160E4
:101D50009A68154B1A60154B1A68154B1A60154B8B
:101D60001A68154B1A6010BD9FED0B7AF4EEC77A16
:101D7000F1EE10FAD5DB074B83ED007AD1E700BF17
:101D8000501100203333333F940500209A99993E37
:101D9000A4050020BC050020000000420000FCC19A
:101DA00000002A4300002AC398050020B005002047
:101DB000A0050020C8050020B805002000B583B0AC
:101DC000FFF718FB00234A4A13704A4A13704A4926
:101DD0004A48FFF7F3FB4A4B4BF6BB321A8001220D
:101DE0001A7307F051FE019055E0454B00221A731B
:101DF0006CE0FFF7E1FC434B1B78012B35D0424BE5
:101E000093F8353013F0010F2FD13F4B93F83E304C
:101E100013F0010F29D13C4B93F8473013F0010F19
:101E200023D1FFF7F1FE28E0FFF7B2FEE3E7374BDF
:101E30001B7813B1FFF73AFEDDE7FFF733FD334BB5
:101E400001221A70324B00221A70F3E7304B1B78D4
:101E500013B1FFF733FFCEE7FFF778FD2C4B0122DC
:101E60001A702A4B00221A70F3E7264B01221A70CF
:101E7000284B00221A6201F063FB214B264A1268AC
:101E80005A60264A12689A601E4A12781A7605210C
:101E900001A807F03FFE04F037FC214C2368C01A6C
:101EA000204B186004F030FC2060FFF7A5FBFFF723
:101EB00007FC1D4B5B7C13F0040F07D01A4B1B7CF7
:101EC00013F0100F91D00E4B01221A730D4B1B789B
:101ED000042B90D801A252F823F000BFF31D000894
:101EE000F71D00082F1E0008291E00084D1E0008BF
:101EF0004C050020B4050020C0050020A8050020E6
:101F00000400002050050020D80400209C0500207B
:101F100000000020B8830020B0050020C805002084
:101F2000680500206C050020641100201C4B1B7804
:101F3000CBB9DFED1C7AB4EEE70AF1EE10FA0CDD56
:101F4000194A13780133DBB21370C82B05D9144B2F
:101F500001221A70154B164A1A62164B1B6841F281
:101F600087325A63704710B5104CDFED0E0A2046D9
:101F70000CF058FCD4ED0B7AF5EEC07AF1EE10FAC5
:101F80000BD40A4BD3ED0B7AFCEEE77A17EE903ABE
:101F90009BB2084A1268536310BD0022E262F0E768
:101FA0002406002000003442810600203406002070
:101FB00000401C457C7F002008B54A4B1B7813F07D
:101FC000010F17D0484B9B6C1B681B6813F0010F67
:101FD00010D1454BDB6C1B681B6813F0010F09D156
:101FE000424B1B7813F0020F04D1414B1B7813F0C6
:101FF000020F3AD03D4B1B7813F0010F17D03A4B2C
:102000009B6C1B681B6813F0010F10D1364BDB6C07
:102010001B681B6813F0010F09D1324B1B7813F0BA
:10202000020F04D1324B1B7813F0020F31D0304B2A
:102030001B7813F0010F17D02B4B9B6C1B681B6890
:1020400013F0010F10D1284BDB6C1B681B6813F0D9
:10205000010F09D1234B1B7813F0020F04D1234B3E
:102060001B7813F0020F28D008BD1E4B1A7802F01F
:10207000FE021A701A7842F002021A700022012140
:102080001C4805F0F3FC08221B491C4801F0A2FC87
:10209000EAE7164B1A7802F0FE021A701A7842F03C
:1020A00002021A7000221021154805F0DFFC0922F7
:1020B0001449154801F08EFCD6E70D4B1A7802F052
:1020C000FE021A701A7842F002021A7000221021E1
:1020D0000B4805F0CBFC04220C490D4801F07AFCBA
:1020E000C2E700BF300600208C7E0020FD050020E6
:1020F000FC050020000402402806002034000020D7
:1021000000000240EC05002024000020F80500201B
:10211000300000204FF07E53036000234360836053
:10212000C360704708B593ED024AD3ED013A93EDD1
:10213000003AD2ED022A92ED012AD2ED001A91ED79
:10214000021AD1ED010A91ED000A0BF007FA08BD61
:10215000F8B52DED028B04460F4616461D46D0ED10
:10216000000A90ED030A20EE800AD0ED017A90ED8E
:10217000027A27EE877A30EE070A60EEA00A67EE51
:10218000A77A70EEA70A70EEA00AB7EE008A70EE8A
:10219000C80A30EE000A0CF07FFE87ED000AD4ED8D
:1021A000017A94ED030A67EE807A94ED000A94EDCB
:1021B000027A20EE070A77EEC07AB8EE000A27EE20
:1021C000800A0CF03DFE86ED000AD4ED000A94ED85
:1021D000010A20EE800A94ED027AD4ED037A27EE0C
:1021E000277A30EE070A60EEA00A67EEA77A70EE53
:1021F000A70A70EEA00A70EEC80A30EE000A0CF0D2
:102200004BFE85ED000ABDEC028BF8BD08B507203A
:1022100007F079FC02E0642007F075FC03F0E9FFA9
:102220000028F8D102E0642007F06DFC04F04CF9BE
:102230000028F8D14048041D00F110022146143056
:1022400004F084F89FED3D1ADFED3D0A9FED3D0A55
:1022500041F2301241F294113B480CF0DAFA3B4A59
:1022600021463B48FFF756FF002008F065FD08F0C7
:10227000F7FE384B186038481023C36106F050FE53
:1022800040B908223549364801F01AFB354B012286
:102290001A702AE00AF056F8F3E7334A137803F08D
:1022A000F70313703149324804F01EF829E0314A2F
:1022B000137803F0FB0313701F4901F1200204316E
:1022C0002D4803F0C9FF21E01B49214C1F4B0A1D7B
:1022D00014319FED2A0A2046FFF724FF284901F117
:1022E00008030A1D2046FFF733FF4FF0FF3101209E
:1022F00009F094F80128F8D11B4B1B7813F0080F54
:10230000CBD11C4B1B7813F0040FD0D11D4B1B7885
:1023100013F0040FD8D01B4A137803F0FB0313709B
:10232000054C04F11001184803F07CFF94ED040AF9
:10233000FFF7FCFDC8E700BF00060020000000001A
:10234000CDCC4C3E0000C84434060020740600206A
:10235000D8050020E80500208C7E002028060020FB
:102360003400002031060020300600201406002032
:1023700029060020FD050020EE0500206F12833A9B
:10238000CC050020FC050020FA05002010B510281F
:1023900006D0202815D008281FD0012835D010BD20
:1023A000264A137843F001031370254A137843F04B
:1023B00001031370234B1B78002BF0D0FFF7FCFDBB
:1023C000EDE7214A137843F0010313701D4B1B788E
:1023D000002BE4D0FFF7F0FDE1E71C4A137843F04F
:1023E00001031370137803F001031370002BD6D090
:1023F0001346127802F0FE021A701A7842F00202B6
:102400001A70134804F0A0F8C9E708F09DFF0128EE
:10241000C5D0104C2146104B186809F03BF82368D2
:10242000002BBCD04FF0E0234FF08052C3F8042DB6
:10243000BFF34F8FBFF36F8FB1E700BFFD050020E3
:10244000FC05002031060020300600208006002018
:102450007406002084060020E805002008B5AD4B76
:10246000DB6C1B68AC4A934240F29D80583A52683C
:10247000AA498B4231D001F580618B4278D0A1F519
:1024800068718B4276D001F580618B4274D0A1F5E2
:1024900089618B4272D001F580618B4271D0A1F5C8
:1024A00068718B4270D001F580618B426FD0A1F5CD
:1024B00089618B426ED001F580618B426DD0A1F5B0
:1024C00068718B426CD001F580618B4202D04FF075
:1024D000006103E04FF4001100E020210A4214BF24
:1024E00001220022002A00F0A4818B4A934240F28C
:1024F000BC81A2F58962934200F0718102F580628D
:10250000934200F09781A2F56872934200F09481A3
:1025100002F58062934200F09181A2F589629342B4
:1025200000F08E8102F58062934200F08C81A2F56A
:102530006872934200F08A8102F58062934200F053
:102540008881A2F58962934200F0868102F580625B
:10255000934200F08481A2F56872934200F0828178
:1025600002F58062934200F037814FF0006237E15C
:102570002021B3E72021B1E72021AFE74FF400612C
:10258000ACE74FF40061A9E74FF40061A6E74FF410
:102590000061A3E74FF40011A0E74FF400119DE79D
:1025A0004FF400119AE75E4A934258D902F55272ED
:1025B00012685A498B4231D001F580618B4233D089
:1025C000A1F568718B4231D001F580618B422FD02B
:1025D000A1F589618B422DD001F580618B422CD011
:1025E000A1F568718B422BD001F580618B422AD016
:1025F000A1F589618B4229D001F580618B4228D0F9
:10260000A1F568718B4227D001F580618B4202D021
:102610004FF0006103E04FF4001100E020210A4276
:1026200014BF012200225DE72021F8E72021F6E710
:102630002021F4E74FF40061F1E74FF40061EEE789
:102640004FF40061EBE74FF40061E8E74FF400114D
:10265000E5E74FF40011E2E74FF40011DFE7314AFC
:10266000934261D9583A52682C498B4231D001F5D6
:1026700080618B4233D0A1F568718B4231D001F576
:1026800080618B422FD0A1F589618B422DD001F55D
:1026900080618B422CD0A1F568718B422BD001F563
:1026A00080618B422AD0A1F589618B4229D001F546
:1026B00080618B4228D0A1F568718B4227D001F54B
:1026C00080618B4202D04FF0006103E04FF40011B3
:1026D00000E020210A4214BF0122002202E720214B
:1026E000F8E72021F6E72021F4E74FF40061F1E755
:1026F0004FF40061EEE74FF40061EBE74FF4006147
:10270000E8E74FF40011E5E74FF40011E2E74FF47A
:102710000011DFE78C7E0020586402401060024008
:10272000B860024058600240A74A1268A7498B422D
:1027300031D001F580618B4233D0A1F568718B42B5
:1027400031D001F580618B422FD0A1F589618B4298
:102750002DD001F580618B422CD0A1F568718B42A0
:102760002BD001F580618B422AD0A1F589618B4283
:1027700029D001F580618B4228D0A1F568718B4288
:1027800027D001F580618B4202D04FF0006103E059
:102790004FF4001100E020210A4214BF0122002260
:1027A000A0E62021F8E72021F6E72021F4E74FF406
:1027B0000061F1E74FF40061EEE74FF40061EBE7F1
:1027C0004FF40061E8E74FF40011E5E74FF4001122
:1027D000E2E74FF40011DFE74FF4001200E020229F
:1027E0007B4BDA607B4B1B7813F0020F40F0528179
:1027F000794B1B7813F0020F40F05B81774B1B780D
:1028000013F0020F40F06481FFF7D6FB714B1B7889
:1028100013F0040F0DD06F4B1A7802F0FB021A7000
:102820001A7842F008021A706D4A136943F00103E6
:10283000136108BD2022D3E72022D1E72022CFE771
:102840004FF40062CCE74FF40062C9E74FF4006236
:10285000C6E74FF40062C3E74FF40012C0E74FF43D
:102860000012BDE74FF40012BAE75E4A934253D913
:10287000A83A934231D002F58062934231D0A2F55A
:10288000687293422FD002F5806293422DD0A2F558
:10289000896293422BD002F5806293422AD0A2F53E
:1028A0006872934229D002F58062934228D0A2F543
:1028B0008962934227D002F58062934226D0A2F526
:1028C0006872934225D002F58062934202D04FF0A5
:1028D000006203E04FF4001200E020223C4B9A60BB
:1028E00080E72022FAE72022F8E72022F6E74FF4DB
:1028F0000062F3E74FF40062F0E74FF40062EDE7A7
:102900004FF40062EAE74FF40012E7E74FF40012D9
:10291000E4E74FF40012E1E7334A934266D9483ABC
:10292000934231D002F58062934231D0A2F56872B1
:1029300093422FD002F5806293422DD0A2F5896296
:1029400093422BD002F5806293422AD0A2F568729E
:10295000934229D002F58062934228D0A2F5896281
:10296000934227D002F58062934226D0A2F5687286
:10297000934225D002F58062934202D04FF000626C
:1029800003E04FF4001200E020220F4BDA6029E749
:102990002022FAE72022F8E72022F6E74FF400622F
:1029A000F3E74FF40062F0E74FF40062EDE74FF415
:1029B0000062EAE74FF40012E7E74FF40012E4E7A1
:1029C0004FF40012E1E700BF0060024010600240D7
:1029D0000064024030060020FD050020FC050020B8
:1029E000003C0140B860024058600240404A9342B7
:1029F00031D002F58062934231D0A2F568729342E1
:102A00002FD002F5806293422DD0A2F589629342C5
:102A10002BD002F5806293422AD0A2F568729342CD
:102A200029D002F58062934228D0A2F589629342B0
:102A300027D002F58062934226D0A2F568729342B5
:102A400025D002F58062934202D04FF0006203E08D
:102A50004FF4001200E02022264B9A60C2E62022AA
:102A6000FAE72022F8E72022F6E74FF40062F3E7C6
:102A70004FF40062F0E74FF40062EDE74FF40062BC
:102A8000EAE74FF40012E7E74FF40012E4E74FF4EF
:102A90000012E1E7184B1A7802F0FD021A701A785A
:102AA00042F004021A7001221146144804F0DEFFBD
:102AB0009EE6134B1A7802F0FD021A701A7842F063
:102AC00004021A70012210210E4804F0CFFF95E68F
:102AD0000D4B1A7802F0FD021A701A7842F00402C7
:102AE0001A7001221021074804F0C0FF8CE600BFD5
:102AF00010600240006002403006002000040240E6
:102B0000FD05002000000240FC05002008B50C4B2C
:102B10001B6873B90B4B1B68012B0BD04FF4FA6188
:102B2000012002F03FFE012002F010FE044B0122C2
:102B30001A6008BD4FF47A71012002F033FEF2E70B
:102B4000880600208C0600201A4B93ED0B7ADFEDEF
:102B50001A7AB4EEE77AF1EE10FA07D8174B1B7821
:102B60003BB9174A13680133136002E0144B00228B
:102B70001A60134B1B68B3F5167F05D30F4B012268
:102B80001A700F4B00221A600C4B1B78012B00D0DF
:102B900070470C4A136801331360632B05D9002377
:102BA000064A1370074A13607047074B4FF4FA62E6
:102BB0001A80EDE7F483002000409CC5CC0600207D
:102BC000C8060020D0060020E006002038B52DED14
:102BD000028BB0EE408A05460C46274B1B681BB1A2
:102BE000264B1B68834238D003F08EFD2044013011
:102BF000234B1860234B1A69234B1A60214B196928
:102C0000214B1A68521A48F6FB7305FB03F39A42EC
:102C100028D803F079FD1A4B1B68C01AA0420ED9C0
:102C2000B4EE000A28EE000A9FED188A20EE080A8A
:102C30009FED178A20EE080A164B83ED000A0E4A14
:102C40001368013313600D4B1D60134B1C60114B57
:102C500093ED000ABDEC028B38BD0F4B1B688B4215
:102C6000C2D1CBE7084B19600A4B00221A6003F06F
:102C70004BFD034B1860CCE794060020A80600200B
:102C8000D4060020B8100020A0060020000010424A
:102C900000007042C0060020A406002070B5614B01
:102CA0001B78002B36D1604B00221A805F4EB6F99C
:102CB000043000EE103A5E4D2B885B4200EE903AF5
:102CC000F8EEE00AB8EEC00A5A480BF0ABFD5A4CD9
:102CD000BDEEC00A10EE103A2380B6F9403000EE87
:102CE000103A2B8800EE903AF8EE600AB8EEC00A6F
:102CF00052480BF097FDBDEEC00A10EE103A19B223
:102D00004F4B1980484BB3F90020B4F9000000F094
:102D10003DFC70BD4B4B1A784FF480514A4804F08B
:102D2000A5FE4A4B1B78032B4DD8DFE803F00222A7
:102D30004277444B1B7843B1454BDB68A3F5104306
:102D4000444A13603F4B00221A70414B93ED030A33
:102D5000404BD3ED000AF8EEE00AB8EEC00A3E4858
:102D60000BF060FDBDEEC00A3C4B10EE102A1A803D
:102D70003CE0344B1B7843B1354BDB68A3F5D833CB
:102D8000344A13602F4B00221A70314B93ED030A23
:102D9000304BD3ED000AF8EEE00AB8EEC00A2E4838
:102DA0000BF040FDBDEEC00A2C4B10EE102A1A802D
:102DB0001CE02B4B4FF081421A602A4B04221A6010
:102DC000294B0A221A60284B1968264B1868244B95
:102DD00093ED000AFFF7FAFEB1EE400ABDEEC00A1D
:102DE0001E4B10EE102A1A80FFF7AEFE184BB3F9F7
:102DF000043000EE103A194BB3F9003000EE903A6F
:102E0000F8EEE00AB8EEC00A18480BF00BFDBDEE74
:102E1000C00A054B10EE102A1A8047E70F4B00221C
:102E20001A80E3E79C060020D8060020401000200E
:102E30003C00002040830020BA0600207C83002054
:102E4000BC060020B806002000100240BE0600208C
:102E5000B8100020DC060020B8830020E006002027
:102E6000C4060020B406002098060020F483002049
:102E700008B50A4B1B784BB1094B41F658321A8002
:102E800001220421074804F0F1FD08BD0022044B93
:102E90001A800421034804F0E9FDF6E79C060020AF
:102EA0003C000020001C024000B583B09FED808AEA
:102EB000B0EE481ADFED7F0A9FED7F0A4FF4FA6209
:102EC00041F294117D480BF0A4FC9FED7D1AF6EEC3
:102ED000000AB1EE0C0A40F6B83241F65831794892
:102EE0000BF097FCDFED788AB0EE481AF0EE680A36
:102EF000B2EE020A40F6B83241F6583173480BF090
:102F000088FCB0EE481AF0EE680AB2EE020A40F60B
:102F1000B83241F658316E480BF07BFC06F0B4FD38
:102F2000019051E06B4B01221A606B4B00221A603A
:102F30006A4B1A7C20216A4804F098FD694B9B7B00
:102F400013B9664B1B7C1BB1674B1B78032B79D0E5
:102F5000644B1B7A032B00F08C80624BDB7B002BD5
:102F600000F09280604B02221A70604BDA68604B6E
:102F70001A60604B1B7813B95B4B03221A70FFF782
:102F80008DFEFFF7C3FD574B1B7A43B15A4A1278A7
:102F9000934204D0584A1370012B00F08280FFF74F
:102FA00067FF504B597A554A1170554A107D554963
:102FB0000870517D544A1170B3F91220534B1A8096
:102FC000022101A806F0A6FD464B1B7C13F0400F22
:102FD00006D0444A527A022A02D0464A0121117090
:102FE00003F05003502B03D03E4B5B7A022B02D1EF
:102FF000404B00221A70464B93F8353013F0010F06
:1030000002D03C4B00221A70364B5B7C13F0010F50
:1030100003D1344B1B7A022B06D02E4B4FF0FF32DC
:103020001A602D4B00221A602E4B1B8A03F4887302
:10303000B3F5887F3FF476AF2A4B1B7A022B7FF4DF
:1030400077AF6FE7254B00221A74324B01221A70BA
:1030500003F05AFB304B1860224B1B7C13F0100F0F
:1030600003D0214B01221A7083E71F4B00221A70F4
:103070007FE703F049FB284B1B68C01A40F2DB5383
:1030800098423FF66FAF68E703F03EFB224B1B68A8
:10309000C01AB0F5167F7FF66CAF134B03221A707F
:1030A00067E7144A1378B3FA83F35B09137076E782
:1030B000000000000AD7A33B9A99193EB88300206C
:1030C000CDCCCC3DF48300200AD7A33C4083002024
:1030D0007C8300208C0600208806002050110020F0
:1030E0000010024064110020BE060020B81000202D
:1030F000DC0600209C060020AE060020AF06002063
:1031000024830020AC060020AD060020B00600207D
:10311000D8040020B806002090060020094B1B7838
:103120000370094B1B784370084BDA7882705A8819
:10313000C2701B681A0A02714371054B1B788371B8
:10314000704700BF4C05002050050020C805002036
:10315000B405002010B582B00B4617494FF49A729F
:103160000A6000228A60CA6008240C610A7593F81C
:1031700000C0124A82F800C093F801C082F801C072
:1031800093F802C082F802C093F803C082F803C02B
:1031900093F804C082F804C093F805C082F805C013
:1031A00093F806C082F806C0DB79D37101AB03F057
:1031B000B3FD02B010BD00BFEC060020E406002005
:1031C00000B583B006F060FC019001224FF48061ED
:1031D000104804F04BFC104D104C2946204602F0DC
:1031E00017FC012006F08FFC05F12401204602F0B7
:1031F0000FFC0B4D2846FFF791FF012006F083FCE2
:1032000029462046FFF7A6FF2D2101A806F082FCE3
:10321000E1E700BF001C0240781100202C7500205F
:10322000040700200A784B7843EA02230380838254
:10323000704700000288428091F800C04B7843EA52
:103240000C23038091F802C0C97841EA0C218180E7
:103250009A1AB2F5805F25DD816801398160A2F597
:103260000052C261826803EB4233828A9B1AC360B8
:103270004FF4B47202FB03F3002B1FDB5B130361FB
:1032800090F83420531CDBB280F83430C169083226
:1032900040F82210042B02D9002380F83430002398
:1032A0001A4616E012F5805F06DA81680131816006
:1032B00002F50052C261D5E7C261D3E703F5FF53BF
:1032C0001F33DBE703F1080150F821100A440133F2
:1032D000DBB2042BF6D9044B83FB0213D217C2EBEB
:1032E00063028263704700BF6766666600B58BB095
:1032F0000122089200230693079200930193029300
:103300000393059304936946134803F03BFC00289C
:10331000F9D1114803F0D2FC0028FAD102210E485D
:1033200003F01DFE0028F9D10E2309930593694689
:103330000A4803F027FC0028F9D1084803F0BEFC36
:103340000028FAD10221054803F009FE0028F9D12E
:103350000BB05DF804FB00BF2C75002054750020F5
:10336000014B01221A707047B405002010B58AB0D5
:10337000044601AB03AA002103F04CFD424B9C42E2
:1033800004D0424B9C420BD00AB010BD039A40F2CD
:1033900033139A42F5D19DF804203D4B1A70F0E7A3
:1033A000039BA3F20123052BEED801A252F823F0D0
:1033B00009340008393400086134000889330008F2
:1033C000C9330008EF330008324A536A591C51626E
:1033D000322B07DC01A910460BF0FEF90620FDF7A1
:1033E00043FFD1E701A92B480BF08AF9F6E72A4AF7
:1033F000536A591C5162322B14DC01A910460BF0A0
:10340000EBF90720FDF730FF244A9369591C9161BD
:10341000322B0CD801A91046FFF704FF0820FDF756
:1034200023FFB1E701A91C480BF06AF9E9E701A9FC
:103430001A48FFF7FFFEF1E7184A536D591C516512
:10344000322B08D801A902F13C00FFF7EBFE09205E
:10345000FDF70AFF98E701A91148FFF7EBFEF6E731
:10346000104A9369013393610A2B07D801A91046CA
:10347000FFF7D8FE0A20FDF7F7FE85E701A9094806
:10348000FFF7D8FEF6E700BF2C750020547500202A
:1034900024100020940B00200C0700204010002076
:1034A0007C100020B810002084B000B583B00DF16E
:1034B000100C8CE80F000F980C4A0E9B1360002331
:1034C0009360D3600821116103E0C15C084AD154C4
:1034D0000133072BF9DD01AB054A044904A803F0C9
:1034E0001BFC03B05DF804EB04B07047F41000203F
:1034F0001C10002010B588B00F4B02121A705870C3
:103500000A129A70D97000229A71DA710B4C0793E3
:1035100040F2FF130693EC4604F1100EBEE80F00D4
:10352000ACE80F009EE803008CE8030094E80F006D
:10353000FFF7BAFF08B010BD381000205475002006
:1035400010B588B00F4B00221A705A709A70DA705A
:103550001A715A719A71DA710B4C079340F2FF138A
:103560000693EC4604F1100EBEE80F00ACE80F0025
:103570009EE803008CE8030094E80F00FFF794FF37
:1035800008B010BD301000205475002010B588B070
:10359000114B04121C70587008129870D9701112D7
:1035A00019715A7100229A71DA710C4C07934FF419
:1035B00000730693EC4604F1100EBEE80F00ACE871
:1035C0000F009EE803008CE8030094E80F00FFF76B
:1035D0006BFF08B010BD00BF2810002054750020FC
:1035E000074B1B68074AA2FB0312920C06490A709C
:1035F000064AA2FB03239B09054A1360704700BFDC
:103600005400002083DE1B4310110020D34D6210B4
:103610000C11002010B44FF0E0235C690C4A92F8C2
:1036200000C000FB0CFC9B69002104E0E01A02448E
:103630001144614509D21A464FF0E0239B699A4232
:10364000FAD0F3D9D21A1144F3E75DF8044B70476E
:10365000101100200C4AD2F8FC3043F08073C2F8FD
:10366000FC300A4B002159601A6842F001021A60CE
:10367000074B03FB00F0074B1860074B1960074B23
:1036800000221A60704700BF00ED00E0001000E06B
:1036900040420F0014110020181100201C110020BE
:1036A00082B00A4B5B680193019B02689B1A07EE8C
:1036B000903AF8EE677A064B93ED000AB8EE400AAE
:1036C000019B036087EE800A02B07047001000E0A3
:1036D0001411002000F17843B3F5804F45D3A3F5D2
:1036E0008043B3F5804F42D300F17843A3F5004304
:1036F000B3F5804F3DD300F17843A3F54043B3F5D4
:10370000804F38D300F1774303F57F03B3F5803F53
:1037100033D300F1774303F57E03B3F5003F2ED397
:1037200000F1774303F57C03B3F5003F29D300F1A3
:10373000774303F57A03B3F5003F24D300F17743D1
:1037400003F57803B3F5003F1FD300F1774303F58A
:103750007603B3F5003F1AD300F1774000F574000B
:10376000B0F5003F15D20C4870470C4870470C4824
:1037700070470C4870470C4870470C4870470C481D
:1037800070470C4870470C4870470C4870470C480D
:1037900070474FF00160704700000E0800400008BD
:1037A0000080000800C000080000010800000208B6
:1037B00000000408000006080000080800000A08CD
:1037C00000000C0870B505460E46144603F0D6FFFF
:1037D000184B1D602846FFF77DFF174B1860174BED
:1037E0001E60174B00221A60124B1968124B1B689F
:1037F000994215D8114B1B681A680023022004F067
:103800000FF888B90B4A1368043313600B4A136826
:10381000043313600A4A136801331360A342E3D1EF
:1038200003F0C4FF002070BD03F0C0FF4FF0FF3075
:10383000F9E700BF2C1100202811002020110020E2
:103840002411002008B50A4601460248FFF7BAFFD6
:1038500008BD00BF00000E08154B5A6802609A6848
:103860004260DA688260134A92ED007ADFED126AF4
:1038700027EE267ADFED117A87EE276A80ED066A59
:1038800092ED017A27EE267A87EE276A80ED076AA5
:1038900092ED027A27EE267AC7EE276AC0ED086A13
:1038A0005A69C2609A690261DB694361704700BF6F
:1038B00000060020CC05002000003443DB0F494007
:1038C00030B43C4B1B685C6844F002045C605C688C
:1038D00044F001045C601C6844F040041C60364BFA
:1038E0001C68236823F00103236003E01C6824F0B4
:1038F00001041C60304B1B681C6814F0010FF5D1EB
:103900002E4CA34212D9583C4FF40015E5602C4CC4
:103910009C60D9605A60196841F010011960294B08
:1039200019680B6823F001030B6019E0264CA342D1
:1039300005D904F552744FF40015A560E7E7234C50
:10394000A34204D9583C4FF40015E560DFE7204C52
:103950004FF40015A560DAE7196821F0010119603C
:10396000184B1B68196811F0010FF5D113498B42F0
:1039700009D958394FF00064CC6011499960D8607A
:103980005A6030BC704710498B4205D901F552711D
:103990004FF000648C60F0E70C498B4204D9583931
:1039A0004FF00064CC60E8E709494FF000648C6098
:1039B000E3E700BF8C7E0020CC7D002058640240ED
:1039C0000C3001402C7E0020B8600240586002405C
:1039D0000060024030B4AD4B1C68236823F0010343
:1039E0002360AB4B1C68236823F00103236003E0D2
:1039F0001C6824F001041C60A44B1B681C6814F0B4
:103A0000010FF5D103E01C6824F001041C60A04BF9
:103A10001B681C6814F0010FF5D19E4CE46C2468FF
:103A20009D4DAC4240F29A80A5F58965AC4231D0FB
:103A300005F58065AC4276D0A5F56875AC4274D0CA
:103A400005F58065AC4272D0A5F58965AC4270D0B1
:103A500005F58065AC426FD0A5F56875AC426ED0B7
:103A600005F58065AC426DD0A5F58965AC426CD09A
:103A700005F58065AC426BD0A5F56875AC426AD09F
:103A800005F58065AC4202D04FF0006503E04FF4CD
:103A9000001500E02025814CE5607E4CE46C246834
:103AA0007D4DAC4240F2D481A5F58965AC4200F071
:103AB0006B8105F58065AC4200F0AF81A5F56875B6
:103AC000AC4200F0AC8105F58065AC4200F0A98104
:103AD000A5F58965AC4200F0A68105F58065AC428C
:103AE00000F0A481A5F56875AC4200F0A28105F54F
:103AF0008065AC4200F0A081A5F58965AC4200F07C
:103B00009E8105F58065AC4200F09C81A5F5687545
:103B1000AC4200F09A8105F58065AC4200F031813D
:103B20004FF0806531E12025B5E72025B3E720255A
:103B3000B1E74FF40065AEE74FF40065ABE74FF433
:103B40000065A8E74FF40065A5E74FF40015A2E76C
:103B50004FF400159FE74FF400159CE7504DAC4221
:103B600053D9A83DAC4231D005F58065AC4231D087
:103B7000A5F56875AC422FD005F58065AC422DD017
:103B8000A5F58965AC422BD005F58065AC422AD0FD
:103B9000A5F56875AC4229D005F58065AC4228D002
:103BA000A5F58965AC4227D005F58065AC4226D0E5
:103BB000A5F56875AC4225D005F58065AC4202D00C
:103BC0004FF0006403E04FF4001400E02024334D74
:103BD000AC6062E72024FAE72024F8E72024F6E727
:103BE0004FF40064F3E74FF40064F0E74FF400642F
:103BF000EDE74FF40064EAE74FF40014E7E74FF411
:103C00000014E4E74FF40014E1E7264DAC4264D918
:103C1000483DAC4231D005F58065AC4231D0A5F5C8
:103C20006875AC422FD005F58065AC423ED0A5F555
:103C30008965AC423CD005F58065AC423BD0A5F52A
:103C40006875AC423AD005F58065AC4239D0A5F52F
:103C50008965AC4238D005F58065AC4237D0A5F512
:103C60006875AC4236D005F58065AC4202D04FF0A5
:103C7000006403E04FF4001400E020240A4DEC60DF
:103C80000BE72024FAE72024F8E700BFCC7D0020D2
:103C90002C7E00208C7E002058640240006402408C
:103CA000B860024058600240006002402024E5E70E
:103CB0004FF40064E2E74FF40064DFE74FF4006480
:103CC000DCE74FF40064D9E74FF40014D6E74FF473
:103CD0000014D3E74FF40014D0E7B14DAC4231D01B
:103CE00005F58065AC4231D0A5F56875AC422FD0A2
:103CF00005F58065AC422DD0A5F58965AC422BD089
:103D000005F58065AC422AD0A5F56875AC4229D08E
:103D100005F58065AC4228D0A5F58965AC4227D071
:103D200005F58065AC4226D0A5F56875AC4225D076
:103D300005F58065AC4202D04FF0006403E04FF41B
:103D4000001400E02024974DAC60A6E62024FAE79A
:103D50002024F8E72024F6E74FF40064F3E74FF45B
:103D60000064F0E74FF40064EDE74FF40064EAE725
:103D70004FF40014E7E74FF40014E4E74FF40014A5
:103D8000E1E74FF4801500E01025874CE560874C93
:103D9000E46C2468864DAC4240F2D181A5F589657A
:103DA000AC4200F0688105F58065AC4200F0AC8162
:103DB000A5F56875AC4200F0A98105F58065AC42B7
:103DC00000F0A681A5F58965AC4200F0A38105F558
:103DD0008065AC4200F0A181A5F56875AC4200F0A9
:103DE0009F8105F58065AC4200F09D81A5F5896550
:103DF000AC4200F09B8105F58065AC4200F09981F2
:103E0000A5F56875AC4200F0978105F58065AC4278
:103E100000F02E814FF000752EE11025B5E710253A
:103E2000B3E71025B1E74FF48065AEE74FF4806546
:103E3000ABE74FF48065A8E74FF48065A5E74FF442
:103E40008015A2E74FF480159FE74FF480159CE79B
:103E5000584DAC4253D9A83DAC4231D005F58065F0
:103E6000AC4231D0A5F56875AC422FD005F5806520
:103E7000AC422DD0A5F58965AC422BD005F5806507
:103E8000AC422AD0A5F56875AC4229D005F580650D
:103E9000AC4228D0A5F58965AC4227D005F58065F0
:103EA000AC4226D0A5F56875AC4225D005F58065F5
:103EB000AC4202D04FF0806403E04FF4801400E085
:103EC0001024394DAC6062E71024FAE71024F8E7BB
:103ED0001024F6E74FF48064F3E74FF48064F0E7D2
:103EE0004FF48064EDE74FF48064EAE74FF4801408
:103EF000E7E74FF48014E4E74FF48014E1E72E4D38
:103F0000AC4261D9483DAC4231D005F58065AC4248
:103F100031D0A5F56875AC422FD005F58065AC426F
:103F20002DD0A5F58965AC422BD005F58065AC4256
:103F30002AD0A5F56875AC4229D005F58065AC425C
:103F400028D0A5F58965AC4227D005F58065AC423F
:103F500034D0A5F56875AC4233D005F58065AC4228
:103F600002D04FF0806403E04FF4801400E010248E
:103F70000C4DEC600BE71024FAE71024F8E710244E
:103F8000F6E74FF48064F3E74FF48064F0E74FF412
:103F90008064EDE74FF48064EAE74FF48014E7E7CC
:103FA0001060024000600240006402408C7E0020ED
:103FB00058640240B8600240586002404FF48014D8
:103FC000D6E74FF48014D3E7B14DAC4231D005F5BC
:103FD0008065AC4231D0A5F56875AC422FD005F5AF
:103FE0008065AC422DD0A5F58965AC422BD005F596
:103FF0008065AC422AD0A5F56875AC4229D005F59C
:104000008065AC4228D0A5F58965AC4227D005F57E
:104010008065AC4226D0A5F56875AC4225D005F583
:104020008065AC4202D04FF0806403E04FF480140E
:1040300000E01024974DAC60A9E61024FAE71024A4
:10404000F8E71024F6E74FF48064F3E74FF4806458
:10405000F0E74FF48064EDE74FF48064EAE74FF453
:104060008014E7E74FF48014E4E74FF48014E1E7AD
:104070004FF4002500E00825874CE560874CE46C90
:104080002468874DAC4240F2D281A5F58965AC42E7
:1040900000F0698105F58065AC4200F0AD81A5F5C1
:1040A0006875AC4200F0AA8105F58065AC4200F06D
:1040B000A781A5F58965AC4200F0A48105F580656E
:1040C000AC4200F0A281A5F56875AC4200F0A08179
:1040D00005F58065AC4200F09E81A5F58965AC428E
:1040E00000F09C8105F58065AC4200F09A81A5F551
:1040F0006875AC4200F0988105F58065AC4200F02F
:104100002F814FF080752FE10825B5E70825B3E72B
:104110000825B1E74FF40075AEE74FF40075ABE743
:104120004FF40075A8E74FF40075A5E74FF400259C
:10413000A2E74FF400259FE74FF400259CE7594D77
:10414000AC4253D9A83DAC4231D005F58065AC42B4
:1041500031D0A5F56875AC422FD005F58065AC422D
:104160002DD0A5F58965AC422BD005F58065AC4214
:104170002AD0A5F56875AC4229D005F58065AC421A
:1041800028D0A5F58965AC4227D005F58065AC42FD
:1041900026D0A5F56875AC4225D005F58065AC4202
:1041A00002D04FF0007403E04FF4002400E0082434
:1041B000394DAC6062E70824FAE70824F8E70824E0
:1041C000F6E74FF40074F3E74FF40074F0E74FF4B0
:1041D0000074EDE74FF40074EAE74FF40024E7E7DA
:1041E0004FF40024E4E74FF40024E1E72E4DAC4205
:1041F00062D9483DAC4231D005F58065AC4231D042
:10420000A5F56875AC422FD005F58065AC422DD080
:10421000A5F58965AC422BD005F58065AC422AD066
:10422000A5F56875AC4229D005F58065AC4228D06B
:10423000A5F58965AC4227D005F58065AC4235D03F
:10424000A5F56875AC4234D005F58065AC4202D066
:104250004FF0007403E04FF4002400E008240D4DFB
:10426000EC600BE70824FAE70824F8E70824F6E7EF
:104270004FF40074F3E74FF40074F0E74FF4007468
:10428000EDE74FF40074EAE74FF40024E7E700BFDE
:104290001060024000600240006402408C7E0020FA
:1042A00058640240B8600240586002404FF4002455
:1042B000D5E74FF40024D2E7B14DAC4231D005F53B
:1042C0008065AC4231D0A5F56875AC422FD005F5BC
:1042D0008065AC422DD0A5F58965AC422BD005F5A3
:1042E0008065AC422AD0A5F56875AC4229D005F5A9
:1042F0008065AC4228D0A5F58965AC4227D005F58C
:104300008065AC4226D0A5F56875AC4225D005F590
:104310008065AC4202D04FF0007403E04FF40024FB
:1043200000E00824974DAC60A8E60824FAE70824CA
:10433000F8E70824F6E74FF40074F3E74FF400744D
:10434000F0E74FF40074EDE74FF40074EAE74FF440
:104350000024E7E74FF40024E4E74FF40024E1E70A
:104360004FF4802500E00425874CE560874CE46C21
:104370002468874DAC4240F2CE81A5F58965AC42F8
:1043800000F0698105F58065AC4200F0AD81A5F5CE
:104390006875AC4200F0AA8105F58065AC4200F07A
:1043A000A781A5F58965AC4200F0A48105F580657B
:1043B000AC4200F0A181A5F56875AC4200F09E8189
:1043C00005F58065AC4200F09B81A5F58965AC429E
:1043D00000F0988105F58065AC4200F09681A5F566
:1043E0006875AC4200F0948105F58065AC4200F040
:1043F0002F814FF480052FE10425B5E70425B3E7AD
:104400000425B1E74FF48075AEE74FF48075ABE754
:104410004FF48075A8E74FF48075A5E74FF4802529
:10442000A2E74FF480259FE74FF480259CE7594D84
:10443000AC4253D9A83DAC4231D005F58065AC42C1
:1044400031D0A5F56875AC422FD005F58065AC423A
:104450002DD0A5F58965AC422BD005F58065AC4221
:104460002AD0A5F56875AC4229D005F58065AC4227
:1044700028D0A5F58965AC4227D005F58065AC420A
:1044800026D0A5F56875AC4225D005F58065AC420F
:1044900002D04FF0807403E04FF4802400E0042445
:1044A000394DAC6062E70424FAE70424F8E70424F9
:1044B000F6E74FF48074F3E74FF48074F0E74FF4BD
:1044C0008074EDE74FF48074EAE74FF48024E7E767
:1044D0004FF48024E4E74FF48024E1E72E4DAC4212
:1044E00062D9483DAC4231D005F58065AC4231D04F
:1044F000A5F56875AC422FD005F58065AC422DD08E
:10450000A5F58965AC422BD005F58065AC422AD073
:10451000A5F56875AC4229D005F58065AC4228D078
:10452000A5F58965AC4227D005F58065AC4235D04C
:10453000A5F56875AC4234D005F58065AC4202D073
:104540004FF0807403E04FF4802400E004240D4D0C
:10455000EC600BE70424FAE70424F8E70424F6E708
:104560004FF48074F3E74FF48074F0E74FF48074F5
:10457000EDE74FF48074EAE74FF48024E7E700BFEB
:104580001060024000600240006402408C7E002007
:1045900058640240B8600240586002404FF48024E2
:1045A000D5E74FF48024D2E7AE4DAC4231D005F5CB
:1045B0008065AC4231D0A5F56875AC422FD005F5C9
:1045C0008065AC422DD0A5F58965AC422BD005F5B0
:1045D0008065AC422AD0A5F56875AC4229D005F5B6
:1045E0008065AC4228D0A5F58965AC4227D005F599
:1045F0008065AC4226D0A5F56875AC4225D005F59E
:104600008065AC4202D04FF0807403E04FF4802408
:1046100000E00424944DAC60A8E60424FAE70424E6
:10462000F8E70424F6E74FF48074F3E74FF480745E
:10463000F0E74FF48074EDE74FF48074EAE74FF44D
:104640008024E7E74FF48024E4E74FF48024E1E797
:104650004FF4803500E00125844CE560844CA46C67
:104660002468844DAC4240F2C281A5F58965AC4214
:1046700000F0598105F58065AC4200F09D81A5F5FB
:104680006875AC4200F09A8105F58065AC4200F097
:104690009781A5F58965AC4200F0948105F58065A8
:1046A000AC4200F09281A5F56875AC4200F09081B3
:1046B00005F58065AC4200F08E81A5F58965AC42B8
:1046C00000F08C8105F58065AC4200F08A81A5F58B
:1046D0006875AC4200F0888105F58065AC4200F059
:1046E0001F814FF000651FE10125B5E70125B3E704
:1046F0000125B1E74025AFE74025ADE74025ABE711
:104700004025A9E74FF48035A6E74FF48035A3E7AD
:104710004FF48035A0E7584DAC424FD9A83DAC428C
:1047200031D005F58065AC4231D0A5F56875AC4255
:104730002FD005F58065AC422DD0A5F58965AC423A
:104740002BD005F58065AC4229D0A5F56875AC4243
:1047500027D005F58065AC4225D0A5F58965AC422A
:1047600023D005F58065AC4222D0A5F56875AC4232
:1047700021D005F58065AC4202D04FF4800403E0FF
:104780004FF4803400E00124384DAC6066E701242A
:10479000FAE70124F8E70124F6E74024F4E740248F
:1047A000F2E74024F0E74024EEE74FF48034EBE7F3
:1047B0004FF48034E8E74FF48034E5E72F4DAC4206
:1047C0005ED9483DAC4231D005F58065AC4231D070
:1047D000A5F56875AC422FD005F58065AC422DD0AB
:1047E000A5F58965AC422BD005F58065AC4229D092
:1047F000A5F56875AC4227D005F58065AC4225D09B
:10480000A5F58965AC4223D005F58065AC4222D080
:10481000A5F56875AC4221D005F58065AC4202D0A3
:104820004FF4800403E04FF4803400E001240E4D87
:10483000EC6013E70124FAE70124F8E70124F6E726
:104840004024F4E74024F2E74024F0E74024EEE778
:104850004FF48034EBE74FF48034E8E74FF48034D2
:10486000E5E700BF106002400060024000640240C3
:104870008C7E002058640240B860024058600240BC
:10488000B04DAC4231D005F58065AC4231D0A5F5D4
:104890006875AC422FD005F58065AC422DD0A5F5EA
:1048A0008965AC422BD005F58065AC4229D0A5F5D1
:1048B0006875AC4227D005F58065AC4225D0A5F5DA
:1048C0008965AC4223D005F58065AC4222D0A5F5C0
:1048D0006875AC4221D005F58065AC4202D04FF43A
:1048E000800403E04FF4803400E00124964DAC6076
:1048F000B4E60124FAE70124F8E70124F6E74024AE
:10490000F4E74024F2E74024F0E74024EEE74FF4D8
:104910008034EBE74FF48034E8E74FF48034E5E788
:104920004FF4001500E02025884CE560884CA46C0D
:104930002468884DAC4240F2D181A5F58965AC422E
:1049400000F0688105F58065AC4200F0AC81A5F50A
:104950006875AC4200F0A98105F58065AC4200F0B5
:10496000A681A5F58965AC4200F0A38105F58065B7
:10497000AC4200F0A181A5F56875AC4200F09F81C2
:1049800005F58065AC4200F09D81A5F58965AC42D6
:1049900000F09B8105F58065AC4200F09981A5F59A
:1049A0006875AC4200F0978105F58065AC4200F077
:1049B0002E814FF080652EE12025B5E72025B3E755
:1049C0002025B1E74FF40065AEE74FF40065ABE793
:1049D0004FF40065A8E74FF40065A5E74FF4001514
:1049E000A2E74FF400159FE74FF400159CE75A4DDE
:1049F000AC4253D9A83DAC4231D005F58065AC42FC
:104A000031D0A5F56875AC422FD005F58065AC4274
:104A10002DD0A5F58965AC422BD005F58065AC425B
:104A20002AD0A5F56875AC4229D005F58065AC4261
:104A300028D0A5F58965AC4227D005F58065AC4244
:104A400026D0A5F56875AC4225D005F58065AC4249
:104A500002D04FF0006403E04FF4001400E0202483
:104A60003A4DAC6062E72024FAE72024F8E72024DE
:104A7000F6E74FF40064F3E74FF40064F0E74FF417
:104A80000064EDE74FF40064EAE74FF40014E7E751
:104A90004FF40014E4E74FF40014E1E72F4DAC426B
:104AA00061D9483DAC4231D005F58065AC4231D08A
:104AB000A5F56875AC422FD005F58065AC422DD0C8
:104AC000A5F58965AC422BD005F58065AC422AD0AE
:104AD000A5F56875AC4229D005F58065AC4228D0B3
:104AE000A5F58965AC4227D005F58065AC4226D096
:104AF000A5F56875AC4233D005F58065AC4202D0AF
:104B00004FF0006403E04FF4001400E020240E4D49
:104B1000EC600BE72024FAE72024F8E72024F6E7EE
:104B20004FF40064F3E74FF40064F0E74FF40064DF
:104B3000EDE74FF40064EAE74FF40014E7E74FF4C1
:104B40000014E4E71060024000600240006402408C
:104B50008C7E002058640240B860024058600240D9
:104B60004FF40014D3E7B14DAC4231D005F5806568
:104B7000AC4231D0A5F56875AC422FD005F5806503
:104B8000AC422DD0A5F58965AC422BD005F58065EA
:104B9000AC422AD0A5F56875AC4229D005F58065F0
:104BA000AC4228D0A5F58965AC4227D005F58065D3
:104BB000AC4226D0A5F56875AC4225D005F58065D8
:104BC000AC4202D04FF0006403E04FF4001400E068
:104BD0002024974DAC60A9E62024FAE72024F8E7CA
:104BE0002024F6E74FF40064F3E74FF40064F0E7A5
:104BF0004FF40064EDE74FF40064EAE74FF400146B
:104C0000E7E74FF40014E4E74FF40014E1E74FF452
:104C1000801500E01025874CE560874CA46C246863
:104C2000864DAC4240F2D181A5F58965AC4200F0D9
:104C3000688105F58065AC4200F0AC81A5F568752A
:104C4000AC4200F0A98105F58065AC4200F0A68178
:104C5000A5F58965AC4200F0A38105F58065AC42FD
:104C600000F0A181A5F56875AC4200F09F8105F5C3
:104C70008065AC4200F09D81A5F58965AC4200F0ED
:104C80009B8105F58065AC4200F09981A5F56875BA
:104C9000AC4200F0978105F58065AC4200F02E81B2
:104CA0004FF000752EE11025B5E71025B3E710256C
:104CB000B1E74FF48065AEE74FF48065ABE74FF4A2
:104CC0008065A8E74FF48065A5E74FF48015A2E75B
:104CD0004FF480159FE74FF480159CE7584DAC4288
:104CE00053D9A83DAC4231D005F58065AC4231D0F6
:104CF000A5F56875AC422FD005F58065AC422DD086
:104D0000A5F58965AC422BD005F58065AC422AD06B
:104D1000A5F56875AC4229D005F58065AC4228D070
:104D2000A5F58965AC4227D005F58065AC4226D053
:104D3000A5F56875AC4225D005F58065AC4202D07A
:104D40004FF0806403E04FF4801400E01024394DEC
:104D5000AC6062E71024FAE71024F8E71024F6E7C5
:104D60004FF48064F3E74FF48064F0E74FF480641D
:104D7000EDE74FF48064EAE74FF48014E7E74FF47F
:104D80008014E4E74FF48014E1E72E4DAC4261D982
:104D9000483DAC4231D005F58065AC4231D0A5F537
:104DA0006875AC422FD005F58065AC422DD0A5F5D5
:104DB0008965AC422BD005F58065AC422AD0A5F5BB
:104DC0006875AC4229D005F58065AC4228D0A5F5C0
:104DD0008965AC4227D005F58065AC4234D0A5F595
:104DE0006875AC4233D005F58065AC4202D04FF017
:104DF000806403E04FF4801400E010240C4DEC605C
:104E00000BE71024FAE71024F8E71024F6E74FF434
:104E10008064F3E74FF48064F0E74FF48064EDE7DB
:104E20004FF48064EAE74FF48014E7E71060024033
:104E300000600240006402408C7E00205864024002
:104E4000B8600240586002404FF48014D6E74FF437
:104E50008014D3E7B14DAC4231D005F58065AC424A
:104E600031D0A5F56875AC422FD005F58065AC4210
:104E70002DD0A5F58965AC422BD005F58065AC42F7
:104E80002AD0A5F56875AC4229D005F58065AC42FD
:104E900028D0A5F58965AC4227D005F58065AC42E0
:104EA00026D0A5F56875AC4225D005F58065AC42E5
:104EB00002D04FF0806403E04FF4801400E010242F
:104EC000974DAC60A9E61024FAE71024F8E7102407
:104ED000F6E74FF48064F3E74FF48064F0E74FF4B3
:104EE0008064EDE74FF48064EAE74FF48014E7E76D
:104EF0004FF48014E4E74FF48014E1E74FF4002509
:104F000000E00825874CE560874CA46C2468874D39
:104F1000AC4240F2D281A5F58965AC4200F06981CE
:104F200005F58065AC4200F0AD81A5F56875AC4231
:104F300000F0AA8105F58065AC4200F0A781A5F5D7
:104F40008965AC4200F0A48105F58065AC4200F0B3
:104F5000A281A5F56875AC4200F0A08105F58065D9
:104F6000AC4200F09E81A5F58965AC4200F09C81C1
:104F700005F58065AC4200F09A81A5F56875AC42F4
:104F800000F0988105F58065AC4200F02F814FF06C
:104F900080752FE10825B5E70825B3E70825B1E7B7
:104FA0004FF40075AEE74FF40075ABE74FF40075B2
:104FB000A8E74FF40075A5E74FF40025A2E74FF4EA
:104FC00000259FE74FF400259CE7594DAC4253D98B
:104FD000A83DAC4231D005F58065AC4231D0A5F595
:104FE0006875AC422FD005F58065AC422DD0A5F593
:104FF0008965AC422BD005F58065AC422AD0A5F579
:105000006875AC4229D005F58065AC4228D0A5F57D
:105010008965AC4227D005F58065AC4226D0A5F560
:105020006875AC4225D005F58065AC4202D04FF0E2
:10503000007403E04FF4002400E00824394DAC6014
:1050400062E70824FAE70824F8E70824F6E74FF4B3
:105050000074F3E74FF40074F0E74FF40074EDE7E9
:105060004FF40074EAE74FF40024E7E74FF400241C
:10507000E4E74FF40024E1E72E4DAC4262D9483D0D
:10508000AC4231D005F58065AC4231D0A5F56875EC
:10509000AC422FD005F58065AC422DD0A5F58965D1
:1050A000AC422BD005F58065AC422AD0A5F56875D9
:1050B000AC4229D005F58065AC4228D0A5F58965BC
:1050C000AC4227D005F58065AC4235D0A5F56875B2
:1050D000AC4234D005F58065AC4202D04FF000748C
:1050E00003E04FF4002400E008240D4DEC600BE7D2
:1050F0000824FAE70824F8E70824F6E74FF40074D8
:10510000F3E74FF40074F0E74FF40074EDE74FF469
:105110000074EAE74FF40024E7E700BF10600240A4
:1051200000600240006402408C7E0020586402400F
:10513000B8600240586002404FF40024D5E74FF4B5
:105140000024D2E7B14DAC4231D005F58065AC42C8
:1051500031D0A5F56875AC422FD005F58065AC421D
:105160002DD0A5F58965AC422BD005F58065AC4204
:105170002AD0A5F56875AC4229D005F58065AC420A
:1051800028D0A5F58965AC4227D005F58065AC42ED
:1051900026D0A5F56875AC4225D005F58065AC42F2
:1051A00002D04FF0007403E04FF4002400E0082424
:1051B000974DAC60A8E60824FAE70824F8E708242D
:1051C000F6E74FF40074F3E74FF40074F0E74FF4A0
:1051D0000074EDE74FF40074EAE74FF40024E7E7CA
:1051E0004FF40024E4E74FF40024E1E74FF4802576
:1051F00000E00425874CE560874CA46C2468874D4B
:10520000AC4240F29A81A5F58965AC4200F0698113
:1052100005F58065AC4200F07981A5F56875AC4272
:1052200000F0768105F58065AC4200F07381A5F54C
:105230008965AC4200F0708105F58065AC4200F0F4
:105240006D81A5F56875AC4200F06A8105F5806551
:10525000AC4200F06781A5F58965AC4200F064813D
:1052600005F58065AC4200F06281A5F56875AC4239
:1052700000F0608105F58065AC4200F02F814FF4AD
:1052800080052FE10425B5E70425B3E70425B1E740
:105290004FF48075AEE74FF48075ABE74FF480753F
:1052A000A8E74FF48075A5E74FF48025A2E74FF4F7
:1052B00080259FE74FF480259CE7594DAC4253D998
:1052C000A83DAC4231D005F58065AC4231D0A5F5A2
:1052D0006875AC422FD005F58065AC422DD0A5F5A0
:1052E0008965AC422BD005F58065AC422AD0A5F586
:1052F0006875AC4229D005F58065AC4228D0A5F58B
:105300008965AC4227D005F58065AC4226D0A5F56D
:105310006875AC4225D005F58065AC4202D04FF0EF
:10532000807403E04FF4802400E00424394DAC6025
:1053300062E70424FAE70424F8E70424F6E74FF4CC
:105340008074F3E74FF48074F0E74FF48074EDE776
:105350004FF48074EAE74FF48024E7E74FF48024A9
:10536000E4E74FF48024E1E72E4DAC4262D9483D9A
:10537000AC4231D005F58065AC4231D0A5F56875F9
:10538000AC422FD005F58065AC422DD0A5F58965DE
:10539000AC422BD005F58065AC422AD0A5F56875E6
:1053A000AC4229D005F58065AC4228D0A5F58965C9
:1053B000AC4227D005F58065AC4235D0A5F56875BF
:1053C000AC4234D005F58065AC4202D04FF0807419
:1053D00003E04FF4802400E004240D4DEC600BE763
:1053E0000424FAE70424F8E70424F6E74FF4807471
:1053F000F3E74FF48074F0E74FF48074EDE74FF477
:105400008074EAE74FF48024E7E700BF10600240B1
:1054100000600240006402408C7E0020586402401C
:10542000B8600240586002404FF48024D5E74FF442
:105430008024D2E7944DAC4231D005F58065AC4272
:1054400031D0A5F56875AC422FD005F58065AC422A
:105450002DD0A5F58965AC422BD005F58065AC4211
:105460002AD0A5F56875AC4229D005F58065AC4217
:1054700028D0A5F58965AC4227D005F58065AC42FA
:1054800026D0A5F56875AC4225D005F58065AC42FF
:1054900002D04FF0807403E04FF4802400E0042435
:1054A0007A4DAC60A8E60424FAE70424F8E7042463
:1054B000F6E74FF48074F3E74FF48074F0E74FF4AD
:1054C0008074EDE74FF48074EAE74FF48024E7E757
:1054D0004FF48024E4E74FF48024E1E74FF4803573
:1054E00000E001256A4CE5606A4C2468E160D86000
:1054F00062605A60236843F001032360664B1A68B8
:10550000136843F00103136030BC70470125E9E7DD
:105510000125E7E70125E5E74025E3E74025E1E749
:105520004025DFE74025DDE74FF48035DAE74FF42B
:105530008035D7E74FF48035D4E7584DAC424FD98A
:10554000A83DAC4231D005F58065AC4231D0A5F51F
:105550006875AC422FD005F58065AC422DD0A5F51D
:105560008965AC422BD005F58065AC4229D0A5F504
:105570006875AC4227D005F58065AC4225D0A5F50D
:105580008965AC4223D005F58065AC4222D0A5F5F3
:105590006875AC4221D005F58065AC4202D04FF46D
:1055A000800403E04FF4803400E00124384DAC6007
:1055B0009AE70124FAE70124F8E70124F6E74024FA
:1055C000F4E74024F2E74024F0E74024EEE74FF40C
:1055D0008034EBE74FF48034E8E74FF48034E5E7BC
:1055E0002F4DAC425ED9483DAC4231D005F58065C7
:1055F000AC4231D0A5F56875AC422FD005F5806579
:10560000AC422DD0A5F58965AC422BD005F580655F
:10561000AC4229D0A5F56875AC4227D005F5806568
:10562000AC4225D0A5F58965AC4223D005F580654F
:10563000AC4222D0A5F56875AC4221D005F5806555
:10564000AC4202D04FF4800403E04FF4803400E019
:1056500001240E4DEC6047E70124FAE70124F8E746
:105660000124F6E74024F4E74024F2E74024F0E781
:105670004024EEE74FF48034EBE74FF48034E8E762
:105680004FF48034E5E700BF106002400060024044
:1056900000640240CC7D00202C7E0020B8600240D7
:1056A00058600240274DAC4231D005F58065AC42D0
:1056B00031D0A5F56875AC422FD005F58065AC42B8
:1056C0002DD0A5F58965AC422BD005F58065AC429F
:1056D00029D0A5F56875AC4227D005F58065AC42A8
:1056E00025D0A5F58965AC4223D005F58065AC428F
:1056F00022D0A5F56875AC4221D005F58065AC4295
:1057000002D04FF4800403E04FF4803400E0012421
:105710000D4DAC60E8E60124FAE70124F8E7012426
:10572000F6E74024F4E74024F2E74024F0E7402481
:10573000EEE74FF48034EBE74FF48034E8E74FF4C2
:105740008034E5E7106002400060024010B5044676
:105750000E4803F004FE0E4803F001FE601E03280D
:1057600013D8DFE800F002060A0E0021074803F014
:10577000D1FF0421054803F0CDFF0821034803F0C1
:10578000C9FF0C21014803F0C5FF10BD3C7F00207C
:105790007C7F0020012800D07047014BD962FBE7D5
:1057A00000000140013803280BD8DFE800F00204B4
:1057B0000608044B5963034B9963024BD963014BB1
:1057C000196470470000014010B591F800E04B7873
:1057D0004EEA032ECEF30A0EA0F800E0AEF5806E7E
:1057E0001FFA8EFEA0F800E091F801C08B784FEA16
:1057F000DC0C4CEA431CCCF30A0CA0F802C0ACF55C
:10580000806C1FFA8CFCA0F802C08B78CA789B09C8
:1058100043EA82030A7943EA8223C3F30A038380BB
:10582000A3F580639BB283800A794C79520842EADF
:10583000C412C2F30A02C280A2F5806292B2C28090
:105840000EF1050E1FFA8EFEBEF10A0F01D80024DC
:1058500004800CF1050C1FFA8CFCBCF10A0F01D876
:105860000024448005339BB20A2B01D80023838097
:10587000053292B20A2A01D80023C3804B799B09D2
:1058800003724B79C3F301134372B0F90030002B5C
:10589000B8BF5B429BB2B3F5257F2ED8B0F902307A
:1058A000002BB8BF5B429BB2B3F5257F25D8B0F97A
:1058B0000430002BB8BF5B429BB2B3F5257F1CD8E8
:1058C000B0F90630002BB8BF5B429BB2B3F5257F21
:1058D00013D88B79CA7943EA022343810B7A4A7A37
:1058E00043EA022383810B7B83734B7BC3738B7BE4
:1058F000CA7B43EA0223038205E00023036043607E
:105900008360C360036110BD00B583B0374B1B6873
:105910001A6812F0200F09D0002200921A68009233
:105920005B680093009B03B05DF804FB304A12688B
:1059300012F0100FF7D0002201921A6801925B68F2
:105940000193019B2B4B1B681A6812F4002F23D183
:105950001A6822F001021A60264802685368C3F1EF
:1059600024039BB224490B8024215160116841F427
:105970000021116001680A6842F001020A60122BDE
:10598000D1D11E491E48FFF71FFF01224FF40061CD
:105990001C4802F06BF8C6E71A6822F001021A6090
:1059A000144908684368C3F12403134A138024236D
:1059B00043601548836A23F40023836209680B68F7
:1059C00043F001030B601388122B03D00520FBF773
:1059D0004BFCA8E70D490A48FFF7F6FE01224FF4F9
:1059E0008051084802F042F8F0E700BF7C820020B6
:1059F000004800401C810020C011002078110020C8
:105A000064110020001C0240006002409C11002034
:105A1000F0B583B007460D461D4E40F2311333609A
:105A20000023B360F3600822326133750B78194CA0
:105A300023704B7863708B78A370CB78E3700B790D
:105A400023714B7963718B79A371CB79E37101ABCE
:105A50002246314601F060F94FF4997333602B7A96
:105A600023706B7A6370AB7AA370EB7AE3702B7B55
:105A700023716B7B6371AB7BA371EB7BE37101AB38
:105A800022463146384601F047F903B0F0BD00BF69
:105A9000381100203011002010B4164B1B685C69CF
:105AA00044F040045C61DC6844F01004DC60124B9C
:105AB0001C68236823F00103236003E01C6824F0C2
:105AC00001041C600C4B1B681C6814F0010FF5D11D
:105AD0000A4C9C60D86019615A601A6842F48022AE
:105AE0001A60054B1A68136843F0010313605DF8F0
:105AF000044B70477C8200201C8100200448004039
:105B000008B5034824228118FFF7C6FF08BD00BF6F
