:020000040800F2
:1000000000000220E1BD00085DA000085FA000081C
:1000100061A0000863A0000865A0000800000000BF
:10002000000000000000000000000000B1760008A1
:1000300067A00008000000005177000869A00008D0
:1000400031BE000831BE000831BE000831BE0008D4
:1000500031BE000831BE00087FA0000831BE000894
:1000600031BE000889A0000893A0000831BE000836
:1000700031BE000831BE000831BE000831BE0008A4
:1000800031BE000831BE000831BE000831BE000894
:100090009DA0000831BE000831BE0008ADA00008D8
:1000A00031BE000831BE000831BE000831BE000874
:1000B00031BE000831BE000831BE000831BE000864
:1000C00031BE000831BE000831BE000831BE000854
:1000D00031BE000831BE000831BE00085149000899
:1000E00031BE000831BE000831BE000831BE000834
:1000F00031BE000831BE000831BE000831BE000824
:1001000031BE000831BE000831BE000831BE000813
:1001100031BE000831BE000831BE000831BE000803
:1001200031BE0008B9A000089916000831BE0008C9
:1001300031BE000831BE000831BE000831BE0008E3
:10014000C9A0000831BE000831BE000831BE000859
:1001500031BE0008D9A00008E9A0000831BE00089F
:1001600031BE000831BE000831BE000831BE0008B3
:1001700031BE000831BE000831BE0008000000009A
:0801800031BE000831BE000889
:1001900010B5054C237833B9044B13B10448AFF3C1
:1001A00000800123237010BDA40400200000000083
:1001B00000C0000808B5034B1BB103490348AFF367
:1001C000008008BD00000000A804002000C0000856
:1001D00053B94AB9002908BF00281CBF4FF0FF31AE
:1001E0004FF0FF3000F074B9ADF1080C6DE904CEAA
:1001F00000F006F8DDF804E0DDE9022304B0704702
:100200002DE9F047089D04468E46002B4DD18A42C9
:10021000944669D9B2FA82F252B101FA02F3C2F1FC
:10022000200120FA01F10CFA02FC41EA030E94408D
:100230004FEA1C48210CBEFBF8F61FFA8CF708FBAE
:1002400016E341EA034306FB07F199420AD91CEB86
:10025000030306F1FF3080F01F81994240F21C81B8
:10026000023E63445B1AA4B2B3FBF8F008FB103300
:1002700044EA034400FB07F7A7420AD91CEB040435
:1002800000F1FF3380F00A81A74240F20781644405
:10029000023840EA0640E41B00261DB1D44000238A
:1002A000C5E900433146BDE8F0878B4209D9002DEE
:1002B00000F0EF800026C5E9000130463146BDE878
:1002C000F087B3FA83F6002E4AD18B4202D38242E2
:1002D00000F2F980841A61EB030301209E46002D91
:1002E000E0D0C5E9004EDDE702B9FFDEB2FA82F2E6
:1002F000002A40F09280A1EB0C014FEA1C471FFA44
:100300008CFE0126200CB1FBF7F307FB131140EA2A
:1003100001410EFB03F0884208D91CEB010103F1F7
:10032000FF3802D2884200F2CB804346091AA4B2B9
:10033000B1FBF7F007FB101144EA01440EFB00FE8D
:10034000A64508D91CEB040400F1FF3102D2A645F2
:1003500000F2BB800846A4EB0E0440EA03409CE791
:10036000C6F12007B34022FA07FC4CEA030C20FA3E
:1003700007F401FA06F31C43F9404FEA1C4900FA5E
:1003800006F3B1FBF9F8200C1FFA8CFE09FB1811DB
:1003900040EA014108FB0EF0884202FA06F20BD94E
:1003A0001CEB010108F1FF3A80F08880884240F29E
:1003B0008580A8F102086144091AA4B2B1FBF9F0E2
:1003C00009FB101144EA014100FB0EFE8E4508D9DD
:1003D0001CEB010100F1FF346CD28E456AD9023862
:1003E000614440EA0840A0FB0294A1EB0E01A14247
:1003F000C846A64656D353D05DB1B3EB080261EBB5
:100400000E0101FA07F722FA06F3F1401F43C5E98E
:10041000007100263146BDE8F087C2F12003D840C4
:100420000CFA02FC21FA03F3914001434FEA1C4706
:100430001FFA8CFEB3FBF7F007FB10360B0C43EAF8
:10044000064300FB0EF69E4204FA02F408D91CEBA8
:10045000030300F1FF382FD29E422DD902386344A6
:100460009B1B89B2B3FBF7F607FB163341EA034146
:1004700006FB0EF38B4208D91CEB010106F1FF3895
:1004800016D28B4214D9023E6144C91A46EA00468C
:1004900038E72E46284605E70646E3E61846F8E61E
:1004A0004B45A9D2B9EB020864EB0C0E0138A3E767
:1004B0004646EAE7204694E74046D1E7D0467BE748
:1004C000023B614432E7304609E76444023842E7C0
:1004D000704700BF844641EA000313F003036DD167
:1004E000403A41D351F8043B40F8043B51F8043BF7
:1004F00040F8043B51F8043B40F8043B51F8043BFE
:1005000040F8043B51F8043B40F8043B51F8043BED
:1005100040F8043B51F8043B40F8043B51F8043BDD
:1005200040F8043B51F8043B40F8043B51F8043BCD
:1005300040F8043B51F8043B40F8043B51F8043BBD
:1005400040F8043B51F8043B40F8043B51F8043BAD
:1005500040F8043B51F8043B40F8043B51F8043B9D
:1005600040F8043B403ABDD2303211D351F8043B3D
:1005700040F8043B51F8043B40F8043B51F8043B7D
:1005800040F8043B51F8043B40F8043B103AEDD2EC
:100590000C3205D351F8043B40F8043B043AF9D23D
:1005A000043208D0D2071CBF11F8013B00F8013B10
:1005B00001D30B8803806046704700BF082A13D31D
:1005C0008B078DD010F003038AD0C3F10403D21A35
:1005D000DB071CBF11F8013B00F8013B80D331F869
:1005E000023B20F8023B7BE7043AD9D3013A11F8E9
:1005F000013B00F8013BF9D20B7803704B78437054
:100600008B78837060467047724B00221A6093F8B3
:10061000351062F3000183F8351093F835100A2085
:1006200060F3870183F8351093F83810642183F85C
:10063000381093F8391083F8392093F8361083F87E
:10064000362093F8371083F8372093F8311083F869
:10065000312093F8321083F8322093F8331083F866
:10066000332093F8341083F8342093F8351041F098
:10067000020183F8351093F8471062F3000183F804
:10068000471093F8471060F3870183F84710996C7F
:10069000C0F2C8019964996C62F30F01996493F8F0
:1006A000431083F8432093F8441083F8442093F8D0
:1006B000451083F8452093F8461083F8462093F8B8
:1006C000471041F0020183F84710D98F62F300010F
:1006D000D987D98F092060F38701D987B3F84010F3
:1006E000C9B241F44841A3F8401093F8421083F88E
:1006F0004220D98FC9B2D987B3F8401021F0FF0149
:10070000A3F84010598F5A87998F9A87D88F40F055
:100710000201D987B3F8621062F30001A3F86210F6
:10072000B3F86210082060F38701A3F86210B3F8F1
:100730006410C9B241F44841A3F8641093F86610FC
:1007400083F86620B3F86210C9B2A3F86210B3F858
:10075000641021F0FF01A3F86410B3F85E10A3F851
:100760005E20B3F86010A3F86020B3F8620040F098
:100770000201A3F8621029E0501C00EBC0031549E8
:100780000B44197A6FF3000119720232197A62F37D
:1007900087011972DA7A00226FF03701D972197B5A
:1007A0001A73597A5A72997A9A7293F804C01A7124
:1007B00093F805C05A7193F806C09A7193F807C070
:1007C000DA711A7A42F002021A720246052AD3DD61
:1007D000704700BFC004002000EBC002084B134468
:1007E0001B7A13F0020F00D1704710B5044604F0D5
:1007F0001DFA04EBC404024B1C44606010BD00BF32
:10080000C004002038B5FFF7FFFE642006F0A7FE05
:1008100040E004EBC402214B13441A7A6FF3000248
:100820001A7201340A2C2FDC04F000FA04EBC40223
:100830001A4B13445A68801A80B2A3F809001B7A35
:1008400013F0020FE5D004EBC402144B1344B3F8C9
:100850000920B3F80B309A42DBD904EBC4020F4BEA
:1008600013441A7A42F001021A721B7AB5EB930F05
:10087000D7DA0A4A04EBC40313441D7AAD080433E3
:10088000136082F86740CCE7044B00221A603220E4
:1008900006F065FE00242546C4E700BFC004002022
:1008A000B1F5805F0BDBA1F6FF73834202DC401AD7
:1008B00000B27047401A00F5005000B2704701F5D1
:1008C0008053984204DD401AA0F5005000B27047F2
:1008D000401A00B270470000214BB3F90030002BE2
:1008E000B8BF5B429BB2092B2ED81D4BB3F9023027
:1008F000002BB8BF5B429BB2092B27D8184BB3F92A
:100900000430002BB8BF5B429BB2092B20D8144B9C
:10091000B3F90630002BB8BF5B429BB2092B19D844
:100920000F4BB3F90A30002BB8BF5B429BB2042BCC
:1009300012D80B4BB3F90C30002BB8BF5B429BB203
:10094000042B0BD90120704701207047012070470C
:100950000120704701207047012070470020704738
:10096000BC10002038B52DED088B40F6B83006F0ED
:10097000F6FD9FED539A9FED53BADFED53AA9FED1D
:10098000538A534D55220021DFED524AB0EE494AB9
:10099000F0EE4B3AB0EE6A3ADFED4F2AB0EE002AA5
:1009A000F3EE001AB0EE481ADFED4C0A9FED4C0A48
:1009B00028460AF01AFB4B4C4B4B236084ED018A0E
:1009C00084ED028A04231A46DFED480A21469FED92
:1009D000480A05F5F2700AF082FC9FED46AADFEDA9
:1009E000469A47220021F0EE4A4A9FED444AF0EE33
:1009F000003AB1EE043AF0EE0C2A9FED412ADFED09
:100A0000411AB0EE481ADFED400AB0EE690A05F16E
:100A1000AA000AF0EAFA84ED008A4FF07E53636080
:100A200084ED028ADFED398A03231A46DFED380AA6
:100A30002146B0EE680A05F51D700AF050FC354BF2
:100A400045F8AE3C344C05220021F0EE494AB0EEA8
:100A5000494AF0EE4B3AB0EE6A3AF0EE4A2AB3EE6B
:100A6000042ADFED2E1AB0EE481AF0EE690A9FED67
:100A70002C0A20460AF0B9FA05220021F0EE484A75
:100A8000B0EE484AF0EE003AB1EE043ADFED252A26
:100A9000B6EE002AF3EE0E1AB0EE481AF0EE680A2F
:100AA000B0EE680A04F1AA000AF09FFA194B44F864
:100AB000AE3C1D4B01221A70BDEC088B38BD00BF47
:100AC000BD37863500409C4500007A440000000098
:100AD000480700200AD7A33D8FC2753C0000FA44A6
:100AE00000007A46280500200000C8410AD7A33B31
:100AF0000060EA460AD7233C00803B45CDCCCC3D84
:100B0000000034430000B442000016440000A0433B
:100B1000ACC5273700F0D246D00B0020000096432A
:100B20000000FA456F12833A3805002008B50C4BD7
:100B30005B7B552B09D00AF037F801F00FFD01F06F
:100B4000FDFD0A2006F00BFDF5E7054BB3F90A2081
:100B50000260B3F908300B60024B01221A7008BD25
:100B6000548200203405002008B52DED028B194871
:100B700001F036FF184BB3F90010184BB3F914000D
:100B8000FFF78EFE07EE900AF8EEE77A9FED148AE3
:100B900087EE887A134B83ED007A134BB3F900107C
:100BA000124BB3F91400FFF77BFE07EE900AF8EE44
:100BB000E77A87EE887A0E4B83ED007AFFF78CFE9A
:100BC0000C4B98701A785A700AF05CFDBDEC028BE1
:100BD00008BD00BF58050020A8050020F40A002029
:100BE0000000B641B0050020900500206C060020F2
:100BF000980500203805002008B5084B00221A701F
:100C0000074B1A68074B9A60C82107480AF06EFF25
:100C1000C82106480AF06AFF08BD00BF4C05002045
:100C2000B00500203805002050000020640000209E
:100C300010B5364B5B7A012B07D0032B52D0344BC7
:100C400001221A7009F0B0FF10BD314B9B783BBBFD
:100C50002F4B1B78022B0DD02E4B1B78052B31D040
:100C60002B4B5B78012BEFD1294B00221A70FFF739
:100C7000C3FFE9E7284BD3ED007AF0EEE77A274B84
:100C800093ED007AF4EEC77AF1EE10FAE4D8204C36
:100C9000032323700123E37003F0C8FF6060DBE7E8
:100CA0001B4B1B78033BDBB2012BD5D8184B022220
:100CB0001A700022DA701A4A00211160194A126A69
:100CC000DA60C9E7124B1B78032BC9D1104B022203
:100CD0001A700022DA70124A00211160114A126A59
:100CE000DA60BDE70A4B9B781BB9094B04221A70E6
:100CF000AAE7074B02221A700022DA70084A002184
:100D00001160084A126ADA609EE700BFBC1000203A
:100D10003805002064060020B005002020000020D7
:100D2000A40500205805002010B52F4C22682F4B39
:100D30001A602F4B1A682F4B1A602F480AF0DAFE00
:100D4000F7EE007A77EEC07A94ED000A67EE807ACB
:100D50002A4BC3ED007A2A4B1B78012B17D0022BAC
:100D600034D003B110BD274B9A68274B1A601F4B34
:100D7000D3ED007AF0EEE77AB0EE007AF4EEC77ABF
:100D8000F1EE10FAEED81E4B01221A70EAE71F4866
:100D90000AF0B0FEF7EE007A77EEC07A144B93EDCE
:100DA000000A67EE807A184BC3ED007A114BD3ED41
:100DB000007AF0EEE77AB0EE007AF4EEC77AF1EE60
:100DC00010FACFD80E4B02221A70CBE70D4B02223D
:100DD0001A700F4A116AD960D2691A610023074A52
:100DE0001360094A1360BDE79805002088050020BC
:100DF000B0050020A0050020500000208C05002038
:100E00004C05002038050020A405002064000020C7
:100E10005805002010B52DED028B9FED1C4A9FED6B
:100E20001C8A1C4C05220021F0EE444ADFED1A3AE0
:100E30009FED1A3ADFED1A2AB3EE042ADFED191AF4
:100E4000B0EE481ADFED180A9FED180A20460AF0A6
:100E5000CCF89FED170A05220021F0EE484AB0EECB
:100E6000484AF0EE003AB1EE043ADFED122AB6EE4F
:100E7000002AF3EE0E1AB0EE481AF0EE400A04F122
:100E8000AA000AF0B2F8BDEC028B10BDBD37863562
:100E900000000000D00B002000409C4500007A4478
:100EA0000AD7233C0000964300803B450000FA45EA
:100EB0000000A0436F12833A10B52DED028B9FED19
:100EC0001C4A9FED1C8A1C4C05220021F0EE444A6E
:100ED000DFED1A3A9FED1A3ADFED1A2AB0EE002A3A
:100EE000DFED191AB0EE481ADFED180A9FED180A67
:100EF00020460AF07AF805220021F0EE484AB0EECA
:100F0000484AF0EE003AB1EE043ADFED122A9FEDC6
:100F1000122AF3EE0E1AB0EE481ADFED100A9FED1A
:100F2000100A04F1AA000AF060F8BDEC028B10BDB3
:100F3000BD37863500000000D00B002000409C45E6
:100F400000007A44CDCC4C3E0000C84200803B45B6
:100F50000000FA45CDCC4C3D0000964300004842CD
:100F600000007A45114AB2F904305B4207EE903A2C
:100F7000F8EEE77A9FED0E7A67EE877AB6EE007AA2
:100F800027EE877AB2F90A3007EE903AF8EEE77A60
:100F9000DFED086A67EEA67A77EE677A064B93ED87
:100FA000007A77EE277AC3ED007A7047BC100020F4
:100FB0006F12033B0AD7A33CA4050020134BB3F9DF
:100FC000062007EE902AF8EEE77A9FED117A67EE99
:100FD000877AB6EE007A67EE877AB3F90C3007EEBF
:100FE000103AB8EEC77ADFED0B6A27EE267ADFED0E
:100FF0000A6A27EE267A77EEC77A084B93ED007AD5
:1010000077EE277AC3ED007A704700BFBC1000204E
:101010006F12033B0AD7A33CCDCC4C3F8C0500207C
:1010200008B5204B1A68204B1A60204BD3ED087A84
:101030001F4B93ED037A77EEC77A1E4BC3ED007A10
:101040001D4B1B78042B00D108BDFFF78BFFFFF76A
:10105000B5FF144BD3ED007A9FED187AF4EEC77A02
:10106000F1EE10FAF0DB9FED167AF4EEC77AF1EEAE
:1010700010FAE9D8134BD3ED007A9FED107AF4EE15
:10108000C77AF1EE10FA02D883ED007ADCE79FED23
:101090000C7AF4EEC77AF1EE10FAD5DB094B83ED4A
:1010A000007AD1E798050020880500205805002027
:1010B00038050020A0050020640600200000FCC1C7
:1010C000000000428C05002008B5174BDB78012B8F
:1010D00004D0154BDB78022B16D008BD03F0A6FD1B
:1010E000114B5B68C01A40F2DB53984209D90E4B92
:1010F0000222DA700D4A002111600D4A126ADA608C
:10110000E7E7FFF78DFFE4E70A4B1A680A4B1A601E
:10111000074BD3ED087A044B93ED037A77EEC77A49
:10112000064BC3ED007AD8E738050020A40500205F
:10113000580500209805002088050020A005002003
:1011400008B5214B93ED001A204BD3ED050A204B37
:1011500093ED000A1F480AF0BFFBBDEEC00A1E4B0C
:1011600010EE102A1A801D4BD3ED007A9FED1C7AE9
:10117000F4EEC77AF1EE10FA1AD883ED007A174B25
:1011800093ED001A114BD3ED040A164B93ED000AB0
:1011900015480AF0A1FBBDEEC00A10EE103A19B2D4
:1011A000124B19800C4BB3F9000001F0A1FA08BDF5
:1011B0009FED0F7AF4EEC77AF1EE10FADFDB074B02
:1011C00083ED007ADBE700BFA4050020580500206E
:1011D000A0050020F40A0020AC0500208C050020AA
:1011E0000000FCC1880500206C060020940500204A
:1011F0000000004210B5304BD3ED017A9FED2F7AFD
:1012000067EE877A2E4A92ED007ADFED2E6A27EE9E
:10121000267A77EE877A2C4CC4ED007A9A682B4BAD
:101220001A60FFF79FFED4ED007A9FED297AF4EE65
:10123000C77AF1EE10FA10DB9FED267AF4EEC77A4A
:10124000F1EE10FA09D8214BD3ED007AF4EEC77A0B
:10125000F1EE10FA24D883ED007A1C4BD3ED007A1E
:101260009FED1D7AF4EEC77AF1EE10FA08DB9FEDE0
:101270001B7AF4EEC77AF1EE10FA01D883ED007A0A
:101280000D4B59680E4A11609A68154B1A60154B40
:101290001A68154B1A60154B1A68154B1A6010BD69
:1012A0009FED0B7AF4EEC77AF1EE10FAD5DB074B1F
:1012B00083ED007AD1E700BFA81000203333333F1D
:1012C0007C0500209A99993E8C050020A4050020F9
:1012D000000000420000FCC100002A4300002AC3B5
:1012E000800500209805002088050020B00500201A
:1012F000A005002000B583B0FFF734FB00234C4A63
:1013000013704C4A13704C494C48FFF70FFC4C4B80
:101310004BF6BB321A8001221A7306F0E1F80190F5
:1013200059E0474B00221A7370E0FFF7FDFC454B74
:101330001B78012B35D0444B93F8353013F0010F57
:101340002FD1414B93F83E3013F0010F29D13E4B82
:1013500093F8473013F0010F23D1FFF7F1FE28E097
:10136000FFF7B2FEE3E7394B1B7813B1FFF758FEE6
:10137000DDE7FFF74FFD354B01221A70344B002299
:101380001A70F3E7324B1B7813B1FFF733FFCEE748
:10139000FFF792FD2E4B01221A702C4B00221A707F
:1013A000F3E7284B01221A702A4B00221A6201F03F
:1013B000C5F92349284B1B684B60284B1B688B6081
:1013C000204B1B780B761C22062003F0C3FB052163
:1013D00001A806F0CBF803F029FC214C2368C01AC1
:1013E000204B186003F022FC2060FFF7BDFBFFF7E5
:1013F0001FFC1D4B5B7C13F0040F07D01A4B1B7CAA
:1014000013F0100F8DD00E4B01221A730D4B1B7869
:10141000042B8CD801A252F823F000BF2B13000834
:101420002F130008671300086113000885130008D4
:10143000340500209C050020A80500209005002010
:101440000400002038050020C0040020840500208E
:10145000000000200083002098050020B005002037
:101460005005002054050020BC10002008B54A4B50
:101470001B7813F0010F17D0484B9B6C1B681B683F
:1014800013F0010F10D1454BDB6C1B681B6813F088
:10149000010F09D1424B1B7813F0020F04D1414BCD
:1014A0001B7813F0020F3AD03D4B1B7813F0010F5D
:1014B00017D03A4B9B6C1B681B6813F0010F10D1BF
:1014C000364BDB6C1B681B6813F0010F09D1324BE4
:1014D0001B7813F0020F04D1324B1B7813F0020F6C
:1014E00031D0304B1B7813F0010F17D02B4B9B6C76
:1014F0001B681B6813F0010F10D1284BDB6C1B68B5
:101500001B6813F0010F09D1234B1B7813F0020F56
:1015100004D1234B1B7813F0020F28D008BD1E4BBB
:101520001A7802F0FE021A701A7842F002021A705B
:10153000002201211C4804F02BFD08221B491C48F5
:1015400001F06CFAEAE7164B1A7802F0FE021A7004
:101550001A7842F002021A7000221021154804F095
:1015600017FD09221449154801F058FAD6E70D4B2A
:101570001A7802F0FE021A701A7842F002021A700B
:10158000002210210B4804F003FD04220C490D48F1
:1015900001F044FAC2E700BFF8050020E47D002016
:1015A000ED050020EC05002000040240F0050020BD
:1015B0003400002000000240DC0500202400002050
:1015C000E80500203000002000487047C0050020DA
:1015D00000487047CC05002000487047B405002043
:1015E00010B5102806D0202818D0082825D00128AA
:1015F0002CD010BD0C20FFF7EFF8204A137843F0F1
:10160000010313701E4A137843F0010313701D4B3E
:101610001B78002BEDD0FFF729FFEAE70D20FFF73D
:10162000DBF8194A137843F001031370154B1B784C
:10163000002BDED0FFF71AFFDBE70E20FFF7CCF818
:10164000124A137843F001031370D2E707F012FB3C
:101650000128CED00E4C21460E4B186807F074FBC3
:101660002368002BC5D04FF0E0234FF08052C3F821
:10167000042DBFF34F8FBFF36F8FBAE7ED05002046
:10168000EC050020F9050020F8050020FA050020EF
:10169000FC050020D805002008B5AD4BDB6C1B68AD
:1016A000AC4A934240F29D80583A5268AA498B4214
:1016B00031D001F580618B4278D0A1F568718B4201
:1016C00076D001F580618B4274D0A1F589618B429F
:1016D00072D001F580618B4271D0A1F568718B42A7
:1016E00070D001F580618B426FD0A1F589618B428A
:1016F0006ED001F580618B426DD0A1F568718B428F
:101700006CD001F580618B4202D04FF0006103E0A4
:101710004FF4001100E020210A4214BF01220022F0
:10172000002A00F0A4818B4A934240F2BC81A2F5CA
:101730008962934200F0718102F58062934200F069
:101740009781A2F56872934200F0948102F580625D
:10175000934200F09181A2F58962934200F08E815C
:1017600002F58062934200F08C81A2F56872934288
:1017700000F08A8102F58062934200F08881A2F530
:101780008962934200F0868102F58062934200F004
:101790008481A2F56872934200F0828102F5806232
:1017A000934200F037814FF0006237E12021B3E728
:1017B0002021B1E72021AFE74FF40061ACE74FF4FF
:1017C0000061A9E74FF40061A6E74FF40061A3E7C9
:1017D0004FF40011A0E74FF400119DE74FF4001102
:1017E0009AE75E4A934258D902F5527212685A49F2
:1017F0008B4231D001F580618B4233D0A1F5687105
:101800008B4231D001F580618B422FD0A1F58961E7
:101810008B422DD001F580618B422CD0A1F56871EF
:101820008B422BD001F580618B422AD0A1F58961D2
:101830008B4229D001F580618B4228D0A1F56871D7
:101840008B4227D001F580618B4202D04FF00061BE
:1018500003E04FF4001100E020210A4214BF0122EE
:1018600000225DE72021F8E72021F6E72021F4E7B8
:101870004FF40061F1E74FF40061EEE74FF40061CF
:10188000EBE74FF40061E8E74FF40011E5E74FF4B0
:101890000011E2E74FF40011DFE7314A934261D9CA
:1018A000583A52682C498B4231D001F580618B4205
:1018B00033D0A1F568718B4231D001F580618B4244
:1018C0002FD0A1F589618B422DD001F580618B422B
:1018D0002CD0A1F568718B422BD001F580618B4231
:1018E0002AD0A1F589618B4229D001F580618B4214
:1018F00028D0A1F568718B4227D001F580618B4219
:1019000002D04FF0006103E04FF4001100E020210D
:101910000A4214BF0122002202E72021F8E7202119
:10192000F6E72021F4E74FF40061F1E74FF400619E
:10193000EEE74FF40061EBE74FF40061E8E74FF4A6
:101940000011E5E74FF40011E2E74FF40011DFE783
:10195000E47D00205864024010600240B8600240FC
:1019600058600240A74A1268A7498B4231D001F55E
:1019700080618B4233D0A1F568718B4231D001F583
:1019800080618B422FD0A1F589618B422DD001F56A
:1019900080618B422CD0A1F568718B422BD001F570
:1019A00080618B422AD0A1F589618B4229D001F553
:1019B00080618B4228D0A1F568718B4227D001F558
:1019C00080618B4202D04FF0006103E04FF40011C0
:1019D00000E020210A4214BF01220022A0E62021BB
:1019E000F8E72021F6E72021F4E74FF40061F1E762
:1019F0004FF40061EEE74FF40061EBE74FF4006154
:101A0000E8E74FF40011E5E74FF40011E2E74FF487
:101A10000011DFE74FF4001200E020227B4BDA6078
:101A20007B4B1B7813F0020F40F05281794B1B78EF
:101A300013F0020F40F05B81774B1B7813F0020F1D
:101A400040F06481FFF712FD714B1B7813F0040F17
:101A50000DD06F4B1A7802F0FB021A701A7842F020
:101A600008021A706D4A136943F00103136108BD3F
:101A70002022D3E72022D1E72022CFE74FF40062D3
:101A8000CCE74FF40062C9E74FF40062C6E74FF4B9
:101A90000062C3E74FF40012C0E74FF40012BDE745
:101AA0004FF40012BAE75E4A934253D9A83A9342E0
:101AB00031D002F58062934231D0A2F56872934230
:101AC0002FD002F5806293422DD0A2F58962934215
:101AD0002BD002F5806293422AD0A2F5687293421D
:101AE00029D002F58062934228D0A2F58962934200
:101AF00027D002F58062934226D0A2F56872934205
:101B000025D002F58062934202D04FF0006203E0DC
:101B10004FF4001200E020223C4B9A6080E7202224
:101B2000FAE72022F8E72022F6E74FF40062F3E715
:101B30004FF40062F0E74FF40062EDE74FF400620B
:101B4000EAE74FF40012E7E74FF40012E4E74FF43E
:101B50000012E1E7334A934266D9483A934231D0C2
:101B600002F58062934231D0A2F5687293422FD081
:101B700002F5806293422DD0A2F5896293422BD068
:101B800002F5806293422AD0A2F56872934229D06E
:101B900002F58062934228D0A2F58962934227D051
:101BA00002F58062934226D0A2F56872934225D056
:101BB00002F58062934202D04FF0006203E04FF4DE
:101BC000001200E020220F4BDA6029E72022FAE71A
:101BD0002022F8E72022F6E74FF40062F3E74FF403
:101BE0000062F0E74FF40062EDE74FF40062EAE7CD
:101BF0004FF40012E7E74FF40012E4E74FF400124D
:101C0000E1E700BF00600240106002400064024053
:101C1000F8050020ED050020EC050020003C014007
:101C2000B860024058600240404A934231D002F509
:101C30008062934231D0A2F5687293422FD002F5B0
:101C4000806293422DD0A2F5896293422BD002F597
:101C5000806293422AD0A2F56872934229D002F59D
:101C60008062934228D0A2F58962934227D002F580
:101C70008062934226D0A2F56872934225D002F585
:101C80008062934202D04FF0006203E04FF40012F2
:101C900000E02022264B9A60C2E62022FAE72022AA
:101CA000F8E72022F6E74FF40062F3E74FF4006212
:101CB000F0E74FF40062EDE74FF40062EAE74FF41B
:101CC0000012E7E74FF40012E4E74FF40012E1E7F7
:101CD000184B1A7802F0FD021A701A7842F00402CA
:101CE0001A7001221146144804F052F99EE6134B73
:101CF0001A7802F0FD021A701A7842F004021A7083
:101D0000012210210E4804F043F995E60D4B1A7894
:101D100002F0FD021A701A7842F004021A700122D1
:101D20001021074804F034F98CE600BF106002402F
:101D300000600240F805002000040240ED0500208C
:101D400000000240EC05002008B50C4B1B6873B97D
:101D50000B4B1B68012B0BD04FF4FA61012002F0F2
:101D600045FD012002F016FD044B01221A6008BD5A
:101D70004FF47A71012002F039FDF2E700060020ED
:101D8000040600201A4B93ED0B7ADFED1A7AB4EEBD
:101D9000E77AF1EE10FA07D8174B1B783BB9174AD0
:101DA00013680133136002E0144B00221A60134BD6
:101DB0001B68B3F5167F05D30F4B01221A700F4B2A
:101DC00000221A600C4B1B78012B00D070470C4A84
:101DD000136801331360632B05D90023064A13707F
:101DE000074A13607047074B4FF4FA621A80EDE719
:101DF0003C83002000409CC5440600204006002093
:101E0000480600205806002038B52DED028BB0EEB4
:101E1000408A05460C46274B1B681BB1264B1B68A6
:101E2000834238D002F002FF20440130234B186077
:101E3000234B1A69234B1A60214B1969214B1A68ED
:101E4000521A48F6FB7305FB03F39A4228D802F0B6
:101E5000EDFE1A4B1B68C01AA0420ED9B4EE000A60
:101E600028EE000A9FED188A20EE080A9FED178AD7
:101E700020EE080A164B83ED000A0E4A1368013360
:101E800013600D4B1D60134B1C60114B93ED000A4A
:101E9000BDEC028B38BD0F4B1B688B42C2D1CBE728
:101EA000084B19600A4B00221A6002F0BFFE034B78
:101EB0001860CCE70C060020200600204C0600200D
:101EC0001810002018060020000010420000704288
:101ED000380600201C06002070B5614B1B78002BD3
:101EE00036D1604B00221A805F4EB6F9043000EE06
:101EF000103A5E4D2B885B4200EE903AF8EEE00A15
:101F0000B8EEC00A5A4809F0ADFD5A4CBDEEC00A01
:101F100010EE103A2380B6F9403000EE103A2B88CC
:101F200000EE903AF8EE600AB8EEC00A524809F0A6
:101F300099FDBDEEC00A10EE103A19B24F4B198050
:101F4000484BB3F90020B4F9000000F01DFC70BD4F
:101F50004B4B1A784FF480514A4804F019F84A4B19
:101F60001B78032B4DD8DFE803F002224277444B65
:101F70001B7843B1454BDB68A3F51043444A13601B
:101F80003F4B00221A70414B93ED030A404BD3EDB7
:101F9000000AF8EEE00AB8EEC00A3E4809F062FD19
:101FA000BDEEC00A3C4B10EE102A1A803CE0344BC8
:101FB0001B7843B1354BDB68A3F5D833344A136043
:101FC0002F4B00221A70314B93ED030A304BD3EDA7
:101FD000000AF8EEE00AB8EEC00A2E4809F042FD09
:101FE000BDEEC00A2C4B10EE102A1A801CE02B4BC1
:101FF0004FF081421A602A4B04221A60294B0A22B0
:102000001A60284B1968264B1868244B93ED000A78
:10201000FFF7FAFEB1EE400ABDEEC00A1E4B10EE0D
:10202000102A1A80FFF7AEFE184BB3F9043000EE09
:10203000103A194BB3F9003000EE903AF8EEE00A8E
:10204000B8EEC00A184809F00DFDBDEEC00A054BF8
:1020500010EE102A1A8047E70F4B00221A80E3E7A0
:102060001406002050060020A00F00203C00002095
:102070008882002032060020C4820020340600201E
:102080003006002000100240360600201810002004
:102090005406002000830020580600203C06002043
:1020A0002C060020100600203C83002008B50A4BB7
:1020B0001B784BB1094B41F658321A80012204219A
:1020C000074803F065FF08BD0022044B1A80042175
:1020D000034803F05DFFF6E7140600203C000020F3
:1020E000001C024000B583B09FED808AB0EE481A14
:1020F000DFED7F0A9FED7F0A4FF4FA6241F29411FF
:102100007D4809F0A6FC9FED7D1AF6EE000AB1EEBF
:102110000C0A40F6B83241F65831794809F099FC7A
:10212000DFED788AB0EE481AF0EE680AB2EE020AE5
:1021300040F6B83241F65831734809F08AFCB0EEE7
:10214000481AF0EE680AB2EE020A40F6B83241F6DA
:1021500058316E4809F07DFC05F0C2F9019051E05C
:102160006B4B01221A606B4B00221A606A4B1A7C7F
:1021700020216A4803F00CFF694B9B7B13B9664B27
:102180001B7C1BB1674B1B78032B79D0644B1B7AEC
:10219000032B00F08C80624BDB7B002B00F09280E5
:1021A000604B02221A70604BDA68604B1A60604B19
:1021B0001B7813B95B4B03221A70FFF78DFEFFF7F4
:1021C000C3FD574B1B7A43B15A4A1278934204D04D
:1021D000584A1370012B00F08280FFF767FF504BC5
:1021E000597A554A1170554A107D55490870517DEC
:1021F000544A1170B3F91220534B1A80022101A8DE
:1022000005F0B4F9464B1B7C13F0400F06D0444A4E
:10221000527A022A02D0464A0121117003F050037B
:10222000502B03D03E4B5B7A022B02D1404B002255
:102230001A70464B93F8353013F0010F02D03C4B27
:1022400000221A70364B5B7C13F0010F03D1344B24
:102250001B7A022B06D02E4B4FF0FF321A602D4B0B
:1022600000221A602E4B1B8A03F48873B3F5887F13
:102270003FF476AF2A4B1B7A022B7FF477AF6FE7E0
:10228000254B00221A74324B01221A7002F0CEFC48
:10229000304B1860224B1B7C13F0100F03D0214BE6
:1022A00001221A7083E71F4B00221A707FE702F0A9
:1022B000BDFC284B1B68C01A40F2DB5398423FF626
:1022C0006FAF68E702F0B2FC224B1B68C01AB0F592
:1022D000167F7FF66CAF134B03221A7067E7144A20
:1022E0001378B3FA83F35B09137076E700000000FC
:1022F0000AD7A33B9A99193E00830020CDCCCC3D50
:102300003C8300200AD7A33C88820020C48200209E
:102310000406002000060020A81000200010024043
:10232000BC100020360600201810002054060020A3
:102330001406002026060020270600206C820020BC
:10234000240600202506002028060020C0040020C6
:102350003006002008060020144B1B780370144B35
:102360001B784370134AD2ED007AFCEEE77A17EE41
:10237000903A1B0E8370D2ED007AFCEEE77A17EEEE
:10238000903A1B0CC370D2ED007AFCEEE77A17EEA0
:10239000903A1B0A0371D2ED007AFCEEE77A17EE51
:1023A000903A4371044B1B788371704734050020C9
:1023B00038050020B00500209C05002000B58BB03A
:1023C00005F08EF80990134D134C2946204602F073
:1023D0003FFB05F12401204602F03AFB0F4D284651
:1023E000FFF7BAFF07954FF49A730693EC4604F192
:1023F000100EBEE80F00ACE80F009EE803008CE86A
:10240000030094E80F0000F04DF9322109A805F00F
:10241000ADF8D8E7D0100020AC7400205C06002096
:102420000A784B7843EA02230380838270470000D6
:102430000288428091F800C04B7843EA0C23038065
:1024400091F802C0C97841EA0C2181809A1AB2F54C
:10245000805F25DD816801398160A2F50052C2618B
:10246000826803EB4233828A9B1AC3604FF4B472D2
:1024700002FB03F3002B1FDB5B13036190F8342096
:10248000531CDBB280F83430C169083240F82210A6
:10249000042B02D9002380F8343000231A4616E0BA
:1024A00012F5805F06DA81680131816002F5005221
:1024B000C261D5E7C261D3E703F5FF531F33DBE702
:1024C00003F1080150F821100A440133DBB2042B58
:1024D000F6D9044B83FB0213D217C2EB630282636B
:1024E000704700BF6766666600B58BB00122089230
:1024F000002306930792009301930293039305939D
:1025000004936946134802F0CFFD0028F9D1114821
:1025100002F066FE0028FAD102210E4802F0B1FF57
:102520000028F9D10E230993059369460A4802F061
:10253000BBFD0028F9D1084802F052FE0028FAD16C
:102540000221054802F09DFF0028F9D10BB05DF88B
:1025500004FB00BF84740020AC740020014B0122F6
:102560001A7070479C05002010B58AB0044601AB74
:1025700003AA002102F0E0FE424B9C4204D0424BF1
:102580009C420BD00AB010BD039A40F233139A421A
:10259000F5D19DF804203D4B1A70F0E7039BA3F2A0
:1025A0000123052BEED801A252F823F005260008DE
:1025B000352600085D26000885250008C525000889
:1025C000EB250008324A536A591C5162322B07DC52
:1025D00001A9104609F020FA0620FEF7FDF8D1E720
:1025E00001A92B4809F0ACF9F6E72A4A536A591CAD
:1025F0005162322B14DC01A9104609F00DFA0720B4
:10260000FEF7EAF8244A9369591C9161322B0CD8E1
:1026100001A91046FFF704FF0820FEF7DDF8B1E737
:1026200001A91C4809F08CF9E9E701A91A48FFF74C
:10263000FFFEF1E7184A536D591C5165322B08D83B
:1026400001A902F13C00FFF7EBFE0920FEF7C4F8F8
:1026500098E701A91148FFF7EBFEF6E7104A9369E6
:10266000013393610A2B07D801A91046FFF7D8FE62
:102670000A20FEF7B1F885E701A90948FFF7D8FE5F
:10268000F6E700BFAC74002084740020840F0020A3
:10269000F40A00206C060020A00F0020DC0F0020B0
:1026A0001810002084B000B583B00DF1100C8CE838
:1026B0000F000F980C4A0E9B136000239360D360A9
:1026C0000821116103E0C15C084AD1540133072B92
:1026D000F9DD01AB054A044904A802F0AFFD03B0DF
:1026E0005DF804EB04B07047541000207C0F00200C
:1026F00010B588B00F4B02121A7058700A129A70F7
:10270000D97000229A71DA710B4C079340F2FF13D3
:102710000693EC4604F1100EBEE80F00ACE80F0083
:102720009EE803008CE8030094E80F00FFF7BAFF6F
:1027300008B010BD980F00208474002010B588B038
:102740000F4B00221A705A709A70DA701A715A710F
:102750009A71DA710B4C079340F2FF130693EC4623
:1027600004F1100EBEE80F00ACE80F009EE8030075
:102770008CE8030094E80F00FFF794FF08B010BD49
:10278000900F00208474002010B588B0114B041203
:102790001C70587008129870D970111219715A7102
:1027A00000229A71DA710C4C07934FF40073069370
:1027B000EC4604F1100EBEE80F00ACE80F009EE8F6
:1027C00003008CE8030094E80F00FFF76BFF08B0EC
:1027D00010BD00BF880F0020847400200C4AD2F87E
:1027E000FC3043F08073C2F8FC300A4B0021596082
:1027F0001A6842F001021A60074B03FB00F0074B16
:102800001860074B1960074B00221A60704700BF21
:1028100000ED00E0001000E040420F006C100020CE
:10282000701000207410002082B00A4B5B68019386
:10283000019B02689B1A07EE903AF8EE677A064B06
:1028400093ED000AB8EE400A019B036087EE800A10
:1028500002B07047001000E06C10002000F17843D7
:10286000B3F5804F45D3A3F58043B3F5804F42D3F2
:1028700000F17843A3F50043B3F5804F3DD300F159
:102880007843A3F54043B3F5804F38D300F1774345
:1028900003F57F03B3F5803F33D300F1774303F5AE
:1028A0007E03B3F5003F2ED300F1774303F57C039D
:1028B000B3F5003F29D300F1774303F57A03B3F56D
:1028C000003F24D300F1774303F57803B3F5003FCD
:1028D0001FD300F1774303F57603B3F5003F1AD316
:1028E00000F1774000F57400B0F5003F15D20C48B8
:1028F00070470C4870470C4870470C4870470C48AC
:1029000070470C4870470C4870470C4870470C489B
:1029100070470C4870470C4870474FF00160704793
:1029200000000E08004000080080000800C00008F9
:10293000000001080000020800000408000006086A
:102940000000080800000A0800000C0870B50546E1
:102950000E46144603F0A4F9184B1D602846FFF7F5
:102960007DFF174B1860174B1E60174B00221A6033
:10297000124B1968124B1B68994215D8114B1B68F2
:102980001A680023022003F0DDF988B90B4A1368A6
:10299000043313600B4A1368043313600A4A136844
:1029A00001331360A342E3D103F092F9002070BD1C
:1029B00003F08EF94FF0FF30F9E700BF84100020DC
:1029C00080100020781000207C10002008B50A46F6
:1029D00001460248FFF7BAFF08BD00BF00000E081D
:1029E00070B50446FEF7F0FD0646FEF7F1FD05461C
:1029F000FEF7F2FD03682360436863608368A360A9
:102A00003368A3617368E361B36823622B68E36092
:102A10006B682361AB68636170BD000030B4AD4B7F
:102A20001C68236823F001032360AB4B1C682368F8
:102A300023F00103236003E01C6824F001041C6000
:102A4000A44B1B681C6814F0010FF5D103E01C684F
:102A500024F001041C60A04B1B681C6814F0010FDB
:102A6000F5D19E4CE46C24689D4DAC4240F29A80B6
:102A7000A5F58965AC4231D005F58065AC4276D0CC
:102A8000A5F56875AC4274D005F58065AC4272D08E
:102A9000A5F58965AC4270D005F58065AC426FD074
:102AA000A5F56875AC426ED005F58065AC426DD079
:102AB000A5F58965AC426CD005F58065AC426BD05C
:102AC000A5F56875AC426AD005F58065AC4202D0C8
:102AD0004FF0006503E04FF4001500E02025814C25
:102AE000E5607E4CE46C24687D4DAC4240F2D481BC
:102AF000A5F58965AC4200F06B8105F58065AC42B7
:102B000000F0AF81A5F56875AC4200F0AC8105F529
:102B10008065AC4200F0A981A5F58965AC4200F062
:102B2000A68105F58065AC4200F0A481A5F5687525
:102B3000AC4200F0A28105F58065AC4200F0A081B6
:102B4000A5F58965AC4200F09E8105F58065AC4233
:102B500000F09C81A5F56875AC4200F09A8105F5FE
:102B60008065AC4200F031814FF0806531E1202575
:102B7000B5E72025B3E72025B1E74FF40065AEE7C0
:102B80004FF40065ABE74FF40065A8E74FF400652C
:102B9000A5E74FF40015A2E74FF400159FE74FF4A7
:102BA00000159CE7504DAC4253D9A83DAC4231D002
:102BB00005F58065AC4231D0A5F56875AC422FD0E3
:102BC00005F58065AC422DD0A5F58965AC422BD0CA
:102BD00005F58065AC422AD0A5F56875AC4229D0D0
:102BE00005F58065AC4228D0A5F58965AC4227D0B3
:102BF00005F58065AC4226D0A5F56875AC4225D0B8
:102C000005F58065AC4202D04FF0006403E04FF45C
:102C1000001400E02024334DAC6062E72024FAE782
:102C20002024F8E72024F6E74FF40064F3E74FF49C
:102C30000064F0E74FF40064EDE74FF40064EAE766
:102C40004FF40014E7E74FF40014E4E74FF40014E6
:102C5000E1E7264DAC4264D9483DAC4231D005F5A0
:102C60008065AC4231D0A5F56875AC422FD005F532
:102C70008065AC423ED0A5F58965AC423CD005F5F7
:102C80008065AC423BD0A5F56875AC423AD005F5FD
:102C90008065AC4239D0A5F58965AC4238D005F5E0
:102CA0008065AC4237D0A5F56875AC4236D005F5E5
:102CB0008065AC4202D04FF0006403E04FF4001492
:102CC00000E020240A4DEC600BE72024FAE72024E2
:102CD000F8E700BF247D0020847D0020E47D0020F3
:102CE0005864024000640240B860024058600240EC
:102CF000006002402024E5E74FF40064E2E74FF46F
:102D00000064DFE74FF40064DCE74FF40064D9E7C8
:102D10004FF40014D6E74FF40014D3E74FF4001437
:102D2000D0E7B14DAC4231D005F58065AC4231D031
:102D3000A5F56875AC422FD005F58065AC422DD065
:102D4000A5F58965AC422BD005F58065AC422AD04B
:102D5000A5F56875AC4229D005F58065AC4228D050
:102D6000A5F58965AC4227D005F58065AC4226D033
:102D7000A5F56875AC4225D005F58065AC4202D05A
:102D80004FF0006403E04FF4001400E02024974D5E
:102D9000AC60A6E62024FAE72024F8E72024F6E732
:102DA0004FF40064F3E74FF40064F0E74FF400647D
:102DB000EDE74FF40064EAE74FF40014E7E74FF45F
:102DC0000014E4E74FF40014E1E74FF4801500E04D
:102DD0001025874CE560874CE46C2468864DAC4236
:102DE00040F2D181A5F58965AC4200F0688105F516
:102DF0008065AC4200F0AC81A5F56875AC4200F08E
:102E0000A98105F58065AC4200F0A681A5F589652C
:102E1000AC4200F0A38105F58065AC4200F0A181D1
:102E2000A5F56875AC4200F09F8105F58065AC4260
:102E300000F09D81A5F58965AC4200F09B8105F508
:102E40008065AC4200F09981A5F56875AC4200F050
:102E5000978105F58065AC4200F02E814FF000753A
:102E60002EE11025B5E71025B3E71025B1E74FF4A3
:102E70008065AEE74FF48065ABE74FF48065A8E767
:102E80004FF48065A5E74FF48015A2E74FF4801555
:102E90009FE74FF480159CE7584DAC4253D9A83DAD
:102EA000AC4231D005F58065AC4231D0A5F56875EE
:102EB000AC422FD005F58065AC422DD0A5F58965D3
:102EC000AC422BD005F58065AC422AD0A5F56875DB
:102ED000AC4229D005F58065AC4228D0A5F58965BE
:102EE000AC4227D005F58065AC4226D0A5F56875C3
:102EF000AC4225D005F58065AC4202D04FF080642D
:102F000003E04FF4801400E01024394DAC6062E718
:102F10001024FAE71024F8E71024F6E74FF4806451
:102F2000F3E74FF48064F0E74FF48064EDE74FF48B
:102F30008064EAE74FF48014E7E74FF48014E4E795
:102F40004FF48014E1E72E4DAC4261D9483DAC42CC
:102F500031D005F58065AC4231D0A5F56875AC423D
:102F60002FD005F58065AC422DD0A5F58965AC4222
:102F70002BD005F58065AC422AD0A5F56875AC422A
:102F800029D005F58065AC4228D0A5F58965AC420D
:102F900027D005F58065AC4234D0A5F56875AC4204
:102FA00033D005F58065AC4202D04FF0806403E079
:102FB0004FF4801400E010240C4DEC600BE710245B
:102FC000FAE71024F8E71024F6E74FF48064F3E7FB
:102FD0004FF48064F0E74FF48064EDE74FF48064D1
:102FE000EAE74FF48014E7E7106002400060024017
:102FF00000640240E47D002058640240B860024052
:10300000586002404FF48014D6E74FF48014D3E7A1
:10301000B14DAC4231D005F58065AC4231D0A5F55B
:103020006875AC422FD005F58065AC422DD0A5F572
:103030008965AC422BD005F58065AC422AD0A5F558
:103040006875AC4229D005F58065AC4228D0A5F55D
:103050008965AC4227D005F58065AC4226D0A5F540
:103060006875AC4225D005F58065AC4202D04FF0C2
:10307000806403E04FF4801400E01024974DAC60AE
:10308000A9E61024FAE71024F8E71024F6E74FF435
:103090008064F3E74FF48064F0E74FF48064EDE779
:1030A0004FF48064EAE74FF48014E7E74FF48014AC
:1030B000E4E74FF48014E1E74FF4002500E0082531
:1030C000874CE560874CE46C2468874DAC4240F245
:1030D000D281A5F58965AC4200F0698105F580656E
:1030E000AC4200F0AD81A5F56875AC4200F0AA8154
:1030F00005F58065AC4200F0A781A5F58965AC4275
:1031000000F0A48105F58065AC4200F0A281A5F530
:103110006875AC4200F0A08105F58065AC4200F016
:103120009E81A5F58965AC4200F09C8105F580651E
:10313000AC4200F09A81A5F56875AC4200F0988128
:1031400005F58065AC4200F02F814FF080752FE1CE
:103150000825B5E70825B3E70825B1E74FF4007562
:10316000AEE74FF40075ABE74FF40075A8E74FF4F6
:103170000075A5E74FF40025A2E74FF400259FE76F
:103180004FF400259CE7594DAC4253D9A83DAC42C1
:1031900031D005F58065AC4231D0A5F56875AC42FB
:1031A0002FD005F58065AC422DD0A5F58965AC42E0
:1031B0002BD005F58065AC422AD0A5F56875AC42E8
:1031C00029D005F58065AC4228D0A5F58965AC42CB
:1031D00027D005F58065AC4226D0A5F56875AC42D0
:1031E00025D005F58065AC4202D04FF0007403E0B5
:1031F0004FF4002400E00824394DAC6062E7082455
:10320000FAE70824F8E70824F6E74FF40074F3E738
:103210004FF40074F0E74FF40074EDE74FF40074DE
:10322000EAE74FF40024E7E74FF40024E4E74FF423
:103230000024E1E72E4DAC4262D9483DAC4231D08A
:1032400005F58065AC4231D0A5F56875AC422FD04C
:1032500005F58065AC422DD0A5F58965AC422BD033
:1032600005F58065AC422AD0A5F56875AC4229D039
:1032700005F58065AC4228D0A5F58965AC4227D01C
:1032800005F58065AC4235D0A5F56875AC4234D003
:1032900005F58065AC4202D04FF0007403E04FF4B6
:1032A000002400E008240D4DEC600BE70824FAE749
:1032B0000824F8E70824F6E74FF40074F3E74FF426
:1032C0000074F0E74FF40074EDE74FF40074EAE7A0
:1032D0004FF40024E7E700BF1060024000600240A6
:1032E00000640240E47D002058640240B86002405F
:1032F000586002404FF40024D5E74FF40024D2E791
:10330000B14DAC4231D005F58065AC4231D0A5F568
:103310006875AC422FD005F58065AC422DD0A5F57F
:103320008965AC422BD005F58065AC422AD0A5F565
:103330006875AC4229D005F58065AC4228D0A5F56A
:103340008965AC4227D005F58065AC4226D0A5F54D
:103350006875AC4225D005F58065AC4202D04FF0CF
:10336000007403E04FF4002400E00824974DAC60A3
:10337000A8E60824FAE70824F8E70824F6E74FF45B
:103380000074F3E74FF40074F0E74FF40074EDE7D6
:103390004FF40074EAE74FF40024E7E74FF4002409
:1033A000E4E74FF40024E1E74FF4802500E0042532
:1033B000874CE560874CE46C2468874DAC4240F252
:1033C000CE81A5F58965AC4200F0698105F580657F
:1033D000AC4200F0AD81A5F56875AC4200F0AA8161
:1033E00005F58065AC4200F0A781A5F58965AC4282
:1033F00000F0A48105F58065AC4200F0A181A5F53F
:103400006875AC4200F09E8105F58065AC4200F025
:103410009B81A5F58965AC4200F0988105F5806532
:10342000AC4200F09681A5F56875AC4200F094813D
:1034300005F58065AC4200F02F814FF480052FE147
:103440000425B5E70425B3E70425B1E74FF48075FB
:10345000AEE74FF48075ABE74FF48075A8E74FF403
:103460008075A5E74FF48025A2E74FF480259FE7FC
:103470004FF480259CE7594DAC4253D9A83DAC424E
:1034800031D005F58065AC4231D0A5F56875AC4208
:103490002FD005F58065AC422DD0A5F58965AC42ED
:1034A0002BD005F58065AC422AD0A5F56875AC42F5
:1034B00029D005F58065AC4228D0A5F58965AC42D8
:1034C00027D005F58065AC4226D0A5F56875AC42DD
:1034D00025D005F58065AC4202D04FF0807403E042
:1034E0004FF4802400E00424394DAC6062E70424EA
:1034F000FAE70424F8E70424F6E74FF48074F3E7CE
:103500004FF48074F0E74FF48074EDE74FF480746B
:10351000EAE74FF48024E7E74FF48024E4E74FF430
:103520008024E1E72E4DAC4262D9483DAC4231D017
:1035300005F58065AC4231D0A5F56875AC422FD059
:1035400005F58065AC422DD0A5F58965AC422BD040
:1035500005F58065AC422AD0A5F56875AC4229D046
:1035600005F58065AC4228D0A5F58965AC4227D029
:1035700005F58065AC4235D0A5F56875AC4234D010
:1035800005F58065AC4202D04FF0807403E04FF443
:10359000802400E004240D4DEC600BE70424FAE7DE
:1035A0000424F8E70424F6E74FF48074F3E74FF4BB
:1035B0008074F0E74FF48074EDE74FF48074EAE72D
:1035C0004FF48024E7E700BF106002400060024033
:1035D00000640240E47D002058640240B86002406C
:1035E000586002404FF48024D5E74FF48024D2E79E
:1035F000AE4DAC4231D005F58065AC4231D0A5F579
:103600006875AC422FD005F58065AC422DD0A5F58C
:103610008965AC422BD005F58065AC422AD0A5F572
:103620006875AC4229D005F58065AC4228D0A5F577
:103630008965AC4227D005F58065AC4226D0A5F55A
:103640006875AC4225D005F58065AC4202D04FF0DC
:10365000807403E04FF4802400E00424944DAC60B7
:10366000A8E60424FAE70424F8E70424F6E74FF474
:103670008074F3E74FF48074F0E74FF48074EDE763
:103680004FF48074EAE74FF48024E7E74FF4802496
:10369000E4E74FF48024E1E74FF4803500E00125B2
:1036A000844CE560844CA46C2468844DAC4240F2A8
:1036B000C281A5F58965AC4200F0598105F58065A8
:1036C000AC4200F09D81A5F56875AC4200F09A818E
:1036D00005F58065AC4200F09781A5F58965AC429F
:1036E00000F0948105F58065AC4200F09281A5F56B
:1036F0006875AC4200F0908105F58065AC4200F041
:103700008E81A5F58965AC4200F08C8105F5806558
:10371000AC4200F08A81A5F56875AC4200F0888162
:1037200005F58065AC4200F01F814FF000651FE198
:103730000125B5E70125B3E70125B1E74025AFE74E
:103740004025ADE74025ABE74025A9E74FF480359C
:10375000A6E74FF48035A3E74FF48035A0E7584D36
:10376000AC424FD9A83DAC4231D005F58065AC42A2
:1037700031D0A5F56875AC422FD005F58065AC4217
:103780002DD0A5F58965AC422BD005F58065AC42FE
:1037900029D0A5F56875AC4227D005F58065AC4207
:1037A00025D0A5F58965AC4223D005F58065AC42EE
:1037B00022D0A5F56875AC4221D005F58065AC42F4
:1037C00002D04FF4800403E04FF4803400E0012481
:1037D000384DAC6066E70124FAE70124F8E70124DC
:1037E000F6E74024F4E74024F2E74024F0E74024E1
:1037F000EEE74FF48034EBE74FF48034E8E74FF422
:103800008034E5E72F4DAC425ED9483DAC4231D023
:1038100005F58065AC4231D0A5F56875AC422FD076
:1038200005F58065AC422DD0A5F58965AC422BD05D
:1038300005F58065AC4229D0A5F56875AC4227D066
:1038400005F58065AC4225D0A5F58965AC4223D04D
:1038500005F58065AC4222D0A5F56875AC4221D053
:1038600005F58065AC4202D04FF4800403E04FF4CC
:10387000803400E001240E4DEC6013E70124FAE7E8
:103880000124F8E70124F6E74024F4E74024F2E7B6
:103890004024F0E74024EEE74FF48034EBE74FF4A8
:1038A0008034E8E74FF48034E5E700BF1060024061
:1038B0000060024000640240E47D00205864024041
:1038C000B860024058600240B04DAC4231D005F5BE
:1038D0008065AC4231D0A5F56875AC422FD005F5B6
:1038E0008065AC422DD0A5F58965AC422BD005F59D
:1038F0008065AC4229D0A5F56875AC4227D005F5A6
:103900008065AC4225D0A5F58965AC4223D005F58C
:103910008065AC4222D0A5F56875AC4221D005F592
:103920008065AC4202D04FF4800403E04FF4803451
:1039300000E00124964DAC60B4E60124FAE70124CE
:10394000F8E70124F6E74024F4E74024F2E74024B6
:10395000F0E74024EEE74FF48034EBE74FF4803497
:10396000E8E74FF48034E5E74FF4001500E0202548
:10397000884CE560884CA46C2468884DAC4240F2C9
:10398000D181A5F58965AC4200F0688105F58065B7
:10399000AC4200F0AC81A5F56875AC4200F0A9819D
:1039A00005F58065AC4200F0A681A5F58965AC42BD
:1039B00000F0A38105F58065AC4200F0A181A5F57A
:1039C0006875AC4200F09F8105F58065AC4200F05F
:1039D0009D81A5F58965AC4200F09B8105F5806568
:1039E000AC4200F09981A5F56875AC4200F0978172
:1039F00005F58065AC4200F02E814FF080652EE128
:103A00002025B5E72025B3E72025B1E74FF4006571
:103A1000AEE74FF40065ABE74FF40065A8E74FF45D
:103A20000065A5E74FF40015A2E74FF400159FE7E6
:103A30004FF400159CE75A4DAC4253D9A83DAC4217
:103A400031D005F58065AC4231D0A5F56875AC4242
:103A50002FD005F58065AC422DD0A5F58965AC4227
:103A60002BD005F58065AC422AD0A5F56875AC422F
:103A700029D005F58065AC4228D0A5F58965AC4212
:103A800027D005F58065AC4226D0A5F56875AC4217
:103A900025D005F58065AC4202D04FF0006403E00C
:103AA0004FF4001400E020243A4DAC6062E720247B
:103AB000FAE72024F8E72024F6E74FF40064F3E760
:103AC0004FF40064F0E74FF40064EDE74FF4006456
:103AD000EAE74FF40014E7E74FF40014E4E74FF48B
:103AE0000014E1E72F4DAC4261D9483DAC4231D0E2
:103AF00005F58065AC4231D0A5F56875AC422FD094
:103B000005F58065AC422DD0A5F58965AC422BD07A
:103B100005F58065AC422AD0A5F56875AC4229D080
:103B200005F58065AC4228D0A5F58965AC4227D063
:103B300005F58065AC4226D0A5F56875AC4233D05A
:103B400005F58065AC4202D04FF0006403E04FF40D
:103B5000001400E020240E4DEC600BE72024FAE76F
:103B60002024F8E72024F6E74FF40064F3E74FF44D
:103B70000064F0E74FF40064EDE74FF40064EAE717
:103B80004FF40014E7E74FF40014E4E7106002403C
:103B90000060024000640240E47D0020586402405E
:103BA000B8600240586002404FF40014D3E7B14DB2
:103BB000AC4231D005F58065AC4231D0A5F56875D1
:103BC000AC422FD005F58065AC422DD0A5F58965B6
:103BD000AC422BD005F58065AC422AD0A5F56875BE
:103BE000AC4229D005F58065AC4228D0A5F58965A1
:103BF000AC4227D005F58065AC4226D0A5F56875A6
:103C0000AC4225D005F58065AC4202D04FF000648F
:103C100003E04FF4001400E02024974DAC60A9E6C7
:103C20002024FAE72024F8E72024F6E74FF4006484
:103C3000F3E74FF40064F0E74FF40064EDE74FF46E
:103C40000064EAE74FF40014E7E74FF40014E4E7F8
:103C50004FF40014E1E74FF4801500E01025874C85
:103C6000E560874CA46C2468864DAC4240F2D1815B
:103C7000A5F58965AC4200F0688105F58065AC4228
:103C800000F0AC81A5F56875AC4200F0A98105F59E
:103C90008065AC4200F0A681A5F58965AC4200F0D4
:103CA000A38105F58065AC4200F0A181A5F568759A
:103CB000AC4200F09F8105F58065AC4200F09D812B
:103CC000A5F58965AC4200F09B8105F58065AC42A5
:103CD00000F09981A5F56875AC4200F0978105F573
:103CE0008065AC4200F02E814FF000752EE110256A
:103CF000B5E71025B3E71025B1E74FF48065AEE7CF
:103D00004FF48065ABE74FF48065A8E74FF480651A
:103D1000A5E74FF48015A2E74FF480159FE74FF415
:103D200080159CE7584DAC4253D9A83DAC4231D0E8
:103D300005F58065AC4231D0A5F56875AC422FD051
:103D400005F58065AC422DD0A5F58965AC422BD038
:103D500005F58065AC422AD0A5F56875AC4229D03E
:103D600005F58065AC4228D0A5F58965AC4227D021
:103D700005F58065AC4226D0A5F56875AC4225D026
:103D800005F58065AC4202D04FF0806403E04FF44B
:103D9000801400E01024394DAC6062E71024FAE78B
:103DA0001024F8E71024F6E74FF48064F3E74FF4AB
:103DB0008064F0E74FF48064EDE74FF48064EAE755
:103DC0004FF48014E7E74FF48014E4E74FF48014D5
:103DD000E1E72E4DAC4261D9483DAC4231D005F50A
:103DE0008065AC4231D0A5F56875AC422FD005F5A1
:103DF0008065AC422DD0A5F58965AC422BD005F588
:103E00008065AC422AD0A5F56875AC4229D005F58D
:103E10008065AC4228D0A5F58965AC4227D005F570
:103E20008065AC4234D0A5F56875AC4233D005F559
:103E30008065AC4202D04FF0806403E04FF4801400
:103E400000E010240C4DEC600BE71024FAE710247E
:103E5000F8E71024F6E74FF48064F3E74FF480644A
:103E6000F0E74FF48064EDE74FF48064EAE74FF445
:103E70008014E7E7106002400060024000640240E6
:103E8000E47D002058640240B8600240586002405F
:103E90004FF48014D6E74FF48014D3E7B14DAC4211
:103EA00031D005F58065AC4231D0A5F56875AC42DE
:103EB0002FD005F58065AC422DD0A5F58965AC42C3
:103EC0002BD005F58065AC422AD0A5F56875AC42CB
:103ED00029D005F58065AC4228D0A5F58965AC42AE
:103EE00027D005F58065AC4226D0A5F56875AC42B3
:103EF00025D005F58065AC4202D04FF0806403E028
:103F00004FF4801400E01024974DAC60A9E6102413
:103F1000FAE71024F8E71024F6E74FF48064F3E79B
:103F20004FF48064F0E74FF48064EDE74FF4806471
:103F3000EAE74FF48014E7E74FF48014E4E74FF426
:103F40008014E1E74FF4002500E00825874CE56088
:103F5000874CA46C2468874DAC4240F2D281A5F511
:103F60008965AC4200F0698105F58065AC4200F0DE
:103F7000AD81A5F56875AC4200F0AA8105F58065B4
:103F8000AC4200F0A781A5F58965AC4200F0A481A0
:103F900005F58065AC4200F0A281A5F56875AC42DC
:103FA00000F0A08105F58065AC4200F09E81A5F58A
:103FB0008965AC4200F09C8105F58065AC4200F05B
:103FC0009A81A5F56875AC4200F0988105F5806589
:103FD000AC4200F02F814FF080752FE10825B5E746
:103FE0000825B3E70825B1E74FF40075AEE74FF4B5
:103FF0000075ABE74FF40075A8E74FF40075A5E72F
:104000004FF40025A2E74FF400259FE74FF4002569
:104010009CE7594DAC4253D9A83DAC4231D005F58F
:104020008065AC4231D0A5F56875AC422FD005F55E
:104030008065AC422DD0A5F58965AC422BD005F545
:104040008065AC422AD0A5F56875AC4229D005F54B
:104050008065AC4228D0A5F58965AC4227D005F52E
:104060008065AC4226D0A5F56875AC4225D005F533
:104070008065AC4202D04FF0007403E04FF400249E
:1040800000E00824394DAC6062E70824FAE7082410
:10409000F8E70824F6E74FF40074F3E74FF40074F0
:1040A000F0E74FF40074EDE74FF40074EAE74FF4E3
:1040B0000024E7E74FF40024E4E74FF40024E1E7AD
:1040C0002E4DAC4262D9483DAC4231D005F58065F9
:1040D000AC4231D0A5F56875AC422FD005F58065AE
:1040E000AC422DD0A5F58965AC422BD005F5806595
:1040F000AC422AD0A5F56875AC4229D005F580659B
:10410000AC4228D0A5F58965AC4227D005F580657D
:10411000AC4235D0A5F56875AC4234D005F5806564
:10412000AC4202D04FF0007403E04FF4002400E0F2
:1041300008240D4DEC600BE70824FAE70824F8E7A3
:104140000824F6E74FF40074F3E74FF40074F0E747
:104150004FF40074EDE74FF40074EAE74FF40024E5
:10416000E7E700BF106002400060024000640240C8
:10417000E47D002058640240B8600240586002406C
:104180004FF40024D5E74FF40024D2E7B14DAC4200
:1041900031D005F58065AC4231D0A5F56875AC42EB
:1041A0002FD005F58065AC422DD0A5F58965AC42D0
:1041B0002BD005F58065AC422AD0A5F56875AC42D8
:1041C00029D005F58065AC4228D0A5F58965AC42BB
:1041D00027D005F58065AC4226D0A5F56875AC42C0
:1041E00025D005F58065AC4202D04FF0007403E0A5
:1041F0004FF4002400E00824974DAC60A8E60824A2
:10420000FAE70824F8E70824F6E74FF40074F3E728
:104210004FF40074F0E74FF40074EDE74FF40074CE
:10422000EAE74FF40024E7E74FF40024E4E74FF413
:104230000024E1E74FF4802500E00425874CE56089
:10424000874CA46C2468874DAC4240F29A81A5F556
:104250008965AC4200F0698105F58065AC4200F0EB
:104260007981A5F56875AC4200F0768105F5806529
:10427000AC4200F07381A5F58965AC4200F0708115
:1042800005F58065AC4200F06D81A5F56875AC421E
:1042900000F06A8105F58065AC4200F06781A5F504
:1042A0008965AC4200F0648105F58065AC4200F0A0
:1042B0006281A5F56875AC4200F0608105F5806506
:1042C000AC4200F02F814FF480052FE10425B5E7C3
:1042D0000425B3E70425B1E74FF48075AEE74FF44A
:1042E0008075ABE74FF48075A8E74FF48075A5E7BC
:1042F0004FF48025A2E74FF480259FE74FF48025F7
:104300009CE7594DAC4253D9A83DAC4231D005F59C
:104310008065AC4231D0A5F56875AC422FD005F56B
:104320008065AC422DD0A5F58965AC422BD005F552
:104330008065AC422AD0A5F56875AC4229D005F558
:104340008065AC4228D0A5F58965AC4227D005F53B
:104350008065AC4226D0A5F56875AC4225D005F540
:104360008065AC4202D04FF0807403E04FF48024AB
:1043700000E00424394DAC6062E70424FAE7042429
:10438000F8E70424F6E74FF48074F3E74FF4807401
:10439000F0E74FF48074EDE74FF48074EAE74FF4F0
:1043A0008024E7E74FF48024E4E74FF48024E1E73A
:1043B0002E4DAC4262D9483DAC4231D005F5806506
:1043C000AC4231D0A5F56875AC422FD005F58065BB
:1043D000AC422DD0A5F58965AC422BD005F58065A2
:1043E000AC422AD0A5F56875AC4229D005F58065A8
:1043F000AC4228D0A5F58965AC4227D005F580658B
:10440000AC4235D0A5F56875AC4234D005F5806571
:10441000AC4202D04FF0807403E04FF4802400E0FF
:1044200004240D4DEC600BE70424FAE70424F8E7BC
:104430000424F6E74FF48074F3E74FF48074F0E758
:104440004FF48074EDE74FF48074EAE74FF4802472
:10445000E7E700BF106002400060024000640240D5
:10446000E47D002058640240B86002405860024079
:104470004FF48024D5E74FF48024D2E7944DAC422A
:1044800031D005F58065AC4231D0A5F56875AC42F8
:104490002FD005F58065AC422DD0A5F58965AC42DD
:1044A0002BD005F58065AC422AD0A5F56875AC42E5
:1044B00029D005F58065AC4228D0A5F58965AC42C8
:1044C00027D005F58065AC4226D0A5F56875AC42CD
:1044D00025D005F58065AC4202D04FF0807403E032
:1044E0004FF4802400E004247A4DAC60A8E6042454
:1044F000FAE70424F8E70424F6E74FF48074F3E7BE
:104500004FF48074F0E74FF48074EDE74FF480745B
:10451000EAE74FF48024E7E74FF48024E4E74FF420
:104520008024E1E74FF4803500E001256A4CE56026
:104530006A4C2468E160D86062605A60236843F086
:1045400001032360664B1A68136843F0010313608C
:1045500030BC70470125E9E70125E7E70125E5E7DC
:104560004025E3E74025E1E74025DFE74025DDE79B
:104570004FF48035DAE74FF48035D7E74FF48035D4
:10458000D4E7584DAC424FD9A83DAC4231D005F5E7
:104590008065AC4231D0A5F56875AC422FD005F5E9
:1045A0008065AC422DD0A5F58965AC422BD005F5D0
:1045B0008065AC4229D0A5F56875AC4227D005F5D9
:1045C0008065AC4225D0A5F58965AC4223D005F5C0
:1045D0008065AC4222D0A5F56875AC4221D005F5C6
:1045E0008065AC4202D04FF4800403E04FF4803485
:1045F00000E00124384DAC609AE70124FAE7012479
:10460000F8E70124F6E74024F4E74024F2E74024E9
:10461000F0E74024EEE74FF48034EBE74FF48034CA
:10462000E8E74FF48034E5E72F4DAC425ED9483DD2
:10463000AC4231D005F58065AC4231D0A5F5687546
:10464000AC422FD005F58065AC422DD0A5F589652B
:10465000AC422BD005F58065AC4229D0A5F5687534
:10466000AC4227D005F58065AC4225D0A5F589651B
:10467000AC4223D005F58065AC4222D0A5F5687523
:10468000AC4221D005F58065AC4202D04FF48004E5
:1046900003E04FF4803400E001240E4DEC6047E766
:1046A0000124FAE70124F8E70124F6E74024F4E7BF
:1046B0004024F2E74024F0E74024EEE74FF4803452
:1046C000EBE74FF48034E8E74FF48034E5E700BFD0
:1046D000106002400060024000640240247D00201F
:1046E000847D0020B860024058600240274DAC42F3
:1046F00031D005F58065AC4231D0A5F56875AC4286
:104700002FD005F58065AC422DD0A5F58965AC426A
:104710002BD005F58065AC4229D0A5F56875AC4273
:1047200027D005F58065AC4225D0A5F58965AC425A
:1047300023D005F58065AC4222D0A5F56875AC4262
:1047400021D005F58065AC4202D04FF4800403E02F
:104750004FF4803400E001240D4DAC60E8E6012404
:10476000FAE70124F8E70124F6E74024F4E74024BF
:10477000F2E74024F0E74024EEE74FF48034EBE723
:104780004FF48034E8E74FF48034E5E710600240EE
:104790000060024010B504460E4802F066FA0E486A
:1047A00002F063FA601E032813D8DFE800F0020667
:1047B0000A0E0021074802F033FC0421054802F0EC
:1047C0002FFC0821034802F02BFC0C21014802F0C9
:1047D00027FC10BD947E0020D47E0020012800D04C
:1047E0007047014BD962FBE7000001400138032804
:1047F0000BD8DFE800F002040608044B5963034BB2
:104800009963024BD963014B196470470000014062
:1048100010B591F800E04B784EEA032ECEF30A0E65
:10482000A0F800E0AEF5806E1FFA8EFEA0F800E062
:1048300091F801C08B784FEADC0C4CEA431CCCF3B6
:104840000A0CA0F802C0ACF5806C1FFA8CFCA0F832
:1048500002C08B78CA789B0943EA82030A7943EA4B
:104860008223C3F30A038380A3F580639BB2838012
:104870000A794C79520842EAC412C2F30A02C28091
:10488000A2F5806292B2C2800EF1050E1FFA8EFE72
:10489000BEF10A0F01D8002404800CF1050C1FFAA8
:1048A0008CFCBCF10A0F01D80024448005339BB274
:1048B0000A2B01D800238380053292B20A2A01D83C
:1048C0000023C3804B799B0903724B79C3F3011317
:1048D0004372B0F90030002BB8BF5B429BB2B3F516
:1048E000257F2ED8B0F90230002BB8BF5B429BB2B7
:1048F000B3F5257F25D8B0F90430002BB8BF5B4253
:104900009BB2B3F5257F1CD8B0F90630002BB8BF99
:104910005B429BB2B3F5257F13D88B79CA7943EA02
:10492000022343810B7A4A7A43EA022383810B7B79
:1049300083734B7BC3738B7BCA7B43EA0223038263
:1049400005E00023036043608360C360036110BD22
:1049500000B583B0354B1B681A6812F0200F09D0E0
:10496000002200921A6800925B680093009B03B0DB
:104970005DF804FB2E4A126812F0100FF7D00022E7
:1049800001921A6801925B680193019B294B1B6895
:104990001A6812F4002F23D11A6822F001021A605B
:1049A000244802685368C3F124039BB222490B8058
:1049B00024215160116841F40021116001680A68E6
:1049C00042F001020A60122BD1D11C491C48FFF7AA
:1049D0001FFF01224FF400611A4801F0D9FAC6E71F
:1049E0001A6822F001021A60124908684368C3F18C
:1049F0002403114A1380242343601348836A23F459
:104A00000023836209680B6843F001030B6013887D
:104A1000122BACD10D490A48FFF7FAFE01224FF4E0
:104A20008051084801F0B4FAA1E700BFD48100200A
:104A3000004800407480002018110020D010002091
:104A4000BC100020001C024000600240F410002056
:104A5000F0B583B007460D461D4E40F2311333606A
:104A60000023B360F3600822326133750B78194C70
:104A700023704B7863708B78A370CB78E3700B79DD
:104A800023714B7963718B79A371CB79E37101AB9E
:104A90002246314600F0D2FB4FF4997333602B7AF3
:104AA00023706B7A6370AB7AA370EB7AE3702B7B25
:104AB00023716B7B6371AB7BA371EB7BE37101AB08
:104AC00022463146384600F0B9FB03B0F0BD00BFC6
:104AD000901000208810002010B4164B1B685C69F1
:104AE00044F040045C61DC6844F01004DC60124B6C
:104AF0001C68236823F00103236003E01C6824F092
:104B000001041C600C4B1B681C6814F0010FF5D1EC
:104B10000A4C9C60D86019615A601A6842F480227D
:104B20001A60054B1A68136843F0010313605DF8BF
:104B3000044B7047D481002074800020044800405A
:104B400008B5034824228118FFF7C6FF08BD00BF3F
:104B5000D010002008B503280AD006280ED001285E
:104B600000D008BD4FF0FF33074802F038FCF8E7EB
:104B70004FF0FF33054802F032FCF2E74FF0FF330D
:104B8000034802F02CFCECE794810020D481002043
:104B90001482002010B504460E4B18784FF47A7337
:104BA000B3FBF0F30C4A1068B0FBF3F000F004FE26
:104BB00068B90F2C01D901200AE0002221464FF0EC
:104BC000FF3000F0B3FD054B1C60002000E0012029
:104BD00010BD00BF3E000020480000204000002023
:104BE00008B50B4B1A6842F400721A601A6842F456
:104BF00080621A601A6842F480721A60032000F022
:104C000083FD0F20FFF7C6FF05F006FA002008BD60
:104C1000003C0240034A1168034B1B780B441360AD
:104C2000704700BF1C1100203E000020014B186897
:104C3000704700BF1C1100204A4B5A6822F44032D2
:104C40005A605A6841680A435A600268536823F4FC
:104C50008073536002685368016943EA012353601B
:104C60000268536823F04073536002685368816898
:104C70000B4353600268936823F4006393600268F7
:104C80009368C1680B439360826A374B9A4257D04E
:104C90000268936823F07063936002689368816A86
:104CA0000B4393600268936823F04053936002685B
:104CB0009368C16A0B4393600268936823F0020310
:104CC000936002689368017E43EA4103936090F821
:104CD0002030002B3FD00268536843F400635360D8
:104CE0000268536823F46043536001684B68426A6A
:104CF000013A43EA42334B600268D36A23F47003FB
:104D0000D3620168CB6AC269013A43EA0253CB62BB
:104D10000268936823F4007393600268936890F8C4
:104D2000301043EA412393600268936823F4806360
:104D3000936002689368416943EA812393607047F6
:104D40000268936823F0706393600268936823F0AD
:104D500040539360B0E70268536823F400635360E4
:104D6000CAE700BF002301400100000F38B310B5AF
:104D70000446036C43B1236C13F0100F0BD00120D9
:104D8000002384F83C3010BD04F0E0FA0023636493
:104D900084F83C30EFE7236C23F4885323F00203BC
:104DA00043F0020323642046FFF746FF00206064BF
:104DB000236C23F0030343F001032364E0E70120A5
:104DC0007047000030B482B00023019390F83C306B
:104DD000012B00F0BB80012380F83C300B68092BCD
:104DE00041D90468E2689BB203EB43031E3B4FF0DA
:104DF000070C0CFA03F322EA0303E3600468E26899
:104E00000B8803EB43031E3B8D6805FA03F3134342
:104E1000E3604B68062B3DD80468626B03EB8303A9
:104E2000053B4FF01F0C0CFA03F322EA0303636304
:104E30000468626B4B6803EB8303053BB1F800C069
:104E40000CFA03F3134363630268414B9A4251D057
:104E500002683F4B9A4256D0002380F83C301846F7
:104E600002B030BC7047046822699BB203EB430375
:104E70004FF0070C0CFA03F322EA030323610468E2
:104E800022690B8803EB43038D6805FA03F3134390
:104E90002361BEE70C2B16D805682A6B03EB83034E
:104EA000233B1F2404FA03F322EA03032B63056860
:104EB0002A6B4B6803EB8303233B0C8804FA03F350
:104EC00013432B63C0E70568EA6A03EB8303413BA6
:104ED0001F2404FA03F322EA0303EB620568EA6A7B
:104EE0004B6803EB8303413B0C8804FA03F3134341
:104EF000EB62A9E70B68122BAAD1164A536843F458
:104F000080035360A4E70B68103B012BA4D8114A1F
:104F1000536843F4000353600B68102B9CD10E4B75
:104F20001B6802F1467202F52E3202F28332A2FBB6
:104F300003239B0C03EB83035B00019302E0019BC3
:104F4000013B0193019B002BF9D185E7022087E704
:104F5000002001400023014048000020002800F00C
:104F6000A18038B5044690F82030D3B12268136888
:104F700023F002031360FFF759FE054623685A68C1
:104F800012F0020F10D0FFF751FE401B0A28F5D98E
:104F9000636A43F400336362052384F82030012000
:104FA00038BD04F05BFAE1E71A6842F001021A60CA
:104FB000FFF73CFE054623685A6812F0010F0DD139
:104FC000FFF734FE401B0A28F5D9636A43F4003327
:104FD0006362052384F820300120E1E7227E012A64
:104FE0003DD01A6822F080021A60637E012B3BD00C
:104FF0002268136823F040031360A37E012B39D08D
:105000002268136823F020031360E37E012B37D05E
:105010002268136843F010031360237F012B35D0FF
:105020002268136823F008031360637F012B33D0D9
:105030002268136823F004031360A368E268134333
:1050400022691343626913436268013A216813437A
:10505000CB6100206062012384F82030A0E71A6849
:1050600042F080021A60C0E72268136843F04003F0
:105070001360C2E72268136843F020031360C4E79B
:105080002268136823F010031360C6E722681368D0
:1050900043F008031360C8E72268136843F0040371
:1050A0001360CAE70120704790F82030013BDBB263
:1050B000012B05D9436A43F48023436201207047E2
:1050C00030B5464BD3F8002242F00102C3F800226B
:1050D000D3F8002222F47C52C3F80022D3F8002235
:1050E000486A42EA0022C3F800224A6902F01F021D
:1050F000012000FA02F2D3F81C026FEA020C20EA47
:105100000200C3F81C02CB69C3B9344BD3F80C02BC
:105110000CEA0000C3F80C028C884869CD6844EAA8
:105120000544483043F830408C68088840EA044021
:105130004C6904F1480E03EBCE035860CB69012B98
:105140001ED08B69002B33D12448D0F804320CEAEE
:105150000303C0F804320B698BBB2048D0F814322B
:105160000CEA0303C0F814320B6A012B2ED01B4A41
:10517000D2F8003223F00103C2F80032002030BD23
:10518000164BD3F80C021043C3F80C028C88486904
:105190000D6844EA0544483043F8304088894C693A
:1051A0008D6840EA0540483403EBC4035860C8E703
:1051B0000A48D0F804321343C0F80432CBE707485A
:1051C000D0F814321343C0F81432CDE70349D1F8B4
:1051D0001C321A43C1F81C22C9E700BF006400401A
:1051E00070B5044690F82050EDB2012D06D0436A08
:1051F00043F4002343620125284670BD022380F852
:1052000020300268136823F001031360FFF70EFDDE
:10521000064623685B6813F0010F0CD0FFF706FD0C
:10522000831B0A2BF5D9636A43F4003363620523B9
:1052300084F82030E0E700256562DDE730B590F8BE
:1052400020C00468A4680CF1FF3C5FFA8CFCBCF140
:10525000010F6BD814F0E05F62D0C4F3016CBCF1B5
:10526000020F05D9436A43F400034362012062E060
:10527000012404FA0CF41C608B68002B3DD10D68EE
:10528000CB68046843EA45550CF118031B01E5504F
:1052900003680C690CF1180E03EB0E135C600B7DB8
:1052A000012B35D0D17993791B0443EA01635179FD
:1052B00043EA012314790168234301EB0C11C1F87F
:1052C0008C31D17893781B0443EA0163517843EA27
:1052D0000123117802680B4302EB0C12C2F88831EB
:1052E00002680CF1180C4FEA0C1C52F80C3043F019
:1052F000010342F80C3000201DE04C6843EAC4036F
:10530000CC6823430CF11804240105682B51BFE736
:10531000036803EB0E13596841F480715960C1E7CB
:10532000436A43F400134362012004E0436A43F4F8
:1053300080234362012030BD90F820C00CF1FF3C77
:105340005FFA8CFCBCF1010F00F2958030B451B9CA
:105350000468E46814F0030F10D1436A43F40013A7
:105360004362012077E00468246914F0030F05D13B
:10537000436A43F40013436201206CE001F11B0413
:10538000240105682C5904F004049460002C64D1B5
:1053900001F11B04240105682C59640D1460046894
:1053A00001F11B0C4FEA0C1C54F80C4004F00204F1
:1053B000D46004686444646804F00F0414610468F1
:1053C00064446468C4F307249461046864446468B2
:1053D000240C5461026802EB0112D2F8B8211A7051
:1053E000026802EB0112D2F8B821C2F307225A7008
:1053F000026802EB0112D2F8B821C2F307429A7098
:10540000026802EB0112D2F8B821120EDA700268BB
:1054100002EB0112D2F8BC211A71026802EB0112F0
:10542000D2F8BC21C2F307225A71026802EB0112C2
:10543000D2F8BC21C2F307429A71026802EB011252
:10544000D2F8BC21120EDA7179B90268D36843F040
:105450002003D360002030BC704701F11B042401FD
:1054600005682C59E408546099E70268136943F011
:1054700020031361EEE7436A43F480234362012073
:10548000704790F82030013BDBB2012B05D9436A0D
:1054900043F4802343620120704702685369194333
:1054A00051610020704770477047704770477047E0
:1054B00070477047704770477047704770472DE9D5
:1054C000F84F054603685C69D3F804809F68D3F8F9
:1054D0000CB0D3F810A0D3F8189014F001063BD00C
:1054E00017F0010616D001229A6017F0020F08D1BA
:1054F00017F0040F0CD117F0080606D04FF48056B1
:1055000008E0FFF7D0FF002604E0FFF7CFFF01E03F
:105510004FF4006617F4807F0DD02B684FF4807233
:105520009A6017F4007F40F0868017F4806F00F0D7
:10553000868046F4005617F4803F0DD02B684FF458
:1055400080329A6017F4003F40F0838017F4802F78
:1055500000F0838046F4004614F0080F07D01BF0DB
:10556000100F04D046F400762B681022DA6014F095
:10557000040F02D01BF0080F79D114F0020F04D0F1
:105580002B68DB6813F0030F78D114F0400F07D0BD
:105590001AF0100F04D046F480662B6810221A61AE
:1055A00014F0200F02D01AF0080F6BD114F0100F76
:1055B00004D02B681B6913F0030F6AD114F4003F69
:1055C00002D018F0100F68D114F4803F02D018F008
:1055D000080F69D114F4004F7AD018F0040F74D07A
:1055E00014F4807F04D019F0010F01D046F00106B9
:1055F00014F4007F04D019F0020F01D046F0020627
:1056000014F4806F04D019F0040F01D046F00406A2
:1056100014F4006F59D019F0700956D0B9F1400F49
:1056200065D058D8B9F1200F5ED0B9F1300F42D112
:1056300046F0200644E02846FFF736FF7BE717F4E4
:10564000006F02D046F4804675E72846FFF72FFF2B
:1056500071E72846FFF729FF7EE717F4002F02D0F5
:1056600046F4803678E72846FFF722FF74E72B6878
:105670000822DA602846FFF71CFF7EE72846FCF781
:1056800073FF82E72B6808221A612846FFF713FF91
:105690008CE72846FFF70EFF90E72B6810225A6030
:1056A0002846FFF709FF8FE72B6808225A60284633
:1056B000FFF703FF8EE7B9F1100F01D146F008069E
:1056C0002A68936923F0700393612B6804225A605F
:1056D0009EB9BDE8F88FB9F1500F0BD0B9F1600F4A
:1056E000EED146F48076EBE746F01006E8E746F0A8
:1056F0004006E5E746F08006E2E76B6A1E436E620D
:105700002846FFF7DBFEE4E7074AD36823F4E063AB
:105710001B041B0C000200F4E060034343F0BF6372
:1057200043F40033D360704700ED00E000B5194B3F
:10573000DB68C3F30223C3F1070CBCF1040F28BFDD
:105740004FF0040C03F1040EBEF1060F18D9033B11
:105750004FF0FF3E0EFA0CFC21EA0C0199400EFAC4
:1057600003F322EA0303194300280BDB0901C9B242
:1057700000F1604000F5614080F800135DF804FB23
:105780000023E5E700F00F000901C9B2024B1954EC
:10579000F4E700BF00ED00E014ED00E0002807DBB7
:1057A00000F01F02400901239340024A42F82030D2
:1057B000704700BF00E100E00138B0F1807F0BD2FC
:1057C0004FF0E0235861054AF02182F823100020B1
:1057D000986107221A6170470120704700ED00E0D0
:1057E00058B110B5044643791BB101236371002001
:1057F00010BD037103F0D2FEF7E7012070470000EF
:1058000010B40368D9B210390C4AA2FB0142120944
:105810000B4CA25CC2655F2909D923F47F7323F086
:10582000030304338365806D5DF8044B704723F4F4
:105830007F7323F003038365F5E700BFABAAAAAA31
:10584000A4C00008836A826992B9012B0AD0022B96
:1058500002D00BB100207047C36A13F0807F28D1BB
:1058600000207047C36AB3F1C07F24D00020704786
:10587000B2F5005F09D0022B25D9032B25D1C36ACD
:1058800013F0807F23D100207047032B03D8DFE87B
:1058900003F01404140A00207047C36A13F0807FD9
:1058A0000DD100207047C36AB3F1C07F09D000203A
:1058B0007047012070470120704701207047012088
:1058C0007047012070470120704700207047012079
:1058D0007047000070B50446FFF7A8F9002C5BD0B4
:1058E0000546002384F83430022384F835302268DA
:1058F000136823F00103136023681A6812F0010F84
:105900000AD0FFF793F9431B052BF5D920236365D4
:10591000032084F8350070BD1A6820481040616883
:10592000A2680A43E1680A4321690A4361690A439C
:10593000A1690A43E1690A43216A0A430243616A91
:1059400004291ED01A602668756925F00705636A68
:105950001D43042B07D1A36A1D43E36A1BB12046F4
:10596000FFF770FF90B975612046FFF749FFE26DC0
:105970003F239340836000206065012384F8353025
:10598000C9E7E16A206B01430A43DBE74023636513
:10599000012084F83500BEE70120BCE73F8010F00D
:1059A000F0B583B0044600230193724B1D68724B1F
:1059B000A3FB0535AD0A876D3E68C26D0823934091
:1059C000334210D003681A6812F0040F0BD01A6823
:1059D00022F004021A60C26D08239340BB60436D3D
:1059E00043F001034365E26D01239340334209D044
:1059F0002268526912F0800F04D0BB60636D43F0DF
:105A000002036365E26D04239340334209D02268A8
:105A1000126812F0020F04D0BB60636D43F0040300
:105A20006365E26D10239340334224D022681268EC
:105A300012F0080F1FD0BB6023681A6812F4802F81
:105A40000DD01B6813F4002F04D1236C9BB12046AA
:105A5000984710E0A36C73B1204698470BE01A6892
:105A600012F4807F03D11A6822F008021A60236CB6
:105A70000BB120469847E26D20239340334255D026
:105A80002268126812F0100F50D0BB6094F83530C5
:105A9000DBB2052B0ED023681A6812F4802F33D0A6
:105AA0001B6813F4002F2AD1636C002B3ED02046D4
:105AB00098473BE02268136823F0160313602268BE
:105AC000536923F080035361236CA3B122681368E8
:105AD00023F008031360E26D3F239340BB60002373
