:020000040800F2
:1000000000000220696B00089D5F00089F5F0008E8
:10001000A15F0008A35F0008A55F000800000000C2
:10002000000000000000000000000000F1360008A1
:10003000A75F00080000000091370008A95F0008D2
:10004000B96B0008B96B0008B96B0008B96B000800
:10005000B96B0008B96B0008BF5F0008B96B0008F6
:10006000B96B0008C95F0008D35F0008B96B0008CE
:10007000B96B0008B96B0008B96B0008B96B0008D0
:10008000B96B0008B96B0008B96B0008B96B0008C0
:10009000DD5F0008B96B0008B96B0008ED5F000870
:1000A000B96B0008B96B0008B96B0008B96B0008A0
:1000B000B96B0008B96B0008B96B0008B96B000890
:1000C000B96B0008B96B0008B96B0008B96B000880
:1000D000B96B0008B96B0008B96B0008110B000878
:1000E000B96B0008B96B0008B96B0008B96B000860
:1000F000B96B0008B96B0008B96B0008B96B000850
:10010000B96B0008B96B0008B96B0008B96B00083F
:10011000B96B0008B96B0008B96B0008B96B00082F
:10012000B96B0008F95F0008B96B0008B96B0008EB
:10013000B96B0008B96B0008B96B0008B96B00080F
:1001400009600008B96B0008B96B0008B96B0008BA
:10015000B96B00081960000829600008B96B000835
:10016000B96B0008B96B0008B96B0008B96B0008DF
:10017000B96B0008B96B0008B96B000800000000FB
:08018000B96B0008B96B00081F
:1001900010B5054C237833B9044B13B10448AFF3C1
:1001A00000800123237010BD3C04002000000000EB
:1001B000886D000808B5034B1BB103490348AFF332
:1001C000008008BD0000000040040020886D000889
:1001D00053B94AB9002908BF00281CBF4FF0FF31AE
:1001E0004FF0FF3000F074B9ADF1080C6DE904CEAA
:1001F00000F006F8DDF804E0DDE9022304B0704702
:100200002DE9F047089D04468E46002B4DD18A42C9
:10021000944669D9B2FA82F252B101FA02F3C2F1FC
:10022000200120FA01F10CFA02FC41EA030E94408D
:100230004FEA1C48210CBEFBF8F61FFA8CF708FBAE
:1002400016E341EA034306FB07F199420AD91CEB86
:10025000030306F1FF3080F01F81994240F21C81B8
:10026000023E63445B1AA4B2B3FBF8F008FB103300
:1002700044EA034400FB07F7A7420AD91CEB040435
:1002800000F1FF3380F00A81A74240F20781644405
:10029000023840EA0640E41B00261DB1D44000238A
:1002A000C5E900433146BDE8F0878B4209D9002DEE
:1002B00000F0EF800026C5E9000130463146BDE878
:1002C000F087B3FA83F6002E4AD18B4202D38242E2
:1002D00000F2F980841A61EB030301209E46002D91
:1002E000E0D0C5E9004EDDE702B9FFDEB2FA82F2E6
:1002F000002A40F09280A1EB0C014FEA1C471FFA44
:100300008CFE0126200CB1FBF7F307FB131140EA2A
:1003100001410EFB03F0884208D91CEB010103F1F7
:10032000FF3802D2884200F2CB804346091AA4B2B9
:10033000B1FBF7F007FB101144EA01440EFB00FE8D
:10034000A64508D91CEB040400F1FF3102D2A645F2
:1003500000F2BB800846A4EB0E0440EA03409CE791
:10036000C6F12007B34022FA07FC4CEA030C20FA3E
:1003700007F401FA06F31C43F9404FEA1C4900FA5E
:1003800006F3B1FBF9F8200C1FFA8CFE09FB1811DB
:1003900040EA014108FB0EF0884202FA06F20BD94E
:1003A0001CEB010108F1FF3A80F08880884240F29E
:1003B0008580A8F102086144091AA4B2B1FBF9F0E2
:1003C00009FB101144EA014100FB0EFE8E4508D9DD
:1003D0001CEB010100F1FF346CD28E456AD9023862
:1003E000614440EA0840A0FB0294A1EB0E01A14247
:1003F000C846A64656D353D05DB1B3EB080261EBB5
:100400000E0101FA07F722FA06F3F1401F43C5E98E
:10041000007100263146BDE8F087C2F12003D840C4
:100420000CFA02FC21FA03F3914001434FEA1C4706
:100430001FFA8CFEB3FBF7F007FB10360B0C43EAF8
:10044000064300FB0EF69E4204FA02F408D91CEBA8
:10045000030300F1FF382FD29E422DD902386344A6
:100460009B1B89B2B3FBF7F607FB163341EA034146
:1004700006FB0EF38B4208D91CEB010106F1FF3895
:1004800016D28B4214D9023E6144C91A46EA00468C
:1004900038E72E46284605E70646E3E61846F8E61E
:1004A0004B45A9D2B9EB020864EB0C0E0138A3E767
:1004B0004646EAE7204694E74046D1E7D0467BE748
:1004C000023B614432E7304609E76444023842E7C0
:1004D000704700BF844641EA000313F003036DD167
:1004E000403A41D351F8043B40F8043B51F8043BF7
:1004F00040F8043B51F8043B40F8043B51F8043BFE
:1005000040F8043B51F8043B40F8043B51F8043BED
:1005100040F8043B51F8043B40F8043B51F8043BDD
:1005200040F8043B51F8043B40F8043B51F8043BCD
:1005300040F8043B51F8043B40F8043B51F8043BBD
:1005400040F8043B51F8043B40F8043B51F8043BAD
:1005500040F8043B51F8043B40F8043B51F8043B9D
:1005600040F8043B403ABDD2303211D351F8043B3D
:1005700040F8043B51F8043B40F8043B51F8043B7D
:1005800040F8043B51F8043B40F8043B103AEDD2EC
:100590000C3205D351F8043B40F8043B043AF9D23D
:1005A000043208D0D2071CBF11F8013B00F8013B10
:1005B00001D30B8803806046704700BF082A13D31D
:1005C0008B078DD010F003038AD0C3F10403D21A35
:1005D000DB071CBF11F8013B00F8013B80D331F869
:1005E000023B20F8023B7BE7043AD9D3013A11F8E9
:1005F000013B00F8013BF9D20B7803704B78437054
:100600008B78837060467047724B00221A6093F8B3
:10061000351062F3000183F8351093F835100A2085
:1006200060F3870183F8351093F83810642183F85C
:10063000381093F8391083F8392093F8361083F87E
:10064000362093F8371083F8372093F8311083F869
:10065000312093F8321083F8322093F8331083F866
:10066000332093F8341083F8342093F8351041F098
:10067000020183F8351093F8471062F3000183F804
:10068000471093F8471060F3870183F84710996C7F
:10069000C0F2C8019964996C62F30F01996493F8F0
:1006A000431083F8432093F8441083F8442093F8D0
:1006B000451083F8452093F8461083F8462093F8B8
:1006C000471041F0020183F84710D98F62F300010F
:1006D000D987D98F092060F38701D987B3F84010F3
:1006E000C9B241F44841A3F8401093F8421083F88E
:1006F0004220D98FC9B2D987B3F8401021F0FF0149
:10070000A3F84010598F5A87998F9A87D88F40F055
:100710000201D987B3F8621062F30001A3F86210F6
:10072000B3F86210082060F38701A3F86210B3F8F1
:100730006410C9B241F44841A3F8641093F86610FC
:1007400083F86620B3F86210C9B2A3F86210B3F858
:10075000641021F0FF01A3F86410B3F85E10A3F851
:100760005E20B3F86010A3F86020B3F8620040F098
:100770000201A3F8621029E0501C00EBC0031549E8
:100780000B44197A6FF3000119720232197A62F37D
:1007900087011972DA7A00226FF03701D972197B5A
:1007A0001A73597A5A72997A9A7293F804C01A7124
:1007B00093F805C05A7193F806C09A7193F807C070
:1007C000DA711A7A42F002021A720246052AD3DD61
:1007D000704700BF5804002038B5FFF715FF6420AC
:1007E00002F0DCFE40E004EBC402214B13441A7A11
:1007F0006FF300021A7201340A2C2FDC00F0A6FA03
:1008000004EBC4021A4B13445A68801A80B2A3F84E
:1008100009001B7A13F0020FE5D004EBC402144B5D
:100820001344B3F80920B3F80B309A42DBD904EB38
:10083000C4020F4B13441A7A42F001021A721B7A57
:10084000B5EB930FD7DA0A4A04EBC40313441D7ABD
:10085000AD080433136082F86740CCE7044B0022F4
:100860001A60322002F09AFE00242546C4E700BF39
:100870005804002000B585B002F051FE0390142307
:100880008DF804308DF805308DF806308DF807307E
:100890008DF808308DF809308DF80A308DF80B305E
:1008A0000A4C4FF48051204601F056FA4FF4006193
:1008B000204601F051FA4FF4FA7000F04DFA4FF46F
:1008C000FA7103A802F071FEEAE700BF001C0240C3
:1008D00000B58BB001220892002306930792009383
:1008E000019302930393059304936946134800F020
:1008F0007FFC0028F9D1114800F016FD0028FAD13C
:1009000002210E4800F0BCFD0028F9D10E23099306
:10091000059369460A4800F06BFC0028F9D10848A5
:1009200000F002FD0028FAD10221054800F0A8FDE0
:100930000028F9D10BB05DF804FB00BF88680020E7
:10094000B0680020704710B591F800E04B784EEA8F
:10095000032ECEF30A0EA0F800E0AEF5806E1FFA6B
:100960008EFEA0F800E091F801C08B784FEADC0C15
:100970004CEA431CCCF30A0CA0F802C0ACF5806C26
:100980001FFA8CFCA0F802C08B78CA789B0943EA56
:1009900082030A7943EA8223C3F30A038380A3F51F
:1009A00080639BB283800A794C79520842EAC41270
:1009B000C2F30A02C280A2F5806292B2C2800EF136
:1009C000050E1FFA8EFEBEF10A0F01D80024048026
:1009D0000CF1050C1FFA8CFCBCF10A0F01D80024A5
:1009E000448005339BB20A2B01D800238380053253
:1009F00092B20A2A01D80023C3804B799B09037263
:100A00004B79C3F301134372B0F90030002BB8BF28
:100A10005B429BB2B3F5257F2ED8B0F90230002B94
:100A2000B8BF5B429BB2B3F5257F25D8B0F904303F
:100A3000002BB8BF5B429BB2B3F5257F1CD8B0F941
:100A40000630002BB8BF5B429BB2B3F5257F13D8AD
:100A50008B79CA7943EA022343810B7A4A7A43EAC3
:100A6000022383810B7B83734B7BC3738B7BCA7B9A
:100A700043EA0223038205E00023036043608360AE
:100A8000C360036110BD0000F0B583B007460D469A
:100A90001D4E40F2311333600023B360F36008222F
:100AA000326133750B78194C23704B7863708B78F7
:100AB000A370CB78E3700B7923714B7963718B79D9
:100AC000A371CB79E37101AB2246314600F05AFCA9
:100AD0004FF4997333602B7A23706B7A6370AB7A1F
:100AE000A370EB7AE3702B7B23716B7B6371AB7B21
:100AF000A371EB7BE37101AB22463146384600F02F
:100B000041FC03B0F0BD00BFC8040020C0040020B9
:100B100010B582B03D4B1B681A6812F0200F08D048
:100B2000002200921A6800925B680093009B02B05A
:100B300010BD374A126812F0100FF8D0002201924F
:100B40001A6801925B680193019B324B1B681A681B
:100B500012F4002F2CD11A6822F001021A602D48DD
:100B600002685368C3F124039BB22B490B802421F4
:100B70005160116841F40021116001680A6842F077
:100B800001020A60122BD2D1244C21462448FFF7DF
:100B9000DAFE21462348FFF777FF21462248FFF778
:100BA00073FF01224FF40061204801F0CFF8BEE747
:100BB0001A6822F001021A60164908684368C3F1F6
:100BC0002403154A1380242343601948836A23F4BD
:100BD0000023836209680B6843F001030B601388EC
:100BE000122BA4D1134C21460D48FFF7ACFE214631
:100BF0000C48FFF749FF21460B48FFF745FF01224C
:100C00004FF48051094801F0A1F890E7D475002015
:100C100000480040747400203C050020F4040020CB
:100C2000E0040020B068002088680020001C02401A
:100C3000006002401805002010B4164B1B685C6968
:100C400044F040045C61DC6844F01004DC60124B4A
:100C50001C68236823F00103236003E01C6824F070
:100C600001041C600C4B1B681C6814F0010FF5D1CB
:100C70000A4C9C60D86019615A601A6842F480225C
:100C80001A60054B1A68136843F0010313605DF89E
:100C9000044B7047D4750020747400200448004051
:100CA00008B5034824228118FFF7C6FF08BD00BF1E
:100CB000F404002010B504460E4B18784FF47A73F4
:100CC000B3FBF0F30C4A1068B0FBF3F000F074FDD6
:100CD00068B90F2C01D901200AE0002221464FF00B
:100CE000FF3000F023FD054B1C60002000E00120D8
:100CF00010BD00BF000000200C00002004000020F8
:100D000008B50B4B1A6842F400721A601A6842F474
:100D100080621A601A6842F480721A60032000F040
:100D2000F3FC0F20FFF7C6FF05F016F9002008BD01
:100D3000003C0240034A1168034B1B780B441360CC
:100D4000704700BF4005002000000020014B1868DC
:100D5000704700BF4005002038B50446FFF7F6FF96
:100D60000546B4F1FF3F02D0044B1B781C44FFF74B
:100D7000EDFF401BA042FAD338BD00BF00000020A9
:100D80004A4B5A6822F440325A605A6841680A4312
:100D90005A600268536823F4807353600268536892
:100DA000016943EA012353600268536823F04073EA
:100DB00053600268536881680B435360026893680C
:100DC00023F40063936002689368C1680B439360E7
:100DD000826A374B9A4257D00268936823F0706357
:100DE000936002689368816A0B439360026893681A
:100DF00023F04053936002689368C16A0B43936089
:100E00000268936823F00203936002689368017E8E
:100E100043EA4103936090F82030002B3FD00268F2
:100E2000536843F4006353600268536823F46043DB
:100E3000536001684B68426A013A43EA42334B60AF
:100E40000268D36A23F47003D3620168CB6AC26973
:100E5000013A43EA0253CB620268936823F40073B9
:100E600093600268936890F8301043EA41239360DE
:100E70000268936823F48063936002689368416911
:100E800043EA8123936070470268936823F070639C
:100E900093600268936823F040539360B0E7026860
:100EA000536823F400635360CAE700BF0023014086
:100EB0000100000F38B310B50446036C43B1236C36
:100EC00013F0100F0BD00120002384F83C3010BD2C
:100ED00004F0F4F90023636484F83C30EFE7236CFA
:100EE00023F4885323F0020343F0020323642046D3
:100EF000FFF746FF00206064236C23F0030343F0F8
:100F000001032364E0E701207047000030B482B0A1
:100F10000023019390F83C30012B00F0BB800123AB
:100F200080F83C300B68092B41D90468E2689BB219
:100F300003EB43031E3B4FF0070C0CFA03F322EACA
:100F40000303E3600468E2680B8803EB43031E3B82
:100F50008D6805FA03F31343E3604B68062B3DD815
:100F60000468626B03EB8303053B4FF01F0C0CFA24
:100F700003F322EA030363630468626B4B6803EBC9
:100F80008303053BB1F800C00CFA03F3134363631A
:100F90000268414B9A4251D002683F4B9A4256D068
:100FA000002380F83C30184602B030BC704704681B
:100FB00022699BB203EB43034FF0070C0CFA03F3D7
:100FC00022EA03032361046822690B8803EB4303CD
:100FD0008D6805FA03F313432361BEE70C2B16D883
:100FE00005682A6B03EB8303233B1F2404FA03F3F6
:100FF00022EA03032B6305682A6B4B6803EB830328
:10100000233B0C8804FA03F313432B63C0E7056802
:10101000EA6A03EB8303413B1F2404FA03F322EA49
:101020000303EB620568EA6A4B6803EB8303413B09
:101030000C8804FA03F31343EB62A9E70B68122B45
:10104000AAD1164A536843F480035360A4E70B689F
:10105000103B012BA4D8114A536843F4000353609A
:101060000B68102B9CD10E4B1B6802F1467202F5E7
:101070002E3202F28332A2FB03239B0C03EB830389
:101080005B00019302E0019B013B0193019B002B5C
:10109000F9D185E7022087E70020014000230140C5
:1010A0000C000020002800F0A18038B5044690F81C
:1010B0002030D3B12268136823F002031360FFF7D6
:1010C00045FE054623685A6812F0020F10D0FFF75C
:1010D0003DFE401B0A28F5D9636A43F4003363627E
:1010E000052384F82030012038BD04F06FF9E1E7D2
:1010F0001A6842F001021A60FFF728FE05462368CD
:101100005A6812F0010F0DD1FFF720FE401B0A288C
:10111000F5D9636A43F400336362052384F8203011
:101120000120E1E7227E012A3DD01A6822F08002E8
:101130001A60637E012B3BD02268136823F04003C2
:101140001360A37E012B39D02268136823F020039B
:101150001360E37E012B37D02268136843F010033D
:101160001360237F012B35D02268136823F0080316
:101170001360637F012B33D02268136823F00403CC
:101180001360A368E268134322691343626913433F
:101190006268013A21681343CB6100206062012339
:1011A00084F82030A0E71A6842F080021A60C0E795
:1011B0002268136843F040031360C2E72268136893
:1011C00043F020031360C4E72268136823F0100380
:1011D0001360C6E72268136843F008031360C8E78A
:1011E0002268136843F004031360CAE701207047C4
:1011F00090F82030013BDBB2012B05D9436A43F460
:10120000802343620120704730B5464BD3F800225B
:1012100042F00102C3F80022D3F8002222F47C52EB
:10122000C3F80022D3F80022486A42EA0022C3F839
:1012300000224A6902F01F02012000FA02F2D3F8EC
:101240001C026FEA020C20EA0200C3F81C02CB6900
:10125000C3B9344BD3F80C020CEA0000C3F80C02FB
:101260008C884869CD6844EA0544483043F83040EA
:101270008C68088840EA04404C6904F1480E03EB8E
:10128000CE035860CB69012B1ED08B69002B33D164
:101290002448D0F804320CEA0303C0F804320B6986
:1012A0008BBB2048D0F814320CEA0303C0F8143288
:1012B0000B6A012B2ED01B4AD2F8003223F0010317
:1012C000C2F80032002030BD164BD3F80C02104398
:1012D000C3F80C028C8848690D6844EA054448301C
:1012E00043F8304088894C698D6840EA05404834AD
:1012F00003EBC4035860C8E70A48D0F8043213432C
:10130000C0F80432CBE70748D0F814321343C0F8D2
:101310001432CDE70349D1F81C321A43C1F81C221C
:10132000C9E700BF0064004070B5044690F8205043
:10133000EDB2012D06D0436A43F400234362012538
:10134000284670BD022380F820300268136823F01D
:1013500001031360FFF7FAFC064623685B6813F08D
:10136000010F0CD0FFF7F2FC831B0A2BF5D9636A3F
:1013700043F400336362052384F82030E0E700255E
:101380006562DDE730B590F820C00468A4680CF110
:10139000FF3C5FFA8CFCBCF1010F6BD814F0E05FEE
:1013A00062D0C4F3016CBCF1020F05D9436A43F467
:1013B00000034362012062E0012404FA0CF41C6083
:1013C0008B68002B3DD10D68CB68046843EA455516
:1013D0000CF118031B01E55003680C690CF1180EA1
:1013E00003EB0E135C600B7D012B35D0D179937923
:1013F0001B0443EA0163517943EA0123147901682C
:10140000234301EB0C11C1F88C31D17893781B0484
:1014100043EA0163517843EA0123117802680B43E0
:1014200002EB0C12C2F8883102680CF1180C4FEA7A
:101430000C1C52F80C3043F0010342F80C30002031
:101440001DE04C6843EAC403CC6823430CF1180444
:10145000240105682B51BFE7036803EB0E1359689D
:1014600041F480715960C1E7436A43F40013436259
:10147000012004E0436A43F480234362012030BD2D
:1014800090F82030013BDBB2012B05D9436A43F4CD
:1014900080234362012070470268536919435161F8
:1014A000002070477047704770477047704770471B
:1014B0007047704770477047704770472DE9F84F85
:1014C000054603685C69D3F804809F68D3F80CB0C4
:1014D000D3F810A0D3F8189014F001063BD017F001
:1014E000010616D001229A6017F0020F08D117F0FA
:1014F000040F0CD117F0080606D04FF4805608E010
:10150000FFF7D0FF002604E0FFF7CFFF01E04FF424
:10151000006617F4807F0DD02B684FF480729A60BC
:1015200017F4007F40F0868017F4806F00F086800B
:1015300046F4005617F4803F0DD02B684FF48032EC
:101540009A6017F4003F40F0838017F4802F00F07A
:10155000838046F4004614F0080F07D01BF0100FEC
:1015600004D046F400762B681022DA6014F0040FE1
:1015700002D01BF0080F79D114F0020F04D02B68B1
:10158000DB6813F0030F78D114F0400F07D01AF086
:10159000100F04D046F480662B6810221A6114F0F4
:1015A000200F02D01AF0080F6BD114F0100F04D0E6
:1015B0002B681B6913F0030F6AD114F4003F02D0AB
:1015C00018F0100F68D114F4803F02D018F0080F03
:1015D00069D114F4004F7AD018F0040F74D014F4C9
:1015E000807F04D019F0010F01D046F0010614F4F9
:1015F000007F04D019F0020F01D046F0020614F467
:10160000806F04D019F0040F01D046F0040614F4E2
:10161000006F59D019F0700956D0B9F1400F65D05C
:1016200058D8B9F1200F5ED0B9F1300F42D146F051
:10163000200644E02846FFF736FF7BE717F4006FEB
:1016400002D046F4804675E72846FFF72FFF71E782
:101650002846FFF729FF7EE717F4002F02D046F453
:10166000803678E72846FFF722FF74E72B680822C8
:10167000DA602846FFF71CFF7EE72846FFF762F98D
:1016800082E72B6808221A612846FFF713FF8CE7D0
:101690002846FFF70EFF90E72B6810225A60284675
:1016A000FFF709FF8FE72B6808225A602846FFF7EB
:1016B00003FF8EE7B9F1100F01D146F008062A6842
:1016C000936923F0700393612B6804225A609EB9DA
:1016D000BDE8F88FB9F1500F0BD0B9F1600FEED122
:1016E00046F48076EBE746F01006E8E746F0400661
:1016F000E5E746F08006E2E76B6A1E436E62284625
:10170000FFF7DBFEE4E70000074AD36823F4E06359
:101710001B041B0C000200F4E060034343F0BF63B2
:1017200043F40033D360704700ED00E000B5194B7F
:10173000DB68C3F30223C3F1070CBCF1040F28BF1D
:101740004FF0040C03F1040EBEF1060F18D9033B51
:101750004FF0FF3E0EFA0CFC21EA0C0199400EFA04
:1017600003F322EA0303194300280BDB0901C9B282
:1017700000F1604000F5614080F800135DF804FB63
:101780000023E5E700F00F000901C9B2024B19542C
:10179000F4E700BF00ED00E014ED00E0002807DBF7
:1017A00000F01F02400901239340024A42F8203012
:1017B000704700BF00E100E00138B0F1807F0BD23C
:1017C0004FF0E0235861054AF02182F823100020F1
:1017D000986107221A6170470120704700ED00E010
:1017E00058B110B5044643791BB101236371002041
:1017F00010BD037103F08AFEF7E701207047000077
:1018000010B40368D9B210390C4AA2FB0142120984
:101810000B4CA25CC2655F2909D923F47F7323F0C6
:10182000030304338365806D5DF8044B704723F434
:101830007F7323F003038365F5E700BFABAAAAAA71
:10184000106E0008836A826992B9012B0AD0022BBC
:1018500002D00BB100207047C36A13F0807F28D1FB
:1018600000207047C36AB3F1C07F24D000207047C6
:10187000B2F5005F09D0022B25D9032B25D1C36A0D
:1018800013F0807F23D100207047032B03D8DFE8BB
:1018900003F01404140A00207047C36A13F0807F19
:1018A0000DD100207047C36AB3F1C07F09D000207A
:1018B00070470120704701207047012070470120C8
:1018C00070470120704701207047002070470120B9
:1018D0007047000070B50446FFF738FA002C5BD063
:1018E0000546002384F83430022384F8353022681A
:1018F000136823F00103136023681A6812F0010FC4
:101900000AD0FFF723FA431B052BF5D92023636583
:10191000032084F8350070BD1A68204810406168C3
:10192000A2680A43E1680A4321690A4361690A43DC
:10193000A1690A43E1690A43216A0A430243616AD1
:1019400004291ED01A602668756925F00705636AA8
:101950001D43042B07D1A36A1D43E36A1BB1204634
:10196000FFF770FF90B975612046FFF749FFE26D00
:101970003F239340836000206065012384F8353065
:10198000C9E7E16A206B01430A43DBE74023636553
:10199000012084F83500BEE70120BCE73F8010F04D
:1019A000F0B583B0044600230193724B1D68724B5F
:1019B000A3FB0535AD0A876D3E68C26D08239340D1
:1019C000334210D003681A6812F0040F0BD01A6863
:1019D00022F004021A60C26D08239340BB60436D7D
:1019E00043F001034365E26D01239340334209D084
:1019F0002268526912F0800F04D0BB60636D43F01F
:101A000002036365E26D04239340334209D02268E8
:101A1000126812F0020F04D0BB60636D43F0040340
:101A20006365E26D10239340334224D0226812682C
:101A300012F0080F1FD0BB6023681A6812F4802FC1
:101A40000DD01B6813F4002F04D1236C9BB12046EA
:101A5000984710E0A36C73B1204698470BE01A68D2
:101A600012F4807F03D11A6822F008021A60236CF6
:101A70000BB120469847E26D20239340334255D066
:101A80002268126812F0100F50D0BB6094F8353005
:101A9000DBB2052B0ED023681A6812F4802F33D0E6
:101AA0001B6813F4002F2AD1636C002B3ED0204614
:101AB00098473BE02268136823F0160313602268FE
:101AC000536923F080035361236CA3B12268136828
:101AD00023F008031360E26D3F239340BB600023B3
:101AE00084F83430012384F83530236D002B3FD047
:101AF000204698473CE0A36C002BE7D1EBE7E36B73
:101B0000A3B12046984711E01A6812F4807F09D1EA
:101B10001A6822F010021A60002384F8343001237E
:101B200084F83530E36B0BB120469847636DFBB109
:101B3000636D13F0010F17D0052384F83530226848
:101B4000136823F001031360019B01330193AB423F
:101B500004D823681B6813F0010FF5D1002384F823
:101B60003430012384F83530E36C0BB120469847BC
:101B700003B0F0BD0C000020B5814E1B00230F2BDD
:101B800000F2DA80F0B583B03AE0072200E00022EC
:101B9000AA4032430234694D45F82420684A14684B
:101BA0006FEA0C0224EA0C054E6816F4803F01D05F
:101BB0004CEA0405624C2560646802EA04054E683C
:101BC00016F4003F01D04CEA04055D4C6560A46842
:101BD00002EA04054E6816F4801F01D04CEA0405A1
:101BE000574CA560E46822404D6815F4001F01D0F1
:101BF0004CEA0402524CE26001330F2B00F29A804F
:101C000001229A400C6804EA020C32EA0404F3D17F
:101C10004C68651E012D03D9112C01D0122C12D154
:101C200085685E000324B44025EA0405CC68B4400E
:101C30002C438460456825EA02054C68C4F3001211
:101C40009A402A434260C5684FEA430E032404FACF
:101C50000EF4E24325EA04058C6804FA0EF42C43E2
:101C6000C4604C68022C01D0122C0FD1DD0808355D
:101C700050F8257003F00704A6000F24B44027EAAB
:101C800004070C69B4403C4340F825400468144004
:101C90004A6802F0030202FA0EF2224302604A6826
:101CA00012F0805FA8D000220192264A546C44F4BE
:101CB00080445464526C02F480420192019A9C0860
:101CC000A51C1E4A52F8256003F0030295000F225E
:101CD000AA4026EA02061C4A90423FF458AF02F599
:101CE000806290421AD002F58062904218D002F5CC
:101CF0008062904216D002F58062904214D002F5C4
:101D00008062904212D002F58062904210D002F5BB
:101D1000806290423FF439AF082239E7012237E769
:101D2000022235E7032233E7042231E705222FE7B9
:101D300006222DE703B0F0BD704700BF0038014018
:101D4000003C014000380240000002400AB18161BD
:101D50007047090481617047436931EA030301D088
:101D600081617047090481617047704708B5054B70
:101D70005B69034200D108BD024B5861FFF7F5FFD4
:101D8000F9E700BF003C0140002800F0CC8070B5AE
:101D9000044690F83D30002B77D0242384F83D3062
:101DA0002268136823F0010313602268136843F468
:101DB000004313602268136823F40043136000F0AB
:101DC00057FC62685A4B9A4264D85A4B98428CBF6F
:101DD00000230123002B40F0A8805749A1FB0031CC
:101DE0008B0C25686A6822F03F0242EA91426A60E1
:101DF00021680A6A22F03F0266684D4DAE424FD814
:101E0000013313430B622168CA6922F44F4222F066
:101E1000FF026668464B9E424CD8431E7600B3FBD9
:101E2000F6F3013340F6FC70034278D0C3F30B03A2
:101E30001343CB6121680B6823F0C003E269206A79
:101E4000024313430B6021688B6823F4034323F0A0
:101E5000FF032269E068024313438B602168CB686B
:101E600023F0FF036269A06902431343CB60226839
:101E7000136843F00103136000202064202384F8DA
:101E80003D30206384F83E0070BD80F83C3003F0A4
:101E90008FFD82E7294B98428CBF0023012399E7ED
:101EA0004FF4967505FB03F3254DA5FB03539B09E2
:101EB0000133A6E7A368BBB9451E06EB460CB5FB8C
:101EC000FCF50135C5F30B05B5FA85F56D0945BB84
:101ED000C3B9013806EB4603B0FBF3F30133C3F398
:101EE0000B0343F40043A3E7451E06EB860C0CEB03
:101EF0008C0CB5FBFCF50135C5F30B05B5FA85F582
:101F00006D09E4E7013806EB860303EB8303B0FBBE
:101F1000F3F30133C3F30B0343F4404388E7042393
:101F200086E7012384E7012070470120ACE700BF6A
:101F3000A08601007F841E0083DE1B43FF083D0056
:101F4000D34D621070B58AB0002800F0908005462D
:101F5000046890F8BD333BB3032385F8BD33E36BCE
:101F600013F4807F01D100232B61286801F0A3F9CD
:101F70002C4654F8106BEC460FCCACE80F000FCC9D
:101F8000ACE80F0094E803008CE803002B1D0ECB97
:101F9000304601F04BF9044658B1022385F8BD33B1
:101FA000012420460AB070BD80F8BC3304F0A2FDC5
:101FB000D2E70021286801F084F9234616E0C3EB3C
:101FC000C30205EB8202012182F83D1082F83C3009
:101FD000A2F84230002182F83F1051649164C3EBB3
:101FE000C30205EB820211650133DBB269688B42E3
:101FF000E5D316E0C4EBC40305EB8303002283F8AA
:10200000FD2183F8FC4183F8FF21C3F80422C3F8C3
:102010000822C4EBC40305EB8303C3F81022013488
:10202000E4B2A142E6D82C4654F8106BEC460FCC33
:10203000ACE80F000FCCACE80F0094E803008CE88C
:1020400003002B1D0ECB304601F082F9044620B16F
:10205000022385F8BD330124A3E7002385F8383037
:10206000012385F8BD33286801F03AFA99E7012485
:1020700097E70000002800F0DA8170B582B00446CE
:10208000036813F0010F3BD09F4B9B6803F00C03D8
:10209000042B2CD09C4B9B6803F00C03082B21D005
:1020A0006368B3F5803F4FD0B3F5A02F52D0964B65
:1020B0001A6822F480321A601A6822F480221A60A8
:1020C0006368002B50D0FEF741FE05468E4B1B681F
:1020D00013F4003F14D1FEF739FE401B6428F5D9F4
:1020E0000320ABE1884B5B6813F4800FD8D0864B9C
:1020F0001B6813F4003F03D06368002B00F0998144
:10210000236813F0020F54D07F4B9B6813F00C0F21
:102110003ED07D4B9B6803F00C03082B33D0E36863
:10212000002B68D0794B01221A60FEF70FFE05469E
:10213000754B1B6813F0020F54D1FEF707FE401BCE
:102140000228F5D9032079E16F4A136843F48033FC
:102150001360B5E76C4B1A6842F480221A601A6863
:1021600042F480321A60ABE7FEF7F0FD0546664B9D
:102170001B6813F4003FC3D0FEF7E8FD401B642842
:10218000F5D903205AE1604B5B6813F4800FC6D188
:102190005D4B1B6813F0020F03D0E368012B40F086
:1021A0004A81594A136823F0F803216943EAC103BD
:1021B0001360236813F0080F42D063696BB3534B6D
:1021C0000122C3F8802EFEF7C1FD05464E4B5B6F22
:1021D00013F0020F34D1FEF7B9FD401B0228F5D9E8
:1021E00003202BE1484A136823F0F803216943EAEE
:1021F000C1031360DDE7454B00221A60FEF7A6FD20
:102200000546414B1B6813F0020FD2D0FEF79EFD2E
:10221000401B0228F5D9032010E13C4B0022C3F8F3
:10222000802EFEF793FD0546374B5B6F13F0020FD0
:1022300006D0FEF78BFD401B0228F5D90320FDE0F8
:10224000236813F0040F77D02F4B1B6C13F0805FC3
:1022500033D1002301932C4B1A6C42F080521A6444
:102260001B6C03F080530193019B0125284B1B68D5
:1022700013F4807F23D0A368012B34D0052B38D0F2
:10228000214B1A6F22F001021A671A6F22F0040222
:102290001A67A368002B3DD0FEF758FD06461A4B7F
:1022A0001B6F13F0020F46D1FEF750FD801B41F269
:1022B00088339842F3D90320C0E00025D6E7144ABA
:1022C000136843F480731360FEF740FD0646104B1D
:1022D0001B6813F4807FCED1FEF738FD801B0228E7
:1022E000F5D90320AAE0084A136F43F001031367EE
:1022F000CFE7054B1A6F42F004021A671A6F42F0DB
:1023000001021A67C5E700BF0038024000004742DB
:1023100000700040FEF71AFD06464F4B1B6F13F08E
:10232000020F08D0FEF712FD801B41F2883398425D
:10233000F3D9032082E0E5B9A369002B7DD0464A9A
:10234000926802F00C02082A51D0022B17D0434B9E
:1023500000221A66FEF7FAFC04463F4B1B6813F096
:10236000007F42D0FEF7F2FC001B0228F5D90320C3
:1023700064E0394A136C23F080531364DCE7374B75
:1023800000221A66FEF7E2FC0546334B1B6813F089
:10239000007F06D0FEF7DAFC401B0228F5D90320A7
:1023A0004CE0E369226A1343626A43EA8213A26A39
:1023B0005208013A43EA0243E26A43EA0263264AC8
:1023C0005360264B01221A66FEF7C0FC0446224BDE
:1023D0001B6813F0007F06D1FEF7B8FC001B022833
:1023E000F5D903202AE0002028E0002026E0012B78
:1023F00026D0194B5B6803F48001E269914221D138
:1024000003F03F02216A8A421ED1616A47F6C07218
:102410001A408A421AD103F44032A16A8A4217D183
:1024200003F07063E26A934214D1002006E00120B9
:102430007047012002E0012000E0002002B070BDE2
:102440000120FBE70120F9E70120F7E70120F5E78C
:102450000120F3E70120F1E7003802400000474285
:1024600008B5254B9B6803F00C03042B3FD0082BC9
:102470003FD1214B5A6802F03F025B6813F4800F92
:1024800012D01D4B5968C1F388111C480023A1FBD1
:102490000001FDF79DFE184B5B68C3F30143013358
:1024A0005B00B0FBF3F025E0134B5968C1F3881CC7
:1024B0004FEA4C11B1EB0C006EEB0E0E4FEA8E138F
:1024C00043EA90638101091A63EB0E03DB0043EAE0
:1024D0005173C90011EB0C0C43F100039902002366
:1024E0004FEA8C2041EA9C51FDF772FED3E7034886
:1024F00000E0034808BD00BF00380240001BB700E1
:102500000024F400002800F09B8070B50D460446BE
:102510004F4B1B6803F00F038B4208D2CBB24C4ADF
:102520001370136803F00F038B4240F08B80236815
:1025300013F0020F17D013F0040F04D0454A93682C
:1025400043F4E0539360236813F0080F04D0414A2A
:10255000936843F4604393603E4A936823F0F0032A
:10256000A1680B439360236813F0010F32D06368B6
:10257000012B21D09A1E012A25D9364A126812F061
:10258000020F61D033498A6822F0030213438B6043
:10259000FEF7DCFB06462F4B9B6803F00C036268DA
:1025A000B3EB820F16D0FEF7D1FB801B41F28833CC
:1025B0009842F0D9032042E0264A126812F4003F04
:1025C000E0D101203BE0234A126812F0007FD9D10C
:1025D000012034E01E4B1B6803F00F03AB4207D908
:1025E000EAB21B4B1A701B6803F00F03AB422DD1EC
:1025F000236813F0040F06D0164A936823F4E053BF
:10260000E1680B439360236813F0080F07D0114A69
:10261000936823F46043216943EAC1039360FFF7A1
:102620001FFF0C4B9B68C3F303130B4AD35CD840CA
:102630000A4B18600A4B1868FEF73CFB002070BD7F
:10264000012070470120FAE70120F8E70120F6E7B2
:10265000003C024000380240646E00080C0000207C
:1026600004000020014B1868704700BF0C000020D8
:1026700008B5FFF7F7FF044B9B68C3F38223034AB7
:10268000D35CD84008BD00BF00380240746E00081B
:1026900008B5FFF7E7FF044B9B68C3F34233034AD7
:1026A000D35CD84008BD00BF00380240746E0008FB
:1026B00030B583B00446036813F0050F06D12368D4
:1026C00013F0020F2ED1002003B030BD4A4B002280
:1026D0009A66FEF73BFB0546484B1B6813F0006FFC
:1026E00006D0FEF733FB431B022BF5D90320EBE7A3
:1026F0006268A3681B0743EA8213404AC2F8843029
:102700003D4B01229A66FEF721FB05463B4B1B68B9
:1027100013F0006FD3D1FEF719FB431B022BF5D941
:102720000320D1E700230193344B1A6C42F080520E
:102730001A641B6C03F080530193019B304A1368A9
:1027400043F480731360FEF701FB05462C4B1B68B6
:1027500013F4807F06D1FEF7F9FA431B022BF5D95B
:102760000320B1E7254B1B6F13F4407314D0E268CC
:1027700002F440729A420FD0204B1A6F22F440723A
:102780001D490120C1F8400E0020C1F8400E1A6713
:102790001B6F13F0010F13D1E36803F44072B2F51D
:1027A000407F1ED0154A936823F4F81393601349B1
:1027B0000B6FE268C2F30B0213430B67002083E741
:1027C000FEF7C4FA05460D4B1B6F13F0020FE3D161
:1027D000FEF7BCFA401B41F288339842F3D903203C
:1027E00072E706498A6822F4F81223F0704323F452
:1027F000407313438B60DAE7000047420038024021
:102800000070004098B110B5044643795BB10223D3
:1028100063712268136843F004031360012363713A
:102820000020A06010BD037103F04AFAEFE7012019
:10283000704738B504460268D36823F0A003D3601C
:10284000FEF784FA05462368DB6813F0200F07D1F2
:10285000FEF77CFA401BB0F57A7FF4D9032000E044
:10286000002038BD38B50368DA6812F0400F01D097
:10287000002038BD04464FF0FF32DA60FEF766FAFA
:1028800005462368DB6813F0400F07D1FEF75EFAB8
:10289000431BB3F57A7FF4D90320EAE70020E8E789
:1028A00038B500285CD00446437F002B41D002237A
:1028B00063772368CA225A62236853225A622046E9
:1028C000FFF7D0FF0546002837D12268936823F42C
:1028D000E00323F04003936021688A6863682069FD
:1028E00003436069034313438B602368E2681A6102
:1028F00022681369A16843EA014313612268D3681F
:1029000023F08003D36023689B6813F0200F1BD053
:102910002268136C23F4802313642268136CA1696A
:102920000B4313642368FF225A620123637728460E
:1029300038BD037703F0F6F9B9E72368FF225A623E
:10294000042363770125F2E72046FFF772FF002892
:10295000DED02368FF225A62042363770125E6E76D
:102960000125E4E700283BD010B50446002383622C
:1029700090F85130002B2ED0022384F85130226879
:10298000136823F0400313606368A2681343E2688E
:1029900013432269134362691343A26902F400726C
:1029A0001343E2691343226A1343A16A22680B436B
:1029B0001360638B03F00403616A22680B43536066
:1029C0002268D36923F40063D3610020606501238A
:1029D00084F8513010BD80F8503003F0F9F9CBE79E
:1029E0000120704730B4036A23F001030362036AD5
:1029F0004268846924F073040D682C4323F0020CB0
:102A00008B6843EA0C03104DA84203D005F580659E
:102A1000A84205D123F00803CD682B4323F004031B
:102A2000094DA84203D005F58065A84205D122F4DE
:102A300040724D692A438D692A43426084614A6825
:102A40004263036230BC70470000014030B4036A47
:102A500023F480730362036A4268C46924F0730C30
:102A60000C6844EA0C0523F400738C6843EA0423E1
:102A7000114CA04203D004F58064A04206D123F497
:102A80000063CC6843EA042323F480630A4CA04229
:102A900003D004F58064A04207D122F440524C696F
:102AA00042EA04128C6942EA04124260C5614A6833
:102AB000C263036230BC70470000014030B4036A57
:102AC00023F480530362036A4468C26922F4E64235
:102AD0000D6842EA052223F400538D6843EA05336A
:102AE000094DA84203D005F58065A84204D124F41D
:102AF00080444D6944EA85144460C2614A680264B6
:102B0000036230BC704700BF0000014010B4036A8C
:102B1000046A24F001040462846924F0F00C4CEA95
:102B2000021223F00A030B43826103625DF8044B37
:102B3000704710B4046A24F0100404628469036AC4
:102B400024F4704C4CEA023223F0A00343EA011350
:102B5000826103625DF8044B7047836823F0700361
:102B60000B4343F007038360704770470368304AA4
:102B7000904212D0B0F1804F0FD0A2F57C4290422B
:102B80000BD002F58062904207D002F5806290423D
:102B900003D002F57842904203D123F070034A68D3
:102BA0001343234A90422AD0B0F1804F27D0A2F598
:102BB0007C42904223D002F5806290421FD002F501
:102BC000806290421BD002F57842904217D002F505
:102BD0007052904213D002F5806290420FD002F5FD
:102BE000806290420BD0A2F59832904207D002F555
:102BF0008062904203D002F58062904203D123F4B8
:102C00004073CA68134323F080034A691343036087
:102C10008B68C3620B688362054B984203D003F54F
:102C20008063984201D10B690363012343617047BC
:102C300000000140B0B110B5044690F83D3063B1DA
:102C4000022384F83D30214651F8040BFFF78EFF34
:102C5000012384F83D30002010BD80F83C3003F0A3
:102C6000F9F9EDE701207047B0B110B5044690F8CE
:102C70003D3063B1022384F83D30214651F8040B06
:102C8000FFF774FF012384F83D30002010BD80F869
:102C90003C30FFF76AFFEDE70120704730B4036A6C
:102CA00023F010030362036A4468826922F4E64257
:102CB0000D6842EA052223F020038D6843EA0513DC
:102CC000114DA84203D005F58065A84206D123F036
:102CD0008003CD6843EA051323F040030A4DA84260
:102CE00003D005F58065A84207D124F440644D69FE
:102CF00044EA85048D6944EA8504446082614A6837
:102D00008263036230BC70470000014038B590F820
:102D10003C30012B66D004460D46012380F83C3040
:102D2000022380F83D300C2A1AD8DFE802F0071998
:102D30001919201919193419191947000068FFF7D2
:102D400051FE2268936943F00803936122689369F6
:102D500023F0040393612268936929690B4393610B
:102D6000012384F83D30002084F83C0038BD006821
:102D7000FFF794FF2268936943F40063936122682C
:102D8000936923F48063936122689369296943EA14
:102D900001239361E4E70068FFF758FE2268D369D6
:102DA00043F00803D3612268D36923F00403D3619D
:102DB0002268D36929690B43D361D1E70068FFF723
:102DC0007DFE2268D36943F40063D3612268D3692E
:102DD00023F48063D3612268D369296943EA01231C
:102DE000D361BDE70220C1E710B4846824F47F4CAE
:102DF00042EA03220A4342EA0C0282605DF8044B75
:102E0000704790F83C30012B66D010B50446012382
:102E100080F83C30022380F83D300268936823F448
:102E20007F4323F0770393600B68602B40D022D858
:102E3000402B47D00BD9502B0ED1CA684968006887
:102E4000FFF764FE50212068FFF787FE04E0202B87
:102E50000CD008D9302B09D0012384F83D30002054
:102E600084F83C0010BD0BB1102BF5D11946206839
:102E7000FFF773FEF0E7702B0ED0B3F5005FEBD1D8
:102E8000CB684A6889680068FFF7AEFF22689368DC
:102E900043F480439360DFE7CB684A688968006841
:102EA000FFF7A2FF2268936843F077039360D3E7AC
:102EB000CA6849680068FFF73CFE60212068FFF798
:102EC0004CFEC9E7CA6849680068FFF71FFE402149
:102ED0002068FFF742FEBFE70220704790F83C30C1
:102EE000012B3DD010B4012380F83C30022380F840
:102EF0003D3003685A689C6822F0700C0A6842EA08
:102F00000C025A600368174A93421AD0B3F1804FFB
:102F100017D0A2F57C42934213D002F5806293420F
:102F20000FD002F5806293420BD002F578429342B3
:102F300007D002F57052934203D0A2F59432934227
:102F400004D124F080044A6814439C60012380F873
:102F50003D30002380F83C3018465DF8044B704744
:102F6000022070470000014090F83C30012B22D035
:102F7000012380F83C30CB6823F440738A68134304
:102F800023F480634A68134323F400630A681343FD
:102F900023F480530A69134323F400534A6913430B
:102FA00023F48043CA69134302685364002380F802
:102FB0003C301846704702207047000038B5044680
:102FC0000268136923F44053C1680B43136183689B
:102FD0000269134342691343C2691A430168CB680B
:102FE00023F4164323F00C031343CB6002685369A8
:102FF00023F4407381690B435361C369B3F5004FF8
:1030000035D00368604A934200F0918002F58062F7
:10301000934200F08C80FFF72BFB002103184941FD
:103020001B1841F10001C90041EA5371DB00181877
:1030300063684FEA83024FEA937341F10001FDF7A1
:10304000C7F8524DA5FB00325109642303FB11035D
:103050001B013233A5FB03235B0903F0F00202EBF3
:10306000011203F00F03216813448B608AE00368A8
:10307000454A93422FD002F5806293422BD0FFF74E
:10308000F7FA0023021843EB0301121841F1000183
:10309000C90041EA5271D200101841F10001626882
:1030A00092185B41FDF794F8384DA5FB00325109A9
:1030B000642303FB1103DB003233A5FB03235B090D
:1030C0005A0002F4F87202EB011203F007032168C0
:1030D00013448B6056E0FFF7DBFA0023021843EB42
:1030E0000301121841F10001C90041EA5271D200F6
:1030F000101841F10001626892185B41FDF768F811
:10310000224DA5FB00325109642303FB1103DB00B0
:103110003233A5FB03235B095A0002F4F87202EB79
:10312000011203F00703216813448B602AE0FFF7C4
:10313000AFFA0021031849411B1841F10001C900F1
:1031400041EA5371DB00181863684FEA83024FEAC3
:10315000937341F10001FDF73BF80C4DA5FB0032E4
:103160005109642303FB11031B013233A5FB032325
:103170005B0903F0F00202EB011203F00F03216878
:1031800013448B6038BD00BF001001401F85EB5118
:1031900058B310B5044690F839300BB3242384F8A3
:1031A00039302268D36823F40053D3602046FFF7F8
:1031B00005FF2268136923F4904313612268536961
:1031C00023F02A0353612268D36843F40053D36089
:1031D0000020E063202384F8393084F83A3010BDB1
:1031E00080F8383003F032FBD8E701207047000048
:1031F000002301330C4A934211D80269002AF8DAFD
:10320000036943F00103036100230133064A93423B
:1032100007D8026912F0010FF7D100207047032090
:1032200070470320704700BF400D030084B010B505
:10323000044603A880E80E00089B012B1FD1A36B56
:1032400023F48033A363E36823F4840323F040036F
:10325000E360E36823F44013E3600F9B012B09D084
:103260002046FFF7C5FF069B012B1BD0BDE8104091
:1032700004B07047E36843F48013E360F0E7E36869
:1032800043F04003E3602046FFF7B2FF0C9B23B9F5
:10329000A36B43F48033A363E5E7A36B23F480338C
:1032A000A363E0E7A36843F00603A360A36843F0C9
:1032B0002003A360DAE7836823F001038360002022
:1032C000704708B5C36823F0C043C360012909D023
:1032D00069B9C36843F08043C3603220FDF73CFD09
:1032E000002008BDC36843F00053C360F5E7012028
:1032F000F7E70000890141F020010161002301335B
:10330000054A934205D8026912F0200FF7D1002038
:1033100070470320704700BF400D03001023036176
:1033200000230133054A934205D8026912F0100FB9
:10333000F7D1002070470320704700BF400D030005
:10334000D0F800381943C0F800180020704700007A
:1033500084B02DE9F041044607A880E80E00002360
:1033600006E003F1400204EB8202002151600133C8
:103370000E2BF6D9119F27BBD4F8043843F0020373
:10338000C4F80438A36B43F40013A363A36B23F4C2
:103390000023A363A36B23F48023A3630023C4F857
:1033A000003E04F50065D4F80038C4F800380C9BE2
:1033B000012B14D1099B6BB900212046FFF7C0FFF8
:1033C00011E0A36B23F40013A363A36B43F4002366
:1033D000A363E3E701212046FFF7B2FF03E00321E7
:1033E0002046FFF7ADFF10212046FFF783FF804600
:1033F00008B14FF001082046FFF790FF08B14FF0E9
:10340000010800232B616B61EB610AE0C3B94FF047
:103410000060C2F8000900220A614FF67F328A601C
:1034200001330799994210D904EB431202F5106158
:10343000D2F800090028E9DB0020C2F80009EAE719
:103440004FF09040C2F80009E5E700230AE0C3B15D
:103450004FF0904CC2F800CB002202614FF67F3251
:1034600082600133994211D904EB431202F53060B6
:10347000D2F8006B002EEADB4FF0000CC2F800CB54
:10348000EAE74FF0006CC2F800CBE5E72B6923F4C4
:1034900080732B610023A3616FF0804363610A9BFB
:1034A0001BB9A36943F01003A361A2690B4B13433B
:1034B000A3610D9B1BB1A36943F00803A361012F16
:1034C00004D04046BDE8F04104B07047A36943F022
:1034D000804343F00403A361F3E700BF00383C805E
:1034E000D0F8003E23F00303C0F8003ED0F80438C3
:1034F00043F00203C0F8043800207047842801D04C
:103500000330704700207047EFF30580003818BF84
:103510000120704708B501F0C1F8002008BD08B5CA
:10352000FFF7F2FF10B101F015F908BD01F00CF939
:10353000FBE72DE9F04387B004460F464569BDB16E
:103540008669AEB1D0F80480D0F80090B0F90800D8
:10355000FFF7D4FF0296019500903B462269494649
:10356000404601F02BF80590059807B0BDE8F083C0
:1035700065682668D4F81080B4F90800FFF7BEFF2C
:1035800005AB019300903B461FFA88F2314628466E
:1035900001F04FF80128E7D00020E6E708B500B9B0
:1035A000012001F039FA002008BD08B501B9012158
:1035B00001F0E0F9002008BD00F1080343604FF07E
:1035C000FF328260C3600361002303607047002301
:1035D0000361704743684B609A688A6051609960E4
:1035E0000861036801330360704730B40D68B5F1BA
:1035F000FF3F11D000F108031C465B681A68AA421D
:10360000FAD963684B6099608C60616008610368F7
:103610000133036030BC70470469F2E70369416815
:1036200082688A60416851605A68824206D00022EE
:1036300002611A68013A1A601868704782685A6015
:10364000F5E7000082B0002301930D4B1B68B3F136
:10365000FF3F08D04FF0500383F31188BFF36F8F03
:10366000BFF34F8FFEE74FF0500383F31188BFF392
:103670006F8FBFF34F8F019B002BFCD002B07047C0
:103680000800002008480068006880F308884FF0B0
:10369000000080F3148862B661B6BFF34F8FBFF3AA
:1036A0006F8F00DF00BF000008ED00E0DFF80C00C6
:1036B000016841F4700101607047000088ED00E08E
:1036C0004FF0807340F8043C21F0010140F8081CE1
:1036D000054B40F80C3C40F8202C6FF0020340F8FA
:1036E000243C4438704700BF453600080000000005
:1036F000074B19680868B0E8F04F80F30988BFF3FA
:103700006F8F4FF0000080F311887047AFF3008097
:10371000A46500204FF0500383F31188BFF36F8F2F
:10372000BFF34F8F0B4A136801331360012B00D096
:1037300070474FF0E023D3F8043D13F0FF0FF7D0AC
:103740004FF0500383F31188BFF36F8FBFF34F8F98
:10375000FEE700BF08000020094B1B6843B94FF08B
:10376000500383F31188BFF36F8FBFF34F8FFEE7D2
:10377000013B034A13600BB983F31188704700BF04
:103780000800002000000000000000000000000011
:10379000EFF30980BFF36F8F154B1A681EF0100FFF
:1037A00008BF20ED108A20E9F04F10602DE90900D4
:1037B0004FF0500080F31188BFF34F8FBFF36F8F2E
:1037C00001F050F94FF0000080F3118809BC19682E
:1037D0000868B0E8F04F1EF0100F08BFB0EC108A78
:1037E00080F30988BFF36F8F704700BFAFF300808D
:1037F000A465002008B54FF0500383F31188BFF390
:103800006F8FBFF34F8F00F0ADFF28B14FF0E02373
:103810004FF08052C3F8042D002383F3118808BDB4
:103820004FF0E022002313619361054B1B680549AB
:10383000A1FB03139B09013B5361072313617047ED
:103840000C000020D34D62104FF0E023D3F8002D80
:103850003D4B9A421CD04FF0E023D3F8002D3B4B58
:103860009A421ED030B583B0394B1A78D2B2019249
:10387000FF221A701B78DBB28DF803309DF80330FD
:1038800003F05003334A1370334B07221A601BE0D6
:103890004FF0500383F31188BFF36F8FBFF34F8F47
:1038A000FEE74FF0500383F31188BFF36F8FBFF330
:1038B0004F8FFEE7284A1368013B13609DF80330E1
:1038C0005B00DBB28DF803309DF8033013F0800FFE
:1038D000F0D1214B1B68032B08D04FF0500383F32A
:1038E0001188BFF36F8FBFF34F8FFEE71B021A4A99
:1038F000136003F4E0631360019BDBB2144A13709E
:103900004FF0E024D4F8203D43F47003C4F8203D88
:10391000D4F8203D43F07043C4F8203DFFF780FF0A
:1039200000250E4B1D60FFF7C1FED4F8343F43F075
:103930004043C4F8343FFFF7A5FE01F093F8FFF7CA
:1039400081FE284603B030BD71C20F4170C20F41E5
:1039500000E400E0440500204805002008000020A5
:10396000EFF305830F2B0FD9114A9B5CDBB2114A91
:1039700012789A4208D94FF0500383F31188BFF3AD
:103980006F8FBFF34F8FFEE74FF0E023D3F80C3D6E
:1039900003F4E063084A1268934208D94FF05003D9
:1039A00083F31188BFF36F8FBFF34F8FFEE770472C
:1039B000F0E300E04405002048050020124A12F020
:1039C000070F1ED0D11D21F00701C1F5C0431344DC
:1039D0000A460E480260002141601344083B23F070
:1039E00007030B48036059601960991A516013600E
:1039F000084B1960084B1960084B4FF000421A60E1
:103A000070474FF4C043E4E7500500205C65002098
:103A10004C050020586500205465002050650020AA
:103A2000164B1A461B688342FBD3516802EB010C0C
:103A3000844509D0416800EB010C634509D003605F
:103A4000904219D0106070474068014451601046A0
:103A5000F0E710B40A4C2468A3420BD05B68194409
:103A6000416013681B680360904200D010605DF8ED
:103A7000044B70470460F7E7704700BF5C650020A7
:103A80004C05002070B5054600F056FE344B1B680F
:103A9000A3B1344B1B681D424AD135B1083515F02E
:103AA000070F02D025F007050835002D42D02E4B18
:103AB0001B68AB424DD32D4A146804E0FFF77EFF2C
:103AC000E7E722461C466368AB4202D22368002B1C
:103AD000F7D1234B1B68A3423DD0166808362368F4
:103AE000136063685B1B102B10D9601910F0070F6F
:103AF00008D04FF0500383F31188BFF36F8FBFF3EB
:103B00004F8FFEE743606560FFF78AFF62681649E2
:103B10000B689B1A0B60164909688B4201D2144945
:103B20000B60104B1B68134363600023236002E0AB
:103B3000002600E0002600F0A1FE16F0070F0CD0D2
:103B40004FF0500383F31188BFF36F8FBFF34F8F94
:103B5000FEE70026EFE70026EDE7304670BD00BF28
:103B60004C05002050650020546500205C65002055
:103B70005865002080B338B50446A0F1080550F818
:103B8000043C164A1268134208D14FF0500383F3E5
:103B90001188BFF36F8FBFF34F8FFEE750F8081CFB
:103BA00041B14FF0500383F31188BFF36F8FBFF320
:103BB0004F8FFEE723EA020340F8043C00F0BCFD0F
:103BC00054F8041C064A13680B4413602846FFF798
:103BD00027FF00F053FE38BD704700BF506500203E
:103BE0005465002010B50446FFF794FDA26BE36B0B
:103BF0009A4204D00024FFF7AFFD204610BD0124F7
:103C0000F9E710B50446FFF785FDA36B23B901243E
:103C1000FFF7A2FD204610BD0024F9E770B5044669
:103C20001546866B026C5AB903681BB10020013639
:103C3000A66370BD806801F04DF80023A360F6E72D
:103C40006DB94068FCF746FC226C636813446360FE
:103C5000A268934219D3236863602846E7E7C068E7
:103C6000FCF738FC226C5142E3689B1AE36022683F
:103C7000934202D2A3680B44E360022D01D00020DE
:103C8000D5E726B1013E0020D1E72846CFE7002046
:103C9000CDE70346026C6AB110B50846D9681144F5
:103CA000D9609C68A14201D31968D960D968FCF732
:103CB00011FC10BD704738B50546FFF72BFD95F890
:103CC000454064B201E0013C64B2002C0ADD6B6A3D
:103CD00043B105F1240000F045FF0028F3D000F0C7
:103CE000E3FFF0E7FF2385F84530FFF735FDFFF7E9
:103CF00011FD95F8444064B201E0013C64B2002C2F
:103D00000ADD2B6943B105F1100000F02BFF0028FC
:103D1000F3D000F0C9FFF0E7FF2385F84430FFF748
:103D20001BFD38BD38B5E0B10D460446FFF7F2FC87
:103D30002368E26B216C01FB0230A0600020A063CD
:103D40006360013A02FB0133E360FF2384F84430EF
:103D500084F84530FDB9236963B9FFF7FDFC012004
:103D600038BD4FF0500383F31188BFF36F8FBFF35B
:103D70004F8FFEE704F1100000F0F4FE0028ECD0B5
:103D80004FF0E0234FF08052C3F8042DBFF34F8F64
:103D9000BFF36F8FE1E704F11000FFF70DFC04F1B2
:103DA0002400FFF709FCD8E710B5034602980C463B
:103DB00031B90060C36304640121FFF7B3FF10BD94
:103DC0000260F7E740B94FF0500383F31188BFF367
:103DD0006F8FBFF34F8FFEE710B584B01C4684464B
:103DE00053B192B189B94FF0500383F31188BFF3F7
:103DF0006F8FBFF34F8FFEE74FF0500383F31188AF
:103E0000BFF36F8FBFF34F8FFEE76AB14823039371
:103E1000039B482B13D04FF0500383F31188BFF35B
:103E20006F8FBFF34F8FFEE70029EFD04FF05003A5
:103E300083F31188BFF36F8FBFF34F8FFEE7039BB0
:103E4000012384F8463000949DF818306046FFF74F
:103E5000ABFF204604B010BDF0B585B0019288B12B
:103E60000F461D460446B1B1022D20D1E36B012B54
:103E70001DD04FF0500383F31188BFF36F8FBFF352
:103E80004F8FFEE74FF0500383F31188BFF36F8F1E
:103E9000BFF34F8FFEE7036C002BE5D04FF05003CC
:103EA00083F31188BFF36F8FBFF34F8FFEE700F0EE
:103EB00001FF064658B9019B002B48D04FF0500334
:103EC00083F31188BFF36F8FBFF34F8FFEE7002698
:103ED0003DE02A4639462046FFF7A0FE636A7BB9DB
:103EE00048B14FF0E0234FF08052C3F8042DBFF3E8
:103EF0004F8FBFF36F8FFFF72FFC012005B0F0BD90
:103F000004F1240000F02EFE0028F4D04FF0E0234E
:103F10004FF08052C3F8042DBFF34F8FBFF36F8F64
:103F2000E9E7FFF719FC0020E8E702A800F060FECF
:103F3000012619E0002384F8443021E0002384F8AE
:103F4000453023E02046FFF7B6FE00F097FCFFF770
:103F5000E1FBA26BE36B9A42BBD3022DB9D0019B6C
:103F6000002BDED0002EE0D0FFF7F6FB00F0E4FBE4
:103F7000FFF7D0FB94F8442052B2B2F1FF3FD9D002
:103F800094F8452052B2B2F1FF3FD7D0FFF7E4FBDF
:103F900001A902A800F038FED8B92046FFF722FE9A
:103FA0000028CFD0019904F1100000F0A7FD2046B1
:103FB000FFF781FE00F062FC0028C8D14FF0E0233B
:103FC0004FF08052C3F8042DBFF34F8FBFF36F8FB4
:103FD000BDE72046FFF76FFE00F050FC00208DE7A4
:103FE0002DE9F84390B10F4616461C460546B1B17F
:103FF000022C20D1EB6B012B1DD04FF0500383F32B
:104000001188BFF36F8FBFF34F8FFEE74FF0500360
:1040100083F31188BFF36F8FBFF34F8FFEE7036CFD
:10402000002BE5D04FF0500383F31188BFF36F8F5F
:10403000BFF34F8FFEE7FFF793FCEFF311894FF0CB
:10404000500383F31188BFF36F8FBFF34F8FAA6BB9
:10405000EB6B9A4206D3022C04D0002089F311881E
:10406000BDE8F88395F845804FFA88F8224639462E
:104070002846FFF7D3FDB8F1FF3F06D008F1010352
:104080005BB285F845300120E8E76B6A0BB9012087
:10409000E4E705F1240000F065FD18B126B1012028
:1040A0003060DBE70120D9E70120D7E7F0B585B024
:1040B000019290B10F460446C1B100F0FBFD0646E7
:1040C00000BB019B002B5ED04FF0500383F311889F
:1040D000BFF36F8FBFF34F8FFEE74FF0500383F3B3
:1040E0001188BFF36F8FBFF34F8FFEE7036C002B78
:1040F000E3D04FF0500383F31188BFF36F8FBFF30A
:104100004F8FFEE700263EE039462046FFF7C1FD0F
:10411000013DA563236923B9FFF71EFB012005B00C
:10412000F0BD04F1100000F01DFD0028F4D04FF0A8
:10413000E0234FF08052C3F8042DBFF34F8FBFF33D
:104140006F8FE9E7FFF708FB0020E8E702A800F01F
:104150004FFD012621E0002384F8443029E00023AC
:1041600084F845302BE02046FFF7A5FD00F086FBE4
:1041700009E02046FFF79FFD00F080FB2046FFF797
:1041800040FD00283FD1FFF7C5FAA56B002DBBD13C
:10419000019B002BD6D0002ED8D0FFF7DDFA00F01F
:1041A000CBFAFFF7B7FA94F844305BB2B3F1FF3FB4
:1041B000D1D094F845305BB2B3F1FF3FCFD0FFF7D9
:1041C000CBFA01A902A800F01FFD0028D1D120469A
:1041D000FFF717FD0028C6D0019904F1240000F074
:1041E0008DFC2046FFF767FD00F048FB0028CAD190
:1041F0004FF0E0234FF08052C3F8042DBFF34F8FF0
:10420000BFF36F8FBFE7002089E700000023072B73
:104210000CD8074A52F833200AB10133F7E7044AB1
:1042200042F8331002EBC30358607047704700BF79
:104230006465002070B504460D461646FFF76AFA1D
:1042400094F844305BB2B3F1FF3F0DD094F84530A1
:104250005BB2B3F1FF3F0BD0FFF77EFAA36B5BB10C
:104260002046FFF728FD70BD002384F84430EDE7B9
:10427000002384F84530EFE73246294604F1240054
:1042800000F054FCECE70000084B1B681B6823B9E6
:10429000074B4FF0FF321A607047044B1B68DB6816
:1042A000DB685A68024B1A60704700BFA86500209F
:1042B000806600202DE9F04780460D461746994656
:1042C000089EDDF824A00A9C9200A521206B02F034
:1042D00099FC236B07F18042013A03EB820727F038
:1042E0000707002D38D04FF0000CBCF10F0F0BD892
:1042F00015F80C2004EB0C0383F8342015F80C306F
:1043000013B10CF1010CF0E7002384F84330062EC2
:1043100000D90626E66266640025A564201DFFF725
:1043200056F904F11800FFF752F92461C6F10706A7
:10433000A6616462E56484F8505084F852504A469D
:1043400041463846FFF7BCF92060BAF1000F01D0B2
:10435000CAF80040BDE8F087002384F83430D6E77F
:1043600038B5002407E004EB840293000E4818449B
:10437000FFF722F90134062CF5D90C4D2846FFF73A
:104380001BF90B4C2046FFF717F90A48FFF714F901
:104390000948FFF711F90948FFF70EF9084B1D60AE
:1043A000084B1C6038BD00BFB0650020546600207B
:1043B0006866002088660020B4660020A0660020A1
:1043C000A8650020AC65002010B50446FFF7A2F9EF
:1043D000214A136801331360204B1B685BB1204BEB
:1043E0001B686BB91D4B1B68DA6AE36A9A4207D8EF
:1043F0001A4B1C6004E0194B1C601368012B28D079
:10440000184A136801331360E06A01238340164A97
:1044100011680B43136000EB8000211D134B03EB6D
:104420008000FFF7D7F8FFF797F90D4B1B687BB1BA
:104430000A4B1B68DA6AE36A9A4209D24FF0E0231A
:104440004FF08052C3F8042DBFF34F8FBFF36F8F2F
:1044500010BDFFF785FFD3E73C660020A465002070
:104460009C6600204C66002050660020B06500204D
:1044700010B5044690F8513063B1012B11D0022BD6
:104480000ED04FF0500383F31188BFF36F8FBFF34B
:104490004F8FFEE7006BFFF76DFB2046FFF76AFBCF
:1044A00010BDFFF767FBFBE70F4B1B68D3B110B5DF
:1044B000FFF730F90D4BDB68DC68201DFFF7AEF825
:1044C0000B4A1368013B1360074A1368013B1360F2
:1044D000FFF742F92046FFF7CBFF034B1B68002B89
:1044E000E6D110BD704700BF40660020B4660020D2
:1044F0003C66002008B5FFF7D7FF074B1B68012B70
:10450000F9D94FF0E0234FF08052C3F8042DBFF3E8
:104510004F8FBFF36F8FEEE7B065002070B5044694
:104520000D461F4B1E681F4B1A68002182F852105F
:1045300018680430FFF772F850B91A4B1B68DA6A32
:10454000012303FA02F218490B6823EA02030B6005
:10455000B4F1FF3F0DD03444124B1B685C60A6429F
:1045600010D9124B18680F4B19680431FFF73DF84A
:1045700070BD002DEFD00B4B196804310C48FFF7CC
:1045800029F8F5E70B4B1868064B19680431FFF75B
:104590002CF8094B1B68A342EAD9074B1C60E7E7DC
:1045A000C8660020A465002050660020AC6500208D
:1045B000A0660020A86500208066002030B587B086
:1045C0000B9C7CB10C9DB5B154250495049D542DD4
:1045D0001AD04FF0500383F31188BFF36F8FBFF3EE
:1045E0004F8FFEE74FF0500383F31188BFF36F8FB7
:1045F000BFF34F8FFEE74FF0500383F31188BFF3F3
:104600006F8FBFF34F8FFEE7049D0C9D2C63022438
:1046100085F8514000240394029505AC01940A9C4E
:104620000094FFF747FE0C98FFF7CEFE059807B001
:1046300030BD2DE9F04385B00746884614461E4636
:104640009000FFF71FFA00B381465420FFF71AFAD3
:104650000546B0B1C0F83090E5B1002385F851307F
:10466000039302950D9B01930C9B009333462246C6
:1046700041463846FFF71EFE2846FFF7A5FE0120FB
:1046800005E04846FFF776FAE6E74FF0FF3005B061
:10469000BDE8F0834FF0FF30F9E7000010B588B0B7
:1046A00000240594069407AA06A905A800F0A4FF13
:1046B000059B0293069B019300942346079A184991
:1046C0001848FFF77BFF184B186040B100F0C8FB9B
:1046D000012806D0B0F1FF3F18D008B010BD00206F
:1046E000F6E74FF0500383F31188BFF36F8FBFF3EA
:1046F0004F8F0E4B4FF0FF321A600D4B01221A60A4
:104700000C4B00221A60FFF79FF8E6E74FF05003CA
:1047100083F31188BFF36F8FBFF34F8FFEE700BFA6
:10472000186E0008F54400087C66002080660020B2
:104730009C660020C8660020024A1368013313609B
:10474000704700BF48660020014B1868704700BFE3
:10475000C866002008B5FFF703F9014B186808BDCB
:10476000C8660020F8B53A4B1B68002B64D1394B62
:104770001D6801351D60C5B9374B1B681B6843B107
:104780004FF0500383F31188BFF36F8FBFF34F8F48
:10479000FEE7314A1168314B186810601960304AE1
:1047A000136801331360FFF76FFD2E4B1B68AB429C
:1047B00038D900272C4B1B68DB6A03EB83039A0074
:1047C0002A4B9B58012B3CD901273AE00127224B69
:1047D0001B681B6843B3204B1B68DB68DC6863689D
:1047E0009D4226D3261D3046FEF718FFA36A1BB153
:1047F00004F11800FEF712FFE36A01229A401C49F7
:10480000086802430A6003EB83039A0031461748A5
:104810001044FEF7DFFEE26A134B1B68DB6A9A4224
:10482000D4D2D4E70027D2E70E4B4FF0FF321A6004
:10483000C0E70C4A1360BDE70E4A136801331360EA
:1048400000270D4B1B6803B101273846F8BD00BF98
:1048500048660020C8660020A8650020AC650020DE
:104860008466002080660020A4650020B0650020DA
:104870005066002044660020CC66002038B5354BD9
:104880001B6843B94FF0500383F31188BFF36F8F58
:10489000BFF34F8FFEE7FEF73DFF2E4B1A68013A3C
:1048A0001A601B68002B4FD12B4B1B680BB90024DF
:1048B0004BE00024294B1B681BB3284BDB68DC68EA
:1048C00004F11800FEF7AAFE251D2846FEF7A6FEF5
:1048D000E06A01238340224A11680B43136000EB16
:1048E000800029461F4B03EB8000FEF773FEE26A4F
:1048F0001D4B1B68DB6A9A42DCD31C4B01221A60F9
:10490000D8E70CB1FFF7C0FC194B1C6884B9174BF2
:104910001C68D4B14FF0E0234FF08052C3F8042D4F
:10492000BFF34F8FBFF36F8F01240EE0013C07D020
:10493000FFF718FF0028F9D00C4B01221A60F5E7A9
:104940000B4B00221A60E2E70024FEF705FF204629
:1049500038BD00BF486600203C6600208866002005
:1049600050660020B0650020A4650020CC660020C1
:104970004466002038B558B10C46054689B94FF059
:10498000500383F31188BFF36F8FBFF34F8FFEE7A0
:104990004FF0500383F31188BFF36F8FBFF34F8F36
:1049A000FEE71B4B1B6843B14FF0500383F31188A4
:1049B000BFF36F8FBFF34F8FFEE7FFF7BDFE154BC1
:1049C00018682B681C44834209D9A34201D82C6083
:1049D0000EE0A04201D32C600AE02C6004E0A34268
:1049E00001D8A04212D22C600021201AFFF796FDB8
:1049F000FFF744FF48B94FF0E0234FF08052C3F86F
:104A0000042DBFF34F8FBFF36F8F38BD2C60EFE7DE
:104A100048660020C866002010B5A8B10446104BB7
:104A20001B6843B14FF0500383F31188BFF36F8FBE
:104A3000BFF34F8FFEE7FFF77FFE00212046FFF711
:104A40006DFDFFF71BFF48B94FF0E0234FF0805298
:104A5000C3F8042DBFF34F8FBFF36F8F10BD00BF9E
:104A600048660020204B1B681BB1204B01221A60B6
:104A700070471E4B00221A601D4B1B68B3FA83F36C
:104A8000DBB2C3F11F0303EB83018A0019498A5883
:104A900042B94FF0500383F31188BFF36F8FBFF318
:104AA0004F8FFEE7134903EB830082000A445068EE
:104AB0004068506003EB830C4FEA8C0208321144CB
:104AC000884209D003EB83039A000A4B13445B68C6
:104AD000DA68094B1A607047406862469100054ADF
:104AE0000A445060EEE700BF48660020CC66002014
:104AF00050660020B0650020A465002058B110B5B4
:104B00000C46094A11681831FEF76FFD0121204655
:104B1000FFF704FD10BD4FF0500383F31188BFF37E
:104B20006F8FBFF34F8FFEE7A465002038B570B1DB
:104B30000D4614460A4A11681831FEF74BFD0CB1B8
:104B40004FF0FF3521462846FFF7E8FC38BD4FF00F
:104B5000500383F31188BFF36F8FBFF34F8FFEE7CE
:104B6000A465002038B5C368DC6824B304F11805D7
:104B70002846FEF753FD184B1B682BBB251D284606
:104B8000FEF74CFDE06A01238340144A11680B4391
:104B9000136000EB80002946114B03EB8000FEF709
:104BA00019FDE26A0F4B1B68DB6A9A4211D901209A
:104BB0000D4B186038BD4FF0500383F31188BFF3DD
:104BC0006F8FBFF34F8FFEE729460848FEF702FDBF
:104BD000E7E70020EEE700BF4866002050660020AF
:104BE000B0650020A4650020CC6600208866002007
:104BF000034B1B680360034B1B684360704700BF97
:104C000084660020C8660020F8B5B8B10C46054699
:104C1000E9B1FEF77FFD214B1A686B68D01A204975
:104C2000096891F85210D9B11D4B1B68002283F816
:104C300052200124FEF790FD2046F8BD4FF05003AE
:104C400083F31188BFF36F8FBFF34F8FFEE74FF0F1
:104C5000500383F31188BFF36F8FBFF34F8FFEE7CD
:104C60002168B1F1FF3F14D00E4E36682F68B7426D
:104C700001D093420FD9814203D80023236001243D
:104C8000D8E79B1A0B4423602846FFF7B1FF0024A6
:104C9000D0E70024CEE70124CCE700BFC86600209F
:104CA000A465002084660020014B01221A60704731
:104CB000CC660020054B1B6833B1054B1B680BB15C
:104CC0000020704702207047012070479C6600203A
:104CD0004866002000284CD038B50446274B1B6896
:104CE000834208D04FF0500383F31188BFF36F8FD6
:104CF000BFF34F8FFEE7836C43B94FF0500383F34C
:104D00001188BFF36F8FBFF34F8FFEE7013B8364C2
:104D1000C16A426C91422ED00BB1002038BD051DF6
:104D20002846FEF77BFC70B9E26A02EB82039B0027
:104D30001349CB583BB9012303FA02F211490B681E
:104D400023EA02030B60606CE062C0F10703A36119
:104D5000012404FA00F30B4A11680B43136000EBC3
:104D600080002946064B03EB8000FEF733FC20460B
:104D7000D4E7002070470020D0E700BFA4650020E2
:104D8000B065002050660020064B1A6813682BB9E6
:104D90000123036023B9D368186870470023F8E73C
:104DA00000207047D066002008B541600061914244
:104DB0000CD8D21A83699A4201D3012008BD011D83
:104DC000094B1868FEF711FC0020F7E79A4201D260
:104DD000994206D2011D054B1868FEF706FC00201B
:104DE000ECE70120EAE700BFD4660020D06600208F
:104DF00030B583B0FEF78EFC114B1B681BB1FEF77C
:104E0000ABFC03B030BD0F4D2846FEF7D5FB0E4C72
:104E10002046FEF7D1FB0D4B1D600D4B1C6000239F
:104E200000930C4B0C4A10210A20FEF7CBFF044BD9
:104E300018600028E3D00949FFF7E8F9DFE700BF71
:104E4000EC670020786700208C670020D066002087
:104E5000D4660020A4670020D8660020206E0008D9
:104E600010B588B0FFF7C4FF124B1B68CBB100240C
:104E70000594069407AA06A905A800F0C9FB059B9E
:104E80000293069B0193022300932346079A0A4943
:104E90000A48FFF793FB0A4B186010B1012008B0D5
:104EA00010BD4FF0500383F31188BFF36F8FBFF332
:104EB0004F8FFEE7EC670020286E0008C551000800
:104EC000F0670020B8B19C4603461848006858B304
:104ED00000B585B000910192029305291CDCFFF713
:104EE000E9FE022810D000231A4669460F480068E0
:104EF000FEF7B2FF15E04FF0500383F31188BFF3C4
:104F00006F8FBFF34F8FFEE70023069A694607486D
:104F10000068FEF7A1FF04E0002362466946FFF740
:104F20005FF805B05DF804FB00207047EC670020D7
:104F300070B582B01B4B1B681A6862B3DB681E68D1
:104F4000DC68251D2846FEF769FB236A2046984742
:104F500094F8243013F0040FECD0A36933449E423C
:104F600007D26360246129460E4B1868FEF73DFBAB
:104F7000E0E7002100910B4632462046FFF7A2FFF2
:104F80000028D7D14FF0500383F31188BFF36F8F00
:104F9000BFF34F8FFEE7044A1068024908601360B0
:104FA00002B070BDD0660020D466002038B505463A
:104FB000FFF7CAFB0446074B1B68834205D8002352
:104FC0002B60044B1C60204638BDFFF7B1FF012366
:104FD0002B60F6E7A067002070B582B006460D464C
:104FE00017490968C968CC68201DFEF717FB94F8BB
:104FF00024C01CF0040F08D12CF0010C84F824C04C
:10500000236A2046984702B070BDA16933462A46FC
:1050100031442046FFF7C8FE0028F1D0002100915E
:105020000B4632462046FFF74DFF0028E8D14FF0EF
:10503000500383F31188BFF36F8FBFF34F8FFEE7E9
:10504000D066002070B582B006460C46FFF774FBB0
:1050500001A8FFF7ABFF019B33BB05460CB9B0427B
:1050600019D224B1124A12681268DAB90124224610
:10507000711B104B1868FFF7DDF8FFF7FFFBA8B9AD
:105080004FF0E0234FF08052C3F8042DBFF34F8F51
:10509000BFF36F8F0AE0FFF7F1FB29463046FFF7B9
:1050A0009BFF03E01C46E2E7FFF7E8FB02B070BDA0
:1050B000D4660020EC67002010B588B002E0049BA5
:1050C000002B0FDA002204A93D4B1868FEF7EEFF13
:1050D000002873D0049B002BF1DA07990698059BF2
:1050E0009847ECE7069C636913B1201DFEF796FA1A
:1050F00003A8FFF75BFF049B092BE3D8DFE803F06D
:105100000505053037500505303794F8243043F055
:10511000010384F82430059BA16902461944204606
:10512000FFF742FE0028CDD0236A2046984794F826
:10513000243013F0040FC5D0A269002100910B4662
:10514000059802442046FFF7BDFE0028BAD14FF073
:10515000500383F31188BFF36F8FBFF34F8FFEE7C8
:1051600094F8243023F0010384F82430AAE794F85B
:10517000243043F0010384F824300599A16131B152
:105180000346024601442046FFF70EFE9AE74FF021
:10519000500383F31188BFF36F8FBFF34F8FFEE788
:1051A00094F8243013F0020F04D023F0010384F8A4
:1051B000243087E72046FEF7DDFC83E708B010BD0A
:1051C000EC67002000B583B001A8FFF7DDFD019971
:1051D000FFF738FFFFF770FFF6E7000000B585B076
:1051E000002300930193029303931548154A02602C
:1051F0004FF40032426083600361037680F8203010
:10520000C362114A8262C3600122C26180F83030F9
:105210004261FBF74FFE68B910230093012301930D
:105220000023029369460648FBF770FE28B905B0D3
:105230005DF804FB00F08EFCEEE700F08BFCF6E777
:10524000F4670020002001400100000F00B585B088
:10525000002300930193029303931548154A0260BB
:105260004FF40032426083600361037680F820309F
:10527000C362114A8262C3600122C26180F8303089
:105280004261FBF717FE68B90823009301230193DD
:105290000023029369460648FBF738FE28B905B09B
:1052A0005DF804FB00F056FCEEE700F053FCF6E777
:1052B0003C680020002201400100000F00B589B0C9
:1052C00000230393049305930693079303681B4AF3
:1052D000934205D01A4A93420FD009B05DF804FBFF
:1052E00000230093174B5A6C42F480725A645B6C33
:1052F00003F480730093009BEFE700210191114BB1
:105300005A6C42F480625A645A6C02F480620192D0
:10531000019A02911A6B42F020021A631B6B03F090
:1053200020030293029B4FF48063039303230493AF
:1053300003A90548FCF722FCCFE700BF002001408D
:1053400000220140003802400014024008B50D4818
:105350000D4B03600323436000238360C3604FF45D
:10536000102202614FF40012426103764376837685
:10537000C37603774377FBF795FE00B908BD00F0CD
:10538000E9FBFBE7886800200064004008B50D4891
:105390000D4B03600323436000238360C3604FF41D
:1053A000102202614FF40012426103764376837645
:1053B000C37603774377FBF775FE00B908BD00F0AD
:1053C000C9FBFBE7B06800200068004010B58AB058
:1053D00000230593069307930893099303683D4AB6
:1053E000934204D03C4A934234D00AB010BD3B4AA9
:1053F000136801331360012B1FD000240194384B34
:105400001A6B42F008021A631B6B03F00803019346
:10541000019B032305930222069208930923099313
:1054200005A93048FCF7AAFB224606211420FCF708
:105430007DF91420FCF7B2F9D7E700230093284B3D
:105440001A6C42F000721A641B6C03F00073009334
:10545000009BD2E700230293214B1A6C42F080623A
:105460001A641B6C03F080630293029B1B4A13684F
:1054700001331360012B20D000240494184B1A6BC5
:1054800042F002021A631B6B03F002030493049BB5
:1054900060230593022306930323089309230993AA
:1054A00005A91148FCF76AFB224606214020FCF7BB
:1054B0003DF94020FCF772F997E700230393084B6E
:1054C0001A6C42F000721A641B6C03F000730393B1
:1054D000039BD1E70064004000680040846800201E
:1054E00000380240000C02400004024008B50548A4
:1054F000054B0360FCF774F900B908BD00F02AFB06
:10550000FBE700BFD8680020003002400268094B6A
:105510009A4200D0704782B000230193064B1A6B69
:1055200042F480521A631B6B03F480530193019B76
:1055300002B07047003002400038024010B582B01F
:1055400000240094264B1A6B42F480021A631A6BF3
:1055500002F480020092009A01941A6B42F4001245
:105560001A631B6B03F400130193019B2246052170
:105570000C20FCF7DBF80C20FCF710F92246052183
:105580002F20FCF7D3F82F20FCF708F9224605213D
:105590003920FCF7CBF83920FCF700F92246052129
:1055A0003A20FCF7C3F83A20FCF7F8F82246052128
:1055B0003B20FCF7BBF83B20FCF7F0F82246052126
:1055C0004520FCF7B3F84520FCF7E8F82246052112
:1055D0004620FCF7ABF84620FCF7E0F802B010BD1F
:1055E0000038024008B50120FDF7D8FFFBE708B5F9
:1055F0000120FDF7D3FFFBE7034B0360034B0B6078
:1056000080231360704700BFF06A0020F06800201C
:10561000034B0360034B0B604FF4807313607047C0
:10562000446F0020446B002010B59CB0244C0DF159
:10563000540CA646BEE80F00ACE80F009EE8070039
:105640008CE80700002115A8FDF773FF1D4B1860BB
:105650000DF1380C04F11C0EBEE80F00ACE80F0091
:105660009EE807008CE8070000210EA8FDF761FF07
:10567000154B18600DF11C0C04F1380EBEE80F003C
:10568000ACE80F009EE807008CE80700002107A89F
:10569000FDF74FFF0D4B1860EE4604F1540CBCE8CB
:1056A0000F00AEE80F009CE807008EE8070000211D
:1056B0006846FDF73EFF064B18601CB010BD00BFEA
:1056C000A06D0008E8680020E4680020EC68002075
:1056D000E06800202DE9F04F8FB0002409940A946F
:1056E0000B940C940D9400947C4B1A6B42F00202C4
:1056F0001A631A6B02F002020092009A01941A6B6C
:1057000042F040021A631A6B02F040020192019AC1
:1057100002941A6B42F001021A631A6B02F0010242
:105720000292029A03941A6B42F008021A631A6BEF
:1057300002F008020392039A04941A6B42F00402E6
:105740001A631A6B02F004020492049A05941A6B0D
:1057500042F480721A631A6B02F480720592059A01
:1057600006941A6B42F020021A631A6B02F02002B0
:105770000692069A07941A6B42F080021A631A6B1B
:1057800002F080020792079A08941A6B42F0100206
:105790001A631B6B03F010030893089BDFF84C910E
:1057A000012240214846FCF7D1FA4D4E22464FF4E3
:1057B000C0513046FCF7CAFADFF8348101221021CB
:1057C0004046FCF7C3FA474F012241F20101384637
:1057D000FCF7BCFA802309930A9401250B9509A9CB
:1057E0004148FCF7CBF9402309930A950B950C959A
:1057F00009A94846FCF7C2F94FF4C05309930A952A
:105800000B940C9409A93046FCF7B8F909260996BF
:10581000DFF8E0A0CDF828A00B9509A94846FCF7D1
:10582000ADF9072309930A940B94DFF8CCB009A9CA
:105830005846FCF7A3F909950A940B9509A9404627
:10584000FCF79CF9102309930A950B954FF0020978
:10585000CDF8309009A94046FCF790F93023099320
:10586000CDF828A00B9509A95846FCF787F94FF405
:10587000805309930A950B950C9509A93846FCF7B6
:105880007DF909950A950B95CDF8309009A9384610
:10589000FCF774F9224606210846FBF747FF06206D
:1058A000FBF77CFF224605213046FBF73FFF3046E1
:1058B000FBF774FF224605210A20FBF737FF0A2079
:1058C000FBF76CFF224605211720FBF72FFF17205F
:1058D000FBF764FF0FB0BDE8F08F00BF0038024057
:1058E000001C024000040240002002400018024058
:1058F00000000240000021100008024008B50B48DB
:105900000B4B03600B4B436000238360C3604FF479
:105910008042026143618361C3610362FCF734FA30
:1059200000B908BD00F016F9FBE700BFF86F0020D2
:1059300000540040801A060008B50B480B4B03606A
:105940000B4B436000238360C3604FF480420261CD
:1059500043618361C3610362FCF716FA00B908BDB5
:1059600000F0F8F8FBE700BF4C7000200058004042
:10597000801A060008B50B480B4B03600B4B4360C5
:1059800000238360C3604FF48042026143618361FE
:10599000C3610362FCF7F8F900B908BD00F0DAF85A
:1059A000FBE700BFA0700020005C0040801A0600EA
:1059B0002DE9F0438DB000230793089309930A93D0
:1059C0000B930368594A934209D00446584A9342BC
:1059D0002BD0584A934268D00DB0BDE8F083002523
:1059E0000095554C236B43F002032363236B03F0B4
:1059F00002030093009B4FF4407307931223089314
:105A00000123099303230A9304230B9307A94B480B
:105A1000FCF7B4F80195236C43F400132364236C62
:105A200003F400130193019BD6E700250295424E33
:105A3000336B43F020033363336B03F02003029393
:105A4000029B0323079312220892012209920A93D0
:105A500004230B9307A93A48FCF790F80395336C9D
:105A600043F480033364336C03F480030393039B98
:105A70003448354B03604FF06063436040238360DC
:105A8000C5604FF48063036145618561C5614FF472
:105A9000003303624562FBF71DFF18B9294B6363AE
:105AA0009C6399E700F056F8F8E700250495224C2E
:105AB000236B43F004032363236B03F00403049379
:105AC000049B0595236B43F001032363236B03F0D1
:105AD00001030593059B4FF4007307934FF01209E0
